{
  "abi": [
    {
      "inputs": [
        {
          "internalType": "address",
          "name": "_governance",
          "type": "address"
        },
        {
          "internalType": "address",
          "name": "_messenger",
          "type": "address"
        },
        {
          "internalType": "address",
          "name": "_priceOracleDeployer",
          "type": "address"
        },
        {
          "internalType": "address",
          "name": "_index",
          "type": "address"
        }
      ],
      "stateMutability": "nonpayable",
      "type": "constructor"
    },
    {
      "inputs": [
        {
          "internalType": "uint256",
          "name": "",
          "type": "uint256"
        }
      ],
      "name": "AlreadyRegistered",
      "type": "error"
    },
    {
      "inputs": [],
      "name": "AnatomyHash",
      "type": "error"
    },
    {
      "inputs": [],
      "name": "ChainsHashMismatch",
      "type": "error"
    },
    {
      "inputs": [],
      "name": "ConfigHash",
      "type": "error"
    },
    {
      "inputs": [
        {
          "internalType": "uint256",
          "name": "",
          "type": "uint256"
        }
      ],
      "name": "CurrenciesHashMismatch",
      "type": "error"
    },
    {
      "inputs": [],
      "name": "Forbidden",
      "type": "error"
    },
    {
      "inputs": [],
      "name": "Invalid",
      "type": "error"
    },
    {
      "inputs": [],
      "name": "NotRegistered",
      "type": "error"
    },
    {
      "inputs": [],
      "name": "Overflow",
      "type": "error"
    },
    {
      "inputs": [
        {
          "internalType": "uint256",
          "name": "",
          "type": "uint256"
        }
      ],
      "name": "PendingChains",
      "type": "error"
    },
    {
      "inputs": [],
      "name": "ReserveMissed",
      "type": "error"
    },
    {
      "inputs": [],
      "name": "ResultHash",
      "type": "error"
    },
    {
      "anonymous": false,
      "inputs": [
        {
          "indexed": false,
          "internalType": "bytes",
          "name": "",
          "type": "bytes"
        }
      ],
      "name": "ConfigUpdated",
      "type": "event"
    },
    {
      "anonymous": false,
      "inputs": [
        {
          "indexed": false,
          "internalType": "uint256",
          "name": "chainId",
          "type": "uint256"
        },
        {
          "indexed": false,
          "internalType": "bytes32",
          "name": "currenciesHash",
          "type": "bytes32"
        }
      ],
      "name": "CurrenciesUpdate",
      "type": "event"
    },
    {
      "anonymous": false,
      "inputs": [
        {
          "indexed": false,
          "internalType": "uint256",
          "name": "chainId",
          "type": "uint256"
        },
        {
          "indexed": false,
          "internalType": "Currency",
          "name": "currency",
          "type": "address"
        },
        {
          "indexed": false,
          "internalType": "uint256",
          "name": "currencyId",
          "type": "uint256"
        },
        {
          "indexed": false,
          "internalType": "string",
          "name": "name",
          "type": "string"
        },
        {
          "indexed": false,
          "internalType": "string",
          "name": "symbol",
          "type": "string"
        }
      ],
      "name": "CurrencyRegistered",
      "type": "event"
    },
    {
      "anonymous": false,
      "inputs": [
        {
          "indexed": false,
          "internalType": "uint256",
          "name": "chainIndex",
          "type": "uint256"
        },
        {
          "indexed": false,
          "internalType": "uint256",
          "name": "snapshot",
          "type": "uint256"
        },
        {
          "indexed": false,
          "internalType": "uint256[]",
          "name": "currencyIdSet",
          "type": "uint256[]"
        },
        {
          "indexed": false,
          "internalType": "a160u96[]",
          "name": "currencies",
          "type": "uint256[]"
        }
      ],
      "name": "FinishChainRebalancing",
      "type": "event"
    },
    {
      "anonymous": false,
      "inputs": [
        {
          "indexed": false,
          "internalType": "uint256",
          "name": "chainId",
          "type": "uint256"
        },
        {
          "indexed": false,
          "internalType": "uint256",
          "name": "chainIndex",
          "type": "uint256"
        },
        {
          "indexed": false,
          "internalType": "bytes32",
          "name": "resultHash",
          "type": "bytes32"
        }
      ],
      "name": "ReceiveChainResult",
      "type": "event"
    },
    {
      "anonymous": false,
      "inputs": [
        {
          "indexed": false,
          "internalType": "uint256",
          "name": "chainId",
          "type": "uint256"
        },
        {
          "indexed": false,
          "internalType": "uint256",
          "name": "chainIndex",
          "type": "uint256"
        }
      ],
      "name": "RegisterChain",
      "type": "event"
    },
    {
      "anonymous": false,
      "inputs": [
        {
          "indexed": false,
          "internalType": "uint256[]",
          "name": "pendingChainIdSet",
          "type": "uint256[]"
        }
      ],
      "name": "StartRebalancing",
      "type": "event"
    },
    {
      "inputs": [],
      "name": "anatomyHash",
      "outputs": [
        {
          "internalType": "bytes32",
          "name": "",
          "type": "bytes32"
        }
      ],
      "stateMutability": "view",
      "type": "function"
    },
    {
      "inputs": [
        {
          "internalType": "uint256",
          "name": "chainId",
          "type": "uint256"
        },
        {
          "internalType": "bytes32",
          "name": "resultHash",
          "type": "bytes32"
        }
      ],
      "name": "chainRebalancingFinished",
      "outputs": [],
      "stateMutability": "nonpayable",
      "type": "function"
    },
    {
      "inputs": [],
      "name": "configHash",
      "outputs": [
        {
          "internalType": "bytes32",
          "name": "",
          "type": "bytes32"
        }
      ],
      "stateMutability": "view",
      "type": "function"
    },
    {
      "inputs": [
        {
          "components": [
            {
              "components": [
                {
                  "internalType": "uint256",
                  "name": "AUMDilutionPerSecond",
                  "type": "uint256"
                },
                {
                  "internalType": "bool",
                  "name": "useCustomAUMFee",
                  "type": "bool"
                },
                {
                  "internalType": "address",
                  "name": "metadata",
                  "type": "address"
                }
              ],
              "internalType": "struct IConfigBuilder.SharedConfig",
              "name": "shared",
              "type": "tuple"
            },
            {
              "components": [
                {
                  "internalType": "uint16",
                  "name": "feeBPs",
                  "type": "uint16"
                },
                {
                  "internalType": "bool",
                  "name": "useCustomFeeCallback",
                  "type": "bool"
                }
              ],
              "internalType": "struct IConfigBuilder.DepositConfig",
              "name": "deposit",
              "type": "tuple"
            },
            {
              "components": [
                {
                  "internalType": "address",
                  "name": "forwarder",
                  "type": "address"
                },
                {
                  "internalType": "uint16",
                  "name": "feeBPs",
                  "type": "uint16"
                },
                {
                  "internalType": "bool",
                  "name": "useCustomFeeCallback",
                  "type": "bool"
                }
              ],
              "internalType": "struct IConfigBuilder.RedemptionConfig",
              "name": "redemption",
              "type": "tuple"
            }
          ],
          "internalType": "struct IConfigBuilder.Config",
          "name": "config",
          "type": "tuple"
        }
      ],
      "name": "configs",
      "outputs": [
        {
          "components": [
            {
              "components": [
                {
                  "internalType": "uint256",
                  "name": "latestSnapshot",
                  "type": "uint256"
                },
                {
                  "internalType": "uint256",
                  "name": "AUMDilutionPerSecond",
                  "type": "uint256"
                },
                {
                  "internalType": "bool",
                  "name": "useCustomAUMFee",
                  "type": "bool"
                },
                {
                  "internalType": "address",
                  "name": "staticPriceOracle",
                  "type": "address"
                },
                {
                  "internalType": "address",
                  "name": "metadata",
                  "type": "address"
                }
              ],
              "internalType": "struct IIndex.Config",
              "name": "shared",
              "type": "tuple"
            },
            {
              "internalType": "uint16",
              "name": "feeBPs",
              "type": "uint16"
            },
            {
              "internalType": "bool",
              "name": "useCustomFeeCallback",
              "type": "bool"
            }
          ],
          "internalType": "struct IIndex.DepositConfig",
          "name": "deposit",
          "type": "tuple"
        },
        {
          "components": [
            {
              "components": [
                {
                  "internalType": "uint256",
                  "name": "latestSnapshot",
                  "type": "uint256"
                },
                {
                  "internalType": "uint256",
                  "name": "AUMDilutionPerSecond",
                  "type": "uint256"
                },
                {
                  "internalType": "bool",
                  "name": "useCustomAUMFee",
                  "type": "bool"
                },
                {
                  "internalType": "address",
                  "name": "staticPriceOracle",
                  "type": "address"
                },
                {
                  "internalType": "address",
                  "name": "metadata",
                  "type": "address"
                }
              ],
              "internalType": "struct IIndex.Config",
              "name": "shared",
              "type": "tuple"
            },
            {
              "internalType": "uint16",
              "name": "feeBPs",
              "type": "uint16"
            },
            {
              "internalType": "bool",
              "name": "useCustomFeeCallback",
              "type": "bool"
            },
            {
              "internalType": "address",
              "name": "forwarder",
              "type": "address"
            },
            {
              "internalType": "a160u96[]",
              "name": "homeCurrencies",
              "type": "uint256[]"
            }
          ],
          "internalType": "struct IIndex.RedemptionConfig",
          "name": "redemption",
          "type": "tuple"
        }
      ],
      "stateMutability": "view",
      "type": "function"
    },
    {
      "inputs": [
        {
          "components": [
            {
              "internalType": "uint256",
              "name": "chainId",
              "type": "uint256"
            },
            {
              "components": [
                {
                  "internalType": "string",
                  "name": "name",
                  "type": "string"
                },
                {
                  "internalType": "string",
                  "name": "symbol",
                  "type": "string"
                },
                {
                  "internalType": "Currency",
                  "name": "currency",
                  "type": "address"
                },
                {
                  "internalType": "uint256",
                  "name": "id",
                  "type": "uint256"
                }
              ],
              "internalType": "struct IVault.CurrencyMetadata[]",
              "name": "metadata",
              "type": "tuple[]"
            },
            {
              "internalType": "bytes32",
              "name": "currenciesHash",
              "type": "bytes32"
            }
          ],
          "internalType": "struct IVault.RegisterCurrenciesResult",
          "name": "result",
          "type": "tuple"
        }
      ],
      "name": "currenciesUpdated",
      "outputs": [],
      "stateMutability": "nonpayable",
      "type": "function"
    },
    {
      "inputs": [
        {
          "components": [
            {
              "internalType": "uint256",
              "name": "chainId",
              "type": "uint256"
            },
            {
              "internalType": "uint256",
              "name": "snapshot",
              "type": "uint256"
            },
            {
              "internalType": "uint256[]",
              "name": "currencyIdSet",
              "type": "uint256[]"
            },
            {
              "internalType": "a160u96[]",
              "name": "currencies",
              "type": "uint256[]"
            }
          ],
          "internalType": "struct IVault.RebalancingResult[]",
          "name": "results",
          "type": "tuple[]"
        },
        {
          "components": [
            {
              "components": [
                {
                  "internalType": "uint256",
                  "name": "AUMDilutionPerSecond",
                  "type": "uint256"
                },
                {
                  "internalType": "bool",
                  "name": "useCustomAUMFee",
                  "type": "bool"
                },
                {
                  "internalType": "address",
                  "name": "metadata",
                  "type": "address"
                }
              ],
              "internalType": "struct IConfigBuilder.SharedConfig",
              "name": "shared",
              "type": "tuple"
            },
            {
              "components": [
                {
                  "internalType": "uint16",
                  "name": "feeBPs",
                  "type": "uint16"
                },
                {
                  "internalType": "bool",
                  "name": "useCustomFeeCallback",
                  "type": "bool"
                }
              ],
              "internalType": "struct IConfigBuilder.DepositConfig",
              "name": "deposit",
              "type": "tuple"
            },
            {
              "components": [
                {
                  "internalType": "address",
                  "name": "forwarder",
                  "type": "address"
                },
                {
                  "internalType": "uint16",
                  "name": "feeBPs",
                  "type": "uint16"
                },
                {
                  "internalType": "bool",
                  "name": "useCustomFeeCallback",
                  "type": "bool"
                }
              ],
              "internalType": "struct IConfigBuilder.RedemptionConfig",
              "name": "redemption",
              "type": "tuple"
            }
          ],
          "internalType": "struct IConfigBuilder.Config",
          "name": "config",
          "type": "tuple"
        }
      ],
      "name": "finishRebalancing",
      "outputs": [
        {
          "components": [
            {
              "components": [
                {
                  "internalType": "uint256",
                  "name": "latestSnapshot",
                  "type": "uint256"
                },
                {
                  "internalType": "uint256",
                  "name": "AUMDilutionPerSecond",
                  "type": "uint256"
                },
                {
                  "internalType": "bool",
                  "name": "useCustomAUMFee",
                  "type": "bool"
                },
                {
                  "internalType": "address",
                  "name": "staticPriceOracle",
                  "type": "address"
                },
                {
                  "internalType": "address",
                  "name": "metadata",
                  "type": "address"
                }
              ],
              "internalType": "struct IIndex.Config",
              "name": "shared",
              "type": "tuple"
            },
            {
              "internalType": "uint16",
              "name": "feeBPs",
              "type": "uint16"
            },
            {
              "internalType": "bool",
              "name": "useCustomFeeCallback",
              "type": "bool"
            }
          ],
          "internalType": "struct IIndex.DepositConfig",
          "name": "deposit",
          "type": "tuple"
        },
        {
          "components": [
            {
              "components": [
                {
                  "internalType": "uint256",
                  "name": "latestSnapshot",
                  "type": "uint256"
                },
                {
                  "internalType": "uint256",
                  "name": "AUMDilutionPerSecond",
                  "type": "uint256"
                },
                {
                  "internalType": "bool",
                  "name": "useCustomAUMFee",
                  "type": "bool"
                },
                {
                  "internalType": "address",
                  "name": "staticPriceOracle",
                  "type": "address"
                },
                {
                  "internalType": "address",
                  "name": "metadata",
                  "type": "address"
                }
              ],
              "internalType": "struct IIndex.Config",
              "name": "shared",
              "type": "tuple"
            },
            {
              "internalType": "uint16",
              "name": "feeBPs",
              "type": "uint16"
            },
            {
              "internalType": "bool",
              "name": "useCustomFeeCallback",
              "type": "bool"
            },
            {
              "internalType": "address",
              "name": "forwarder",
              "type": "address"
            },
            {
              "internalType": "a160u96[]",
              "name": "homeCurrencies",
              "type": "uint256[]"
            }
          ],
          "internalType": "struct IIndex.RedemptionConfig",
          "name": "redemption",
          "type": "tuple"
        }
      ],
      "stateMutability": "nonpayable",
      "type": "function"
    },
    {
      "inputs": [],
      "name": "getState",
      "outputs": [
        {
          "components": [
            {
              "internalType": "uint8",
              "name": "pendingChainCount",
              "type": "uint8"
            },
            {
              "internalType": "uint256[]",
              "name": "snapshotChainIndexSet",
              "type": "uint256[]"
            },
            {
              "internalType": "uint256[]",
              "name": "weights",
              "type": "uint256[]"
            },
            {
              "internalType": "uint256[]",
              "name": "chainIdSet",
              "type": "uint256[]"
            },
            {
              "internalType": "bytes32",
              "name": "chainsHash",
              "type": "bytes32"
            },
            {
              "internalType": "uint256",
              "name": "latestSnapshot",
              "type": "uint256"
            },
            {
              "internalType": "address",
              "name": "staticPriceOracle",
              "type": "address"
            },
            {
              "internalType": "a160u96[]",
              "name": "homeCurrencies",
              "type": "uint256[]"
            },
            {
              "components": [
                {
                  "internalType": "bytes32",
                  "name": "currenciesHash",
                  "type": "bytes32"
                },
                {
                  "internalType": "bytes32",
                  "name": "resultHash",
                  "type": "bytes32"
                }
              ],
              "internalType": "struct IConfigMigration.ChainState[]",
              "name": "chainStates",
              "type": "tuple[]"
            },
            {
              "internalType": "Currency",
              "name": "reserve",
              "type": "address"
            }
          ],
          "internalType": "struct IConfigMigration.State",
          "name": "state",
          "type": "tuple"
        }
      ],
      "stateMutability": "view",
      "type": "function"
    },
    {
      "inputs": [],
      "name": "governance",
      "outputs": [
        {
          "internalType": "address",
          "name": "",
          "type": "address"
        }
      ],
      "stateMutability": "view",
      "type": "function"
    },
    {
      "inputs": [],
      "name": "index",
      "outputs": [
        {
          "internalType": "address",
          "name": "",
          "type": "address"
        }
      ],
      "stateMutability": "view",
      "type": "function"
    },
    {
      "inputs": [],
      "name": "messenger",
      "outputs": [
        {
          "internalType": "address",
          "name": "",
          "type": "address"
        }
      ],
      "stateMutability": "view",
      "type": "function"
    },
    {
      "inputs": [
        {
          "internalType": "uint256",
          "name": "chainId",
          "type": "uint256"
        }
      ],
      "name": "registerChain",
      "outputs": [],
      "stateMutability": "nonpayable",
      "type": "function"
    },
    {
      "inputs": [
        {
          "components": [
            {
              "components": [
                {
                  "internalType": "uint256",
                  "name": "AUMDilutionPerSecond",
                  "type": "uint256"
                },
                {
                  "internalType": "bool",
                  "name": "useCustomAUMFee",
                  "type": "bool"
                },
                {
                  "internalType": "address",
                  "name": "metadata",
                  "type": "address"
                }
              ],
              "internalType": "struct IConfigBuilder.SharedConfig",
              "name": "shared",
              "type": "tuple"
            },
            {
              "components": [
                {
                  "internalType": "uint16",
                  "name": "feeBPs",
                  "type": "uint16"
                },
                {
                  "internalType": "bool",
                  "name": "useCustomFeeCallback",
                  "type": "bool"
                }
              ],
              "internalType": "struct IConfigBuilder.DepositConfig",
              "name": "deposit",
              "type": "tuple"
            },
            {
              "components": [
                {
                  "internalType": "address",
                  "name": "forwarder",
                  "type": "address"
                },
                {
                  "internalType": "uint16",
                  "name": "feeBPs",
                  "type": "uint16"
                },
                {
                  "internalType": "bool",
                  "name": "useCustomFeeCallback",
                  "type": "bool"
                }
              ],
              "internalType": "struct IConfigBuilder.RedemptionConfig",
              "name": "redemption",
              "type": "tuple"
            }
          ],
          "internalType": "struct IConfigBuilder.Config",
          "name": "_config",
          "type": "tuple"
        }
      ],
      "name": "setConfig",
      "outputs": [
        {
          "components": [
            {
              "components": [
                {
                  "internalType": "uint256",
                  "name": "latestSnapshot",
                  "type": "uint256"
                },
                {
                  "internalType": "uint256",
                  "name": "AUMDilutionPerSecond",
                  "type": "uint256"
                },
                {
                  "internalType": "bool",
                  "name": "useCustomAUMFee",
                  "type": "bool"
                },
                {
                  "internalType": "address",
                  "name": "staticPriceOracle",
                  "type": "address"
                },
                {
                  "internalType": "address",
                  "name": "metadata",
                  "type": "address"
                }
              ],
              "internalType": "struct IIndex.Config",
              "name": "shared",
              "type": "tuple"
            },
            {
              "internalType": "uint16",
              "name": "feeBPs",
              "type": "uint16"
            },
            {
              "internalType": "bool",
              "name": "useCustomFeeCallback",
              "type": "bool"
            }
          ],
          "internalType": "struct IIndex.DepositConfig",
          "name": "deposit",
          "type": "tuple"
        },
        {
          "components": [
            {
              "components": [
                {
                  "internalType": "uint256",
                  "name": "latestSnapshot",
                  "type": "uint256"
                },
                {
                  "internalType": "uint256",
                  "name": "AUMDilutionPerSecond",
                  "type": "uint256"
                },
                {
                  "internalType": "bool",
                  "name": "useCustomAUMFee",
                  "type": "bool"
                },
                {
                  "internalType": "address",
                  "name": "staticPriceOracle",
                  "type": "address"
                },
                {
                  "internalType": "address",
                  "name": "metadata",
                  "type": "address"
                }
              ],
              "internalType": "struct IIndex.Config",
              "name": "shared",
              "type": "tuple"
            },
            {
              "internalType": "uint16",
              "name": "feeBPs",
              "type": "uint16"
            },
            {
              "internalType": "bool",
              "name": "useCustomFeeCallback",
              "type": "bool"
            },
            {
              "internalType": "address",
              "name": "forwarder",
              "type": "address"
            },
            {
              "internalType": "a160u96[]",
              "name": "homeCurrencies",
              "type": "uint256[]"
            }
          ],
          "internalType": "struct IIndex.RedemptionConfig",
          "name": "redemption",
          "type": "tuple"
        }
      ],
      "stateMutability": "nonpayable",
      "type": "function"
    },
    {
      "inputs": [
        {
          "internalType": "address",
          "name": "_messenger",
          "type": "address"
        }
      ],
      "name": "setMessenger",
      "outputs": [],
      "stateMutability": "nonpayable",
      "type": "function"
    },
    {
      "inputs": [
        {
          "internalType": "address",
          "name": "_priceOracleDeployer",
          "type": "address"
        }
      ],
      "name": "setPriceOracleDeployer",
      "outputs": [],
      "stateMutability": "nonpayable",
      "type": "function"
    },
    {
      "inputs": [
        {
          "components": [
            {
              "internalType": "uint8",
              "name": "pendingChainCount",
              "type": "uint8"
            },
            {
              "internalType": "uint256[]",
              "name": "snapshotChainIndexSet",
              "type": "uint256[]"
            },
            {
              "internalType": "uint256[]",
              "name": "weights",
              "type": "uint256[]"
            },
            {
              "internalType": "uint256[]",
              "name": "chainIdSet",
              "type": "uint256[]"
            },
            {
              "internalType": "bytes32",
              "name": "chainsHash",
              "type": "bytes32"
            },
            {
              "internalType": "uint256",
              "name": "latestSnapshot",
              "type": "uint256"
            },
            {
              "internalType": "address",
              "name": "staticPriceOracle",
              "type": "address"
            },
            {
              "internalType": "a160u96[]",
              "name": "homeCurrencies",
              "type": "uint256[]"
            },
            {
              "components": [
                {
                  "internalType": "bytes32",
                  "name": "currenciesHash",
                  "type": "bytes32"
                },
                {
                  "internalType": "bytes32",
                  "name": "resultHash",
                  "type": "bytes32"
                }
              ],
              "internalType": "struct IConfigMigration.ChainState[]",
              "name": "chainStates",
              "type": "tuple[]"
            },
            {
              "internalType": "Currency",
              "name": "reserve",
              "type": "address"
            }
          ],
          "internalType": "struct IConfigMigration.State",
          "name": "",
          "type": "tuple"
        }
      ],
      "name": "setState",
      "outputs": [],
      "stateMutability": "nonpayable",
      "type": "function"
    },
    {
      "inputs": [
        {
          "components": [
            {
              "components": [
                {
                  "internalType": "uint256[]",
                  "name": "chainIdSet",
                  "type": "uint256[]"
                },
                {
                  "internalType": "uint256[][]",
                  "name": "currencyIdSets",
                  "type": "uint256[][]"
                }
              ],
              "internalType": "struct IConfigBuilder.Anatomy",
              "name": "anatomy",
              "type": "tuple"
            },
            {
              "components": [
                {
                  "internalType": "uint256[]",
                  "name": "chainIdSet",
                  "type": "uint256[]"
                },
                {
                  "internalType": "uint256[][]",
                  "name": "currencyIdSets",
                  "type": "uint256[][]"
                }
              ],
              "internalType": "struct IConfigBuilder.Anatomy",
              "name": "newAnatomy",
              "type": "tuple"
            },
            {
              "internalType": "uint256[]",
              "name": "chainIds",
              "type": "uint256[]"
            },
            {
              "internalType": "Currency[][]",
              "name": "currencies",
              "type": "address[][]"
            },
            {
              "internalType": "uint256[]",
              "name": "newWeights",
              "type": "uint256[]"
            },
            {
              "components": [
                {
                  "internalType": "uint256",
                  "name": "sellDeltasMaxLength",
                  "type": "uint256"
                },
                {
                  "internalType": "uint256",
                  "name": "buyDeltasMaxLength",
                  "type": "uint256"
                },
                {
                  "internalType": "uint256[]",
                  "name": "orderCounts",
                  "type": "uint256[]"
                }
              ],
              "internalType": "struct IConfigBuilder.OrderCreationParams",
              "name": "orderCreationParams",
              "type": "tuple"
            },
            {
              "internalType": "bytes",
              "name": "payload",
              "type": "bytes"
            }
          ],
          "internalType": "struct IConfigBuilder.StartRebalancingParams",
          "name": "params",
          "type": "tuple"
        }
      ],
      "name": "startRebalancing",
      "outputs": [],
      "stateMutability": "payable",
      "type": "function"
    },
    {
      "inputs": [
        {
          "components": [
            {
              "components": [
                {
                  "internalType": "uint256[]",
                  "name": "chainIdSet",
                  "type": "uint256[]"
                },
                {
                  "internalType": "uint256[][]",
                  "name": "currencyIdSets",
                  "type": "uint256[][]"
                }
              ],
              "internalType": "struct IConfigBuilder.Anatomy",
              "name": "anatomy",
              "type": "tuple"
            },
            {
              "internalType": "uint256[]",
              "name": "chainIds",
              "type": "uint256[]"
            },
            {
              "internalType": "Currency[][]",
              "name": "currencies",
              "type": "address[][]"
            }
          ],
          "internalType": "struct IConfigBuilder.StartReserveRebalancingParams",
          "name": "params",
          "type": "tuple"
        }
      ],
      "name": "startReserveRebalancing",
      "outputs": [],
      "stateMutability": "payable",
      "type": "function"
    }
  ],
  "bytecode": {
    "object": "0x60e060409080825234620008e25760808162004cfb803803809162000025828562000935565b833981010312620008e2576200003b8162000959565b60206200004a81840162000959565b6200005785850162000959565b9362000067606080920162000959565b938460805260a05260018060a01b03938460018060a01b03199681600095168886541617855516866005541617600555865191620000a58362000919565b6001908184528584019386368637516001600160401b0394909390858511620008ce576801000000000000000094858111620008ba57600991825482845580831062000890575b50828952898920868a5b8481106200087d575050505050468752600a88528a872054801580156200084857505062000123620009fc565b9084889289915b620007de575b50506200013c620009fc565b908260081c620001618760ff86161b620001578386620009b1565b51179184620009b1565b52815191888311620007ca57878311620007ca578a9082548484558085106200079d575b5001908952898920868a5b8481106200078a575050505050600b548b51898101918252468d8201528285820152848152620001c081620008e7565b519020600b558381018082116200077657468852600a89528b8820556200076257895163669949ef60e11b8152600496959493929188908290899082908d165afa9081156200075857869162000717575b508060c0528a518989820192888452168c82015286838201528281526200023881620008e7565b519020858052600c88528a862055895190620002548262000919565b8282528736818401378a51946200026b8662000919565b8386526200027b8987016200096e565b8b51928c84018481108382111762000704578591620002a5918f528086528b86019889526200098d565b52620002d58c51620002b78162000919565b8581528a3681830137875190620002ce826200098d565b526200098d565b506200030f620002e687516200098d565b5185620002f3826200098d565b511762000300826200098d565b52875190620002ce826200098d565b508b51946200031e8662000919565b848652898601958a36883751918211620006f1578111620006de576003948554828755808310620006b4575b5085885289882085895b848110620006a15750505050508860c051168454156200068e579188959185938d99968952878920558851926200039c88850193898552518b808701526080860190620009c6565b905191603f19858303019085015281518082528882019189808360051b8301019401928b915b8383106200065557505050505082900391620003e7601f199384810183528262000935565b519020600255865192620003fb8462000919565b8084528536818601374662000410856200098d565b5287516200041e8162000919565b8181528681019362000430856200096e565b895190818982549182815201918b52898b20908b5b81811062000629575050509062000464818b9796959493038262000935565b6200046f826200098d565b526200047b816200098d565b50620004a38c60055416968b519b8c9963280db94d60e21b8b528a01526044890190620009c6565b906003198883030160248901525190818152888101898360051b830101959487925b848410620005c657505050505050509083809203925af1928315620005ba57819362000576575b50505016906006541617600655516142a8908162000a5382396080518181816101cf0152818161193c0152612907015260a05181818161010f01528181611420015281816116360152818161183701528181611894015281816118ce01528181611e2201528181611edb0152612dea015260c051818181611bc601528181612a530152613b7e0152f35b9091809350813d8311620005b2575b62000591818362000935565b81010312620005af5750620005a69062000959565b388080620004ec565b80fd5b503d62000585565b508551903d90823e3d90fd5b939750939799509397509382828203018452868c89518180825195868152019101938d905b8082106200060f575050819293509901940194018a97948c9997938b9793620004c5565b9280919492865181520194019201928992938f92620005eb565b928295989a9d509a86999b8793979295975481520194019101908f9b98969391928d9a98959362000445565b929597999c5092959980620006778a9396601f198682030187528951620009c6565b9701930193018f9b98969491938d9a9694620003c2565b634e487b7160e01b875260328852602487fd5b8c84519401938184015501869062000354565b86895285838c8b2092830192015b828110620006d25750506200034a565b8a8155018690620006c2565b634e487b7160e01b875260418852602487fd5b634e487b7160e01b885260418952602488fd5b634e487b7160e01b895260418a52602489fd5b90508781813d831162000750575b62000731818362000935565b810103126200074c57620007459062000959565b3862000211565b8580fd5b503d62000725565b8b513d88823e3d90fd5b634e487b7160e01b86526004839052602486fd5b634e487b7160e01b88526011600452602488fd5b8c84519401938184015501879062000190565b8885848e8781522092830192015b828110620007bb57505062000185565b8d81558e94508a9101620007ab565b634e487b7160e01b8a52604160045260248afd5b90928151841015620008415786620007f78584620009b1565b51808c915b6200082d575090508101809111620008195792860190866200012a565b634e487b7160e01b8a52601160045260248afd5b8992919091019060001981011680620007fc565b9262000130565b8c92506200086c57905163392d9d9d60e21b81526000199091016004820152602490fd5b815163aba4733960e01b8152600490fd5b8c845194019381840155018790620000f6565b838a5286838c8c2092830192015b828110620008ae575050620000ec565b8b81550187906200089e565b634e487b7160e01b88526041600452602488fd5b634e487b7160e01b87526041600452602487fd5b600080fd5b608081019081106001600160401b038211176200090357604052565b634e487b7160e01b600052604160045260246000fd5b604081019081106001600160401b038211176200090357604052565b601f909101601f19168101906001600160401b038211908210176200090357604052565b51906001600160a01b0382168203620008e257565b60005b602081106200097e575050565b60608282015260200162000971565b8051156200099b5760200190565b634e487b7160e01b600052603260045260246000fd5b80518210156200099b5760209160051b010190565b90815180825260208080930193019160005b828110620009e7575050505090565b835185529381019392810192600101620009d8565b604051906009548083528260209182820190600960005283600020936000905b82821062000a375750505062000a359250038362000935565b565b85548452600195860195889550938101939091019062000a1c56fe6103a080604052600436101561001457600080fd5b600061028052610280513560e01c908162e3080e14612e5a57508063099c469414612c685780631865c57d146129565780631cf941f0146129365780632986c0e5146128ef57806330b831f61461275f5780633cb747bf1461273257806340d9f13114611e6757806345cea24e14611dfe57806347056a82146118c35780635aa6e6751461187c5780636628596714611813578063e039925014611605578063e1f1176d146115e5578063f10d8c9714611409578063f771ffe0146113c95763fe46a8be146100e257600080fd5b600319602036820112610361576001600160401b03600435116103615760e09060043536030112610361577f00000000000000000000000000000000000000000000000000000000000000006001600160a01b031633036113b75761014b600480350180613372565b60405161016e816101606020820194856133df565b03601f198101835282613093565b519020600254036113a55761019a610190602460043501600435600401613372565b602081019061347f565b1561138b576101b66101af826101bb9361347f565b36916130cb565b613f7e565b1561137957604051635084aa7f60e11b81527f00000000000000000000000000000000000000000000000000000000000000006001600160a01b0316602082600481845afa918215610fd957610280519261133a575b5090602060049260405193848092637f925f8d60e01b82525afa8015610fd9576102805190611306575b610294925061025460c4600435016004356004016134f9565b6102809491945150610280519460018060a01b0360065416604051808095819463c3d43d7d60e01b8352602060048401526102805196602484019161392b565b039161028051905af18015610fd957610280516101205261028051610320526111d1575b5061028051925b6101205151841015610368576001600160601b036102e0856103205161383d565b511680600019048311810215670de0b6b3a76400000215610361576001916001600160601b03670de0b6b3a76400006103599386020416610324876103205161383d565b526103536001600160601b0361033d886103205161383d565b511661034c886101205161383d565b51906141a5565b906139b9565b9301926102bf565b6102805180fd5b90506001600160601b0361037e61032051613830565b51166001600160601b03831601906001600160601b038211610a12576103d5916001600160601b036103b261032051613830565b911690526103536103c561012051613830565b516001600160601b0385166141a5565b61030052600b54610360526103f460846004350160043560040161347f565b610280519182915b8084106111ad578461ffff8403611193576104276101af610421600480350180613372565b8061347f565b906104426101af610421602460043501600435600401613372565b82518151929190838110156111875761045c9092936138e5565b6102805190925b80821061115857505b845181101561049457806104826001928761383d565b5161048d828661383d565b520161046c565b8284915b83518110156104c057806104ae6001928661383d565b516104b9828561383d565b5201610498565b506104cd6104d291613ffc565b61406a565b610240526104f36104ed60a4600435016004356004016140de565b356141e1565b608052610516602061050f60a4600435016004356004016140de565b01356141e1565b60a052610280516102e08190526102208190526101e08190526102a0526102405151610541906138e5565b610340526102805160e08190526102c0525b61056760446004350160043560040161347f565b90506102c0511015610d9c5761059461058a60446004350160043560040161347f565b6102c05191613af7565b356040516105c38161016060208201946102c0519060e051876040919493926060820195825260208201520152565b51902060e0526105f36105ee6105e0610421600480350180613372565b91906102c0519236916130cb565b613fa3565b610260526106146105ee6105e0610421602460043501600435600401613372565b80610160528015610d92575b610635575b60016102c051016102c052610553565b6106456101e0516102405161383d565b516101405261066161058a60446004350160043560040161347f565b35606061014051015261026051610c98575b610280516101c05261069a6106906004803560648101910161347f565b6101e051916134b4565b60c0526101a05261028051610200525b60c051610200511061072d576102c0516102805152600c60205260406102805120546101c051036106fe57610260516106ee575b60016101e051016101e052610625565b60016102e051016102e0526106de565b602461071761058a60446004350160043560040161347f565b60405163343a4b4960e21b815290356004820152fd5b6107486107436102005160c0516101a051613af7565b613917565b60408051610200516101c051602083019081526001600160a01b039094169282019290925260608101919091526107828160808101610160565b5190206101c052610260516101805261026051610c6b575b610280516101605180610c37575b610bed575b6102805161018051909190610bb8575b80821015610a9f5761085e916107d291613f71565b6107e86107436102005160c0516101a051613af7565b9061080061058a60446004350160043560040161347f565b35906040519261080f8461305c565b6101e051845260018060a01b031660208401526040830152606082015261028051608082015260a05151602060a051019182519261084c84614173565b9052610858838361383d565b5261383d565b505b60206080510151151580610a90575b15610a675761087f60805161425e565b61088a60a05161425e565b604082810180519183015180831015610a5c57506108a88280613f71565b81526108b8826040850151613f71565b60408401525115610a4c575b604082015115610a3c575b606083015190608082600019048211830215811b15610a37576109c39261092392808202831c91600160801b910991860180519290919015150182811015610a2c5761091c908093613f71565b90526141c9565b6020848101519084015160608501516040519290916001600160a01b03908116911661094e84613013565b8352806020840152604083015260608201526001600160601b036040519261097584612ff8565b1682526020820152602061098d85516102405161383d565b5101518451916109a0836103405161383d565b51926109b86109ae85614173565b916103405161383d565b52610858838361383d565b5051905181036109d4575b50610860565b6109e36040916102405161383d565b51016001600160801b038151166001600160801b038114610a12576001016001600160801b03169052816109ce565b634e487b7160e01b61028051526011600452602461028051fd5b5061091c8280613f71565b600080fd5b610a4760a05161424b565b6108cf565b610a5760805161424b565b6108c4565b6108a8908093613f71565b61018051610a80575b60016102005101610200526106aa565b6001610220510161022052610a70565b50602060a0510151151561086f565b808211610aae575b5050610860565b610ab89082613f71565b906001600160601b03610ad1610220516103205161383d565b511682600019048111830215820215610a3757610b7d9183610af49202046141c9565b610b0a6107436102005160c0516101a051613af7565b906001600160601b03610b23610220516101205161383d565b5191169360405192610b348461305c565b6101e051845260018060a01b0316602084015260408301526060820152826080820152608051516020608051015191610b6c83614173565b60206080510152610858838361383d565b50610b9d610b8f610140515151613ffc565b60206101405151015161383d565b52610bb061020051610140515151613fd6565b508180610aa7565b9050610be76001600160601b03610bd5610220516103205161383d565b511661034c610220516101205161383d565b906107bd565b50610c32610c28610c0860846004350160043560040161347f565b610100526102a05190610c1a82614173565b6102a0526101005190613af7565b3561030051614182565b6107ad565b50610c666105ee610c58610690610190602460043501600435600401613372565b9190610200519236916130cb565b6107a8565b610c8f6105ee610c58610c85610190600480350180613372565b6102e051916134b4565b6101805261079a565b610ccf610cc9610cbf610cb560a4600435016004356004016140de565b604081019061347f565b6102e05191613af7565b356140f3565b6101405160200152610cf6610cf16101af610c85610190600480350180613372565b613ffc565b6001600160f81b03811015610d805760ff81018111610d6a57610d1e60ff820160081c6138e5565b90610d28816130b4565b90610d366040519283613093565b808252610d45601f19916130b4565b0136602083013760405191610d5983612ff8565b825260208201526101405152610673565b634e487b7160e01b600052601160045260246000fd5b604051631a93c68960e11b8152600490fd5b5061026051610620565b6103605160e0510361114657610db461024051613830565b515160208101916001600160601b03610dcd8451613830565b5116906001600160601b038116821115611140576001600160601b039150165b6001600160601b03610e17610e11828651941683610e0a86613830565b5116613c17565b92613830565b9116905260019182610e298351613ffc565b149081611123575b50611104575b50610e40613817565b610240515190610280515082610280515b8381106110b35750610e76610cf16101af610421602460043501600435600401613372565b6006805460ff60a01b191660a09290921b60ff60a01b16919091179055610ea56004803560848101910161347f565b906001600160401b03821161100857600160401b821161109d5760085482600855808310611055575b506008610280515282610280515b8381106110225750610eec6138cb565b8051906001600160401b03821161100857602090610f098361352b565b0160076102805152610280515b828110610fe75761028051546001600160a01b0316803b15610361576040519063cc4e4a0160e01b82528161028051918180610f58610240516004830161357c565b039134905af18015610fd957610fc2575b7f81044f202d16881df0f67a22b4560c20aa4acdfc19f27e77c695ff660a7e1135610fa1610421602460043501600435600401613372565b610fb86040519283926020845260208401916133bb565b0390a16102805180f35b610fcb9061302e565b610280516103615780610f69565b6040513d61028051823e3d90fd5b83906020835193019281600080516020614288833981519152015501610f16565b634e487b7160e01b61028051526041600452602461028051fd5b60208335930192817ff3f7a9fe364faab93b216da50a3214154f22a0a2b415b23a84c8169e8b636ee30155018390610edc565b600860005283837ff3f7a9fe364faab93b216da50a3214154f22a0a2b415b23a84c8169e8b636ee392830192015b828110611091575050610ece565b60008155018490611083565b634e487b7160e01b600052604160045260246000fd5b6110cb6110c3826102405161383d565b515151613ffc565b80156110ee5760206110e0836102405161383d565b51510151525b018390610e51565b50826110fd826102405161383d565b51526110e6565b5161111c60011961111483613830565b511691613830565b5281610e37565b6001600160601b0391506111379051613830565b51161583610e31565b50610ded565b6040516307d76b1560e01b8152600490fd5b9390806111676001928861383d565b51611172828661383d565b511761117e828761383d565b52019093610463565b9261045c9092936138e5565b634e487b7160e01b61028051526001600452602461028051fd5b90916111c76001916111c0868587613af7565b35906139b9565b93019291906103fc565b3d8061028051833e6111e38183613093565b6040828281010312610361578151906001600160401b03821161036157808301601f838501011215610361578183015161121c816130b4565b9261122a6040519485613093565b818452602084019083860160208460051b8389010101116103615790602082870101915b60208460051b828901010183106112f257505050506020830151926001600160401b03841161036157818101601f858301011215610361578381015190611294826130b4565b946112a26040519687613093565b82865260208087019360051b828401010193820184116103615701602001905b8282106112da575050506101205261032052386102b8565b602080916112e7846134e5565b8152019101906112c2565b60208080938551815201930192915061124e565b506020823d602011611332575b8161132060209383613093565b8101031261036157610294915161023b565b3d9150611313565b91506020823d602011611371575b8161135560209383613093565b8101031261036157602061136a6004936134e5565b9250610211565b3d9150611348565b6040516301d3aaa360e11b8152600490fd5b634e487b7160e01b61028051526032600452602461028051fd5b60405163299be14b60e11b8152600490fd5b604051631dd2188d60e31b8152600490fd5b3461036157610100366003190112610361576113e3613318565b506113ec61333e565b506113f56139c6565b90611405604051928392836131fa565b0390f35b3461036157602080600319360112610361576004357f00000000000000000000000000000000000000000000000000000000000000006001600160a01b031633036113b757806102805152600a82526040610280512054806115c55750611471610cf16137aa565b906114838261147e6137aa565b613fd6565b8051906001600160401b03821161100857600160401b821161109d5784906009548360095580841061157c575b500160096102805152610280515b82811061154a57505050600b546040516114f281610160868689840196876040919493926060820195825260208201520152565b519020600b556001820191828111610a12577f3b4d001c9cd59f080ac4e5896a05854748d5d89c7a7418fb1382c29a9304850593604093836102805152600a8252846102805120558351928352820152a16102805180f35b81517f6e1540171b6c0c960b71a7020d9f60077f6af931a8bbf590da0223dacf75c7af820155908501906001016114be565b6009600052837f6e1540171b6c0c960b71a7020d9f60077f6af931a8bbf590da0223dacf75c7af91820191015b8181106115b657506114b0565b600081558793506001016115a9565b6115d060249161404b565b6040519063392d9d9d60e21b82526004820152fd5b346103615761028051366003190112610361576020600154604051908152f35b3461036157366003190161010080821261036157611621613318565b5061162a61333e565b506001600160a01b03917f0000000000000000000000000000000000000000000000000000000000000000831633036113b75760606040519161166c83613041565b12610361576040519161167e83613041565b6004358352602435928315158403610a3757602093848201526044358581168103610a375760408201528252604060631936011261036157604051936116c385612ff8565b61ffff906064358281168103610a375786526084358015158103610a37578686015283850195865260603660a3190112610361576040519161170483613041565b60a4358281168103610a3757835260c4358181168103610a37578684015260e435928315158403610a375760409384820152838601908152868451988486838c01995180518b528c8286830151151591015201511660608b0152518381511660808b01520151151560a0890152519182511660c0880152858201511660e08701520151151581850152835261179883613077565b82519020600155604051908082528251928382840152610280515b8481106117ff577f060b3184cebba016b934939f7c049df437e9dfb2f8c056f31a471e11b8fa68a8846040818861028051838284010152601f80199101168101030190a16113f56139c6565b8181018301518482016040015282016117b3565b346103615760203660031901126103615761182c613137565b6001600160a01b03907f0000000000000000000000000000000000000000000000000000000000000000821633036113b757166001600160601b0360a01b60005416176000556102805161028051f35b346103615761028051366003190112610361576040517f00000000000000000000000000000000000000000000000000000000000000006001600160a01b03168152602090f35b6118cc366131c9565b7f00000000000000000000000000000000000000000000000000000000000000006001600160a01b031633036113b7576119068180613372565b60405161191b816101606020820194856133df565b519020600254036113a557604051635084aa7f60e11b8152906020826004817f00000000000000000000000000000000000000000000000000000000000000006001600160a01b03165afa918215610fd9576102805192611dc2575b50600b549061198461373d565b9261199b6104cd610cf16101af6104218680613372565b6103805283516119aa816140f3565b60206119b861038051613830565b510152610280519160001982018210610a12576102805195869081805b6119e2602089018961347f565b9050821015611ca15781611a29611a0682611a0060208d018d61347f565b90613af7565b604080516020810195865291359082015260608101929092528160808101610160565b51902090611a41816105ee6101af6104218c80613372565b611a4f575b600101906119d5565b98611a618a611a0060208b018b61347f565b356060611a71836103805161383d565b51015261028051611a8f82611a8960408c018c61347f565b906134b4565b61028051915b818310611ad3575050508a6102805152600c602052604061028051205403611ac05760010198611a46565b60246107178b611a0060208c018c61347f565b90919283611b14611ae8610743838787613af7565b60408051602081019586526001600160a01b039092169082015260608101929092528160808101610160565b519020928b611b31826105ee6101af89611a896101908780613372565b611b41575b506001019190611a95565b6001600160601b03848d611c388c9f9c8f8f96889f8f611a008f9161074360019d8f978f9e96611baf97611ba4958c936102805150600019018414600014611c735750611b8e9250613c17565b9b5b611b9e61074383838c613af7565b98613af7565b93602081019061347f565b359060405192611bbe84613013565b898060a01b037f0000000000000000000000000000000000000000000000000000000000000000168452898060a01b03166020840152888060a01b03166040830152606082015260405190611c1282612ff8565b868616825260208201526020611c2a61038051613830565b51015190610858838361383d565b5088611c4c575b01169b019790508b611b36565b6040611c5b8a6103805161383d565b51016001600160801b03858183511601169052611c3f565b6001600160601b0390611c969350611c9b94611c8e9161383d565b519116614182565b6141c9565b9b611b90565b8888910361114657611cbc610cf16101af6104218480613372565b6006805460ff60a01b191660a09290921b60ff60a01b16919091179055611ce16138cb565b8051906001600160401b03821161100857602090611cfe8361352b565b0160076102805152610280515b828110611da057610280515484906001600160a01b0316803b15610361576040519063cc4e4a0160e01b82528161028051918180611d4f610380516004830161357c565b039134905af18015610fd9577f81044f202d16881df0f67a22b4560c20aa4acdfc19f27e77c695ff660a7e113592610fa19261042192611d91575b5080613372565b611d9a9061302e565b84611d8a565b6001906020835193019281600080516020614288833981519152015501611d0b565b9091506020813d602011611df6575b81611dde60209383613093565b8101031261036157611def906134e5565b9082611977565b3d9150611dd1565b3461036157602036600319011261036157611e17613137565b6001600160a01b03907f0000000000000000000000000000000000000000000000000000000000000000821633036113b757166001600160601b0360a01b60055416176005556102805161028051f35b3461036157610120366003190112610361576004356001600160401b0381116103615736602382011215610361576001600160401b0381600401351161036157366024826004013560051b830101116103615761010036602319011261036157611ecf613318565b50611ed861333e565b507f00000000000000000000000000000000000000000000000000000000000000006001600160a01b031633036113b75760ff60065460a01c168061271a5750611f206136e0565b8160040135611f2e82613ffc565b0361270857611f3b613817565b90611f446138cb565b6001611f4f82613830565b5117611f5a82613830565b5282526102805190611f6b90613830565b51611f7581613c30565b915b600182841c1661258457505050611f8e8151613ffc565b91611f98836130b4565b611fa56040519182613093565b838152611fc1611fb4856130b4565b601f1901602083016138ae565b6020830152611fcf836138e5565b90612002611ff5611fdf866130b4565b95611fed6040519788613093565b8087526130b4565b601f1901602086016138ae565b610280516120108451613830565b519061201b82613c30565b905b600183831c16612396575050505060018060a01b03600554169060405193849163280db94d60e21b835260448301604060048501528151809152602060648501920190610280515b81811061237d57505050600319838203016024840152815180825260208201916020808360051b83010194019261028051915b83831061234c5786896020828b81808c039161028051905af1918215610fd9576102805192612308575b5060018060a01b0382166001600160601b0360a01b60065416176006556040519060208083015281602061210183516040808501526080840190613161565b920151603f19828403016060830152805180845260208401936020808360051b83010193019461028051915b8383106122d7578886612149818803601f198101835282613093565b6020815191012060025561215b613318565b61216361333e565b9161216c6132ed565b9060405191602435806020850152604435928315158403610361578315156040860152606435926001600160a01b0384168403610361576001600160a01b03841660608701526084359161ffff831683036103615761ffff8316608088015260a4359485151586036103615785151560a089015260c4356001600160a01b0381169003610361576001600160a01b0360c4351660c089015260e43561ffff81169790889003610361578760e08a01526101043598891515809a036103615789610100820152610100815261223f81613077565b60208151910120600154036122c55761ffff9560208501521515604084015260018060a01b03166080830152600454825260018060a01b031660608201528087528752166020850152151560408401526020840152604083015260018060a01b0360c4351660608301526122b161394c565b6080830152611405604051928392836131fa565b60405163979df6d560e01b8152600490fd5b919360019193955060206122f68192601f198682030187528951613161565b9701930193019092869492959361212d565b9091506020813d602011612344575b8161232460209383613093565b8101031261036157516001600160a01b03811681036103615790826120c2565b3d9150612317565b91939550919360208061236b600193601f198682030187528951613195565b97019301930190928895949293612098565b8251845288955060209384019390920191600101612065565b6123ab82856004999799013560248701613866565b356123b6828961383d565b528582858161251257915050600401351561138b576124016123e86123de6024870180613851565b606081019061347f565b906123f9610cb56024890180613851565b929091613b07565b61240f8360208a015161383d565b5261241986613830565b5261242385613830565b518051906001600160401b03821161100857600160401b821161100857600354826003558083106124ce575b5060200160036102805152610280515b82811061249a575050506001806124919260206124826024890160248a01613851565b01356004555b01920183613dcf565b9095939561201d565b60019060208351930192817fc2575a0e9e593c00f959f8c92f12db2869c3395a3b0502d05e2516446f71f85b01550161245f565b7fc2575a0e9e593c00f959f8c92f12db2869c3395a3b0502d05e2516446f71f85b908382015b818301811061250457505061244f565b6102805181556001016124f4565b92612550816020612546600196612539610cb589988b60246124919d600401359101613866565b93909101519236916130cb565b610858838361383d565b506125696101af6123de878a6004013560248c01613866565b612573828a61383d565b5261257e818961383d565b50612488565b61259681866004013560248801613866565b6040516125fa8161016060208201946020865280356040840152602081013560608401526125e86125dd6125cd6040840184613387565b60808088015260c08701916133bb565b916060810190613387565b848303603f190160a08601529061387d565b519020836102805152600d6020526040610280512054036126f657600180826126316123de6126df958a6004013560248c01613866565b90506126e5575b7fac68863fe74a838a167e79c20801539b9e0b777be28a344e602b11c57913d84b81602061266e8260048d013560248e01613866565b01356126d38b6126c56126a36123de612692610cb588866004013560248801613866565b979094602481600401359101613866565b9190926040519687968a885260208801526080604088015260808701916133bb565b91848303606086015261387d565b0390a101930182613dcf565b91611f77565b6126f0868851613fd6565b50612638565b604051637e9c4d5360e11b8152600490fd5b604051636dac6a0960e01b8152600490fd5b6024906040519063822aa2c560e01b82526004820152fd5b3461036157610280513660031901126103615761028051546040516001600160a01b039091168152602090f35b346103615761276d366131c9565b61028051546001600160a01b039190821633036113b75790604082013590823592836102805152602093600a85526127ab604061028051205461404b565b6102805152600c855283604061028051205561028051506102805191858101925b6127d6848361347f565b90508110156128b957807f11d2229bc267f554dc546a629ee74558249b2e632fadf913befaa7f7b5a3c7a088876128b0612827604061282160019861281b8d8c61347f565b90613866565b01613917565b886128a2898c612837818361347f565b94906128478c6060978893613866565b01359561287c6128738d61281b61286b6128658361281b8a8c61347f565b806134f9565b97909861347f565b8b8101906134f9565b9690976040519b8c9b8c9460a09687965216908c015260408b015289015287019161392b565b91848303608086015261392b565b0390a1016127cc565b7fe158022e49de10e0aee8d673e90d8427d889cbe9822d8fa34d7c85c048ce0f61604084888a8351928352820152a16102805180f35b346103615761028051366003190112610361576040517f00000000000000000000000000000000000000000000000000000000000000006001600160a01b03168152602090f35b346103615761028051366003190112610361576020600254604051908152f35b3461036157610280513660031901126103615760405161297581612fdc565b60606020820152606060408201526060808201526102805160808201526102805160a08201526102805160c0820152606060e082015260606101008201526102805161012082015260065460ff8160a01c1682526129d16136e0565b60208301526129de61373d565b60408301526129f96129ee6137aa565b806060850152613ffc565b612a02816130b4565b90612a106040519283613093565b808252612a1f601f19916130b4565b01610280515b818110612c3f57505061010083015260045460a0830152612a4461394c565b60e08301526001600160a01b037f000000000000000000000000000000000000000000000000000000000000000081166101208401521660c0820152600b5460808201526102805190815b60608201518051841015612b335783612aa79161383d565b5191612ab283613c30565b915b600184841c1615612b2457600180612b1e92858860081b176102805152600c602052612b14816040610280512054600d602052604061028051205460405191612afc83612ff8565b8252602082015261010088015190610858838361383d565b5001930184613dcf565b91612ab4565b93909250600191500191612a8f565b826040516020815260ff8251166020820152612bd2612b95612b7f612b6960208601516101406040870152610160860190613161565b6040860151858203601f19016060870152613161565b6060850151848203601f19016080860152613161565b608084015160a084015260a084015160c084015260018060a01b0360c08501511660e084015260e0840151601f1984830301610100850152613195565b9161010081015190601f198385030161012084015260208083519586815201920161028051945b808610612c1d57505061012001516001600160a01b03166101408301528190039150f35b9092602060406001928287518051835201518382015201940195019490612bf9565b602090604051612c4e81612ff8565b610280518152610280518382015282828601015201612a25565b34610361576003196020368201811361036157600435906001600160401b0392838311610361576101409083360301126103615760405192612ca984612fdc565b826004013560ff81168103610361578452602483013581811161036157612cd69060043691860101613119565b82850152604483013581811161036157612cf69060043691860101613119565b6040850152606483013581811161036157612d179060043691860101613119565b60608501526084830135608085015260a483013560a0850152612d3c60c4840161314d565b60c085015260e48301358181116103615783013660238201121561036157612d6e9036906024600482013591016130cb565b60e08501526101048301359081116103615782013660238201121561036157600481013590612d9c826130b4565b92612daa6040519485613093565b82845260248185019360061b8301019136831161036157602401925b828410612e2a5786610120612de561012489896101008601520161314d565b9101527f00000000000000000000000000000000000000000000000000000000000000006001600160a01b031633036113b757604051631dd2188d60e31b8152600490fd5b60408436031261036157816040918251612e4381612ff8565b863581528287013583820152815201930192612dc6565b3461036157604036600319011261036157610280515460043591602435916001600160a01b03163303612fcd575060065460ff8160a01c168015610a125760ff60a01b906000190160a01b169060ff60a01b1916176006558161028051526020600a8152612ece604061028051205461404b565b906040518281836007549182815201906007610280515260008051602061428883398151915290610280515b86828210612fb657505050509161147e81612f16940382613093565b8051906001600160401b038211611008578290612f328361352b565b0160076102805152610280515b828110612f96577f01c1e670951de770f51e0060ca60396603088d871ccbf4565f8b8e7b729aeff4606088888888816102805152600d81528260406102805120556040519384528301526040820152a16102805180f35b815160008051602061428883398151915282015590830190600101612f3f565b835485528895509093019260019283019201612efa565b631dd2188d60e31b8152600490fd5b61014081019081106001600160401b0382111761109d57604052565b604081019081106001600160401b0382111761109d57604052565b608081019081106001600160401b0382111761109d57604052565b6001600160401b03811161109d57604052565b606081019081106001600160401b0382111761109d57604052565b60a081019081106001600160401b0382111761109d57604052565b61012081019081106001600160401b0382111761109d57604052565b90601f801991011681019081106001600160401b0382111761109d57604052565b6001600160401b03811161109d5760051b60200190565b92916130d6826130b4565b916130e46040519384613093565b829481845260208094019160051b8101928311610a3757905b82821061310a5750505050565b813581529083019083016130fd565b9080601f83011215610a3757816020613134933591016130cb565b90565b600435906001600160a01b0382168203610a3757565b35906001600160a01b0382168203610a3757565b90815180825260208080930193019160005b828110613181575050505090565b835185529381019392810192600101613173565b90815180825260208080930193019160005b8281106131b5575050505090565b8351855293810193928101926001016131a7565b60031990602081830112610a3757600435916001600160401b038311610a375782606092030112610a375760040190565b90608061313493610220926132ad61010061324c87845160809080518352602081015160208401526040810151151560408401528160608201519160018060a01b038093166060860152015116910152565b604060208401519361ffff80951660a08a01520151151560c08801528060e08801528601835160809080518352602081015160208401526040810151151560408401528160608201519160018060a01b038093166060860152015116910152565b6020820151166101a0850152604081015115156101c085015260608101516001600160a01b03166101e08501520151610120610200840152910190613195565b604051906132fa8261305c565b60006080838281528260208201528260408201528260608201520152565b6040519061332582613041565b60006040836133326132ed565b81528260208201520152565b6040519061334b8261305c565b60606080836133586132ed565b815260006020820152600060408201526000838201520152565b903590603e1981360301821215610a37570190565b9035601e1982360301811215610a375701602081359101916001600160401b038211610a37578160051b36038313610a3757565b81835290916001600160fb1b038311610a375760209260051b809284830137010190565b602080825261340e6134046133f48580613387565b60408587015260608601916133bb565b9382810190613387565b919093601f199360408582840301910152828152818101828460051b8301019580956000935b86851061344657505050505050505090565b9091929394959697868061346d838686600196030189526134678d89613387565b906133bb565b9a019501950193969594929190613434565b903590601e1981360301821215610a3757018035906001600160401b038211610a3757602001918160051b36038313610a3757565b908210156134cf576134cb9160051b81019061347f565b9091565b634e487b7160e01b600052603260045260246000fd5b51906001600160601b0382168203610a3757565b903590601e1981360301821215610a3757018035906001600160401b038211610a3757602001918136038313610a3757565b600160401b811161109d576007549080600755818110613549575050565b6000906007825260008051602061428883398151915292830192015b82811061357157505050565b818155600101613565565b602080820190808352835180925260409283810182858560051b8401019601946000925b8584106135b1575050505050505090565b90919293949596603f19828203018452858851608090805191808552836135e28451898489015260c0880190613161565b9301519260a090607f1987820301828801528580865192838152019501906000905b8082106136bd575050508483015193868103868801528580865192838152019501926000925b8284106136665750505050868201516001600160801b0316878601525060609081015193019290925290978101969594600101930191906135a0565b845180516001600160601b0316885288015180516001600160a01b03908116898b0152818a015181168d8a0152818d0151166060808a01919091520151878301528d9796810196909401936001939093019261362a565b82516001600160601b031687528d97968701969092019160019190910190613604565b6040519060075480835282602091828201906007600052600080516020614288833981519152936000905b8282106137235750505061372192500383613093565b565b85548452600195860195889550938101939091019061370b565b60405190600854808352826020918282019060086000527ff3f7a9fe364faab93b216da50a3214154f22a0a2b415b23a84c8169e8b636ee3936000905b8282106137905750505061372192500383613093565b85548452600195860195889550938101939091019061377a565b60405190600954808352826020918282019060096000527f6e1540171b6c0c960b71a7020d9f60077f6af931a8bbf590da0223dacf75c7af936000905b8282106137fd5750505061372192500383613093565b8554845260019586019588955093810193909101906137e7565b6040519061382482612ff8565b60606020838281520152565b8051156134cf5760200190565b80518210156134cf5760209160051b010190565b903590607e1981360301821215610a37570190565b908210156134cf576131349160051b810190613851565b91908082526020809201929160005b82811061389a575050505090565b83358552938101939281019260010161388c565b60005b8281106138bd57505050565b6060828201526020016138b1565b604051906138d882612ff8565b6001825260203681840137565b906138ef826130b4565b6138fc6040519182613093565b828152809261390d601f19916130b4565b0190602036910137565b356001600160a01b0381168103610a375790565b908060209392818452848401376000828201840152601f01601f1916010190565b60405190600354808352826020918282019060036000527fc2575a0e9e593c00f959f8c92f12db2869c3395a3b0502d05e2516446f71f85b936000905b82821061399f5750505061372192500383613093565b855484526001958601958895509381019390910190613989565b91908201809211610d6a57565b6139ce613318565b906139d761333e565b906139e06132ed565b6040805190602082019260043580855260243591821515809303610a37578385018390526044356001600160a01b038181169291839003610a37578260608801526064359261ffff95868516809503610a37578460808a015260843595861515809703610a37578660a08b015260a4359a848c16809c03610a37578b60c08c015260c435988916809903610a37578860e08c015260e4359a8b1515809c03610a37576101008c818301528152613a9581613077565b51902060015403613ae65760208501528784015260808301526004548252600654166060820152808a52885260208901528288015260208601528401526060830152613adf61394c565b6080830152565b885163979df6d560e01b8152600490fd5b91908110156134cf5760051b0190565b9293919093613b1a6101b63683856130cb565b613bfe5790613b2a9136916130cb565b91600180613b3785613830565b5117613b4285613830565b52613b4c84613ffc565b613b55816130b4565b90613b636040519283613093565b808252613b72601f19916130b4565b013660208301379485907f00000000000000000000000000000000000000000000000000000000000000006001600160a01b0316613baf83613830565b52600090815b818110613bc457505050505050565b613bcf818388613af7565b35858201809211613bea57613be4828661383d565b52613bb5565b634e487b7160e01b84526011600452602484fd5b936131349293613c0f9136916130cb565b9336916130cb565b6001600160601b039182169082160391908211610d6a57565b8015613dc85760078116908115613c6f575080600214613c695780600414613c6357600614613c5e57600090565b600190565b50600290565b50600190565b80915060008215613dc5575060ff916001600160801b038116151580600114613db85715613dad575b506001600160401b038116151580600114613da15715613d99575b63ffffffff8116151580600114613d8d5715613d85575b61ffff8116151580600114613d795715613d71575b60ff8116151580600114613d655715613d5d575b600f8116151580600114613d515715613d49575b60038116151580600114613d3b576001919015613d33575b161515600114613d2c5790565b6000190190565b60021c613d1f565b509060019081190191613d1f565b60041c613d07565b50906003190190613d07565b60081c613cf3565b50906007190190613cf3565b60101c613cdf565b5090600f190190613cdf565b60201c613cca565b5090601f190190613cca565b60401c613cb3565b5090603f190190613cb3565b905060801c38613c98565b50509050607f9038613c98565b80fd5b5061010090565b811c8015613f695760078116908115613e11575080600214613e0a5780600414613e0357600614613dfd5790565b60011790565b5060021790565b5060011790565b80915060008215613dc5575060ff916001600160801b038116151580600114613f5c5715613f51575b506001600160401b038116151580600114613f455715613f3d575b63ffffffff8116151580600114613f315715613f29575b61ffff8116151580600114613f1d5715613f15575b60ff8116151580600114613f095715613f01575b600f8116151580600114613ef55715613eed575b60038116151580600114613edf576001919015613ed7575b161515600114613ecf570190565b600019010190565b60021c613ec1565b509060019081190191613ec1565b60041c613ea9565b50906003190190613ea9565b60081c613e95565b50906007190190613e95565b60101c613e81565b5090600f190190613e81565b60201c613e6c565b5090601f190190613e6c565b60401c613e55565b5090603f190190613e55565b905060801c38613e3a565b50509050607f9038613e3a565b505061010090565b91908203918211610d6a57565b906000918051158015613f8f575050565b909192506134cf5760200151600116151590565b91906000928160081c9080518210613fba57505050565b60019293945060ff91613fcc9161383d565b5192161b16151590565b90613ff8600160ff8360081c93161b613fef838561383d565b5117918361383d565b5290565b600091908290815b81518510156140455760019061401a868461383d565b518085915b614035575061402d916139b9565b940193614004565b908301906000198101168061401f565b93505050565b8015614058576000190190565b60405163aba4733960e01b8152600490fd5b90614074826130b4565b60409061408382519182613093565b8381528093614094601f19916130b4565b0191600091825b8481106140a9575050505050565b60209083516140b781613013565b6140bf613817565b815260608684918083850152818885015283015282850101520161409b565b903590605e1981360301821215610a37570190565b906140fd826130b4565b60409061410c82519182613093565b838152809361411d601f19916130b4565b019160005b83811061412f5750505050565b602090825161413d81612ff8565b6000815282845161414d81613013565b600081526000828201526000868201526000606082015281830152828601015201614122565b6000198114610d6a5760010190565b9061ffff9181600019048111820215830215610a37570290808204910615150190565b6001600160801b03811160801b15820215610a375760801b90808204910615150190565b600160601b811015610a37576001600160601b031690565b90604051916141ef83612ff8565b606083526020926000848201528093614207836130b4565b926142156040519485613093565b808452614224601f19916130b4565b0160005b8181106142355750505052565b829061423f6132ed565b82828801015201614228565b60200180518015610d6a57600019019052565b6142666132ed565b50602081519101516000198101908111610d6a576142839161383d565b519056fea66cc928b5edb82af9bd49922954155ab7b0942694bea4ce44661d9a8736c688",
    "linkReferences": {}
  },
  "methodIdentifiers": {
    "anatomyHash()": "1cf941f0",
    "chainRebalancingFinished(uint256,bytes32)": "00e3080e",
    "configHash()": "e1f1176d",
    "configs(((uint256,bool,address),(uint16,bool),(address,uint16,bool)))": "f771ffe0",
    "currenciesUpdated((uint256,(string,string,address,uint256)[],bytes32))": "30b831f6",
    "finishRebalancing((uint256,uint256,uint256[],uint256[])[],((uint256,bool,address),(uint16,bool),(address,uint16,bool)))": "40d9f131",
    "getState()": "1865c57d",
    "governance()": "5aa6e675",
    "index()": "2986c0e5",
    "messenger()": "3cb747bf",
    "registerChain(uint256)": "f10d8c97",
    "setConfig(((uint256,bool,address),(uint16,bool),(address,uint16,bool)))": "e0399250",
    "setMessenger(address)": "66285967",
    "setPriceOracleDeployer(address)": "45cea24e",
    "setState((uint8,uint256[],uint256[],uint256[],bytes32,uint256,address,uint256[],(bytes32,bytes32)[],address))": "099c4694",
    "startRebalancing(((uint256[],uint256[][]),(uint256[],uint256[][]),uint256[],address[][],uint256[],(uint256,uint256,uint256[]),bytes))": "fe46a8be",
    "startReserveRebalancing(((uint256[],uint256[][]),uint256[],address[][]))": "47056a82"
  },
  "id": 51
}