{
  "abi": [
    {
      "inputs": [
        {
          "internalType": "address",
          "name": "_governance",
          "type": "address"
        },
        {
          "internalType": "address",
          "name": "_messenger",
          "type": "address"
        },
        {
          "internalType": "address",
          "name": "_priceOracleDeployer",
          "type": "address"
        },
        {
          "internalType": "address",
          "name": "_index",
          "type": "address"
        }
      ],
      "stateMutability": "nonpayable",
      "type": "constructor"
    },
    {
      "inputs": [
        {
          "internalType": "uint256",
          "name": "",
          "type": "uint256"
        }
      ],
      "name": "AlreadyRegistered",
      "type": "error"
    },
    {
      "inputs": [],
      "name": "AnatomyHash",
      "type": "error"
    },
    {
      "inputs": [],
      "name": "ChainsHashMismatch",
      "type": "error"
    },
    {
      "inputs": [],
      "name": "ConfigHash",
      "type": "error"
    },
    {
      "inputs": [
        {
          "internalType": "uint256",
          "name": "",
          "type": "uint256"
        }
      ],
      "name": "CurrenciesHashMismatch",
      "type": "error"
    },
    {
      "inputs": [],
      "name": "Forbidden",
      "type": "error"
    },
    {
      "inputs": [],
      "name": "Invalid",
      "type": "error"
    },
    {
      "inputs": [],
      "name": "NotRegistered",
      "type": "error"
    },
    {
      "inputs": [],
      "name": "Overflow",
      "type": "error"
    },
    {
      "inputs": [
        {
          "internalType": "uint256",
          "name": "",
          "type": "uint256"
        }
      ],
      "name": "PendingChains",
      "type": "error"
    },
    {
      "inputs": [],
      "name": "ReserveMissed",
      "type": "error"
    },
    {
      "inputs": [],
      "name": "ResultHash",
      "type": "error"
    },
    {
      "inputs": [],
      "name": "TotalWeight",
      "type": "error"
    },
    {
      "inputs": [],
      "name": "UnutilizedWeights",
      "type": "error"
    },
    {
      "anonymous": false,
      "inputs": [
        {
          "indexed": false,
          "internalType": "bytes",
          "name": "",
          "type": "bytes"
        }
      ],
      "name": "ConfigUpdated",
      "type": "event"
    },
    {
      "anonymous": false,
      "inputs": [
        {
          "indexed": false,
          "internalType": "uint256",
          "name": "chainId",
          "type": "uint256"
        },
        {
          "indexed": false,
          "internalType": "bytes32",
          "name": "currenciesHash",
          "type": "bytes32"
        }
      ],
      "name": "CurrenciesUpdate",
      "type": "event"
    },
    {
      "anonymous": false,
      "inputs": [
        {
          "indexed": false,
          "internalType": "uint256",
          "name": "chainId",
          "type": "uint256"
        },
        {
          "indexed": false,
          "internalType": "Currency",
          "name": "currency",
          "type": "address"
        },
        {
          "indexed": false,
          "internalType": "uint256",
          "name": "currencyId",
          "type": "uint256"
        },
        {
          "indexed": false,
          "internalType": "string",
          "name": "name",
          "type": "string"
        },
        {
          "indexed": false,
          "internalType": "string",
          "name": "symbol",
          "type": "string"
        },
        {
          "indexed": false,
          "internalType": "uint8",
          "name": "decimals",
          "type": "uint8"
        }
      ],
      "name": "CurrencyRegistered",
      "type": "event"
    },
    {
      "anonymous": false,
      "inputs": [
        {
          "indexed": false,
          "internalType": "uint256",
          "name": "chainId",
          "type": "uint256"
        },
        {
          "indexed": false,
          "internalType": "uint256",
          "name": "snapshot",
          "type": "uint256"
        },
        {
          "indexed": false,
          "internalType": "uint256[]",
          "name": "currencyIdSet",
          "type": "uint256[]"
        },
        {
          "indexed": false,
          "internalType": "a160u96[]",
          "name": "currencies",
          "type": "uint256[]"
        }
      ],
      "name": "FinishChainRebalancing",
      "type": "event"
    },
    {
      "anonymous": false,
      "inputs": [
        {
          "indexed": false,
          "internalType": "uint256",
          "name": "snapshot",
          "type": "uint256"
        },
        {
          "components": [
            {
              "internalType": "uint256[]",
              "name": "chainIdSet",
              "type": "uint256[]"
            },
            {
              "internalType": "uint256[][]",
              "name": "currencyIdSets",
              "type": "uint256[][]"
            }
          ],
          "indexed": false,
          "internalType": "struct IConfigBuilder.Anatomy",
          "name": "newAnatomy",
          "type": "tuple"
        },
        {
          "indexed": false,
          "internalType": "uint256[]",
          "name": "weights",
          "type": "uint256[]"
        }
      ],
      "name": "FinishRebalancing",
      "type": "event"
    },
    {
      "anonymous": false,
      "inputs": [
        {
          "indexed": false,
          "internalType": "uint256",
          "name": "chainId",
          "type": "uint256"
        },
        {
          "indexed": false,
          "internalType": "uint256",
          "name": "chainIndex",
          "type": "uint256"
        },
        {
          "indexed": false,
          "internalType": "bytes32",
          "name": "resultHash",
          "type": "bytes32"
        }
      ],
      "name": "ReceiveChainResult",
      "type": "event"
    },
    {
      "anonymous": false,
      "inputs": [
        {
          "indexed": false,
          "internalType": "uint256",
          "name": "chainId",
          "type": "uint256"
        },
        {
          "indexed": false,
          "internalType": "uint256",
          "name": "chainIndex",
          "type": "uint256"
        }
      ],
      "name": "RegisterChain",
      "type": "event"
    },
    {
      "anonymous": false,
      "inputs": [
        {
          "indexed": false,
          "internalType": "uint256[]",
          "name": "pendingChainIdSet",
          "type": "uint256[]"
        }
      ],
      "name": "StartRebalancing",
      "type": "event"
    },
    {
      "inputs": [],
      "name": "anatomyHash",
      "outputs": [
        {
          "internalType": "bytes32",
          "name": "",
          "type": "bytes32"
        }
      ],
      "stateMutability": "view",
      "type": "function"
    },
    {
      "inputs": [
        {
          "internalType": "uint256",
          "name": "chainId",
          "type": "uint256"
        },
        {
          "internalType": "bytes32",
          "name": "resultHash",
          "type": "bytes32"
        }
      ],
      "name": "chainRebalancingFinished",
      "outputs": [],
      "stateMutability": "nonpayable",
      "type": "function"
    },
    {
      "inputs": [],
      "name": "configHash",
      "outputs": [
        {
          "internalType": "bytes32",
          "name": "",
          "type": "bytes32"
        }
      ],
      "stateMutability": "view",
      "type": "function"
    },
    {
      "inputs": [
        {
          "components": [
            {
              "components": [
                {
                  "internalType": "uint256",
                  "name": "AUMDilutionPerSecond",
                  "type": "uint256"
                },
                {
                  "internalType": "bool",
                  "name": "useCustomAUMFee",
                  "type": "bool"
                },
                {
                  "internalType": "address",
                  "name": "metadata",
                  "type": "address"
                }
              ],
              "internalType": "struct IConfigBuilder.SharedConfig",
              "name": "shared",
              "type": "tuple"
            },
            {
              "components": [
                {
                  "internalType": "uint16",
                  "name": "feeBPs",
                  "type": "uint16"
                },
                {
                  "internalType": "bool",
                  "name": "useCustomFeeCallback",
                  "type": "bool"
                }
              ],
              "internalType": "struct IConfigBuilder.DepositConfig",
              "name": "deposit",
              "type": "tuple"
            },
            {
              "components": [
                {
                  "internalType": "address",
                  "name": "forwarder",
                  "type": "address"
                },
                {
                  "internalType": "uint16",
                  "name": "feeBPs",
                  "type": "uint16"
                },
                {
                  "internalType": "bool",
                  "name": "useCustomFeeCallback",
                  "type": "bool"
                }
              ],
              "internalType": "struct IConfigBuilder.RedemptionConfig",
              "name": "redemption",
              "type": "tuple"
            }
          ],
          "internalType": "struct IConfigBuilder.Config",
          "name": "config",
          "type": "tuple"
        }
      ],
      "name": "configs",
      "outputs": [
        {
          "components": [
            {
              "components": [
                {
                  "internalType": "uint256",
                  "name": "latestSnapshot",
                  "type": "uint256"
                },
                {
                  "internalType": "uint256",
                  "name": "AUMDilutionPerSecond",
                  "type": "uint256"
                },
                {
                  "internalType": "bool",
                  "name": "useCustomAUMFee",
                  "type": "bool"
                },
                {
                  "internalType": "address",
                  "name": "staticPriceOracle",
                  "type": "address"
                },
                {
                  "internalType": "address",
                  "name": "metadata",
                  "type": "address"
                }
              ],
              "internalType": "struct IIndex.Config",
              "name": "shared",
              "type": "tuple"
            },
            {
              "internalType": "uint16",
              "name": "feeBPs",
              "type": "uint16"
            },
            {
              "internalType": "bool",
              "name": "useCustomFeeCallback",
              "type": "bool"
            }
          ],
          "internalType": "struct IIndex.DepositConfig",
          "name": "deposit",
          "type": "tuple"
        },
        {
          "components": [
            {
              "components": [
                {
                  "internalType": "uint256",
                  "name": "latestSnapshot",
                  "type": "uint256"
                },
                {
                  "internalType": "uint256",
                  "name": "AUMDilutionPerSecond",
                  "type": "uint256"
                },
                {
                  "internalType": "bool",
                  "name": "useCustomAUMFee",
                  "type": "bool"
                },
                {
                  "internalType": "address",
                  "name": "staticPriceOracle",
                  "type": "address"
                },
                {
                  "internalType": "address",
                  "name": "metadata",
                  "type": "address"
                }
              ],
              "internalType": "struct IIndex.Config",
              "name": "shared",
              "type": "tuple"
            },
            {
              "internalType": "uint16",
              "name": "feeBPs",
              "type": "uint16"
            },
            {
              "internalType": "bool",
              "name": "useCustomFeeCallback",
              "type": "bool"
            },
            {
              "internalType": "address",
              "name": "forwarder",
              "type": "address"
            },
            {
              "internalType": "a160u96[]",
              "name": "homeCurrencies",
              "type": "uint256[]"
            }
          ],
          "internalType": "struct IIndex.RedemptionConfig",
          "name": "redemption",
          "type": "tuple"
        }
      ],
      "stateMutability": "view",
      "type": "function"
    },
    {
      "inputs": [
        {
          "components": [
            {
              "internalType": "uint256",
              "name": "chainId",
              "type": "uint256"
            },
            {
              "components": [
                {
                  "internalType": "string",
                  "name": "name",
                  "type": "string"
                },
                {
                  "internalType": "string",
                  "name": "symbol",
                  "type": "string"
                },
                {
                  "internalType": "uint8",
                  "name": "decimals",
                  "type": "uint8"
                },
                {
                  "internalType": "Currency",
                  "name": "currency",
                  "type": "address"
                },
                {
                  "internalType": "uint256",
                  "name": "id",
                  "type": "uint256"
                }
              ],
              "internalType": "struct IVault.CurrencyMetadata[]",
              "name": "metadata",
              "type": "tuple[]"
            },
            {
              "internalType": "bytes32",
              "name": "currenciesHash",
              "type": "bytes32"
            }
          ],
          "internalType": "struct IVault.RegisterCurrenciesResult",
          "name": "result",
          "type": "tuple"
        }
      ],
      "name": "currenciesUpdated",
      "outputs": [],
      "stateMutability": "nonpayable",
      "type": "function"
    },
    {
      "inputs": [
        {
          "components": [
            {
              "internalType": "uint256",
              "name": "chainId",
              "type": "uint256"
            },
            {
              "internalType": "uint256",
              "name": "snapshot",
              "type": "uint256"
            },
            {
              "internalType": "uint256[]",
              "name": "currencyIdSet",
              "type": "uint256[]"
            },
            {
              "internalType": "a160u96[]",
              "name": "currencies",
              "type": "uint256[]"
            }
          ],
          "internalType": "struct IVault.RebalancingResult[]",
          "name": "results",
          "type": "tuple[]"
        },
        {
          "components": [
            {
              "components": [
                {
                  "internalType": "uint256",
                  "name": "AUMDilutionPerSecond",
                  "type": "uint256"
                },
                {
                  "internalType": "bool",
                  "name": "useCustomAUMFee",
                  "type": "bool"
                },
                {
                  "internalType": "address",
                  "name": "metadata",
                  "type": "address"
                }
              ],
              "internalType": "struct IConfigBuilder.SharedConfig",
              "name": "shared",
              "type": "tuple"
            },
            {
              "components": [
                {
                  "internalType": "uint16",
                  "name": "feeBPs",
                  "type": "uint16"
                },
                {
                  "internalType": "bool",
                  "name": "useCustomFeeCallback",
                  "type": "bool"
                }
              ],
              "internalType": "struct IConfigBuilder.DepositConfig",
              "name": "deposit",
              "type": "tuple"
            },
            {
              "components": [
                {
                  "internalType": "address",
                  "name": "forwarder",
                  "type": "address"
                },
                {
                  "internalType": "uint16",
                  "name": "feeBPs",
                  "type": "uint16"
                },
                {
                  "internalType": "bool",
                  "name": "useCustomFeeCallback",
                  "type": "bool"
                }
              ],
              "internalType": "struct IConfigBuilder.RedemptionConfig",
              "name": "redemption",
              "type": "tuple"
            }
          ],
          "internalType": "struct IConfigBuilder.Config",
          "name": "config",
          "type": "tuple"
        }
      ],
      "name": "finishRebalancing",
      "outputs": [
        {
          "components": [
            {
              "components": [
                {
                  "internalType": "uint256",
                  "name": "latestSnapshot",
                  "type": "uint256"
                },
                {
                  "internalType": "uint256",
                  "name": "AUMDilutionPerSecond",
                  "type": "uint256"
                },
                {
                  "internalType": "bool",
                  "name": "useCustomAUMFee",
                  "type": "bool"
                },
                {
                  "internalType": "address",
                  "name": "staticPriceOracle",
                  "type": "address"
                },
                {
                  "internalType": "address",
                  "name": "metadata",
                  "type": "address"
                }
              ],
              "internalType": "struct IIndex.Config",
              "name": "shared",
              "type": "tuple"
            },
            {
              "internalType": "uint16",
              "name": "feeBPs",
              "type": "uint16"
            },
            {
              "internalType": "bool",
              "name": "useCustomFeeCallback",
              "type": "bool"
            }
          ],
          "internalType": "struct IIndex.DepositConfig",
          "name": "",
          "type": "tuple"
        },
        {
          "components": [
            {
              "components": [
                {
                  "internalType": "uint256",
                  "name": "latestSnapshot",
                  "type": "uint256"
                },
                {
                  "internalType": "uint256",
                  "name": "AUMDilutionPerSecond",
                  "type": "uint256"
                },
                {
                  "internalType": "bool",
                  "name": "useCustomAUMFee",
                  "type": "bool"
                },
                {
                  "internalType": "address",
                  "name": "staticPriceOracle",
                  "type": "address"
                },
                {
                  "internalType": "address",
                  "name": "metadata",
                  "type": "address"
                }
              ],
              "internalType": "struct IIndex.Config",
              "name": "shared",
              "type": "tuple"
            },
            {
              "internalType": "uint16",
              "name": "feeBPs",
              "type": "uint16"
            },
            {
              "internalType": "bool",
              "name": "useCustomFeeCallback",
              "type": "bool"
            },
            {
              "internalType": "address",
              "name": "forwarder",
              "type": "address"
            },
            {
              "internalType": "a160u96[]",
              "name": "homeCurrencies",
              "type": "uint256[]"
            }
          ],
          "internalType": "struct IIndex.RedemptionConfig",
          "name": "",
          "type": "tuple"
        }
      ],
      "stateMutability": "nonpayable",
      "type": "function"
    },
    {
      "inputs": [],
      "name": "getState",
      "outputs": [
        {
          "components": [
            {
              "internalType": "uint8",
              "name": "pendingChainCount",
              "type": "uint8"
            },
            {
              "internalType": "uint256[]",
              "name": "snapshotChainIndexSet",
              "type": "uint256[]"
            },
            {
              "internalType": "uint256[]",
              "name": "weights",
              "type": "uint256[]"
            },
            {
              "internalType": "uint256[]",
              "name": "chainIdSet",
              "type": "uint256[]"
            },
            {
              "internalType": "bytes32",
              "name": "chainsHash",
              "type": "bytes32"
            },
            {
              "internalType": "uint256",
              "name": "latestSnapshot",
              "type": "uint256"
            },
            {
              "internalType": "address",
              "name": "staticPriceOracle",
              "type": "address"
            },
            {
              "internalType": "a160u96[]",
              "name": "homeCurrencies",
              "type": "uint256[]"
            },
            {
              "components": [
                {
                  "internalType": "bytes32",
                  "name": "currenciesHash",
                  "type": "bytes32"
                },
                {
                  "internalType": "bytes32",
                  "name": "resultHash",
                  "type": "bytes32"
                }
              ],
              "internalType": "struct IConfigMigration.ChainState[]",
              "name": "chainStates",
              "type": "tuple[]"
            },
            {
              "internalType": "Currency",
              "name": "reserve",
              "type": "address"
            }
          ],
          "internalType": "struct IConfigMigration.State",
          "name": "state",
          "type": "tuple"
        }
      ],
      "stateMutability": "view",
      "type": "function"
    },
    {
      "inputs": [],
      "name": "governance",
      "outputs": [
        {
          "internalType": "address",
          "name": "",
          "type": "address"
        }
      ],
      "stateMutability": "view",
      "type": "function"
    },
    {
      "inputs": [],
      "name": "index",
      "outputs": [
        {
          "internalType": "address",
          "name": "",
          "type": "address"
        }
      ],
      "stateMutability": "view",
      "type": "function"
    },
    {
      "inputs": [],
      "name": "messenger",
      "outputs": [
        {
          "internalType": "address",
          "name": "",
          "type": "address"
        }
      ],
      "stateMutability": "view",
      "type": "function"
    },
    {
      "inputs": [
        {
          "internalType": "uint256",
          "name": "chainId",
          "type": "uint256"
        }
      ],
      "name": "registerChain",
      "outputs": [],
      "stateMutability": "nonpayable",
      "type": "function"
    },
    {
      "inputs": [
        {
          "components": [
            {
              "components": [
                {
                  "internalType": "uint256",
                  "name": "AUMDilutionPerSecond",
                  "type": "uint256"
                },
                {
                  "internalType": "bool",
                  "name": "useCustomAUMFee",
                  "type": "bool"
                },
                {
                  "internalType": "address",
                  "name": "metadata",
                  "type": "address"
                }
              ],
              "internalType": "struct IConfigBuilder.SharedConfig",
              "name": "shared",
              "type": "tuple"
            },
            {
              "components": [
                {
                  "internalType": "uint16",
                  "name": "feeBPs",
                  "type": "uint16"
                },
                {
                  "internalType": "bool",
                  "name": "useCustomFeeCallback",
                  "type": "bool"
                }
              ],
              "internalType": "struct IConfigBuilder.DepositConfig",
              "name": "deposit",
              "type": "tuple"
            },
            {
              "components": [
                {
                  "internalType": "address",
                  "name": "forwarder",
                  "type": "address"
                },
                {
                  "internalType": "uint16",
                  "name": "feeBPs",
                  "type": "uint16"
                },
                {
                  "internalType": "bool",
                  "name": "useCustomFeeCallback",
                  "type": "bool"
                }
              ],
              "internalType": "struct IConfigBuilder.RedemptionConfig",
              "name": "redemption",
              "type": "tuple"
            }
          ],
          "internalType": "struct IConfigBuilder.Config",
          "name": "_config",
          "type": "tuple"
        }
      ],
      "name": "setConfig",
      "outputs": [
        {
          "components": [
            {
              "components": [
                {
                  "internalType": "uint256",
                  "name": "latestSnapshot",
                  "type": "uint256"
                },
                {
                  "internalType": "uint256",
                  "name": "AUMDilutionPerSecond",
                  "type": "uint256"
                },
                {
                  "internalType": "bool",
                  "name": "useCustomAUMFee",
                  "type": "bool"
                },
                {
                  "internalType": "address",
                  "name": "staticPriceOracle",
                  "type": "address"
                },
                {
                  "internalType": "address",
                  "name": "metadata",
                  "type": "address"
                }
              ],
              "internalType": "struct IIndex.Config",
              "name": "shared",
              "type": "tuple"
            },
            {
              "internalType": "uint16",
              "name": "feeBPs",
              "type": "uint16"
            },
            {
              "internalType": "bool",
              "name": "useCustomFeeCallback",
              "type": "bool"
            }
          ],
          "internalType": "struct IIndex.DepositConfig",
          "name": "deposit",
          "type": "tuple"
        },
        {
          "components": [
            {
              "components": [
                {
                  "internalType": "uint256",
                  "name": "latestSnapshot",
                  "type": "uint256"
                },
                {
                  "internalType": "uint256",
                  "name": "AUMDilutionPerSecond",
                  "type": "uint256"
                },
                {
                  "internalType": "bool",
                  "name": "useCustomAUMFee",
                  "type": "bool"
                },
                {
                  "internalType": "address",
                  "name": "staticPriceOracle",
                  "type": "address"
                },
                {
                  "internalType": "address",
                  "name": "metadata",
                  "type": "address"
                }
              ],
              "internalType": "struct IIndex.Config",
              "name": "shared",
              "type": "tuple"
            },
            {
              "internalType": "uint16",
              "name": "feeBPs",
              "type": "uint16"
            },
            {
              "internalType": "bool",
              "name": "useCustomFeeCallback",
              "type": "bool"
            },
            {
              "internalType": "address",
              "name": "forwarder",
              "type": "address"
            },
            {
              "internalType": "a160u96[]",
              "name": "homeCurrencies",
              "type": "uint256[]"
            }
          ],
          "internalType": "struct IIndex.RedemptionConfig",
          "name": "redemption",
          "type": "tuple"
        }
      ],
      "stateMutability": "nonpayable",
      "type": "function"
    },
    {
      "inputs": [
        {
          "internalType": "address",
          "name": "_messenger",
          "type": "address"
        }
      ],
      "name": "setMessenger",
      "outputs": [],
      "stateMutability": "nonpayable",
      "type": "function"
    },
    {
      "inputs": [
        {
          "internalType": "address",
          "name": "_priceOracleDeployer",
          "type": "address"
        }
      ],
      "name": "setPriceOracleDeployer",
      "outputs": [],
      "stateMutability": "nonpayable",
      "type": "function"
    },
    {
      "inputs": [
        {
          "components": [
            {
              "internalType": "uint8",
              "name": "pendingChainCount",
              "type": "uint8"
            },
            {
              "internalType": "uint256[]",
              "name": "snapshotChainIndexSet",
              "type": "uint256[]"
            },
            {
              "internalType": "uint256[]",
              "name": "weights",
              "type": "uint256[]"
            },
            {
              "internalType": "uint256[]",
              "name": "chainIdSet",
              "type": "uint256[]"
            },
            {
              "internalType": "bytes32",
              "name": "chainsHash",
              "type": "bytes32"
            },
            {
              "internalType": "uint256",
              "name": "latestSnapshot",
              "type": "uint256"
            },
            {
              "internalType": "address",
              "name": "staticPriceOracle",
              "type": "address"
            },
            {
              "internalType": "a160u96[]",
              "name": "homeCurrencies",
              "type": "uint256[]"
            },
            {
              "components": [
                {
                  "internalType": "bytes32",
                  "name": "currenciesHash",
                  "type": "bytes32"
                },
                {
                  "internalType": "bytes32",
                  "name": "resultHash",
                  "type": "bytes32"
                }
              ],
              "internalType": "struct IConfigMigration.ChainState[]",
              "name": "chainStates",
              "type": "tuple[]"
            },
            {
              "internalType": "Currency",
              "name": "reserve",
              "type": "address"
            }
          ],
          "internalType": "struct IConfigMigration.State",
          "name": "",
          "type": "tuple"
        }
      ],
      "name": "setState",
      "outputs": [],
      "stateMutability": "nonpayable",
      "type": "function"
    },
    {
      "inputs": [
        {
          "components": [
            {
              "components": [
                {
                  "internalType": "uint256[]",
                  "name": "chainIdSet",
                  "type": "uint256[]"
                },
                {
                  "internalType": "uint256[][]",
                  "name": "currencyIdSets",
                  "type": "uint256[][]"
                }
              ],
              "internalType": "struct IConfigBuilder.Anatomy",
              "name": "anatomy",
              "type": "tuple"
            },
            {
              "components": [
                {
                  "internalType": "uint256[]",
                  "name": "chainIdSet",
                  "type": "uint256[]"
                },
                {
                  "internalType": "uint256[][]",
                  "name": "currencyIdSets",
                  "type": "uint256[][]"
                }
              ],
              "internalType": "struct IConfigBuilder.Anatomy",
              "name": "newAnatomy",
              "type": "tuple"
            },
            {
              "internalType": "uint256[]",
              "name": "chainIds",
              "type": "uint256[]"
            },
            {
              "internalType": "Currency[][]",
              "name": "currencies",
              "type": "address[][]"
            },
            {
              "internalType": "uint256[]",
              "name": "newWeights",
              "type": "uint256[]"
            },
            {
              "internalType": "uint256[]",
              "name": "orderCounts",
              "type": "uint256[]"
            },
            {
              "internalType": "bytes",
              "name": "payload",
              "type": "bytes"
            }
          ],
          "internalType": "struct IConfigBuilder.StartRebalancingParams",
          "name": "params",
          "type": "tuple"
        },
        {
          "internalType": "address",
          "name": "zroPaymentAddress",
          "type": "address"
        }
      ],
      "name": "startRebalancing",
      "outputs": [],
      "stateMutability": "payable",
      "type": "function"
    },
    {
      "inputs": [
        {
          "components": [
            {
              "components": [
                {
                  "internalType": "uint256[]",
                  "name": "chainIdSet",
                  "type": "uint256[]"
                },
                {
                  "internalType": "uint256[][]",
                  "name": "currencyIdSets",
                  "type": "uint256[][]"
                }
              ],
              "internalType": "struct IConfigBuilder.Anatomy",
              "name": "anatomy",
              "type": "tuple"
            },
            {
              "internalType": "uint256[]",
              "name": "chainIds",
              "type": "uint256[]"
            },
            {
              "internalType": "Currency[][]",
              "name": "currencies",
              "type": "address[][]"
            }
          ],
          "internalType": "struct IConfigBuilder.StartReserveRebalancingParams",
          "name": "params",
          "type": "tuple"
        },
        {
          "internalType": "address",
          "name": "zroPaymentAddress",
          "type": "address"
        }
      ],
      "name": "startReserveRebalancing",
      "outputs": [],
      "stateMutability": "payable",
      "type": "function"
    }
  ],
  "bytecode": {
    "object": "0x60e060409080825234620008e25760808162005049803803809162000025828562000935565b833981010312620008e2576200003b8162000959565b60206200004a81840162000959565b6200005785850162000959565b9362000067606080920162000959565b938460805260a05260018060a01b03938460018060a01b03199681600095168886541617855516866005541617600555865191620000a58362000919565b6001908184528584019386368637516001600160401b0394909390858511620008ce576801000000000000000094858111620008ba57600991825482845580831062000890575b50828952898920868a5b8481106200087d575050505050468752600b88528a872054801580156200084857505062000123620009fc565b9084889289915b620007de575b50506200013c620009fc565b908260081c620001618760ff86161b620001578386620009b1565b51179184620009b1565b52815191888311620007ca57878311620007ca578a9082548484558085106200079d575b5001908952898920868a5b8481106200078a575050505050600a548b51898101918252468d8201528285820152848152620001c081620008e7565b519020600a558381018082116200077657468852600b89528b8820556200076257895163669949ef60e11b8152600496959493929188908290899082908d165afa9081156200075857869162000717575b508060c0528a518989820192888452168c82015286838201528281526200023881620008e7565b519020858052600c88528a862055895190620002548262000919565b8282528736818401378a51946200026b8662000919565b8386526200027b8987016200096e565b8b51928c84018481108382111762000704578591620002a5918f528086528b86019889526200098d565b52620002d58c51620002b78162000919565b8581528a3681830137875190620002ce826200098d565b526200098d565b506200030f620002e687516200098d565b5185620002f3826200098d565b511762000300826200098d565b52875190620002ce826200098d565b508b51946200031e8662000919565b848652898601958a36883751918211620006f1578111620006de576003948554828755808310620006b4575b5085885289882085895b848110620006a15750505050508860c051168454156200068e579188959185938d99968952878920558851926200039c88850193898552518b808701526080860190620009c6565b905191603f19858303019085015281518082528882019189808360051b8301019401928b915b8383106200065557505050505082900391620003e7601f199384810183528262000935565b519020600255865192620003fb8462000919565b8084528536818601374662000410856200098d565b5287516200041e8162000919565b8181528681019362000430856200096e565b895190818982549182815201918b52898b20908b5b81811062000629575050509062000464818b9796959493038262000935565b6200046f826200098d565b526200047b816200098d565b50620004a38c60055416968b519b8c9963280db94d60e21b8b528a01526044890190620009c6565b906003198883030160248901525190818152888101898360051b830101959487925b848410620005c657505050505050509083809203925af1928315620005ba57819362000576575b50505016906006541617600655516145f6908162000a53823960805181818161094101528181610fd5015261143a015260a051818181610b4801528181610b9e01528181610bf501528181610df401528181610f2201528181611234015281816113d4015281816122380152612766015260c05181818161080c015281816114750152612f1a0152f35b9091809350813d8311620005b2575b62000591818362000935565b81010312620005af5750620005a69062000959565b388080620004ec565b80fd5b503d62000585565b508551903d90823e3d90fd5b939750939799509397509382828203018452868c89518180825195868152019101938d905b8082106200060f575050819293509901940194018a97948c9997938b9793620004c5565b9280919492865181520194019201928992938f92620005eb565b928295989a9d509a86999b8793979295975481520194019101908f9b98969391928d9a98959362000445565b929597999c5092959980620006778a9396601f198682030187528951620009c6565b9701930193018f9b98969491938d9a9694620003c2565b634e487b7160e01b875260328852602487fd5b8c84519401938184015501869062000354565b86895285838c8b2092830192015b828110620006d25750506200034a565b8a8155018690620006c2565b634e487b7160e01b875260418852602487fd5b634e487b7160e01b885260418952602488fd5b634e487b7160e01b895260418a52602489fd5b90508781813d831162000750575b62000731818362000935565b810103126200074c57620007459062000959565b3862000211565b8580fd5b503d62000725565b8b513d88823e3d90fd5b634e487b7160e01b86526004839052602486fd5b634e487b7160e01b88526011600452602488fd5b8c84519401938184015501879062000190565b8885848e8781522092830192015b828110620007bb57505062000185565b8d81558e94508a9101620007ab565b634e487b7160e01b8a52604160045260248afd5b90928151841015620008415786620007f78584620009b1565b51808c915b6200082d575090508101809111620008195792860190866200012a565b634e487b7160e01b8a52601160045260248afd5b8992919091019060001981011680620007fc565b9262000130565b8c92506200086c57905163392d9d9d60e21b81526000199091016004820152602490fd5b815163aba4733960e01b8152600490fd5b8c845194019381840155018790620000f6565b838a5286838c8c2092830192015b828110620008ae575050620000ec565b8b81550187906200089e565b634e487b7160e01b88526041600452602488fd5b634e487b7160e01b87526041600452602487fd5b600080fd5b608081019081106001600160401b038211176200090357604052565b634e487b7160e01b600052604160045260246000fd5b604081019081106001600160401b038211176200090357604052565b601f909101601f19168101906001600160401b038211908210176200090357604052565b51906001600160a01b0382168203620008e257565b60005b602081106200097e575050565b60608282015260200162000971565b8051156200099b5760200190565b634e487b7160e01b600052603260045260246000fd5b80518210156200099b5760209160051b010190565b90815180825260208080930193019160005b828110620009e7575050505090565b835185529381019392810192600101620009d8565b604051906009548083528260209182820190600960005283600020936000905b82821062000a375750505062000a359250038362000935565b565b85548452600195860195889550938101939091019062000a1c56fe6080604052600436101561001257600080fd5b60003560e01c8062e3080e14610126578063099c4694146101215780631865c57d1461011c5780631cf941f0146101175780632986c0e5146101125780633cb747bf1461010d57806340d9f1311461010857806345cea24e146101035780635aa6e675146100fe57806366285967146100f95780637c2564c7146100f4578063e0399250146100ef578063e1f1176d146100ea578063e215d2a4146100e5578063f10d8c97146100e0578063f771ffe0146100db5763fad78234146100d657600080fd5b61138f565b61135a565b61121e565b610eda565b610ebc565b610dc3565b610c43565b610bcd565b610b88565b610b20565b610ab0565b610970565b61092b565b61090d565b61077f565b6104cb565b3461027457604036600319011261027457600080546024359190600435906001600160a01b031633036102625760ff60065460a01c16801561025d576006805460ff60a01b191660001990920160a01b60ff60a01b16919091179055808252602090600b82526101996040842054613579565b916101ab836101a6611c8d565b6134d3565b908151916001600160401b0383116102585781906101c884611903565b019060078652855b83811061023857867f01c1e670951de770f51e0060ca60396603088d871ccbf4565f8b8e7b729aeff487876102328c8061021485600052600d602052604060002090565b55604051938493846040919493926060820195825260208201520152565b0390a180f35b82516000805160206145b6833981519152820155918101916001016101d0565b610279565b6118ed565b604051631dd2188d60e31b8152600490fd5b600080fd5b634e487b7160e01b600052604160045260246000fd5b604081019081106001600160401b0382111761025857604052565b606081019081106001600160401b0382111761025857604052565b6001600160401b03811161025857604052565b60a081019081106001600160401b0382111761025857604052565b608081019081106001600160401b0382111761025857604052565b61012081019081106001600160401b0382111761025857604052565b90601f801991011681019081106001600160401b0382111761025857604052565b6040519061014082018281106001600160401b0382111761025857604052565b604051906103788261028f565b565b60405190610378826102aa565b60405190610378826102f3565b60ff81160361027457565b359061037882610394565b6001600160401b0381116102585760051b60200190565b92916103cc826103aa565b916103da604051938461032a565b829481845260208094019160051b810192831161027457905b8282106104005750505050565b813581529083019083016103f3565b9080601f830112156102745781602061042a933591016103c1565b90565b6001600160a01b0381160361027457565b35906103788261042d565b9080601f83011215610274578135916020610463846103aa565b936040936104738551968761032a565b818652828087019260061b85010193818511610274578301915b84831061049d5750505050505090565b85838303126102745783869182516104b48161028f565b85358152828601358382015281520192019161048d565b34610274576003196020368201126102745760048035906001600160401b0392838311610274576101409083360301126102745761050761034b565b9261051383830161039f565b84526024830135818111610274576105309083369186010161040f565b60208501526044830135818111610274576105509083369186010161040f565b60408501526064830135818111610274576105709083369186010161040f565b60608501526084830135608085015260a483013560a085015261059560c4840161043e565b60c085015260e4830135818111610274576105b59083369186010161040f565b60e085015261010483013590811161027457610120926105e0610124926105ec943691840101610449565b6101008601520161043e565b910152612764565b600091031261027457565b90815180825260208080930193019160005b82811061061f575050505090565b835185529381019392810192600101610611565b90815180825260208080930193019160005b828110610653575050505090565b835185529381019392810192600101610645565b90815180825260208080930193019160005b828110610687575050505090565b8351805186528201518583015260409094019392810192600101610679565b61042a90602081526106be60208201845160ff169052565b60208301516106db610140918260408501526101608401906105ff565b61076e6107116106fd604088015193601f1994858883030160608901526105ff565b6060880151848783030160808801526105ff565b608087015160a086015260a087015160c086015261073e60c088015160e087019060018060a01b03169052565b61075960e08801519161010092858883030184890152610633565b90870151610120938683030184870152610667565b9401516001600160a01b0316910152565b34610274576000366003190112610274576107986127a6565b60065460a081901c60ff1682526020906107b0611c8d565b828401526107bc611ce8565b604084015260608301916108426107e46107df6107d7611d43565b808752613516565b612802565b92610100860193845260045460a08701526107fd612863565b60e08701526001600160a01b037f0000000000000000000000000000000000000000000000000000000000000000166101208701526001600160a01b031660c0860152565b600a54608085015260009283945b815180518710156108fb578661086591611fa4565b5194610870866130ca565b905b6001908188841c16156108eb579080826108db6108e594868d60081b176108b86108a682600052600c602052604060002090565b5491600052600d602052604060002090565b546108c161036b565b9182528b8201528b51906108d58383611fa4565b52611fa4565b5001920187613269565b90610872565b9650505090946001019490610850565b6040518061090984826106a6565b0390f35b34610274576000366003190112610274576020600254604051908152f35b34610274576000366003190112610274576040517f00000000000000000000000000000000000000000000000000000000000000006001600160a01b03168152602090f35b34610274576000366003190112610274576000546040516001600160a01b039091168152602090f35b61010090602319011261027457602490565b61010090600319011261027457600490565b90608061042a9361022092610a70610100610a0f87845160809080518352602081015160208401526040810151151560408401528160608201519160018060a01b038093166060860152015116910152565b604060208401519361ffff80951660a08a01520151151560c08801528060e08801528601835160809080518352602081015160208401526040810151151560408401528160608201519160018060a01b038093166060860152015116910152565b6020820151166101a0850152604081015115156101c085015260608101516001600160a01b03166101e08501520151610120610200840152910190610633565b3461027457610120366003190112610274576001600160401b036004358181116102745736602382011215610274578060040135918211610274573660248360051b8301011161027457610b10916024610b0936610999565b9201612220565b90610909604051928392836109bd565b3461027457602036600319011261027457600435610b3d8161042d565b6001600160a01b03907f00000000000000000000000000000000000000000000000000000000000000008216330361026257166001600160601b0360a01b6005541617600555600080f35b34610274576000366003190112610274576040517f00000000000000000000000000000000000000000000000000000000000000006001600160a01b03168152602090f35b3461027457602036600319011261027457600435610bea8161042d565b6001600160a01b03907f00000000000000000000000000000000000000000000000000000000000000008216330361026257166001600160601b0360a01b6000541617600055600080f35b908160609103126102745790565b3461027457602080600319360112610274576004356001600160401b03811161027457610c74903690600401610c35565b6000549091906001600160a01b0316330361026257604091828101359281359084610cb1610ca184613567565b600052600c602052604060002090565b5582840160005b610cc282866117fd565b9050811015610d8a57807fbfabd64cbde4b5ef78255d0af82f101b0b80ca6178125957a1b9d01158d03525610d0e6060610d08600195610d02888c6117fd565b906126bf565b016126e1565b86610d818a878b610d676080610d288a610d0286866117fd565b013593610d758d610d6f8c610d02610d4d610d4783610d028c8c6117fd565b806118bb565b979096610d5e84610d028d8d6117fd565b908101906118bb565b9990986117fd565b016126eb565b948d5198899889612716565b0390a101610cb8565b8251848152602081018890527fe158022e49de10e0aee8d673e90d8427d889cbe9822d8fa34d7c85c048ce0f619080604081015b0390a1005b34610274576101008060031936011261027457610ddf366109ab565b90610de86115fd565b50610df1611623565b507f00000000000000000000000000000000000000000000000000000000000000006001600160a01b0316330361026257813603908112610274576040906060825191610e3d836102aa565b126102745761090992610eaa610eaf928451610e58816102aa565b833581526020840135610e6a81611657565b602082015285840135610e7c8161042d565b868201528152610e8f366060850161166d565b6020820152610ea13660a085016116a7565b85820152612bfc565b612ccb565b92909151928392836109bd565b34610274576000366003190112610274576020600154604051908152f35b604060031981813601126102745760049182356001600160401b0381116102745760e08185019382360301126102745760243593610f178561042d565b6001600160a01b03947f00000000000000000000000000000000000000000000000000000000000000008616330361120f57610f5385806116f0565b92845193602094610f7981610f6b888201948561175d565b03601f19810183528261032a565b519020600254036111ff576024810196610fc1610fbd610fb8610fb1610fab610fa28d8d6116f0565b8a8101906117fd565b90611848565b36916103c1565b61345f565b1590565b6111ef578551635084aa7f60e11b815294907f00000000000000000000000000000000000000000000000000000000000000001681868681845afa95861561118a576000966111bc575b50818591885192838092637f925f8d60e01b82525afa90811561118a5760009161118f575b508561103f60c485018a6118bb565b9161104993612a14565b909261105361037a565b9384528301528682015286600a549061106b92613744565b936110769085612fb6565b61108087876116f0565b8061108a916117fd565b3690611095926103c1565b61109e90613516565b60ff166006805460ff60a01b191660a09290921b60ff60a01b169190911790556084016110cb90866117fd565b6110d491611954565b6110dc611f4b565b6110e5906119e2565b6000546001600160a01b0316803b1561027457611119936000938651958694859384936336bbe5d760e21b85528401611b69565b039134905af1801561118a577f81044f202d16881df0f67a22b4560c20aa4acdfc19f27e77c695ff660a7e113594610dbe946111649361115e93611171575b506116f0565b806117fd565b9290915192839283611c7c565b8061117e611184926102c5565b806105f4565b38611158565b6118a0565b6111af9150823d84116111b5575b6111a7818361032a565b8101906118ac565b38611030565b503d61119d565b859196506111e08391823d84116111e8575b6111d8818361032a565b81019061188c565b96915061100b565b503d6111ce565b85516301d3aaa360e11b81528490fd5b845163299be14b60e11b81528390fd5b508251631dd2188d60e31b8152fd5b34610274576020366003190112610274576004357f00000000000000000000000000000000000000000000000000000000000000006001600160a01b031633036102625780600052600b602052604060002054908161132b577f3b4d001c9cd59f080ac4e5896a05854748d5d89c7a7418fb1382c29a93048505906112a96112a4611d43565b613516565b906112be6112b9836101a6611d43565b611a37565b6112f4600a546040516112ec81610f6b87876020840196876040919493926060820195825260208201520152565b519020600a55565b6112fd826129de565b61131182600052600b602052604060002090565b556040805191825260208201929092529081908101610dbe565b61135661133783613579565b60405163392d9d9d60e21b815260048101919091529081906024820190565b0390fd5b346102745761010036600319011261027457610b10611378366109ab565b6113806115fd565b50611389611623565b50612ccb565b6040806003193601126102745760049081356001600160401b038111610274576113bc9036908401610c35565b90602435926113ca8461042d565b6001600160a01b037f0000000000000000000000000000000000000000000000000000000000000000811633036115c35761140584806116f0565b835161141981610f6b60208201948561175d565b519020600254036115b45760208291845192838092635084aa7f60e11b82527f0000000000000000000000000000000000000000000000000000000000000000165afa801561118a576114a391600091611596575b50600a54907f0000000000000000000000000000000000000000000000000000000000000000908661149e611ce8565b613ede565b936114e26114c36114bd6112a4610fb161115e89806116f0565b60ff1690565b6006805460ff60a01b191660a09290921b60ff60a01b16919091179055565b6114f26114ed611f4b565b6119e2565b60005461151590611509906001600160a01b031681565b6001600160a01b031690565b803b156102745761153d956000938551978894859384936336bbe5d760e21b85528401611b69565b039134905af192831561118a5761115e610dbe93611164927f81044f202d16881df0f67a22b4560c20aa4acdfc19f27e77c695ff660a7e113596611583575b50806116f0565b8061117e611590926102c5565b3861157c565b6115ae915060203d81116111e8576111d8818361032a565b3861146e565b50905163299be14b60e11b8152fd5b509051631dd2188d60e31b8152fd5b604051906115df826102d8565b60006080838281528260208201528260408201528260608201520152565b6040519061160a826102aa565b60006040836116176115d2565b81528260208201520152565b60405190611630826102d8565b606060808361163d6115d2565b815260006020820152600060408201526000838201520152565b8015150361027457565b61ffff81160361027457565b9190826040910312610274576040516116858161028f565b6020808294803561169581611661565b84520135916116a383611657565b0152565b9190826060910312610274576040516116bf816102aa565b604080829480356116cf8161042d565b845260208101356116df81611661565b60208501520135916116a383611657565b903590603e1981360301821215610274570190565b9035601e19823603018112156102745701602081359101916001600160401b038211610274578160051b3603831361027457565b81835290916001600160fb1b0383116102745760209260051b809284830137010190565b602080825261178c6117826117728580611705565b6040858701526060860191611739565b9382810190611705565b919093601f199360408582840301910152828152818101828460051b8301019580956000935b8685106117c457505050505050505090565b909192939495969786806117eb838686600196030189526117e58d89611705565b90611739565b9a0195019501939695949291906117b2565b903590601e198136030182121561027457018035906001600160401b03821161027457602001918160051b3603831361027457565b634e487b7160e01b600052603260045260246000fd5b901561185c5780611858916117fd565b9091565b611832565b9082101561185c576118589160051b8101906117fd565b51906001600160601b038216820361027457565b908160209103126102745761042a90611878565b6040513d6000823e3d90fd5b90816020910312610274575190565b903590601e198136030182121561027457018035906001600160401b0382116102745760200191813603831361027457565b634e487b7160e01b600052601160045260246000fd5b600160401b8111610258576007549080600755818110611921575050565b600090600782526000805160206145b683398151915292830192015b82811061194957505050565b81815560010161193d565b6001600160401b03821161025857600160401b821161025857600854826008558083106119b3575b50600860005260005b82811061199157505050565b60019060208335930192816000805160206145d6833981519152015501611985565b826000805160206145d683398151915291820191015b8181106119d6575061197c565b600081556001016119c9565b8051906001600160401b038211610258576119fc82611903565b602080910190600760005260005b838110611a175750505050565b82516000805160206145b683398151915282015591810191600101611a0a565b8051906001600160401b03821161025857600160401b82116102585760095482600955808310611ab0575b50602080910190600960005260005b838110611a7e5750505050565b82517f6e1540171b6c0c960b71a7020d9f60077f6af931a8bbf590da0223dacf75c7af82015591810191600101611a71565b827f6e1540171b6c0c960b71a7020d9f60077f6af931a8bbf590da0223dacf75c7af91820191015b818110611ae55750611a62565b60008155600101611ad8565b90815180825260208080930193019160005b828110611b11575050505090565b835180516001600160601b0316865282015180516001600160a01b0390811687850152818401518116604080890191909152820151166060808801919091520151608086015260a09094019392810192600101611b03565b929190604080850190808652825180925260609182870192808260051b89010193602080960193600092835b858510611bb8575050505050505090610378929194019060018060a01b03169052565b90919293949596605f198c82030185528888516080928583611bea8451968085528a88519186015260c08501906105ff565b950151828603607f190160a08401528051808752958501959085019087905b808210611c565750505090818392611c2e600197878097015185820388870152611af1565b8a8501516001600160801b0316848c0152930151910152990195019501939594929190611b95565b82516001600160601b03168852968601968f968a94509290920191600190910190611c09565b91602061042a938181520191611739565b60405190600754808352826020918282019060076000526000805160206145b6833981519152936000905b828210611cce575050506103789250038361032a565b855484526001958601958895509381019390910190611cb8565b60405190600854808352826020918282019060086000526000805160206145d6833981519152936000905b828210611d29575050506103789250038361032a565b855484526001958601958895509381019390910190611d13565b60405190600954808352826020918282019060096000527f6e1540171b6c0c960b71a7020d9f60077f6af931a8bbf590da0223dacf75c7af936000905b828210611d96575050506103789250038361032a565b855484526001958601958895509381019390910190611d80565b60405190611dbd8261028f565b60606020838281520152565b60405190611dd6826102aa565b6060604083611617611db0565b6007541561185c5760076000526000805160206145b683398151915290600090565b901561185c57803590607e1981360301821215610274570190565b919081101561185c5760051b81013590607e1981360301821215610274570190565b91908082526020809201929160005b828110611e5f575050505090565b833585529381019392810192600101611e51565b9061042a91602081528135602082015260208201356040820152611ebc611eb1611ea06040850185611705565b6080606086015260a0850191611739565b926060810190611705565b916080601f1982860301910152611e42565b94929093611ef39261042a979587526020870152608060408701526080860191611739565b926060818503910152611e42565b90611f0b826103aa565b611f18604051918261032a565b8281528092611f29601f19916103aa565b019060005b828110611f3a57505050565b806060602080938501015201611f2e565b60405190611f588261028f565b6001825260203681840137565b90611f6f826103aa565b611f7c604051918261032a565b8281528092611f8d601f19916103aa565b0190602036910137565b80511561185c5760200190565b805182101561185c5760209160051b010190565b8051906001600160401b03821161025857600160401b82116102585760035482600355808310612034575b5060036000526020908101907fc2575a0e9e593c00f959f8c92f12db2869c3395a3b0502d05e2516446f71f85b9060005b848110612022575050505050565b83518382015592810192600101612014565b600060038152837fc2575a0e9e593c00f959f8c92f12db2869c3395a3b0502d05e2516446f71f85b92830192015b828110612070575050611fe3565b818155600101612062565b90816020910312610274575161042a8161042d565b906040820191604081528151809352606081019260208093019060005b81811061211657505050818184039101528251908183528083019281808460051b8301019501936000915b8483106120e85750505050505090565b9091929394958480612106600193601f198682030187528a51610633565b98019301930191949392906120d8565b8251865294840194918401916001016120ad565b61213d81516040845260408401906105ff565b9060208091015192818184039101528251908183528083019281808460051b8301019501936000915b8483106121765750505050505090565b9091929394958480612194600193601f198682030187528a516105ff565b9801930193019194939290612166565b90602061042a92818152019061212a565b919082526121cf602091606083850152606084019061212a565b9160408184039101528060085492838152019160086000526000805160206145d6833981519152916000905b828210612209575050505090565b8354855293840193600193840193909101906121fb565b9192909261222c6115fd565b50612235611623565b507f00000000000000000000000000000000000000000000000000000000000000006001600160a01b031633036102625760065460a01c60ff1660ff81166126a25750836122846112a4611c8d565b0361269057612291611dc9565b6122a161229c611f4b565b6134b7565b8151526000906122bc6122b2611de3565b90549060031b1c90565b946122c6866130ca565b925b6001908188861c16156123f8576122e0818a85611e20565b60408051916020926122f981610f6b8682019485611e73565b51902061231088600052600d602052604060002090565b54036123e857917fac68863fe74a838a167e79c20801539b9e0b777be28a344e602b11c57913d84b878594936123c3888f96878c612353896123cf9d9b86611e20565b96612363606098898101906117fd565b90506123d5575b50506123b661237a898386611e20565b35956123878a8487611e20565b0135966123ad8a6123a561239c82878a611e20565b878101906117fd565b959097611e20565b908101906117fd565b9390925196879687611ece565b0390a101940187613269565b926122c8565b6123e09151516134d3565b508c8e61236a565b51637e9c4d5360e11b8152600490fd5b5050915094935091909161240d855151613516565b9361241785611f01565b91602092838851015261243861242c87611f65565b96848901978852611f01565b60409788810191825260009861244f825151611f97565b51988961245b816130ca565b9b5b6001918d1c82161561258257908082888f9487898e888f8b61248f876124876125249e858c611e20565b359251611fa4565b528161252c57925050936124f293506124d992506124d16124c86124c06124b68585611e05565b60608101906117fd565b949093611e05565b8c8101906117fd565b929091612eb8565b6124ec858d95939551938d510151611fa4565b52611f97565b526125066125008951611f97565b51611fb8565b61251b8b6125148c8c611e05565b0135600455565b019c018b613269565b9a8a9061245d565b8661256a876124b695612560612570986125526125609b6123ad61257c9f8a8c91611e20565b9390915101519236916103c1565b6108d58383611fa4565b50611e20565b91908c519236916103c1565b5061251b565b50509194509497506125cc9598508792506125aa61150961150960055460018060a01b031690565b90519151916000865180988195829463280db94d60e21b845260048401612090565b03925af1801561118a5761185895612629612648927f790ab6da0aeb140476c8bc808ac8ebc9da1f502312c87f1bf80962fdfb4c831496600091612663575b5060018060a01b03166001600160601b0360a01b6006541617600655565b610f6b6126408451928651928391820194856121a4565b519020600255565b61265b60045491519251928392836121b5565b0390a1612ccb565b6126839150833d8511612689575b61267b818361032a565b81019061207b565b3861260b565b503d612671565b604051636dac6a0960e01b8152600490fd5b60405163822aa2c560e01b815260ff919091166004820152602490fd5b919081101561185c5760051b81013590609e1981360301821215610274570190565b3561042a8161042d565b3561042a81610394565b908060209392818452848401376000828201840152601f01601f1916010190565b96919360ff9560a0979461275d9661274f949c9b9c8b526001808b1b031660208b015260408a015260c060608a015260c08901916126f5565b9186830360808801526126f5565b9416910152565b7f00000000000000000000000000000000000000000000000000000000000000006001600160a01b0316330361026257604051631dd2188d60e31b8152600490fd5b6040519061014082018281106001600160401b0382111761025857604052600061012083828152606080602083015280604083015280808301528360808301528360a08301528360c08301528060e08301526101008201520152565b9061280c826103aa565b60409061281b8251918261032a565b838152809361282c601f19916103aa565b0191600090815b848110612841575050505050565b602090825161284f8161028f565b848152828581830152828701015201612833565b60405190600354808352826020918282019060036000527fc2575a0e9e593c00f959f8c92f12db2869c3395a3b0502d05e2516446f71f85b936000905b8282106128b6575050506103789250038361032a565b8554845260019586019588955093810193909101906128a0565b9080601f83011215610274578151906020916128eb816103aa565b936128f9604051958661032a565b818552838086019260051b820101928311610274578301905b828210612920575050505090565b83809161292c84611878565b815201910190612912565b919091604081840312610274578051926001600160401b03938481116102745782019381601f8601121561027457845194602095612974816103aa565b91612982604051938461032a565b818352878084019260051b820101918583116102745788809201905b8382106129be5750505050948301519081116102745761042a92016128d0565b8151815290820190820161299e565b91602061042a9381815201916126f5565b906001820180921161025d57565b9190820180921161025d57565b9190916001600160601b038080941691160191821161025d57565b600654612a5995929460009485949285929190612a3b90611509906001600160a01b031681565b9083604051809b8195829463c3d43d7d60e01b8452600484016129cd565b03925af192831561118a5780968194612b52575b5083908790955b8851871015612b0857612b00600191612afa8b612af38b612aed612abe612ab1838f8f612ad0612abe612ae892612aca612abe612ab18888611fa4565b516001600160601b031690565b6001600160601b031690565b90612b7c565b612ada8484611fa4565b906001600160601b03169052565b611fa4565b92611fa4565b5190613da6565b906129ec565b960195612a74565b93509450946001600160601b03612b47612afa9398612b42612b4f97612ada612b3c87612b37612ab185611f97565b6129f9565b91611f97565b611f97565b519116613da6565b92565b909350612b729196503d8085833e612b6a818361032a565b810190612937565b9590959238612a6d565b90670de0b6b3a7640000918160001904811182021583021561027457020490565b8160001904811182021583021561027457020490565b6020808252825181830181905290939260005b828110612be857505060409293506000838284010152601f8019910116010190565b818101860151848201604001528501612bc6565b612cb27f060b3184cebba016b934939f7c049df437e9dfb2f8c056f31a471e11b8fa68a8916040612ca881519282602085019181815180518552602081015115158289015201519060018060a01b03809216606088015282602082015191602061ffff938481511660808c01520151151560a08a015201519182511660c088015260208201511660e08701520151610100901515818601528452612c9f8461030e565b83519020600155565b5191829182612bb3565b0390a1565b3561042a81611661565b3561042a81611657565b612cd36115fd565b91612cdc611623565b91612ce56115d2565b60409081516020810190612cfd81610f6b8785612dfc565b51902060015403612deb5782610d08612dcc9360a093612ddc96356020820152612d34612d2c60208601612cc1565b151582840152565b612d52612d428386016126e1565b6001600160a01b03166080830152565b60045481526006546001600160a01b03166060820152808a528852612d87612d7c60608501612cb7565b61ffff1660208b0152565b612d9e612d9660808501612cc1565b15158a830152565b612db8612dad60c08501612cb7565b61ffff1660208a0152565b612dc460e08401612cc1565b151590880152565b6001600160a01b03166060840152565b612de4612863565b6080830152565b815163979df6d560e01b8152600490fd5b91909160e080610100830194803584526020810135612e1a81611657565b151560208501526040810135612e2f8161042d565b6001600160a01b039081166040860152606082013590612e4e82611661565b61ffff80921660608701526080830135612e6781611657565b1515608087015260a0830135612e7c8161042d565b1660a086015260c0820135612e9081611661565b1660c08501520135612ea181611657565b1515910152565b919081101561185c5760051b0190565b9293919093612ecb610fb83683856103c1565b612f8457612ede9161229c9136916103c1565b91612ee883613516565b612ef1816103aa565b90612eff604051928361032a565b808252612f0e601f19916103aa565b013660208301379384907f00000000000000000000000000000000000000000000000000000000000000006001600160a01b0316612f4b83611f97565b5260005b818110612f5c5750505050565b80612f6a6001928487612ea8565b35612f7d612f77836129de565b86611fa4565b5201612f4f565b9361042a9293612f959136916103c1565b9336916103c1565b6001600160601b03918216908216039190821161025d57565b612fbf81611f97565b515160209081810161300b612ff1612abe612fdd612ab18551611f97565b976001600160601b0380809a1691166130b8565b612ada612b3c845192613006612ab185611f97565b612f9d565b600194856130198451613516565b14918261309f575b505061308e575b50613031611db0565b9082519260005b84811061304757505050505050565b8061305e613056889385611fa4565b515151613516565b801561307b578461306f8386611fa4565b51510151525b01613038565b50846130878285611fa4565b5152613075565b61309890516134f9565b5038613028565b6130af919250612ab19051611f97565b16153880613021565b90808210156130c5575090565b905090565b8015613262576007811690811561310957508060021461310357806004146130fd576006146130f857600090565b600190565b50600290565b50600190565b8091506000821561325f575060ff916001600160801b0381161515806001146132525715613247575b506001600160401b03811615158060011461323b5715613233575b63ffffffff8116151580600114613227571561321f575b61ffff8116151580600114613213571561320b575b60ff81161515806001146131ff57156131f7575b600f81161515806001146131eb57156131e3575b600381161515806001146131d55760019190156131cd575b1615156001146131c65790565b6000190190565b60021c6131b9565b5090600190811901916131b9565b60041c6131a1565b509060031901906131a1565b60081c61318d565b5090600719019061318d565b60101c613179565b5090600f190190613179565b60201c613164565b5090601f190190613164565b60401c61314d565b5090603f19019061314d565b905060801c38613132565b50509050607f9038613132565b80fd5b5061010090565b811c801561340357600781169081156132ab5750806002146132a4578060041461329d576006146132975790565b60010190565b5060020190565b5060010190565b8091506000821561325f575060ff916001600160801b0381161515806001146133f657156133eb575b506001600160401b0381161515806001146133df57156133d7575b63ffffffff81161515806001146133cb57156133c3575b61ffff81161515806001146133b757156133af575b60ff81161515806001146133a3571561339b575b600f811615158060011461338f5715613387575b60038116151580600114613379576001919015613371575b161515600114613369570190565b600019010190565b60021c61335b565b50906001908119019161335b565b60041c613343565b50906003190190613343565b60081c61332f565b5090600719019061332f565b60101c61331b565b5090600f19019061331b565b60201c613306565b5090601f190190613306565b60401c6132ef565b5090603f1901906132ef565b905060801c386132d4565b50509050607f90386132d4565b505061010090565b60001981019190821161025d57565b9190820391821161025d57565b6001600160f81b0381101561344d5760ff810180911161025d5761042a9060081c611f65565b604051631a93c68960e11b8152600490fd5b906000918051158015613470575050565b9091925061185c5760200151600116151590565b91906000928160081c908051821061349b57505050565b60019293945060ff916134ad91611fa4565b5192161b16151590565b80511561185c576020810160018151179082511561185c575290565b906134f5600160ff8360081c93161b6134ec8385611fa4565b51179183611fa4565b5290565b80511561185c57602081016001198151169082511561185c575290565b600091908290815b8151851015613561576135318583611fa4565b518084915b61354f5750810180911161025d5760019094019361351e565b60019091019060001981011680613536565b93505050565b600052600b60205261042a6040600020545b8015613586576000190190565b60405163aba4733960e01b8152600490fd5b906135a2826103aa565b6040906135b18251918261032a565b83815280936135c2601f19916103aa565b0191600091825b8481106135d7575050505050565b60209083516135e5816102f3565b6135ed611db0565b81526060868491808385015281888501528301528285010152016135c9565b604051906136198261028f565b816000815260206136286115d2565b910152565b604051906101c082018281106001600160401b03821117610258576040528161365461360c565b815261365e61360c565b60208201526101a06000918260408201528260608201528260808201528260a08201528260c08201528260e08201528261010082015282610120820152606061014082015282610160820152826101808201520152565b906136bf826103aa565b6040906136ce8251918261032a565b83815280936136df601f19916103aa565b019160005b8381106136f15750505050565b60209082516136ff8161028f565b6000815282845161370f816102f3565b6000815260008282015260008682015260006060820152818301528286010152016136e4565b600019811461025d5760010190565b91909161375d61375760808501856117fd565b906142b7565b61379461378f6112a4613776610fb161115e88806116f0565b613789610fb161115e60208a018a6116f0565b90613de2565b613598565b9161379d61362d565b946137a88451611f65565b6101408701525b60408601516137c160408701876117fd565b9050811015613d0d576137e7610100880151916137e160408901896117fd565b90612ea8565b60408881015181516020810194855292359183019190915260608201526138118160808101610f6b565b51902061010087015261384561383b613830610fb161115e89806116f0565b604089015190613484565b1515610160880152565b61386861385e613830610fb161115e60208a018a6116f0565b1515610180880152565b61018086015115158015613cff575b61388c575b60408601805160010190526137af565b90938561389d60c082015186611fa4565b51956138ba6138af60408501856117fd565b604085015191612ea8565b356060880152610160820151613c8a575b60006101208301526138ee6138e360608501856117fd565b60c085015191611861565b949091600060608501525b606084015186811015613bf55761391f61391a610120870151928987612ea8565b6126e1565b60608681015160408051602081019586526001600160a01b0390941690840152908201526139508160808101610f6b565b519020610120850152610160840151151580613bc9575b15156101a08501525b6000613980610180860151151590565b80613b8a575b613b4d575b60009061399c6101a0870151151590565b613b19575b80821015613a45576139f6916139b69161341a565b60208601519060c08701516139d361391a60608a01518c8a612ea8565b916139ef6139e460408c018c6117fd565b60408c015191612ea8565b3593614536565b60208501525b613a1384516020860151610140870151918b614320565b602086015284526101a0840151613a35575b60608401805160010190526138f9565b60a0840180516001019052613a25565b84888a88848611613a5c575b5050505050506139fc565b85613ace826020613ac361391a613ae099613ab2613aa9613aa4613afc9f8f613a9e613a978f612ab160a0612abe92519e019d8e5190611fa4565b918361341a565b90612b9d565b613dca565b9c89519861341a565b99606060c08a015199015191612ea8565b950151905190611fa4565b51936001600160601b038716916144f5565b8652612ada8b51613af660208201519151613516565b90611fa4565b613b0d8951516060860151906134d3565b50388084888a88613a51565b9050613b478851612af3613b39612abe612ab160a08b0194855190611fa4565b9160208c0151905190611fa4565b906139a1565b50613b856040880151613b7e613b6660808901896117fd565b60e0890191825192613b7784613735565b9052612ea8565b3590613d5d565b61398b565b50613bc4613bb9610fb1613bae613ba460208b018b6116f0565b60208101906117fd565b60c08a015191611861565b606087015190613484565b613986565b50613970613bee613bb9610fb1613be3613ba48a806116f0565b60808a015191611861565b9050613967565b5094509296505050610120860151613c1b6040880151600052600c602052604060002090565b5403613c4c57610160860151613c3c575b60c086018051600101905261387c565b6080860180516001019052613c2c565b611356613c6c876040613c618982018a6117fd565b919092015191612ea8565b60405163343a4b4960e21b8152903560048201529081906024820190565b613cd66112a4610fb1613cb5613cbb613ca660a08901896117fd565b92906080890193845191612ea8565b356136b5565b60208c0152613ccd613ba488806116f0565b90915191611861565b613ce8613ce282613427565b91611f65565b613cf061036b565b918252602082015287526138cb565b506101608601511515613877565b5093613d21919395925060808101906117fd565b905060e082015103613d4b57610100015103613d3957565b6040516307d76b1560e01b8152600490fd5b604051630526497160e01b8152600490fd5b9061ffff9181600019048111820215830215610274570290808204910615150190565b8160001904811182021560801b156102745780820260801c91600160801b910915150190565b6001600160801b03811160801b158202156102745760801b90808204910615150190565b600160601b811015610274576001600160601b031690565b80518251929083811015613e90579392613dfb90611f65565b936000905b808210613e6157505b8251811015613e315780613e1f60019285611fa4565b51613e2a8288611fa4565b5201613e09565b9091505b8151811015613e5d5780613e4b60019284611fa4565b51613e568287611fa4565b5201613e35565b5050565b939080613e7060019286611fa4565b51613e7b8286611fa4565b5117613e878289611fa4565b52019093613e00565b929392613dfb90611f65565b6040519060c082018281106001600160401b03821117610258576040528160a06000918281528260208201528260408201528260608201528260808201520152565b94929094613ef861378f6112a4610fb161115e8a806116f0565b92613f01613e9c565b94613f0f835180885261340b565b6040870152613f1e86516136b5565b6020613f2987611f97565b51015260005b613f3c60208a018a6117fd565b90508110156142a25760a0870151613f81613f5e836137e160208e018e6117fd565b604080516020810194909452903590830152606082018390528160808101610f6b565b6020815191012060a0880152613fa681613fa1610fb161115e8d806116f0565b613484565b613fb3575b600101613f2f565b613fc4816137e160208c018c6117fd565b356060613fd4818a015189611fa4565b510152600085613ff5613fea60408d018d6117fd565b60608c015191611861565b90835b8d898d8d8b8786106140595750505050505050505061402182600052600c602052604060002090565b540361404457600190614038606089015160010190565b60608901529050613fab565b613c6c611356916137e18b60208101906117fd565b9187989991869593899593876140a561407961391a838e9f60019f612ea8565b60408051602081019586526001600160a01b039092169082015260608101929092528160808101610f6b565b5190209b8a6140cc89613fa1610fb16140c1613ba48c806116f0565b60608b015191611861565b6140e4575b5050505050505050500191908892613ff8565b61419f6142089761418f61416461415961414f61391a6142159f8c6141da9b60209f608083015190604084015182146000146142795750508f614133906141399301516001600160601b031690565b90612f9d565b9f5b61414961391a83838d612ea8565b99612ea8565b938b8101906117fd565b60608b015191612ea8565b3593614180614171610387565b6001600160a01b039097168752565b6001600160a01b0316858a0152565b6001600160a01b03166040840152565b60608201526141ac61036b565b6001600160601b03881681529085820152846141c784611f97565b5101516080850151916108d58383611fa4565b50606082015180614231575b505001916141fb83516001600160601b031690565b016001600160601b031690565b6001600160601b03169052565b60808c015160010160808d015280848f8b8f8f8f8e908a6140d1565b61424060409161427293611fa4565b510161426561425682516001600160801b031690565b6001016001600160801b031690565b6001600160801b03169052565b8f386141e6565b61429c9350614294613aa493926001600160601b0392611fa4565b519116613d5d565b9f61413b565b5095949250505060a0919450015103613d3957565b919060009081905b8082106142e757505061ffff919250036142d557565b6040516312f06ab960e11b8152600490fd5b90916142f4838387612ea8565b35810180911161025d5791600101906142bf565b6001600160801b0380911690811461025d5760010190565b90919361432b61360c565b5061433461360c565b505b61433f83614586565b806144e6575b156144df57614353836145a4565b61435c866145a4565b90604090818101918251936144778282019561438361437c8851836130b8565b809261341a565b865261439081885161341a565b87526143c66143a56060928388015190613d80565b608087016143bf6143b8825180946130b8565b809361341a565b9052613dca565b602086810151919290916001600160a01b0316858301519091906001600160a01b031690614421818801519261440c6143fd610387565b6001600160a01b039096168652565b6001600160a01b031685850181905289850152565b82015261443e61442f61036b565b6001600160601b039094168452565b8183015261444d86518b611fa4565b5101518551918c61446c6144618583611fa4565b5194612aed86613735565b526108d58383611fa4565b5051915182036144b0575b505051156144a0575b51614336579361449a90614579565b93614336565b926144aa90614579565b9261448b565b6144bd6144d89287611fa4565b51016142656144d382516001600160801b031690565b614308565b3880614482565b9250509190565b506144f085614586565b614345565b9395949061450161360c565b966040519461450f866102d8565b855260018060a01b0316602085015260408401526060830152608082015260208401528252565b9294939061454261360c565b9560405193614550856102d8565b845260018060a01b03166020840152604083015260608201526000608082015260208401528252565b61458161360c565b505190565b80511590811591614595575090565b60409150602001510151151590565b6020906145af6115d2565b5001519056fea66cc928b5edb82af9bd49922954155ab7b0942694bea4ce44661d9a8736c688f3f7a9fe364faab93b216da50a3214154f22a0a2b415b23a84c8169e8b636ee3",
    "linkReferences": {}
  },
  "methodIdentifiers": {
    "anatomyHash()": "1cf941f0",
    "chainRebalancingFinished(uint256,bytes32)": "00e3080e",
    "configHash()": "e1f1176d",
    "configs(((uint256,bool,address),(uint16,bool),(address,uint16,bool)))": "f771ffe0",
    "currenciesUpdated((uint256,(string,string,uint8,address,uint256)[],bytes32))": "7c2564c7",
    "finishRebalancing((uint256,uint256,uint256[],uint256[])[],((uint256,bool,address),(uint16,bool),(address,uint16,bool)))": "40d9f131",
    "getState()": "1865c57d",
    "governance()": "5aa6e675",
    "index()": "2986c0e5",
    "messenger()": "3cb747bf",
    "registerChain(uint256)": "f10d8c97",
    "setConfig(((uint256,bool,address),(uint16,bool),(address,uint16,bool)))": "e0399250",
    "setMessenger(address)": "66285967",
    "setPriceOracleDeployer(address)": "45cea24e",
    "setState((uint8,uint256[],uint256[],uint256[],bytes32,uint256,address,uint256[],(bytes32,bytes32)[],address))": "099c4694",
    "startRebalancing(((uint256[],uint256[][]),(uint256[],uint256[][]),uint256[],address[][],uint256[],uint256[],bytes),address)": "e215d2a4",
    "startReserveRebalancing(((uint256[],uint256[][]),uint256[],address[][]),address)": "fad78234"
  },
  "id": 56
}