{
  "abi": [
    {
      "inputs": [],
      "name": "Forbidden",
      "type": "error"
    },
    {
      "anonymous": false,
      "inputs": [
        {
          "indexed": false,
          "internalType": "address",
          "name": "",
          "type": "address"
        }
      ],
      "name": "SetConfigBuilder",
      "type": "event"
    },
    {
      "inputs": [
        {
          "internalType": "address",
          "name": "index",
          "type": "address"
        },
        {
          "internalType": "address",
          "name": "recipient",
          "type": "address"
        }
      ],
      "name": "accrueFee",
      "outputs": [],
      "stateMutability": "nonpayable",
      "type": "function"
    },
    {
      "inputs": [
        {
          "internalType": "address",
          "name": "index",
          "type": "address"
        },
        {
          "internalType": "address",
          "name": "configBuilder",
          "type": "address"
        },
        {
          "components": [
            {
              "internalType": "uint256",
              "name": "chainId",
              "type": "uint256"
            },
            {
              "internalType": "uint256",
              "name": "snapshot",
              "type": "uint256"
            },
            {
              "internalType": "uint256[]",
              "name": "currencyIdSet",
              "type": "uint256[]"
            },
            {
              "internalType": "a160u96[]",
              "name": "currencies",
              "type": "uint256[]"
            }
          ],
          "internalType": "struct IVault.RebalancingResult[]",
          "name": "results",
          "type": "tuple[]"
        },
        {
          "components": [
            {
              "components": [
                {
                  "internalType": "uint256",
                  "name": "AUMDilutionPerSecond",
                  "type": "uint256"
                },
                {
                  "internalType": "bool",
                  "name": "useCustomAUMFee",
                  "type": "bool"
                },
                {
                  "internalType": "address",
                  "name": "metadata",
                  "type": "address"
                }
              ],
              "internalType": "struct IConfigBuilder.SharedConfig",
              "name": "shared",
              "type": "tuple"
            },
            {
              "components": [
                {
                  "internalType": "uint16",
                  "name": "feeBPs",
                  "type": "uint16"
                },
                {
                  "internalType": "bool",
                  "name": "useCustomFeeCallback",
                  "type": "bool"
                }
              ],
              "internalType": "struct IConfigBuilder.DepositConfig",
              "name": "deposit",
              "type": "tuple"
            },
            {
              "components": [
                {
                  "internalType": "address",
                  "name": "forwarder",
                  "type": "address"
                },
                {
                  "internalType": "uint16",
                  "name": "feeBPs",
                  "type": "uint16"
                },
                {
                  "internalType": "bool",
                  "name": "useCustomFeeCallback",
                  "type": "bool"
                }
              ],
              "internalType": "struct IConfigBuilder.RedemptionConfig",
              "name": "redemption",
              "type": "tuple"
            }
          ],
          "internalType": "struct IConfigBuilder.Config",
          "name": "config",
          "type": "tuple"
        }
      ],
      "name": "finishRebalancing",
      "outputs": [],
      "stateMutability": "nonpayable",
      "type": "function"
    },
    {
      "inputs": [
        {
          "internalType": "address",
          "name": "newConfigBuilder",
          "type": "address"
        },
        {
          "components": [
            {
              "internalType": "uint8",
              "name": "pendingChainCount",
              "type": "uint8"
            },
            {
              "internalType": "uint256[]",
              "name": "snapshotChainIndexSet",
              "type": "uint256[]"
            },
            {
              "internalType": "uint256[]",
              "name": "weights",
              "type": "uint256[]"
            },
            {
              "internalType": "uint256[]",
              "name": "chainIdSet",
              "type": "uint256[]"
            },
            {
              "internalType": "bytes32",
              "name": "chainsHash",
              "type": "bytes32"
            },
            {
              "internalType": "uint256",
              "name": "latestSnapshot",
              "type": "uint256"
            },
            {
              "internalType": "address",
              "name": "staticPriceOracle",
              "type": "address"
            },
            {
              "internalType": "a160u96[]",
              "name": "homeCurrencies",
              "type": "uint256[]"
            },
            {
              "components": [
                {
                  "internalType": "bytes32",
                  "name": "currenciesHash",
                  "type": "bytes32"
                },
                {
                  "internalType": "bytes32",
                  "name": "resultHash",
                  "type": "bytes32"
                }
              ],
              "internalType": "struct IConfigMigration.ChainState[]",
              "name": "chainStates",
              "type": "tuple[]"
            },
            {
              "internalType": "Currency",
              "name": "reserve",
              "type": "address"
            }
          ],
          "internalType": "struct IConfigMigration.State",
          "name": "state",
          "type": "tuple"
        }
      ],
      "name": "migrateConfig",
      "outputs": [],
      "stateMutability": "nonpayable",
      "type": "function"
    },
    {
      "inputs": [
        {
          "internalType": "address",
          "name": "configBuilder",
          "type": "address"
        },
        {
          "internalType": "uint256",
          "name": "chainId",
          "type": "uint256"
        }
      ],
      "name": "registerChain",
      "outputs": [],
      "stateMutability": "nonpayable",
      "type": "function"
    },
    {
      "inputs": [
        {
          "internalType": "address",
          "name": "index",
          "type": "address"
        },
        {
          "internalType": "Currency[]",
          "name": "currencies",
          "type": "address[]"
        }
      ],
      "name": "registerCurrencies",
      "outputs": [],
      "stateMutability": "nonpayable",
      "type": "function"
    },
    {
      "inputs": [
        {
          "internalType": "address",
          "name": "index",
          "type": "address"
        },
        {
          "internalType": "address",
          "name": "configBuilder",
          "type": "address"
        },
        {
          "components": [
            {
              "components": [
                {
                  "internalType": "uint256",
                  "name": "AUMDilutionPerSecond",
                  "type": "uint256"
                },
                {
                  "internalType": "bool",
                  "name": "useCustomAUMFee",
                  "type": "bool"
                },
                {
                  "internalType": "address",
                  "name": "metadata",
                  "type": "address"
                }
              ],
              "internalType": "struct IConfigBuilder.SharedConfig",
              "name": "shared",
              "type": "tuple"
            },
            {
              "components": [
                {
                  "internalType": "uint16",
                  "name": "feeBPs",
                  "type": "uint16"
                },
                {
                  "internalType": "bool",
                  "name": "useCustomFeeCallback",
                  "type": "bool"
                }
              ],
              "internalType": "struct IConfigBuilder.DepositConfig",
              "name": "deposit",
              "type": "tuple"
            },
            {
              "components": [
                {
                  "internalType": "address",
                  "name": "forwarder",
                  "type": "address"
                },
                {
                  "internalType": "uint16",
                  "name": "feeBPs",
                  "type": "uint16"
                },
                {
                  "internalType": "bool",
                  "name": "useCustomFeeCallback",
                  "type": "bool"
                }
              ],
              "internalType": "struct IConfigBuilder.RedemptionConfig",
              "name": "redemption",
              "type": "tuple"
            }
          ],
          "internalType": "struct IConfigBuilder.Config",
          "name": "baseConfig",
          "type": "tuple"
        }
      ],
      "name": "setConfig",
      "outputs": [],
      "stateMutability": "nonpayable",
      "type": "function"
    },
    {
      "inputs": [
        {
          "internalType": "address",
          "name": "index",
          "type": "address"
        },
        {
          "internalType": "address",
          "name": "configBuilder",
          "type": "address"
        },
        {
          "components": [
            {
              "components": [
                {
                  "internalType": "uint256",
                  "name": "AUMDilutionPerSecond",
                  "type": "uint256"
                },
                {
                  "internalType": "bool",
                  "name": "useCustomAUMFee",
                  "type": "bool"
                },
                {
                  "internalType": "address",
                  "name": "metadata",
                  "type": "address"
                }
              ],
              "internalType": "struct IConfigBuilder.SharedConfig",
              "name": "shared",
              "type": "tuple"
            },
            {
              "components": [
                {
                  "internalType": "uint16",
                  "name": "feeBPs",
                  "type": "uint16"
                },
                {
                  "internalType": "bool",
                  "name": "useCustomFeeCallback",
                  "type": "bool"
                }
              ],
              "internalType": "struct IConfigBuilder.DepositConfig",
              "name": "deposit",
              "type": "tuple"
            },
            {
              "components": [
                {
                  "internalType": "address",
                  "name": "forwarder",
                  "type": "address"
                },
                {
                  "internalType": "uint16",
                  "name": "feeBPs",
                  "type": "uint16"
                },
                {
                  "internalType": "bool",
                  "name": "useCustomFeeCallback",
                  "type": "bool"
                }
              ],
              "internalType": "struct IConfigBuilder.RedemptionConfig",
              "name": "redemption",
              "type": "tuple"
            }
          ],
          "internalType": "struct IConfigBuilder.Config",
          "name": "baseConfig",
          "type": "tuple"
        }
      ],
      "name": "setInitialConfig",
      "outputs": [],
      "stateMutability": "nonpayable",
      "type": "function"
    },
    {
      "inputs": [
        {
          "internalType": "address",
          "name": "target",
          "type": "address"
        },
        {
          "internalType": "address",
          "name": "messenger",
          "type": "address"
        }
      ],
      "name": "setMessenger",
      "outputs": [],
      "stateMutability": "nonpayable",
      "type": "function"
    },
    {
      "inputs": [
        {
          "internalType": "address",
          "name": "index",
          "type": "address"
        },
        {
          "internalType": "address",
          "name": "orderBook",
          "type": "address"
        }
      ],
      "name": "setOrderBook",
      "outputs": [],
      "stateMutability": "nonpayable",
      "type": "function"
    },
    {
      "inputs": [
        {
          "internalType": "address",
          "name": "configBuilder",
          "type": "address"
        },
        {
          "components": [
            {
              "components": [
                {
                  "internalType": "uint256[]",
                  "name": "chainIdSet",
                  "type": "uint256[]"
                },
                {
                  "internalType": "uint256[][]",
                  "name": "currencyIdSets",
                  "type": "uint256[][]"
                }
              ],
              "internalType": "struct IConfigBuilder.Anatomy",
              "name": "anatomy",
              "type": "tuple"
            },
            {
              "components": [
                {
                  "internalType": "uint256[]",
                  "name": "chainIdSet",
                  "type": "uint256[]"
                },
                {
                  "internalType": "uint256[][]",
                  "name": "currencyIdSets",
                  "type": "uint256[][]"
                }
              ],
              "internalType": "struct IConfigBuilder.Anatomy",
              "name": "newAnatomy",
              "type": "tuple"
            },
            {
              "internalType": "uint256[]",
              "name": "chainIds",
              "type": "uint256[]"
            },
            {
              "internalType": "Currency[][]",
              "name": "currencies",
              "type": "address[][]"
            },
            {
              "internalType": "uint256[]",
              "name": "newWeights",
              "type": "uint256[]"
            },
            {
              "components": [
                {
                  "internalType": "uint256",
                  "name": "sellDeltasMaxLength",
                  "type": "uint256"
                },
                {
                  "internalType": "uint256",
                  "name": "buyDeltasMaxLength",
                  "type": "uint256"
                },
                {
                  "internalType": "uint256[]",
                  "name": "orderCounts",
                  "type": "uint256[]"
                }
              ],
              "internalType": "struct IConfigBuilder.OrderCreationParams",
              "name": "orderCreationParams",
              "type": "tuple"
            },
            {
              "internalType": "bytes",
              "name": "payload",
              "type": "bytes"
            }
          ],
          "internalType": "struct IConfigBuilder.StartRebalancingParams",
          "name": "params",
          "type": "tuple"
        }
      ],
      "name": "startRebalancing",
      "outputs": [],
      "stateMutability": "payable",
      "type": "function"
    },
    {
      "inputs": [
        {
          "internalType": "address",
          "name": "configBuilder",
          "type": "address"
        },
        {
          "components": [
            {
              "components": [
                {
                  "internalType": "uint256[]",
                  "name": "chainIdSet",
                  "type": "uint256[]"
                },
                {
                  "internalType": "uint256[][]",
                  "name": "currencyIdSets",
                  "type": "uint256[][]"
                }
              ],
              "internalType": "struct IConfigBuilder.Anatomy",
              "name": "anatomy",
              "type": "tuple"
            },
            {
              "internalType": "uint256[]",
              "name": "chainIds",
              "type": "uint256[]"
            },
            {
              "internalType": "Currency[][]",
              "name": "currencies",
              "type": "address[][]"
            }
          ],
          "internalType": "struct IConfigBuilder.StartReserveRebalancingParams",
          "name": "params",
          "type": "tuple"
        }
      ],
      "name": "startReserveRebalancing",
      "outputs": [],
      "stateMutability": "payable",
      "type": "function"
    },
    {
      "inputs": [
        {
          "internalType": "address",
          "name": "index",
          "type": "address"
        },
        {
          "internalType": "address",
          "name": "newOwner",
          "type": "address"
        }
      ],
      "name": "transferIndexOwnership",
      "outputs": [],
      "stateMutability": "nonpayable",
      "type": "function"
    }
  ],
  "bytecode": {
    "object": "0x60808060405234610016576115cd908161001c8239f35b600080fdfe608080604052600436101561001357600080fd5b600090813560e01c90816301e425d314610daa575080632545da3814610c3e57806336a7da4e14610a265780635d088f2d146109c45780637a9655ab14610751578063895d6356146106fa5780639d40c184146104aa578063a07b8ee414610448578063af030cd21461026b578063bfa4c83214610209578063ccf921be146101295763e9d3208a146100a557600080fd5b3461011657604036600319011261011657806100bf610ecf565b6100c7610ee5565b6001600160a01b0391821691823b15610124576024849283604051958694859363f2fde38b60e01b85521660048401525af18015610119576101065750f35b61010f90610f81565b6101165780f35b80fd5b6040513d84823e3d90fd5b505050fd5b508060031960403682011261020657610140610ecf565b90602435916001600160401b03831161012457606083600401928436030112610124576001600160a01b031691823b1561012457604051632382b54160e11b8152602060048201529284928492839182916101f3916101e46101b66101a5838061138b565b6060602488015260848701906113f7565b9160446101dc6101c9602487018461139f565b6023198a88038101858c015296916113d3565b94019061139f565b918584030160648601526114d0565b039134905af18015610119576101065750f35b50fd5b50346101165760403660031901126101165780610224610ecf565b61022c610ee5565b6001600160a01b0391821691823b156101245760248492836040519586948593631342b31960e31b85521660048401525af18015610119576101065750f35b508060031960403682011261020657610282610ecf565b602435916001600160401b039182841161044457836004019060e085360393840112610440576001600160a01b031690813b1561044057604051637f23545f60e11b815260206004820152946103736102f06102de848061138b565b60e060248a01526101048901906113f7565b9261036361035861033b61031e61030a602488018661138b565b6023198d8a03810160448f015298906113f7565b61032b604488018661139f565b8d83038a0160648f0152906113d3565b610348606487018561139f565b8c8303890160848e0152906114d0565b91608485019061139f565b90858a84030160a48b01526113d3565b60a482013590606219860182121561043c5760606103b7846103c79401604460048201918c60c48a828903019101528235865260248101356020870152019061139f565b91909281604082015201916113d3565b9360c48201359060221901811215610438570190602460048301359201948211610434578136038513610434578584838296948a98602095858098030160e4860152818452858401378181018401889052601f01601f19160103019134905af18015610119576101065750f35b8680fd5b8780fd5b8880fd5b8580fd5b8480fd5b50346101165760403660031901126101165780610463610ecf565b61046b610ee5565b6001600160a01b0391821691823b156101245760248492836040519586948593636628596760e01b85521660048401525af18015610119576101065750f35b503461011657610160366003190112610116576104c5610ecf565b6104cd610ee5565b906044356001600160401b0381116106f6576104ed903690600401610f51565b9290610100366063190112610444576040516340d9f13160e01b815261012060048201526101248082018690529490926001600160a01b0392610144600584901b86018101939091908990838801835b828410610669575050505050606435602486015260843580151580910361066457604486015260a43584811680910361066457606486015260c43561ffff9081811680910361066457608487015260e4358015158091036106645760a48701526101049788358681168091036106645760c4880152359081168091036106645760e486015235908115158092036106645784888582829a96819684988301520393165af1928315610659578492859461062f575b501691823b156101245761061e9284928360405180968195829463207db0b960e21b84526004840161126a565b03925af18015610119576101065750f35b90935061064f9192503d8086833e6106478183610fca565b81019061108d565b91909192386105f1565b6040513d86823e3d90fd5b600080fd5b9091929396610143198a82030183528735607e19833603018112156106f2576001916106e3846106c5930160809281358152602094859485840135868401526106b5604085018561139f565b90918060408601528401916113d3565b916106d56060918281019061139f565b92909181850391015261152d565b9901930194019291939061053d565b8d80fd5b8380fd5b503461011657604036600319011261011657806001600160a01b0361071d610ecf565b16803b156102065781809160246040518094819363f10d8c9760e01b8352833560048401525af18015610119576101065750f35b50346101165760403660031901126101165761076b610ecf565b81602435916001600160401b0383116109c05761078f6107b7933690600401610f51565b836040939293518096819582946338b2fd3560e21b845260206004850152602484019161148c565b03926001600160a01b03165af18015610119576107d2575080f35b3d908183823e6107e28282610fca565b60208183810103126109bc578051906001600160401b0382116106f657606082820184830103126106f6576040519261081a84610f94565b81830180518552602001516001600160401b03811161044057818301601f82868601010112156104405780848401015161085381611076565b926108616040519485610fca565b818452602084019281860160208460051b838a8a010101011161043c576020818888010101935b60208460051b838a8a0101010185106108b257505050505060208401520160409081015191015280f35b8451906001600160401b0382116109b8576080888a0184018301858a0103601f1901126109b857604051918260808101106001600160401b036080850111176109a25760808301604052602081858c8c01010101516001600160401b03811161099e5789602061092d9284888f8b860195010101010161155e565b8352604081858c8c0101010151916001600160401b03831161099e576020936080859493878e8e61096c8998898e84019187878787010101010161155e565b8887015261098260608585858501010101610ff8565b6040870152010101015160608201528152019501949050610888565b8c80fd5b634e487b7160e01b600052604160045260246000fd5b8a80fd5b8280fd5b5080fd5b503461011657604036600319011261011657806109df610ecf565b6109e7610ee5565b6001600160a01b0391821691823b156101245760248492836040519586948593632f3eec4960e01b85521660048401525af18015610119576101065750f35b5034610116576003196040368201126109c057610a41610ecf565b90602435916001600160401b038084116104445783600401918436036101408095820112610434576001600160a01b0391821695863b15610438576040519463026711a560e21b865260209687600488015281359060ff82168092036109b857610ac9916024890152610ab7602485018461139f565b909160448a01526101648901916113d3565b92610b59610b46610b14610af7610ae3604488018761139f565b6023198d8b03810160648f015299916113d3565b610b04606488018761139f565b8c83038a0160848e0152906113d3565b93608486013560a48b015260a486013560c48b015287610b3660c48801610efb565b1660e48b015260e486019061139f565b6101049491878b840301868c015261152d565b918301359060221901811215610c3a57820190602460048301359201958211610c3a578160061b36038613610c3a5790878a979695949392610124948882030185890152828152019490875b818110610c1957505050928492610bbf8493889601610efb565b16610144830152038183885af1801561011957610c05575b50507f509ff0713b4465232ccc25d9ee84bb20cff8ebe31efe391a01233865558242b491604051908152a180f35b610c0e90610f81565b6109bc578238610bd7565b82358752898301358a8801528b985060409687019690920191600101610ba5565b8980fd5b503461011657610c4d36610f0f565b60405163e1f1176d60e01b81526001600160a01b03928316939190602081600481885afa908115610d9f578691610d6e575b50610d5c578492610ca160405192630e03992560e41b845260048401906111d5565b83826101048183895af19283156106595784928594610d3a575b501691823b156106f657610ce89284928360405180968195829463207db0b960e21b84526004840161126a565b03925af1801561011957610d26575b507f509ff0713b4465232ccc25d9ee84bb20cff8ebe31efe391a01233865558242b4602083604051908152a180f35b610d2f90610f81565b6109c0578138610cf7565b909350610d529192503d8086833e6106478183610fca565b9190919238610cbb565b604051631dd2188d60e31b8152600490fd5b90506020813d8211610d97575b81610d8860209383610fca565b81010312610664575138610c7f565b3d9150610d7b565b6040513d88823e3d90fd5b9050346109c057610dba36610f0f565b63e1f1176d60e01b84526001600160a01b039182169390929190602081600481885afa908115610d9f578691610e9e575b5015610d5c5784610e176101048295836040519889948593630e03992560e41b855260048501906111d5565b5af1918215610e935783948493610e71575b5016803b156109bc57610e53938360405180968195829463207db0b960e21b84526004840161126a565b03925af1801561011957610e65575080f35b610e6e90610f81565b80f35b909250610e899194503d8085833e6106478183610fca565b9390939138610e29565b6040513d85823e3d90fd5b90506020813d8211610ec7575b81610eb860209383610fca565b81010312610440575138610deb565b3d9150610eab565b600435906001600160a01b038216820361066457565b602435906001600160a01b038216820361066457565b35906001600160a01b038216820361066457565b610140600319820112610664576001600160a01b0391600435838116810361066457926024359081168103610664576101009092604319011261066457604490565b9181601f84011215610664578235916001600160401b038311610664576020808501948460051b01011161066457565b6001600160401b0381116109a257604052565b606081019081106001600160401b038211176109a257604052565b60a081019081106001600160401b038211176109a257604052565b90601f801991011681019081106001600160401b038211176109a257604052565b5190811515820361066457565b51906001600160a01b038216820361066457565b91908260a09103126106645760405161102481610faf565b6080611062818395805185526020810151602086015261104660408201610feb565b604086015261105760608201610ff8565b606086015201610ff8565b910152565b519061ffff8216820361066457565b6001600160401b0381116109a25760051b60200190565b9190610100908381038281126106645760e013610664576040516110b081610f94565b6110ba828661100c565b81526110c860a08601611067565b90602091828201526110dc60c08701610feb565b60408201529460e08101516001600160401b0391828211610664570161012081850312610664576040519461111086610faf565b61111a858361100c565b865261112860a08301611067565b8487015261113860c08301610feb565b604087015261114960e08301610ff8565b606087015281015191821161066457019180601f8401121561066457825161117081611076565b9361117e6040519586610fca565b818552838086019260051b820101928311610664578301905b8282106111aa5750505050608082015290565b81518152908301908301611197565b3590811515820361066457565b359061ffff8216820361066457565b61126360e08092803585526111ec602082016111b9565b151560208601526111ff60408201610efb565b6001600160a01b03908116604087015261ffff9081611220606085016111c6565b166060880152611232608084016111b9565b1515608088015261124560a08401610efb565b1660a087015261125760c083016111c6565b1660c0860152016111b9565b1515910152565b9190610100906112b184825160809080518352602081015160208401526040810151151560408401528160608201519160018060a01b038093166060860152015116910152565b610240608060209483604087809601519161ffff80931660a08b01520151151560c08901528560e08901526113246102208901968901835160809080518352602081015160208401526040810151151560408401528160608201519160018060a01b038093166060860152015116910152565b81850151166101a0880152604081015115156101c088015260608101516001600160a01b03166101e08801520151610120610200870152805193849052940193019160005b828110611377575050505090565b835185529381019392810192600101611369565b9035603e1982360301811215610664570190565b9035601e19823603018112156106645701602081359101916001600160401b038211610664578160051b3603831361066457565b81835290916001600160fb1b0383116106645760209260051b809284830137010190565b90611413611405838061139f565b6040845260408401916113d3565b916114236020918281019061139f565b9190928181860391015281845280840193818360051b82010194846000925b858410611453575050505050505090565b90919293949596858061147b600193601f198682030188526114758c8861139f565b906113d3565b990194019401929594939190611442565b91908082526020809201929160005b8281106114a9575050505090565b909192938280600192838060a01b036114c189610efb565b1681520195019392910161149b565b90808352602080930192838260051b810194846000925b8584106114f8575050505050505090565b90919293949596858061151c83856001950388526115168c8861139f565b9061148c565b9901940194019295949391906114e7565b91908082526020809201929160005b82811061154a575050505090565b83358552938101939281019260010161153c565b919080601f840112156106645782516001600160401b0381116109a2576020906040519261159583601f19601f8501160185610fca565b8184528282870101116106645760005b8181106115ba57508260009394955001015290565b85810183015184820184015282016115a556",
    "linkReferences": {}
  },
  "methodIdentifiers": {
    "accrueFee(address,address)": "5d088f2d",
    "finishRebalancing(address,address,(uint256,uint256,uint256[],uint256[])[],((uint256,bool,address),(uint16,bool),(address,uint16,bool)))": "9d40c184",
    "migrateConfig(address,(uint8,uint256[],uint256[],uint256[],bytes32,uint256,address,uint256[],(bytes32,bytes32)[],address))": "36a7da4e",
    "registerChain(address,uint256)": "895d6356",
    "registerCurrencies(address,address[])": "7a9655ab",
    "setConfig(address,address,((uint256,bool,address),(uint16,bool),(address,uint16,bool)))": "01e425d3",
    "setInitialConfig(address,address,((uint256,bool,address),(uint16,bool),(address,uint16,bool)))": "2545da38",
    "setMessenger(address,address)": "a07b8ee4",
    "setOrderBook(address,address)": "bfa4c832",
    "startRebalancing(address,((uint256[],uint256[][]),(uint256[],uint256[][]),uint256[],address[][],uint256[],(uint256,uint256,uint256[]),bytes))": "af030cd2",
    "startReserveRebalancing(address,((uint256[],uint256[][]),uint256[],address[][]))": "ccf921be",
    "transferIndexOwnership(address,address)": "e9d3208a"
  },
  "id": 62
}