{
  "abi": [
    {
      "inputs": [
        {
          "internalType": "string",
          "name": "_name",
          "type": "string"
        },
        {
          "internalType": "string",
          "name": "_symbol",
          "type": "string"
        },
        {
          "internalType": "Currency",
          "name": "_reserve",
          "type": "address"
        },
        {
          "internalType": "address",
          "name": "_governance",
          "type": "address"
        },
        {
          "internalType": "address",
          "name": "_messenger",
          "type": "address"
        },
        {
          "internalType": "uint16",
          "name": "_maxDepositFeeInBPs",
          "type": "uint16"
        },
        {
          "internalType": "uint16",
          "name": "_maxRedemptionFeeInBPs",
          "type": "uint16"
        },
        {
          "internalType": "uint256",
          "name": "_maxAUMDilutionPerSecond",
          "type": "uint256"
        }
      ],
      "stateMutability": "nonpayable",
      "type": "constructor"
    },
    {
      "inputs": [],
      "name": "AmountExceedsBalance",
      "type": "error"
    },
    {
      "inputs": [],
      "name": "AmountMismatch",
      "type": "error"
    },
    {
      "inputs": [
        {
          "internalType": "bytes",
          "name": "",
          "type": "bytes"
        }
      ],
      "name": "CallFailed",
      "type": "error"
    },
    {
      "inputs": [],
      "name": "CurrenciesHashMismatch",
      "type": "error"
    },
    {
      "inputs": [
        {
          "internalType": "Currency",
          "name": "currency",
          "type": "address"
        },
        {
          "internalType": "uint256",
          "name": "minBalance",
          "type": "uint256"
        }
      ],
      "name": "CurrencyBalanceOverdraft",
      "type": "error"
    },
    {
      "inputs": [],
      "name": "ERC20ApproveFailed",
      "type": "error"
    },
    {
      "inputs": [],
      "name": "ERC20TransferFailed",
      "type": "error"
    },
    {
      "inputs": [
        {
          "internalType": "uint256",
          "name": "currencyIndex",
          "type": "uint256"
        }
      ],
      "name": "ExcessNewAnatomyCurrencyIndex",
      "type": "error"
    },
    {
      "inputs": [],
      "name": "FeeExceedsMaxFee",
      "type": "error"
    },
    {
      "inputs": [],
      "name": "Forbidden",
      "type": "error"
    },
    {
      "inputs": [],
      "name": "HashMismatch",
      "type": "error"
    },
    {
      "inputs": [],
      "name": "IndexConfigHash",
      "type": "error"
    },
    {
      "inputs": [],
      "name": "IndexConfigMismatch",
      "type": "error"
    },
    {
      "inputs": [],
      "name": "IndexInitialConfig",
      "type": "error"
    },
    {
      "inputs": [],
      "name": "IndexMaxFee",
      "type": "error"
    },
    {
      "inputs": [],
      "name": "IndexReserveBalance",
      "type": "error"
    },
    {
      "inputs": [],
      "name": "InvalidDepositData",
      "type": "error"
    },
    {
      "inputs": [],
      "name": "InvalidSigner",
      "type": "error"
    },
    {
      "inputs": [],
      "name": "InvalidTarget",
      "type": "error"
    },
    {
      "inputs": [],
      "name": "InvalidWithdrawal",
      "type": "error"
    },
    {
      "inputs": [],
      "name": "NativeTransferFailed",
      "type": "error"
    },
    {
      "inputs": [
        {
          "internalType": "uint256",
          "name": "expectedCount",
          "type": "uint256"
        }
      ],
      "name": "NewAnatomyCurrencyCountMismatch",
      "type": "error"
    },
    {
      "inputs": [
        {
          "internalType": "uint256",
          "name": "currencyIndex",
          "type": "uint256"
        }
      ],
      "name": "NewAnatomyCurrencyIndexNotFound",
      "type": "error"
    },
    {
      "inputs": [
        {
          "internalType": "a160u96",
          "name": "expectedCurrency",
          "type": "uint256"
        }
      ],
      "name": "NewAnatomyCurrencyMismatch",
      "type": "error"
    },
    {
      "inputs": [],
      "name": "PermitDeadlineExpired",
      "type": "error"
    },
    {
      "inputs": [],
      "name": "Rebalancing",
      "type": "error"
    },
    {
      "inputs": [
        {
          "internalType": "Currency",
          "name": "",
          "type": "address"
        }
      ],
      "name": "Registered",
      "type": "error"
    },
    {
      "inputs": [],
      "name": "ZeroShares",
      "type": "error"
    },
    {
      "anonymous": false,
      "inputs": [
        {
          "indexed": true,
          "internalType": "address",
          "name": "owner",
          "type": "address"
        },
        {
          "indexed": true,
          "internalType": "address",
          "name": "spender",
          "type": "address"
        },
        {
          "indexed": false,
          "internalType": "uint256",
          "name": "value",
          "type": "uint256"
        }
      ],
      "name": "Approval",
      "type": "event"
    },
    {
      "anonymous": false,
      "inputs": [
        {
          "indexed": false,
          "internalType": "Currency",
          "name": "currency",
          "type": "address"
        },
        {
          "indexed": false,
          "internalType": "uint256",
          "name": "amount",
          "type": "uint256"
        }
      ],
      "name": "Consume",
      "type": "event"
    },
    {
      "anonymous": false,
      "inputs": [
        {
          "indexed": false,
          "internalType": "Currency",
          "name": "",
          "type": "address"
        },
        {
          "indexed": false,
          "internalType": "uint256",
          "name": "",
          "type": "uint256"
        }
      ],
      "name": "CurrencyRegistered",
      "type": "event"
    },
    {
      "anonymous": false,
      "inputs": [
        {
          "indexed": true,
          "internalType": "address",
          "name": "sender",
          "type": "address"
        },
        {
          "indexed": true,
          "internalType": "address",
          "name": "owner",
          "type": "address"
        },
        {
          "indexed": false,
          "internalType": "uint256",
          "name": "reserve",
          "type": "uint256"
        },
        {
          "indexed": false,
          "internalType": "uint256",
          "name": "shares",
          "type": "uint256"
        }
      ],
      "name": "Deposit",
      "type": "event"
    },
    {
      "anonymous": false,
      "inputs": [
        {
          "indexed": false,
          "internalType": "Currency",
          "name": "currency",
          "type": "address"
        },
        {
          "indexed": false,
          "internalType": "uint256",
          "name": "amount",
          "type": "uint256"
        }
      ],
      "name": "Donate",
      "type": "event"
    },
    {
      "anonymous": false,
      "inputs": [
        {
          "indexed": false,
          "internalType": "uint96",
          "name": "baseFee",
          "type": "uint96"
        },
        {
          "indexed": false,
          "internalType": "uint96",
          "name": "AUMFee",
          "type": "uint96"
        }
      ],
      "name": "FeeAccrued",
      "type": "event"
    },
    {
      "anonymous": false,
      "inputs": [
        {
          "indexed": false,
          "internalType": "uint96",
          "name": "fee",
          "type": "uint96"
        }
      ],
      "name": "FeeSettled",
      "type": "event"
    },
    {
      "anonymous": false,
      "inputs": [
        {
          "indexed": false,
          "internalType": "uint256",
          "name": "snapshot",
          "type": "uint256"
        },
        {
          "indexed": false,
          "internalType": "a160u96[]",
          "name": "currencies",
          "type": "uint256[]"
        }
      ],
      "name": "FinishRebalancing",
      "type": "event"
    },
    {
      "anonymous": false,
      "inputs": [
        {
          "indexed": true,
          "internalType": "address",
          "name": "user",
          "type": "address"
        },
        {
          "indexed": true,
          "internalType": "address",
          "name": "newOwner",
          "type": "address"
        }
      ],
      "name": "OwnershipTransferred",
      "type": "event"
    },
    {
      "anonymous": false,
      "inputs": [
        {
          "indexed": false,
          "internalType": "Currency",
          "name": "sellCurrency",
          "type": "address"
        },
        {
          "indexed": false,
          "internalType": "uint256",
          "name": "soldAmount",
          "type": "uint256"
        },
        {
          "indexed": false,
          "internalType": "Currency",
          "name": "buyCurrency",
          "type": "address"
        },
        {
          "indexed": false,
          "internalType": "uint256",
          "name": "boughtAmount",
          "type": "uint256"
        }
      ],
      "name": "Rebalance",
      "type": "event"
    },
    {
      "anonymous": false,
      "inputs": [
        {
          "indexed": false,
          "internalType": "uint256",
          "name": "snapshot",
          "type": "uint256"
        },
        {
          "indexed": false,
          "internalType": "uint256",
          "name": "amount",
          "type": "uint256"
        },
        {
          "indexed": true,
          "internalType": "address",
          "name": "from",
          "type": "address"
        },
        {
          "indexed": true,
          "internalType": "address",
          "name": "to",
          "type": "address"
        }
      ],
      "name": "SnapshotTransfer",
      "type": "event"
    },
    {
      "anonymous": false,
      "inputs": [
        {
          "indexed": false,
          "internalType": "uint256",
          "name": "snapshot",
          "type": "uint256"
        },
        {
          "components": [
            {
              "internalType": "uint256[]",
              "name": "currencyIndexSet",
              "type": "uint256[]"
            },
            {
              "internalType": "uint96[]",
              "name": "amounts",
              "type": "uint96[]"
            }
          ],
          "indexed": false,
          "internalType": "struct IVault.CurrencyWithdrawal",
          "name": "withdrawals",
          "type": "tuple"
        }
      ],
      "name": "StartRebalancing",
      "type": "event"
    },
    {
      "anonymous": false,
      "inputs": [
        {
          "indexed": true,
          "internalType": "address",
          "name": "from",
          "type": "address"
        },
        {
          "indexed": true,
          "internalType": "address",
          "name": "to",
          "type": "address"
        },
        {
          "indexed": false,
          "internalType": "uint256",
          "name": "value",
          "type": "uint256"
        }
      ],
      "name": "Transfer",
      "type": "event"
    },
    {
      "anonymous": false,
      "inputs": [
        {
          "indexed": true,
          "internalType": "address",
          "name": "sender",
          "type": "address"
        },
        {
          "indexed": true,
          "internalType": "address",
          "name": "receiver",
          "type": "address"
        },
        {
          "indexed": true,
          "internalType": "address",
          "name": "owner",
          "type": "address"
        },
        {
          "indexed": false,
          "internalType": "uint256",
          "name": "shares",
          "type": "uint256"
        },
        {
          "indexed": false,
          "internalType": "uint256",
          "name": "k",
          "type": "uint256"
        },
        {
          "indexed": false,
          "internalType": "uint256",
          "name": "reserve",
          "type": "uint256"
        }
      ],
      "name": "Withdraw",
      "type": "event"
    },
    {
      "inputs": [],
      "name": "DOMAIN_SEPARATOR",
      "outputs": [
        {
          "internalType": "bytes32",
          "name": "",
          "type": "bytes32"
        }
      ],
      "stateMutability": "view",
      "type": "function"
    },
    {
      "inputs": [
        {
          "internalType": "address",
          "name": "recipient",
          "type": "address"
        }
      ],
      "name": "accrueFee",
      "outputs": [],
      "stateMutability": "nonpayable",
      "type": "function"
    },
    {
      "inputs": [
        {
          "internalType": "address",
          "name": "",
          "type": "address"
        },
        {
          "internalType": "address",
          "name": "",
          "type": "address"
        }
      ],
      "name": "allowance",
      "outputs": [
        {
          "internalType": "uint256",
          "name": "",
          "type": "uint256"
        }
      ],
      "stateMutability": "view",
      "type": "function"
    },
    {
      "inputs": [
        {
          "internalType": "address",
          "name": "spender",
          "type": "address"
        },
        {
          "internalType": "uint256",
          "name": "amount",
          "type": "uint256"
        }
      ],
      "name": "approve",
      "outputs": [
        {
          "internalType": "bool",
          "name": "",
          "type": "bool"
        }
      ],
      "stateMutability": "nonpayable",
      "type": "function"
    },
    {
      "inputs": [
        {
          "internalType": "address",
          "name": "",
          "type": "address"
        }
      ],
      "name": "balanceOf",
      "outputs": [
        {
          "internalType": "uint256",
          "name": "",
          "type": "uint256"
        }
      ],
      "stateMutability": "view",
      "type": "function"
    },
    {
      "inputs": [
        {
          "internalType": "Currency",
          "name": "currency",
          "type": "address"
        },
        {
          "internalType": "uint96",
          "name": "amount",
          "type": "uint96"
        },
        {
          "components": [
            {
              "internalType": "a160u96",
              "name": "target",
              "type": "uint256"
            },
            {
              "internalType": "bytes[]",
              "name": "datas",
              "type": "bytes[]"
            },
            {
              "internalType": "uint256",
              "name": "flags",
              "type": "uint256"
            },
            {
              "internalType": "uint256[]",
              "name": "packedConfigs",
              "type": "uint256[]"
            }
          ],
          "internalType": "struct ICommand.CommandTarget",
          "name": "command",
          "type": "tuple"
        },
        {
          "internalType": "address",
          "name": "validator",
          "type": "address"
        },
        {
          "internalType": "uint256",
          "name": "packedConfig",
          "type": "uint256"
        },
        {
          "internalType": "bytes",
          "name": "data",
          "type": "bytes"
        }
      ],
      "name": "consume",
      "outputs": [],
      "stateMutability": "nonpayable",
      "type": "function"
    },
    {
      "inputs": [],
      "name": "decimals",
      "outputs": [
        {
          "internalType": "uint8",
          "name": "",
          "type": "uint8"
        }
      ],
      "stateMutability": "view",
      "type": "function"
    },
    {
      "inputs": [
        {
          "components": [
            {
              "components": [
                {
                  "components": [
                    {
                      "internalType": "uint256",
                      "name": "latestSnapshot",
                      "type": "uint256"
                    },
                    {
                      "internalType": "uint256",
                      "name": "AUMDilutionPerSecond",
                      "type": "uint256"
                    },
                    {
                      "internalType": "bool",
                      "name": "useCustomAUMFee",
                      "type": "bool"
                    },
                    {
                      "internalType": "address",
                      "name": "staticPriceOracle",
                      "type": "address"
                    },
                    {
                      "internalType": "address",
                      "name": "metadata",
                      "type": "address"
                    }
                  ],
                  "internalType": "struct IIndex.Config",
                  "name": "shared",
                  "type": "tuple"
                },
                {
                  "internalType": "uint16",
                  "name": "feeBPs",
                  "type": "uint16"
                },
                {
                  "internalType": "bool",
                  "name": "useCustomFeeCallback",
                  "type": "bool"
                }
              ],
              "internalType": "struct IIndex.DepositConfig",
              "name": "config",
              "type": "tuple"
            },
            {
              "internalType": "uint96",
              "name": "amount",
              "type": "uint96"
            },
            {
              "internalType": "address",
              "name": "recipient",
              "type": "address"
            },
            {
              "internalType": "bytes",
              "name": "payload",
              "type": "bytes"
            }
          ],
          "internalType": "struct IIndex.DepositParams",
          "name": "params",
          "type": "tuple"
        }
      ],
      "name": "deposit",
      "outputs": [],
      "stateMutability": "payable",
      "type": "function"
    },
    {
      "inputs": [
        {
          "components": [
            {
              "components": [
                {
                  "components": [
                    {
                      "internalType": "uint256",
                      "name": "latestSnapshot",
                      "type": "uint256"
                    },
                    {
                      "internalType": "uint256",
                      "name": "AUMDilutionPerSecond",
                      "type": "uint256"
                    },
                    {
                      "internalType": "bool",
                      "name": "useCustomAUMFee",
                      "type": "bool"
                    },
                    {
                      "internalType": "address",
                      "name": "staticPriceOracle",
                      "type": "address"
                    },
                    {
                      "internalType": "address",
                      "name": "metadata",
                      "type": "address"
                    }
                  ],
                  "internalType": "struct IIndex.Config",
                  "name": "shared",
                  "type": "tuple"
                },
                {
                  "internalType": "uint16",
                  "name": "feeBPs",
                  "type": "uint16"
                },
                {
                  "internalType": "bool",
                  "name": "useCustomFeeCallback",
                  "type": "bool"
                }
              ],
              "internalType": "struct IIndex.DepositConfig",
              "name": "config",
              "type": "tuple"
            },
            {
              "internalType": "uint96",
              "name": "amount",
              "type": "uint96"
            },
            {
              "internalType": "address",
              "name": "recipient",
              "type": "address"
            },
            {
              "internalType": "bytes",
              "name": "payload",
              "type": "bytes"
            }
          ],
          "internalType": "struct IIndex.DepositParams",
          "name": "params",
          "type": "tuple"
        },
        {
          "components": [
            {
              "internalType": "Currency",
              "name": "currency",
              "type": "address"
            },
            {
              "components": [
                {
                  "internalType": "a160u96",
                  "name": "target",
                  "type": "uint256"
                },
                {
                  "internalType": "bytes[]",
                  "name": "datas",
                  "type": "bytes[]"
                },
                {
                  "internalType": "uint256",
                  "name": "flags",
                  "type": "uint256"
                },
                {
                  "internalType": "uint256[]",
                  "name": "packedConfigs",
                  "type": "uint256[]"
                }
              ],
              "internalType": "struct ICommand.CommandTarget",
              "name": "command",
              "type": "tuple"
            }
          ],
          "internalType": "struct IIndex.DepositCallbackParams",
          "name": "callbackParams",
          "type": "tuple"
        }
      ],
      "name": "depositWithCommand",
      "outputs": [],
      "stateMutability": "payable",
      "type": "function"
    },
    {
      "inputs": [
        {
          "internalType": "Currency",
          "name": "currency",
          "type": "address"
        },
        {
          "internalType": "bytes",
          "name": "data",
          "type": "bytes"
        }
      ],
      "name": "donate",
      "outputs": [],
      "stateMutability": "nonpayable",
      "type": "function"
    },
    {
      "inputs": [
        {
          "components": [
            {
              "internalType": "a160u96[]",
              "name": "anatomyCurrencies",
              "type": "uint256[]"
            },
            {
              "components": [
                {
                  "internalType": "a160u96[]",
                  "name": "currencies",
                  "type": "uint256[]"
                },
                {
                  "internalType": "uint256[]",
                  "name": "currencyIndexSet",
                  "type": "uint256[]"
                }
              ],
              "internalType": "struct IVault.SnapshotAnatomy",
              "name": "newAnatomy",
              "type": "tuple"
            },
            {
              "components": [
                {
                  "internalType": "uint256[]",
                  "name": "currencyIndexSet",
                  "type": "uint256[]"
                },
                {
                  "internalType": "uint96[]",
                  "name": "amounts",
                  "type": "uint96[]"
                }
              ],
              "internalType": "struct IVault.CurrencyWithdrawal",
              "name": "withdrawals",
              "type": "tuple"
            },
            {
              "internalType": "uint256",
              "name": "lastKBalance",
              "type": "uint256"
            },
            {
              "internalType": "Currency[]",
              "name": "currencies",
              "type": "address[]"
            }
          ],
          "internalType": "struct IVault.EndRebalancingParams",
          "name": "params",
          "type": "tuple"
        }
      ],
      "name": "finishRebalancingPhase",
      "outputs": [
        {
          "internalType": "bytes32",
          "name": "resultHash",
          "type": "bytes32"
        }
      ],
      "stateMutability": "nonpayable",
      "type": "function"
    },
    {
      "inputs": [],
      "name": "info",
      "outputs": [
        {
          "internalType": "uint256",
          "name": "k",
          "type": "uint256"
        },
        {
          "internalType": "a160u96[]",
          "name": "currencies",
          "type": "uint256[]"
        }
      ],
      "stateMutability": "view",
      "type": "function"
    },
    {
      "inputs": [],
      "name": "kSelf",
      "outputs": [
        {
          "internalType": "uint256",
          "name": "",
          "type": "uint256"
        }
      ],
      "stateMutability": "view",
      "type": "function"
    },
    {
      "inputs": [],
      "name": "name",
      "outputs": [
        {
          "internalType": "string",
          "name": "",
          "type": "string"
        }
      ],
      "stateMutability": "view",
      "type": "function"
    },
    {
      "inputs": [
        {
          "internalType": "address",
          "name": "",
          "type": "address"
        }
      ],
      "name": "nonces",
      "outputs": [
        {
          "internalType": "uint256",
          "name": "",
          "type": "uint256"
        }
      ],
      "stateMutability": "view",
      "type": "function"
    },
    {
      "inputs": [],
      "name": "owner",
      "outputs": [
        {
          "internalType": "address",
          "name": "",
          "type": "address"
        }
      ],
      "stateMutability": "view",
      "type": "function"
    },
    {
      "inputs": [
        {
          "internalType": "address",
          "name": "owner",
          "type": "address"
        },
        {
          "internalType": "address",
          "name": "spender",
          "type": "address"
        },
        {
          "internalType": "uint256",
          "name": "value",
          "type": "uint256"
        },
        {
          "internalType": "uint256",
          "name": "deadline",
          "type": "uint256"
        },
        {
          "internalType": "uint8",
          "name": "v",
          "type": "uint8"
        },
        {
          "internalType": "bytes32",
          "name": "r",
          "type": "bytes32"
        },
        {
          "internalType": "bytes32",
          "name": "s",
          "type": "bytes32"
        }
      ],
      "name": "permit",
      "outputs": [],
      "stateMutability": "nonpayable",
      "type": "function"
    },
    {
      "inputs": [],
      "name": "prepareRebalancing",
      "outputs": [],
      "stateMutability": "nonpayable",
      "type": "function"
    },
    {
      "inputs": [
        {
          "components": [
            {
              "components": [
                {
                  "components": [
                    {
                      "internalType": "uint256",
                      "name": "latestSnapshot",
                      "type": "uint256"
                    },
                    {
                      "internalType": "uint256",
                      "name": "AUMDilutionPerSecond",
                      "type": "uint256"
                    },
                    {
                      "internalType": "bool",
                      "name": "useCustomAUMFee",
                      "type": "bool"
                    },
                    {
                      "internalType": "address",
                      "name": "staticPriceOracle",
                      "type": "address"
                    },
                    {
                      "internalType": "address",
                      "name": "metadata",
                      "type": "address"
                    }
                  ],
                  "internalType": "struct IIndex.Config",
                  "name": "shared",
                  "type": "tuple"
                },
                {
                  "internalType": "uint16",
                  "name": "feeBPs",
                  "type": "uint16"
                },
                {
                  "internalType": "bool",
                  "name": "useCustomFeeCallback",
                  "type": "bool"
                },
                {
                  "internalType": "address",
                  "name": "forwarder",
                  "type": "address"
                },
                {
                  "internalType": "a160u96[]",
                  "name": "homeCurrencies",
                  "type": "uint256[]"
                }
              ],
              "internalType": "struct IIndex.RedemptionConfig",
              "name": "config",
              "type": "tuple"
            },
            {
              "internalType": "uint256",
              "name": "expectedInitialReserve",
              "type": "uint256"
            },
            {
              "internalType": "address",
              "name": "owner",
              "type": "address"
            },
            {
              "internalType": "uint128",
              "name": "shares",
              "type": "uint128"
            },
            {
              "internalType": "bytes",
              "name": "payload",
              "type": "bytes"
            },
            {
              "internalType": "address payable",
              "name": "recipient",
              "type": "address"
            },
            {
              "internalType": "address",
              "name": "snapshotRecipient",
              "type": "address"
            },
            {
              "components": [
                {
                  "internalType": "a160u96",
                  "name": "target",
                  "type": "uint256"
                },
                {
                  "internalType": "bytes[]",
                  "name": "datas",
                  "type": "bytes[]"
                },
                {
                  "internalType": "uint256",
                  "name": "flags",
                  "type": "uint256"
                },
                {
                  "internalType": "uint256[]",
                  "name": "packedConfigs",
                  "type": "uint256[]"
                }
              ],
              "internalType": "struct ICommand.CommandTarget[]",
              "name": "reserveUnchangedAssetCommands",
              "type": "tuple[]"
            },
            {
              "components": [
                {
                  "internalType": "a160u96",
                  "name": "target",
                  "type": "uint256"
                },
                {
                  "internalType": "bytes[]",
                  "name": "datas",
                  "type": "bytes[]"
                },
                {
                  "internalType": "uint256",
                  "name": "flags",
                  "type": "uint256"
                },
                {
                  "internalType": "uint256[]",
                  "name": "packedConfigs",
                  "type": "uint256[]"
                }
              ],
              "internalType": "struct ICommand.CommandTarget[]",
              "name": "reserveUnchangedReserveCommands",
              "type": "tuple[]"
            },
            {
              "components": [
                {
                  "internalType": "a160u96",
                  "name": "target",
                  "type": "uint256"
                },
                {
                  "internalType": "bytes[]",
                  "name": "datas",
                  "type": "bytes[]"
                },
                {
                  "internalType": "uint256",
                  "name": "flags",
                  "type": "uint256"
                },
                {
                  "internalType": "uint256[]",
                  "name": "packedConfigs",
                  "type": "uint256[]"
                }
              ],
              "internalType": "struct ICommand.CommandTarget[]",
              "name": "reserveChangedAssetCommands",
              "type": "tuple[]"
            },
            {
              "components": [
                {
                  "internalType": "a160u96",
                  "name": "target",
                  "type": "uint256"
                },
                {
                  "internalType": "bytes[]",
                  "name": "datas",
                  "type": "bytes[]"
                },
                {
                  "internalType": "uint256",
                  "name": "flags",
                  "type": "uint256"
                },
                {
                  "internalType": "uint256[]",
                  "name": "packedConfigs",
                  "type": "uint256[]"
                }
              ],
              "internalType": "struct ICommand.CommandTarget[]",
              "name": "reserveChangedReserveCommands",
              "type": "tuple[]"
            }
          ],
          "internalType": "struct IIndex.RedemptionParams",
          "name": "params",
          "type": "tuple"
        },
        {
          "internalType": "address",
          "name": "forwardedSender",
          "type": "address"
        }
      ],
      "name": "redeem",
      "outputs": [
        {
          "internalType": "uint256",
          "name": "",
          "type": "uint256"
        },
        {
          "internalType": "uint256",
          "name": "",
          "type": "uint256"
        }
      ],
      "stateMutability": "nonpayable",
      "type": "function"
    },
    {
      "inputs": [
        {
          "internalType": "Currency[]",
          "name": "currencies",
          "type": "address[]"
        }
      ],
      "name": "registerCurrencies",
      "outputs": [
        {
          "components": [
            {
              "internalType": "uint256",
              "name": "chainId",
              "type": "uint256"
            },
            {
              "components": [
                {
                  "internalType": "string",
                  "name": "name",
                  "type": "string"
                },
                {
                  "internalType": "string",
                  "name": "symbol",
                  "type": "string"
                },
                {
                  "internalType": "uint8",
                  "name": "decimals",
                  "type": "uint8"
                },
                {
                  "internalType": "Currency",
                  "name": "currency",
                  "type": "address"
                },
                {
                  "internalType": "uint256",
                  "name": "id",
                  "type": "uint256"
                }
              ],
              "internalType": "struct IVault.CurrencyMetadata[]",
              "name": "metadata",
              "type": "tuple[]"
            },
            {
              "internalType": "bytes32",
              "name": "currenciesHash",
              "type": "bytes32"
            }
          ],
          "internalType": "struct IVault.RegisterCurrenciesResult",
          "name": "result",
          "type": "tuple"
        }
      ],
      "stateMutability": "payable",
      "type": "function"
    },
    {
      "inputs": [],
      "name": "reserve",
      "outputs": [
        {
          "internalType": "Currency",
          "name": "",
          "type": "address"
        }
      ],
      "stateMutability": "view",
      "type": "function"
    },
    {
      "inputs": [],
      "name": "reserveBalance",
      "outputs": [
        {
          "internalType": "uint96",
          "name": "",
          "type": "uint96"
        }
      ],
      "stateMutability": "view",
      "type": "function"
    },
    {
      "inputs": [
        {
          "components": [
            {
              "components": [
                {
                  "internalType": "uint256",
                  "name": "latestSnapshot",
                  "type": "uint256"
                },
                {
                  "internalType": "uint256",
                  "name": "AUMDilutionPerSecond",
                  "type": "uint256"
                },
                {
                  "internalType": "bool",
                  "name": "useCustomAUMFee",
                  "type": "bool"
                },
                {
                  "internalType": "address",
                  "name": "staticPriceOracle",
                  "type": "address"
                },
                {
                  "internalType": "address",
                  "name": "metadata",
                  "type": "address"
                }
              ],
              "internalType": "struct IIndex.Config",
              "name": "shared",
              "type": "tuple"
            },
            {
              "internalType": "uint16",
              "name": "feeBPs",
              "type": "uint16"
            },
            {
              "internalType": "bool",
              "name": "useCustomFeeCallback",
              "type": "bool"
            }
          ],
          "internalType": "struct IIndex.DepositConfig",
          "name": "_depositConfig",
          "type": "tuple"
        },
        {
          "components": [
            {
              "components": [
                {
                  "internalType": "uint256",
                  "name": "latestSnapshot",
                  "type": "uint256"
                },
                {
                  "internalType": "uint256",
                  "name": "AUMDilutionPerSecond",
                  "type": "uint256"
                },
                {
                  "internalType": "bool",
                  "name": "useCustomAUMFee",
                  "type": "bool"
                },
                {
                  "internalType": "address",
                  "name": "staticPriceOracle",
                  "type": "address"
                },
                {
                  "internalType": "address",
                  "name": "metadata",
                  "type": "address"
                }
              ],
              "internalType": "struct IIndex.Config",
              "name": "shared",
              "type": "tuple"
            },
            {
              "internalType": "uint16",
              "name": "feeBPs",
              "type": "uint16"
            },
            {
              "internalType": "bool",
              "name": "useCustomFeeCallback",
              "type": "bool"
            },
            {
              "internalType": "address",
              "name": "forwarder",
              "type": "address"
            },
            {
              "internalType": "a160u96[]",
              "name": "homeCurrencies",
              "type": "uint256[]"
            }
          ],
          "internalType": "struct IIndex.RedemptionConfig",
          "name": "_redemptionConfig",
          "type": "tuple"
        }
      ],
      "name": "setConfig",
      "outputs": [],
      "stateMutability": "nonpayable",
      "type": "function"
    },
    {
      "inputs": [
        {
          "internalType": "address",
          "name": "_messenger",
          "type": "address"
        }
      ],
      "name": "setMessenger",
      "outputs": [],
      "stateMutability": "nonpayable",
      "type": "function"
    },
    {
      "inputs": [
        {
          "internalType": "address",
          "name": "_orderBook",
          "type": "address"
        }
      ],
      "name": "setOrderBook",
      "outputs": [],
      "stateMutability": "nonpayable",
      "type": "function"
    },
    {
      "inputs": [
        {
          "components": [
            {
              "internalType": "uint256[]",
              "name": "currencyIndexSet",
              "type": "uint256[]"
            },
            {
              "internalType": "uint96[]",
              "name": "amounts",
              "type": "uint96[]"
            }
          ],
          "internalType": "struct IVault.CurrencyWithdrawal",
          "name": "withdrawals",
          "type": "tuple"
        }
      ],
      "name": "startRebalancingPhase",
      "outputs": [],
      "stateMutability": "nonpayable",
      "type": "function"
    },
    {
      "inputs": [],
      "name": "symbol",
      "outputs": [
        {
          "internalType": "string",
          "name": "",
          "type": "string"
        }
      ],
      "stateMutability": "view",
      "type": "function"
    },
    {
      "inputs": [],
      "name": "totalSupply",
      "outputs": [
        {
          "internalType": "uint256",
          "name": "",
          "type": "uint256"
        }
      ],
      "stateMutability": "view",
      "type": "function"
    },
    {
      "inputs": [
        {
          "internalType": "address",
          "name": "to",
          "type": "address"
        },
        {
          "internalType": "uint256",
          "name": "amount",
          "type": "uint256"
        }
      ],
      "name": "transfer",
      "outputs": [
        {
          "internalType": "bool",
          "name": "",
          "type": "bool"
        }
      ],
      "stateMutability": "nonpayable",
      "type": "function"
    },
    {
      "inputs": [
        {
          "internalType": "address",
          "name": "from",
          "type": "address"
        },
        {
          "internalType": "address",
          "name": "to",
          "type": "address"
        },
        {
          "internalType": "uint256",
          "name": "amount",
          "type": "uint256"
        }
      ],
      "name": "transferFrom",
      "outputs": [
        {
          "internalType": "bool",
          "name": "",
          "type": "bool"
        }
      ],
      "stateMutability": "nonpayable",
      "type": "function"
    },
    {
      "inputs": [
        {
          "internalType": "address",
          "name": "recipient",
          "type": "address"
        },
        {
          "internalType": "uint256",
          "name": "kAmountWads",
          "type": "uint256"
        }
      ],
      "name": "transferLatestSnapshot",
      "outputs": [
        {
          "internalType": "uint256",
          "name": "snapshot",
          "type": "uint256"
        }
      ],
      "stateMutability": "nonpayable",
      "type": "function"
    },
    {
      "inputs": [
        {
          "internalType": "address",
          "name": "newOwner",
          "type": "address"
        }
      ],
      "name": "transferOwnership",
      "outputs": [],
      "stateMutability": "nonpayable",
      "type": "function"
    },
    {
      "inputs": [
        {
          "internalType": "uint256",
          "name": "snapshot",
          "type": "uint256"
        },
        {
          "internalType": "uint256",
          "name": "kAmount",
          "type": "uint256"
        },
        {
          "internalType": "address",
          "name": "recipient",
          "type": "address"
        }
      ],
      "name": "withdraw",
      "outputs": [],
      "stateMutability": "nonpayable",
      "type": "function"
    },
    {
      "stateMutability": "payable",
      "type": "receive"
    }
  ],
  "bytecode": {
    "object": "0x6101608060405234620007e45762005b4b8038038091620000218285620007e9565b833981019061010081830312620007e45780516001600160401b038111620007e45782620000519183016200080d565b602082015190926001600160401b038211620007e457620000749183016200080d565b620000826040830162000883565b91620000916060820162000883565b91620000a06080830162000883565b94620000af60a0840162000898565b9560e0620000c060c0860162000898565b9401516001600355600480546001600160a01b0319166001600160a01b0390971696871790559460007f8be0079c531659141344cd1fd0a4f28419497f9722a3daafe3b4186f6b6457e08180a3600780546001600160a01b0319166001600160a01b03929092169190911790556040516001600160401b0360208201908111908211176200053157602081016040526000815260405190816040810191602080830152805180935260206060830191019260005b818110620007ca575050620001959250601f198282030182520382620007e9565b80516020918201206000805260099091527fec8156718a8372b1db44bb411437d0870f3e3790d4a08526d024ce1b0b668f6b556012610140526101208590528051906001600160401b03821162000531578190620001f5600d54620008a8565b601f811162000769575b50602090601f8311600114620006eb57600092620006df575b50508160011b916000199060031b1c191617600d555b8051906001600160401b038211620005315781906200024f600e54620008a8565b601f81116200067e575b50602090601f83116001146200060057600092620005f4575b50508160011b916000199060031b1c191617600e555b46608052604051600d54816000620002a083620008a8565b8083529260018116908115620005d3575060011462000580575b620002c892500382620007e9565b6020815191012093604051947f8b73c3c69bb8fe3d512ecc4cf759cc79239f7b179b0ffacaa9a75d522b39400f602087015260408601527fc89efdaa54c0f20c7adf612882df0950f5a951637e0307cdcb4c672f298b8bc660608601524660808601523060a086015260a085528460c081011060018060401b0360c087011117620005315760c085016040528451602086012060a05260125463ffffffff60e01b4260e01b169060018060e01b03161760125560c05260e0526101005260018060a01b03169081600052600260205260406000205460009062000577575b6200055d575060005490680100000000000000008210156200053157600182019182600055828110156200054757600080527f290decd9548b62a8d60345a988386fc84ba6bc95484008f6362f93160ef3e563810180546001600160a01b03191683179055600154604080516020810192835290810184905260608082018490528152936080850192916001600160401b03841186851017620005315783604052855190206001558082116200051b577f0e19cc8726123810831f36531bcdb15eebbfc77b9f96c3d041ace161847083a1948460a0926040966000526002602052866000205584520152a16040516152259081620008e68239608051816123c9015260a051816123f0015260c05181611425015260e0518181816114f4015281816116b3015261297f0152610100518181816114bc015281816116920152612897015261012051818181610d8501528181610f86015281816117bc01528181611e00015261207b01526101405181610bc10152f35b634e487b7160e01b600052601160045260246000fd5b634e487b7160e01b600052604160045260246000fd5b634e487b7160e01b600052603260045260246000fd5b60c0906024926305a6e69560e31b8383015260c482015201fd5b506001620003a6565b50600d6000908152909160008051602062005b2b8339815191525b818310620005b6575050906020620002c892820101620002ba565b60209193508060019154838588010152019101909183926200059b565b60209250620002c894915060ff191682840152151560051b820101620002ba565b01519050388062000272565b600e6000908152935060008051602062005b0b83398151915291905b601f198416851062000662576001945083601f1981161062000648575b505050811b01600e5562000288565b015160001960f88460031b161c1916905538808062000639565b818101518355602094850194600190930192909101906200061c565b600e60005290915060008051602062005b0b833981519152601f840160051c810160208510620006d7575b90849392915b601f830160051c82018110620006c757505062000259565b60008155859450600101620006af565b5080620006a9565b01519050388062000218565b600d6000908152935060008051602062005b2b83398151915291905b601f19841685106200074d576001945083601f1981161062000733575b505050811b01600d556200022e565b015160001960f88460031b161c1916905538808062000724565b8181015183556020948501946001909301929091019062000707565b600d60005290915060008051602062005b2b833981519152601f840160051c810160208510620007c2575b90849392915b601f830160051c82018110620007b2575050620001ff565b600081558594506001016200079a565b508062000794565b845183526020948501948694509092019160010162000174565b600080fd5b601f909101601f19168101906001600160401b038211908210176200053157604052565b919080601f84011215620007e45782516001600160401b0381116200053157602090604051926200084883601f19601f8501160185620007e9565b818452828287010111620007e45760005b8181106200086f57508260009394955001015290565b858101830151848201840152820162000859565b51906001600160a01b0382168203620007e457565b519061ffff82168203620007e457565b90600182811c92168015620008da575b6020831014620008c457565b634e487b7160e01b600052602260045260246000fd5b91607f1691620008b856fe6080604052600436101561001b575b361561001957600080fd5b005b60003560e01c806306fdde031461022b578063095ea7b3146102265780630ad58d2f14610221578063133c24061461021c57806318160ddd1461021757806323b872dd146102125780632f3eec491461020d578063313ce567146102085780633644e51514610203578063370158ea146101fe5780635530f07a146101f95780635bf14422146101f457806366285967146101ef57806370a08231146101ea57806370a68904146101e55780637479dfa8146101e05780637ecebe00146101db5780637f925f8d146101d657806381f6c2e4146101d1578063831b076a146101cc5780638bfa357b146101c75780638da5cb5b146101c257806395d89b41146101bd5780639a1598c8146101b8578063a10954fe146101b3578063a68a2997146101ae578063a9059cbb146101a9578063cd3293de146101a4578063d505accf1461019f578063d90507f11461019a578063dd62ed3e14610195578063e2cbf4d4146101905763f2fde38b0361000e57612263565b6121e3565b6120c2565b61203d565b611e3a565b611dea565b611d6d565b611c12565b611b5e565b611b0e565b611a65565b611a3c565b6119bc565b61155c565b611360565b611320565b6112e3565b610faa565b610ef8565b610ead565b610e5d565b610ddd565b610cf9565b610c4c565b610be5565b610ba7565b610abf565b61099f565b610978565b6105e8565b6104f5565b610466565b610376565b600091031261023b57565b600080fd5b90600182811c92168015610270575b602083101461025a57565b634e487b7160e01b600052602260045260246000fd5b91607f169161024f565b634e487b7160e01b600052604160045260246000fd5b6001600160401b0381116102a357604052565b61027a565b608081019081106001600160401b038211176102a357604052565b604081019081106001600160401b038211176102a357604052565b606081019081106001600160401b038211176102a357604052565b90601f801991011681019081106001600160401b038211176102a357604052565b60005b83811061032d5750506000910152565b818101518382015260200161031d565b906020916103568151809281855285808601910161031a565b601f01601f1916010190565b90602061037392818152019061033d565b90565b3461023b576000806003193601126104525760405181600d5461039881610240565b90818452602092600191828116908160001461043057506001146103d7575b6103d3856103c7818903826102f9565b60405191829182610362565b0390f35b929450600d83527fd7b6990105719101dabeb77144f2a3385c8033acd3af97e9423a695e81ad1eb55b82841061041d57505050816103d3936103c79282010193386103b7565b8054858501870152928501928101610400565b60ff191686860152505050151560051b82010191506103c7816103d3386103b7565b80fd5b6001600160a01b0381160361023b57565b3461023b57604036600319011261023b5760043561048381610455565b60243590336000526010602052816104b18260406000209060018060a01b0316600052602052604060002090565b556040519182526001600160a01b03169033907f8c5be1e5ebec7d5bd14f71427d1e84f3dd0314c0f7b2291e5b200ac8c7c3b92590602090a3602060405160018152f35b3461023b57606036600319011261023b5760443560043560243561051883610455565b6105ba6105b5600093808552600b6020526105518461054b604088203360018060a01b0316600052602052604060002090565b546123ab565b6105803361056984600052600b602052604060002090565b9060018060a01b0316600052602052604060002090565b556040805182815260208101869052869133916000805160206152058339815191529190a36000526008602052604060002090565b6136da565b825b81518110156105e457806105dd86856105d760019587612d5a565b51613d09565b50016105bc565b8380f35b3461023b576003196020368201811361023b576004918235916001600160401b03831161023b5760a083850192843603011261023b576007546001600160a01b031633036109675761063e60016003541461278a565b600260035561064b612bc8565b61065e61065a83830151151590565b1590565b61095657516001600160f81b031691610681836000526009602052604060002090565b54936106906044820183612e62565b95604095865197886106ab8782019260648701359084612e0c565b03986106bf601f199a8b81018352826102f9565b51902003610948576000198501906106e1826000526009602052604060002090565b546107106107046106f28780612341565b8b939193519283918b83019586612ea8565b038c81018352826102f9565b5190200361093a5750926108ff8360246103d3999461075461091e976107436109129a600052600a602052604060002090565b61074f60015491612c65565b613ed1565b019061078661076c6107668484612e62565b80612341565b906107818b6000526008602052604060002090565b612eb9565b6107b76107ab6107996107668585612e62565b8c939193519283918983019586612ea8565b038881018352826102f9565b5190206107ce896000526009602052604060002090565b556107fd6107e86107df8484612e62565b86810190612341565b906107818b600052600a602052604060002090565b61083761082a6108178a600052600b602052604060002090565b3060009081526020919091526040902090565b670de0b6b3a76400009055565b8851888152670de0b6b3a76400006020820152309060009060008051602061520583398151915290604090a3600580546001600160f81b031690557ff4253f07dc7fa143515722038e1d56ecbbdc6f717b9556772ebc8cb012b4545f6108a06107668484612e62565b906108b08c519283928d84612f3e565b0390a16108f46108da6107666108d26108c98686612e62565b88810190612341565b959094612e62565b9290936108e5611b85565b9a468c52878c01523691612ccb565b898901523691612ccb565b6060860152855193849182019586612f89565b039081018352826102f9565b5190209061092c6001600355565b519081529081906020820190565b8651633f4d605360e01b8152fd5b8551633f4d605360e01b8152fd5b6040516370e0699160e11b81528590fd5b604051631dd2188d60e31b81528490fd5b3461023b57600036600319011261023b5760206001600160801b0360125416604051908152f35b3461023b57606036600319011261023b576004356109bc81610455565b6024356109c881610455565b6001600160a01b0380831660008181526010602090815260408083203384529091529020604435949193919291905460018101610a74575b50610a2c6000805160206151c58339815191529360018060a01b0316600052600f602052604060002090565b610a378682546123ab565b90556001600160a01b0381166000908152600f60205260409020805486019055604051948552169280602081015b0390a360405160018152602090f35b858103908111610aba576000805160206151c583398151915293610a2c91610ab2336105698460018060a01b03166000526010602052604060002090565b559350610a00565b612310565b3461023b57602036600319011261023b57600435610adc81610455565b6004546001600160a01b0390610af590821633146122d5565b6001600160601b0360125460801c1691169081600052600f6020526040600020805490828201809211610aba5755601280546bffffffffffffffffffffffff60801b191690556040516001600160601b03821681526000916000805160206151c583398151915291610ba291907f984c2d523dd62865bad71db6b8b93c368cf7b3a3331818cb3b6c6cbeeefd8f9290602090a16040516001600160601b0390911681529081906020820190565b0390a3005b3461023b57600036600319011261023b57602060405160ff7f0000000000000000000000000000000000000000000000000000000000000000168152f35b3461023b57600036600319011261023b576020610c006123c4565b604051908152f35b9060609160408101918152602092816040858094015285518094520193019160005b828110610c38575050505090565b835185529381019392810192600101610c2a565b3461023b57600080600319360112610452576005546001600160f81b0316808252600b60209081526040808420306000908152908352209092905491815260088352604081209260405193848286938354928381520192855280852094905b828210610cd057505050610cc1925003836102f9565b6103d360405192839283610c08565b855484526001958601958895509381019390910190610cab565b908161014091031261023b5790565b602036600319011261023b576004356001600160401b03811161023b57610d24903690600401610cea565b610d3260016003541461278a565b600260035560055460f81c610dcb576014546040516020810190610d6881610d5a8685612678565b03601f1981018352826102f9565b51902003610db95780610da9610d8360e0610daf94016127c3565b7f0000000000000000000000000000000000000000000000000000000000000000613b77565b9061286c565b6100196001600355565b60405163fab3fbfd60e01b8152600490fd5b6040516370e0699160e11b8152600490fd5b3461023b57604036600319011261023b57600435610dfa81610455565b6007546001600160a01b03163303610e4b57610e14612bc8565b906020820151610dcb57610e3b6103d39260018060f81b039051169160243590308461379b565b6040519081529081906020820190565b604051631dd2188d60e31b8152600490fd5b3461023b57602036600319011261023b57600435610e7a81610455565b6004546001600160a01b039190610e9490831633146122d5565b166001600160601b0360a01b6007541617600755600080f35b3461023b57602036600319011261023b57600435610eca81610455565b60018060a01b0316600052600f6020526020604060002054604051908152f35b9081604091031261023b5790565b604036600319011261023b576001600160401b0360043581811161023b57610f24903690600401610cea565b9060243590811161023b57610f3d903690600401610eea565b90610f4c60016003541461278a565b600260035560055460f81c610dcb576014546040516020810190610f7481610d5a8685612678565b51902003610db957610da9610daf92827f000000000000000000000000000000000000000000000000000000000000000061424c565b3461023b5760208060031936011261023b57600480356001600160401b03811161023b57610fdb9036908301610eea565b6007549091906001600160a01b031633036112d457600192611000846003541461278a565b600260035561100d612bc8565b938185019261101c8451151590565b6112c5579492919061102c612bf0565b84516001600160f81b03166000908152600a6020526040902090969061105190612c65565b9660009182845b6111bd575b50505050507fc16b8f393843b23916f064d27f9dec81efa312d8e9b1ab047270f1623697ae099450829161111b91610d5a6110dc6110c46108176110aa61114e995160018060f81b031690565b6001600160f81b03166000908152600b6020526040902090565b54928361116a575b6040519283918201948a86612e0c565b5190208351611114906110f7906001600160f81b0316612e28565b6001600160f81b0316808652600090815260096020526040902090565b5560019052565b80516020820151151560f81b6001600160f81b0319166001600160f81b039190911617600555516001600160f81b031690565b61115d60405192839283612e40565b0390a16100196001600355565b8651600090611187903090610569906001600160f81b03166110aa565b558651604080516001600160f81b03909216825260208201869052600091309160008051602061520583398151915291a36110cc565b82989798518110156112bd576111e6816111e16111da8b80612341565b3691612ccb565b61383b565b6111f6575b969796840184611058565b929861120561065a858361383b565b6112ad5784808b61129e61123361122e8d9e9f6112288d9e9f879e810190612341565b90612d3d565b6127c3565b61128461126d6112536112468c8c612d5a565b516001600160a01b031690565b6001600160a01b03166000908152600c6020526040902090565b9161127f83546001600160601b031690565b612326565b6001600160601b03166001600160601b0319825416179055565b0194919a9998979650506111eb565b5060405163c945242d60e01b8152fd5b97969761105d565b6040516370e0699160e11b8152fd5b604051631dd2188d60e31b8152fd5b3461023b57602036600319011261023b5760043561130081610455565b60018060a01b031660005260116020526020604060002054604051908152f35b3461023b57600036600319011261023b576005546001600160f81b03166000908152600b6020908152604080832030845282529091205b54604051908152f35b3461023b57600319368101610100811261023b5760e01361023b5760e435906001600160401b03821161023b576101208260040191833603011261023b576113b360018060a01b036004541633146122d5565b6014541580611542575b6115305760409182519060208201826113d5826125ff565b03926113e9601f19948581018352826102f9565b5190208451602081019061140d81611401888561260d565b038681018352826102f9565b5190200361151f5761141d612629565b61ffff9081807f0000000000000000000000000000000000000000000000000000000000000000169116119182156114e4575b505080156114b9575b6114a8576114a08361148f610019955160208101906114878161147b8461263f565b038781018352826102f9565b519020601455565b5191826109126020820195866126e3565b519020601555565b8251630a851dc560e41b8152600490fd5b507f000000000000000000000000000000000000000000000000000000000000000060243511611459565b6114f291925060a401612635565b7f000000000000000000000000000000000000000000000000000000000000000082169116113880611450565b83516314aa439b60e11b8152600490fd5b604051637a7d4d4960e11b8152600490fd5b506001611553610104840183612341565b905014156113bd565b3461023b576003196040368201811361023b576004356001600160401b03811161023b576101608160040193823603011261023b5760243561159d81610455565b6115ab60016003541461278a565b600260035560055460f81c61196d576015546115c78580612b9e565b84516115db81610d5a6020820194856126e3565b5190200361195c5782906116096115fd60e06115f78880612b9e565b01612862565b6001600160a01b031690565b330361195457915b604481016116216115fd82612862565b6001600160a01b0394808616939184036118dd575b50846116406127cd565b91601354611654906001600160601b031690565b6001600160601b031698899461166a8280612b9e565b3561167f90600052600b602052604060002090565b30600090815260209190915260409020547f00000000000000000000000000000000000000000000000000000000000000007f000000000000000000000000000000000000000000000000000000000000000061ffff166116e19288866144b9565b9a8b986116ef8a9398612811565b60648601998a996116ff8b612bb4565b6001600160801b031661171187612862565b6001600160a01b03166000908152600f6020526040902090815490611735916123ab565b90556024880135146000149c60009b6118296103d39f9b6117e160a46118379c6000805160206151c58339815191529f9c7fbbbdee62287b5bf3bee13cab60a29ad729cf38109bccbd2a986a11c99b8ca704986118319e611888576115f7918161186e575b6117a8610104850182612341565b90886117b760e4880185612341565b9590947f00000000000000000000000000000000000000000000000000000000000000009061471e565b97846117f56117ef8c612862565b95612bb4565b985195869516991697849160409194936001600160601b03916001600160801b036060860197168552602085015216910152565b0390a4612862565b93612bb4565b85516001600160801b03919091168152921691602090a36118586001600355565b5191825260208201929092529081906040820190565b611883823061187d8480612b9e565b35613729565b61179a565b6118b091816118b5575b6118a0610144850182612341565b90886117b7610124880185612341565b6115f7565b6118d8826118c38380612b9e565b356118d060c48801612862565b90309061379b565b611892565b611907816105696118ed86612862565b6001600160a01b0316600090815260106020526040902090565b5460018101611917575b50611636565b61193f61194c9161193961192d60648701612bb4565b6001600160801b031690565b906123ab565b916105696118ed86612862565b553880611911565b503391611611565b825163fab3fbfd60e01b8152600490fd5b82516370e0699160e11b8152600490fd5b6001600160601b0381160361023b57565b9181601f8401121561023b578235916001600160401b03831161023b576020838186019501011161023b57565b3461023b5760031960c03682011261023b576004356119da81610455565b6024356119e68161197e565b6044356001600160401b039384821161023b57608090823603011261023b57606435611a1181610455565b60a43594851161023b57611a2c61001995369060040161198f565b9490936084359360040191613015565b3461023b57600036600319011261023b576004546040516001600160a01b039091168152602090f35b3461023b576000806003193601126104525760405181600e54611a8781610240565b9081845260209260019182811690816000146104305750600114611ab5576103d3856103c7818903826102f9565b929450600e83527fbb7b4a454dc3493923482f07822329ed19e8244eff582cc204f8554c3620c3fd5b828410611afb57505050816103d3936103c79282010193386103b7565b8054858501870152928501928101611ade565b3461023b57602036600319011261023b57600435611b2b81610455565b6004546001600160a01b039190611b4590831633146122d5565b166001600160601b0360a01b6006541617600655600080f35b3461023b57600036600319011261023b5760206001600160601b0360135416604051908152f35b60405190611b92826102a8565b565b6040519060a082018281106001600160401b038211176102a357604052565b60405190611b92826102c3565b6001600160401b0381116102a357601f01601f191660200190565b929192611be782611bc0565b91611bf560405193846102f9565b82948184528183011161023b578281602093846000960137010152565b3461023b57604036600319011261023b57600435611c2f81610455565b6024356001600160401b03811161023b573660238201121561023b57611c5f903690602481600401359101611bdb565b6006549091906001600160a01b03163303610e4b57611c7d81613e55565b91333b1561023b576000611ca59160405180938192635456a73d60e11b835260048301610362565b038183335af18015611d68577f0553260a2e46b0577270d8992db02d30856ca880144c72d6e9503760946aef1393611cf492611cef92611d4f575b50611cea84613e55565b6123ab565b612ffd565b90611d29611d148260018060a01b0316600052600c602052604060002090565b6112848461127f83546001600160601b031690565b604080516001600160a01b039290921682526001600160601b03929092166020820152a1005b80611d5c611d6292610290565b80610230565b38611ce0565b6123b8565b3461023b57604036600319011261023b57600435611d8a81610455565b6024359033600052600f6020526040600020805490838203918211610aba575560018060a01b03169081600052600f60205260406000208181540190556000805160206151c583398151915260405180610a653394829190602083019252565b3461023b57600036600319011261023b576040517f00000000000000000000000000000000000000000000000000000000000000006001600160a01b03168152602090f35b60ff81160361023b57565b3461023b5760e036600319011261023b57600435611e5781610455565b60243590611e6482610455565b6044356064359260843593611e7885611e2f565b42811061202b57611f85602091610912611f58611e936123c4565b9288611eb18160018060a01b03166000526011602052604060002090565b805460018101909155604080517f6e71edae12b1b97f4d1f60370fef10105fa2faae0126114a169c64845d6126c98a82019081526001600160a01b039485166020820152938b1691840191909152606083018b9052608083019190915260a08201929092528160c082010391611f2f601f19938481018352826102f9565b5190206040519384918883019687909160429261190160f01b8352600283015260228201520190565b5190206040805191825260ff909716602082015260a4359681019690965260c43560608701526080860190565b856000968792838052039060015afa15611d68578351906001600160a01b0390818316801590811561201e575b5061200c5783611ff9826105697f8c5be1e5ebec7d5bd14f71427d1e84f3dd0314c0f7b2291e5b200ac8c7c3b9259660018060a01b03166000526010602052604060002090565b556040519384528116931691602090a380f35b604051632057875960e21b8152600490fd5b9050828616141538611fb2565b6040516305787bdf60e01b8152600490fd5b3461023b57600080600319360112610452576007546001600160a01b039081163303610e4b576120af906112846001600160601b03918260135416907f0000000000000000000000000000000000000000000000000000000000000000168552600c6020526040852092835416612326565b6001600160601b03196013541660135580f35b3461023b57604036600319011261023b5760206113576004356120e481610455565b602435906120f182610455565b60018060a01b03166000526010835260406000209060018060a01b0316600052602052604060002090565b6020918282526080928383019180518285015281810151946060936040938585880152875180925260a080880182828560051b8b01019a01946000925b85841061216f5750505050505050015191015290565b9091929394959a85808a6001938f8f8f89928392609f19908603018c5251906121b26121a283518c88528c88019061033d565b888401518782038a89015261033d565b9560ff818401511690860152888060a01b0381830151169085015201519101529d0194019401929594939190612159565b602036600319011261023b576001600160401b0360043581811161023b573660238201121561023b57806004013591821161023b573660248360051b8301011161023b576103d3916122579160246040519161223e836102de565b600083526060602084015260006040840152019061310f565b6040519182918261211c565b3461023b57602036600319011261023b5760043561228081610455565b600454906001600160a01b039061229a33838516146122d5565b1680916001600160601b0360a01b1617600455337f8be0079c531659141344cd1fd0a4f28419497f9722a3daafe3b4186f6b6457e0600080a3005b156122dc57565b60405162461bcd60e51b815260206004820152600c60248201526b15539055551213d49256915160a21b6044820152606490fd5b634e487b7160e01b600052601160045260246000fd5b9190916001600160601b0380809416911601918211610aba57565b903590601e198136030182121561023b57018035906001600160401b03821161023b57602001918160051b3603831361023b57565b9060018201809211610aba57565b91908201809211610aba57565b6b033b2e3c9fd0803ce7ffffff19810191908211610aba57565b91908203918211610aba57565b6040513d6000823e3d90fd5b6000467f00000000000000000000000000000000000000000000000000000000000000000361241257507f000000000000000000000000000000000000000000000000000000000000000090565b604051600d5491908161242484610240565b8083526020948584019460019187838216918260001461252f5750506001146124d6575b505050918161245f6124d093610d5a9503826102f9565b519020604080517f8b73c3c69bb8fe3d512ecc4cf759cc79239f7b179b0ffacaa9a75d522b39400f95810195865260208601929092527fc89efdaa54c0f20c7adf612882df0950f5a951637e0307cdcb4c672f298b8bc69085015246606085015230608085015291829060a0850190565b51902090565b9190869350600d83527fd7b6990105719101dabeb77144f2a3385c8033acd3af97e9423a695e81ad1eb55b82841061251a575050508201018161245f6124d0612448565b80548685018601528794909301928101612501565b60ff1916885293151560051b8601909301935084925061245f91506124d09050612448565b8015150361023b57565b6004358152602435602082015260443561257781612554565b15156040820152608060643561258c81610455565b6001600160a01b0390811660608401526084356125a881610455565b16910152565b608090803583526020810135602084015260408101356125cd81612554565b15156040840152816060820135916125e483610455565b6001600160a01b03928316606086015201356125a881610455565b90611b9260a083019261255e565b60a081019291611b9291906125ae565b61ffff81160361023b57565b60a4356103738161261d565b356103738161261d565b9060e082019161264e8161255e565b61ffff60a43561265d8161261d565b1660a082015260c060c43561267181612554565b1515910152565b91909160c08060e083019461268d84826125ae565b61ffff60a082013561269e8161261d565b1660a0850152013561267181612554565b9035601e198236030181121561023b5701602081359101916001600160401b03821161023b578160051b3603831361023b57565b602090818152610160612756610140830194612701858501826125ae565b61ffff60a08201356127128161261d565b1660c085015260c081013561272681612554565b151560e085015260e081013561273b81610455565b6001600160a01b0316610100858101919091528101906126af565b80939195610120808401525201929160005b828110612776575050505090565b833585529381019392810192600101612768565b1561279157565b60405162461bcd60e51b815260206004820152600a6024820152695245454e5452414e435960b01b6044820152606490fd5b356103738161197e565b604051906127da826102a8565b8160606012546001600160801b03811683526001600160601b0390818160801c16602085015260e01c604084015260135416910152565b60606001600160601b03916001600160801b038151168360801b602083015160801b169063ffffffff60e01b604084015160e01b169117176012550151166001600160601b03196013541617601355565b3561037381610455565b6128746127cd565b61288c6108178335600052600b602052604060002090565b549061ffff936128bd7f00000000000000000000000000000000000000000000000000000000000000008386614da6565b9361291d612918836129046128d66101208b018b6141ef565b959060608a01966128fd6128f189516001600160601b031690565b6001600160601b031690565b918d614b48565b90506001600160601b038894929416613d73565b614456565b9461292a60c08801614370565b15612b7b576129666020876129476115fd6115fd60808d01612862565b6040516328ddee0d60e21b8152938492839182918c8f600485016143ce565b03915afa908115611d6857600091612b4d575b508098807f000000000000000000000000000000000000000000000000000000000000000016911611612b3b576000805160206151e5833981519152905b6129cb6001600160801b03998a8916614415565b991698612a016129db8383612326565b6129f460208a019161127f83516001600160601b031690565b6001600160601b03169052565b604080516001600160601b03928316815292909116602083015290a18615612b2957600095612a7a612b2495612a75612a686000805160206151c583398151915299612b1297612a63886129f48c61127f6101009c516001600160601b031690565b6143fa565b6001600160801b03168252565b612811565b01612aa1612a8782612862565b6001600160a01b03166000908152600f6020526040902090565b612aac888254612384565b90556001600160a01b039283612ac183612862565b16907fdcbc1c05240f31ff3ad067ef1ee35ce4997762752e3a095284754544f4c709d760405180612b0a8c339583602090939291936001600160601b0360408201951681520152565b0390a3612862565b60405195865216939081906020820190565b0390a3565b604051639811e0c760e01b8152600490fd5b604051634efbf5f560e01b8152600490fd5b612b6e915060203d8111612b74575b612b6681836102f9565b81019061437a565b38612979565b503d612b5c565b96506000805160206151e5833981519152612b9860a08801612635565b976129b7565b90359061011e198136030182121561023b570190565b356001600160801b038116810361023b5790565b60405190612bd5826102c3565b6005546001600160f81b038116835260f81c15156020830152565b604051906000548083528260209182820190600080527f290decd9548b62a8d60345a988386fc84ba6bc95484008f6362f93160ef3e563936000905b828210612c4257505050611b92925003836102f9565b85546001600160a01b031684526001958601958895509381019390910190612c2c565b9060405191828154918282526020928383019160005283600020936000905b828210612c9a57505050611b92925003836102f9565b855484526001958601958895509381019390910190612c84565b6001600160401b0381116102a35760051b60200190565b9291612cd682612cb4565b91612ce460405193846102f9565b829481845260208094019160051b810192831161023b57905b828210612d0a5750505050565b81358152908301908301612cfd565b634e487b7160e01b600052603260045260246000fd5b9015612d385790565b612d19565b9190811015612d385760051b0190565b805115612d385760200190565b8051821015612d385760209160051b010190565b81835290916001600160fb1b03831161023b5760209260051b809284830137010190565b612dc090612db1612da382806126af565b604086526040860191612d6e565b906020928184809301906126af565b9290948281830391015282815201929160005b828110612de1575050505090565b9091929382806001926001600160601b038835612dfd8161197e565b16815201950193929101612dd3565b929190612e23602091604086526040860190612d92565b930152565b6001600160f81b03908116908114610aba5760010190565b6001600160f81b03909116815260406020820181905261037392910190612d92565b903590603e198136030182121561023b570190565b91908082526020809201929160005b828110612e94575050505090565b833585529381019392810192600101612e86565b916020610373938181520191612e77565b906001600160401b0383116102a357600160401b83116102a3578154838355808410612f15575b50612ef19091600052602060002090565b60005b838110612f015750505050565b600190602084359401938184015501612ef4565b6000838152846020822092830192015b828110612f33575050612ee0565b818155600101612f25565b604090610373949281528160208201520191612e77565b90815180825260208080930193019160005b828110612f75575050505090565b835185529381019392810192600101612f67565b91909160209081815260a08101918451818301528085015160408301526040850151926080606084015283518091528160c0840194019160005b828110612fe95750505050606061037393940151906080601f1982850301910152612f55565b835186529481019492810192600101612fc3565b600160601b81101561023b576001600160601b031690565b6006549096919593946001600160a01b03949185163303610e4b57876130709461303e82613e55565b96808316600052600c6020526040600020986130696001600160601b039a6112848d8d8354166130f6565b16906138f4565b61307984613e55565b8103908111610aba5761308c8291612ffd565b9216908216036130e457604080516001600160a01b0390931683526001600160601b0390911660208301527fb3762e93ec66871dd27c421b64edc79636345ff0a949cd04f7f8efce5bd4240e9190819081015b0390a1565b6040516355e97b0d60e01b8152600490fd5b6001600160601b039182169082160391908211610aba57565b919060049161312860018060a01b0384541633146122d5565b46845261313481613428565b906020850191825260005b8181106131ab57505060075461316192506115fd91506001600160a01b031681565b803b1561023b578260009161318a93604051809581948293637c2564c760e01b8452830161211c565b039134905af18015611d685761319e575090565b80611d5c61037392610290565b6131c66131c16131bc838588612d3d565b612862565b6135d2565b9190604090818901526131ed6131e06131bc84878a612d3d565b6001600160a01b03161590565b8785886000936000146132725785935061326b9492506132176131bc856001999461325294612d3d565b613242613222611b94565b9461322b61352c565b8652613235613550565b6020870152850160129052565b6001600160a01b03166060840152565b60808201525b8651906132658383612d5a565b52612d5a565b500161313f565b6115fd6115fd6115fd6131bc89889b9799989661328e96612d3d565b83516306fdde0360e01b815294859182905afa908115611d68578585888b8d9784966133f4575b506115fd6131bc6132cd946115fd946115fd94612d3d565b84516395d89b4160e01b815295869182905afa938415611d685785888b8d938a80996133b3575b50506115fd6115fd6131bc60209561330f956115fd95612d3d565b855163313ce56760e01b815292839182905afa948515611d685761324261326b968896878c8f61336c9760019e95613376575b50916131bc9161335193612d3d565b9361335a611b94565b978852602088015286019060ff169052565b6080820152613258565b61335193919550916133a26131bc9360203d6020116133ac575b61339a81836102f9565b810190613517565b9591935091613342565b503d613390565b6115fd9299506131bc60209561330f956133e56115fd956115fd953d8091833e6133dd81836102f9565b8101906134e1565b9c95509550955050508a6132f4565b6115fd9196506131bc6132cd946115fd9461341b6115fd943d808b833e6133dd81836102f9565b99945094509450506132b5565b9061343282612cb4565b604090613441825191826102f9565b8381528093613452601f1991612cb4565b0190600092835b838110613467575050505050565b81519060a08201918083106001600160401b038411176102a3576020928452606080825287849180838501528187850152830152876080830152828601015201613459565b909291926134b981611bc0565b916134c760405193846102f9565b82948284528282011161023b576020611b9293019061031a565b60208183031261023b578051906001600160401b03821161023b57019080601f8301121561023b578151610373926020016134ac565b9081602091031261023b575161037381611e2f565b60405190613539826102c3565b6008825267457468657265756d60c01b6020830152565b6040519061355d826102c3565b600382526208aa8960eb1b6020830152565b600054600160401b8110156102a3576001810180600055811015612d3857600080527f290decd9548b62a8d60345a988386fc84ba6bc95484008f6362f93160ef3e5630180546001600160a01b0319166001600160a01b03909216919091179055565b6001600160a01b0381166000908152600260205260408120549192916136d2575b6136ad57600054906136048361356f565b60015460408051602081019283526001600160a01b03861691810191909152606081018490527f0e19cc8726123810831f36531bcdb15eebbfc77b9f96c3d041ace161847083a191849161365b8160808101610d5a565b5190209461366886600155565b61367182612376565b6001600160a01b038216600090815260026020526040902055604080516001600160a01b039092168252602082019290925290819081016130df565b6040516305a6e69560e31b81526001600160a01b0383166004820152602490fd5b0390fd5b5060016135f3565b9060405191828154918282526020928383019160005283600020936000905b82821061370f57505050611b92925003836102f9565b8554845260019586019588955093810193909101906136f9565b909181600052600b6020526137548360406000209060018060a01b0316600052602052604060002090565b90815493818503948511610aba57939091556040805192835260208301919091526000926001600160a01b0316916000805160206152058339815191529181908101612b24565b91909282600052600b6020526137c78460406000209060018060a01b0316600052602052604060002090565b918254828103908111610aba57600080516020615205833981519152935583600052600b60205261380e8160406000209060018060a01b0316600052602052604060002090565b8054830190556040805194855260208501929092526001600160a01b039081169416929081908101612b24565b91906000928160081c908051821061385257505050565b60019293945060ff9161386491612d5a565b5192161b16151590565b9060208282031261023b5781516001600160401b039283821161023b57019160808383031261023b57604051926138a4846102a8565b80516138af81610455565b84526020810151602085015260408101516040850152606081015191821161023b57019080601f8301121561023b5781516138ec926020016134ac565b606082015290565b600061394481979695949361390e60408501358989613a56565b604051998a809481936323e7fd5960e01b835288356004840152620fffff8b16602484015260606044840152606483019061033d565b03926001600160a01b03165af1908115611d6857611b929660009261396a575b5061398d565b61398691923d8091833e61397e81836102f9565b81019061386e565b9038613964565b919460408301356010811615159586959094909390916008161580613a455781516001600160a01b0316975b613a36575b15613a0257506139d76139ee9460079235933691611bdb565b92169060a081901c906001600160a01b03166150d1565b50505b6139f9575050565b611b9291613b1b565b805160208201516040830151606090930151613a2f975095509193509091506001600160a01b03166150d1565b50506139f1565b613a40888a613ab6565b6139be565b82356001600160a01b0316976139b9565b9092919260609360048116613aa857600216613a70575050565b9091925060041161023b5760405190613a88826102c3565b6004825236600482011161023b5760049060208301376000602482015290565b506103739293503691611bdb565b6001600160a01b039080821615613b1657602092600060449281946040519363095ea7b360e01b8552166004840152811960248401525af13d15601f3d1160016000511416171615613b0457565b60405163378dc23b60e01b8152600490fd5b505050565b6001600160a01b039080821615613b1657602092600060449281946040519363095ea7b360e01b85521660048401528160248401525af13d15601f3d1160016000511416171615613b0457565b9081602091031261023b575190565b6001600160a01b031680613bab57506001600160601b0381163410613b995790565b6040516312d5633960e31b8152600490fd5b6040516370a0823160e01b80825230600483015291926020929091908382602481885afa928315611d68578492600094613c56575b506001600160601b03613bf69116303388613c82565b60405190815230600482015293849060249082905afa8015611d6857610373936128f193600092613c29575b50506123ab565b613c489250803d10613c4f575b613c4081836102f9565b810190613b68565b3880613c22565b503d613c36565b613bf6919450613c7a6001600160601b0391853d8711613c4f57613c4081836102f9565b949150613be0565b9160008093602095606494604051946323b872dd60e01b865260018060a01b03809216600487015216602485015260448401525af13d15601f3d1160016000511416171615613ccd57565b60405162461bcd60e51b81526020600482015260146024820152731514905394d1915497d19493d357d1905253115160621b6044820152606490fd5b90613d236001600160601b03919493948360a01c90613d52565b169283906001600160a01b033081831603613d3f575b50505050565b613d499316613dca565b38828180613d39565b90670de0b6b3a7640000918160001904811182021583021561023b57020490565b6001600160801b03811160801b1582021561023b5760801b0490565b906b033b2e3c9fd0803ce8000000918160001904811182021583021561023b57020490565b8160001904811182021583021561023b57020490565b9091906001600160a01b038116613e045750600080808093613dec955af11590565b613df257565b604051633d2cec6f60e21b8152600490fd5b90602090604460405194600080958194829363a9059cbb60e01b84526004526024525af13d15601f3d116001845114161716906060528160405215613e465750565b633c9fd93960e21b8152600490fd5b6000906001600160a01b031680613e6c5750504790565b6020602491604051928380926370a0823160e01b82523060048301525afa918215611d685791613e9a575090565b610373915060203d8111613c4f57613c4081836102f9565b60405190613ebf826102de565b60006040838281528260208201520152565b9291613edb613eb2565b600092835b60808401613eee8186612341565b9050821015614181576131bc82611228613f089388612341565b6040805160208082019889526001600160a01b03841682840152606082018590529297849188918c91613f3e8160808101610d5a565b51902099613fa784613f72613f658460018060a01b0316600052600c602052604060002090565b546001600160601b031690565b936111e1613f928560018060a01b0316600052600c602052604060002090565b80546bffffffffffffffffffffffff19169055565b6140c4575b6001600160601b0382166140045750506111da84613fd3613fdc95966111e194018b612e62565b90810190612341565b613feb57506001905b01613ee0565b516315e70c1f60e31b8152600481019190915260249150fd5b90919261065a61402a916111e16111da6140218a89018099612e62565b8a810190612341565b6140ac576001600160a01b03166001600160a01b031960a09290921b919091161791906140779083906140719061406590610766908c612e62565b968a0196875191612d3d565b35141590565b614093575050908161408c6001935160010190565b9052613fe5565b516317aa4f3d60e31b8152600481019190915260249150fd5b83516322c63c1360e01b815260048101879052602490fd5b9061410a906140f16141038b6140f86140dd8880612341565b94906001600160601b039586945191612d3d565b3560a01c90565b166060870135613d52565b1690612326565b908489818501614124876111e16111da610766858b612e62565b614136575b50516001018a5250613fac565b61122e61416b93959261415861414f614165948a612e62565b8c810190612341565b9790910196875191612d3d565b906130f6565b91614177815160010190565b9052848938614129565b50509193945091036141c85761076660206141a3920151926020810190612e62565b905081036141ae5750565b60405163b705ebd160e01b81526004810191909152602490fd5b604051630b7758f760e41b8152600490fd5b903590607e198136030182121561023b570190565b903590601e198136030182121561023b57018035906001600160401b03821161023b5760200191813603831361023b57565b9015612d385780614231916141ef565b9091565b90821015612d38576142319160051b8101906141ef565b92919261425881613e55565b9061426a61426586612862565b613e55565b926142776131e087612862565b614341575b6128f161432893611cea61426594614265614322956142af61429d8d612862565b6142a960e084016127c3565b90613b77565b5060208c01908c6142cf6115fd60806142c886856141da565b9401612862565b9261431a61431461430a6142e285612862565b936143036142fd6142f383896141da565b6060810190612341565b90612d2f565b35956141da565b6020810190612341565b90614221565b9490936138f4565b94612862565b1061432f57565b6040516390dd03db60e01b8152600490fd5b926128f161432893611cea614265946142656143616143229634906123ab565b9895505094505093505061427c565b3561037381612554565b9081602091031261023b57516103738161261d565b6060906001600160801b038151168352816020820151916001600160601b03809316602086015263ffffffff6040820151166040860152015116910152565b916101209194936125a86001600160801b03926143f0866101408101996125ae565b60a086019061438f565b9190916001600160801b0380809416911601918211610aba57565b9061ffff166127108160001904831182021581021561023b5761443a91830204612ffd565b906001600160801b0390816001600160601b0384169116031691565b6001600160801b039290918316806144925750506402540be40090818102918183041490151715610aba575b600160801b81101561023b571690565b61449b92613db4565b614482565b6001600160801b039182169082160391908211610aba57565b949291946144d26144ca8280612b9e565b958387614da6565b91909586886144ec60c06144e68680612b9e565b01614370565b1561467f5750506145369394602061450c6115fd6115fd60808601612862565b61451860608601612bb4565b90604051808099819463587278a560e11b83528c89600485016143ce565b03915afa948515611d685760009561465f575b5061ffff851611612b3b57611b92946146426129f49461463c6146336146098d61464f976145ec8f9a6000805160206151e583398151915261459d6128f19f5b61459861192d60608601612bb4565b614415565b6145c68d6129f460206145b28f969f86612326565b92019161127f83516001600160601b031690565b604080516001600160601b03928316815292909116602083015290a160808101906141ef565b9061460360608b019e8f516001600160601b031690565b92614b48565b50919061461d8b516001600160601b031690565b926001600160801b038087169a1693848b614fee565b8198919e61504d565b996144a0565b6001600160801b03169052565b82516001600160601b03166130f6565b61467891955060203d8111612b7457612b6681836102f9565b9338614549565b611b9296506129f49461463c6146336146096146429461464f976145ec8a6000805160206151e583398151915261459d6128f19f9b9d60a06146c4826146ca93612b9e565b01612635565b614589565b6040908151916146de836102c3565b600183528291600091825b60208082101561471557825160209291614702826102c3565b86825286818301528289010152016146e9565b50505091925050565b9095949192611b929794936147338380612b9e565b9260a081019861475a6001600160601b036147506115fd8d612862565b9516809583613dca565b821561480d5750926115fd926147d16147e8999a6131bc6147b96147a860809761479561478a8c6147cb9d612b9e565b610100810190612341565b92906147a087612862565b933691612ccb565b6001600160a01b0390921691614c0e565b809d819c6147cb6115fd8a8a01612862565b9161489d565b6001600160a01b031630146147ed575b5001612862565b614d13565b61480560206147fb8a612d4d565b51019182516123ab565b9052386147e1565b965050506147e8955060806147cb926115fd926147d161482b6146cf565b9a896148378d9b613e55565b614851614842611bb3565b6001600160a01b039093168352565b602082015261485f8b612d4d565b526148698a612d4d565b50612862565b90821015612d38576103739160051b8101906141da565b604090610373949281528160208201520191612d6e565b91929060005b8181106148b1575050505050565b6148bc81838661486f565b600191906040808201356008191684036149e35760608201906001600160a01b0389811691843591906148ef8587612341565b9094803b1561023b5761491b95600080945180988195829463038ccb0560e21b84528a60048501614886565b03925af1928315611d685787936149d0575b5060009384602087019284169360a01c945b614952575b505050505050505b016148a3565b61495c8288612341565b90508110156149cb5780876149768b936112288684612341565b3590815b61498857505081019061493f565b6149af6149a88a6149a2896149ba959d969d989798612341565b90614235565b3691611bdb565b60078a1689896150d1565b5050019560141c9081888b9361497a565b614944565b80611d5c6149dd92610290565b3861492d565b50600090602081016060820183865b614a01575b505050505061494c565b614a0b8285612341565b9050811015614a765780614a2488926112288588612341565b35805b614a3457508101906149f2565b95614a688d614a4e8d61ffff8b60059897981c1690612d5a565b519089614a5f856149a28b8d612341565b9390928b614a7b565b019460141c90818892614a27565b6149f7565b6001600160a01b03959493929091600090614ad690614a9f60408601358989613a56565b836040519a8b8095819463223c43b960e11b83528a356004840152620fffff8c16602484015260a0604484015260a483019061033d565b828951166064830152602089015160848301520393165af1908115611d6857611b9296600092614b13575b50516001600160a01b03165b9161398d565b614b2b90614b0d92933d8091833e61397e81836102f9565b9190614b01565b919082604091031261023b576020825192015190565b60409160608492013590614b5b82610455565b60006044855180978196829563f143408960e01b845260206004850152816024850152848401378181018301849052601f01601f191681010301926001600160a01b03165af18015611d6857614bd1916000908192614bd4575b50614bc481614bcc9295613d73565b948592613d52565b612384565b92565b614bc49250614bcc9150614bfe9060403d8111614c07575b614bf681836102f9565b810190614b32565b92909150614bb5565b503d614bec565b909291815190614c1d82612cb4565b91604090614c2d825194856102f9565b808452614c3c601f1991612cb4565b019060005b828110614cef575050506001600160a01b0381163014948260005b8551811015614ce6578080614cb0614caa6128f188886105d7868e614ca58f614c95614c8d61124660019f86612d5a565b9b8c92612d5a565b516001600160a01b039091169052565b612d5a565b91613e55565b8a60209182614cbf868c612d5a565b510152614ccf575b505001614c5c565b614cdd906147fb848a612d5a565b90523880614cc7565b50955050505050565b6020908251614cfd816102c3565b6000815282600081830152828801015201614c41565b60005b8151811015614d8357614d298183612d5a565b5180516001600160a01b0390614d40908216613e55565b916020810151809310614d5857505050600101614d16565b5160405163fddada7960e01b815291166001600160a01b031660048201526024810191909152604490fd5b5050565b9160a0611b92929493614d9f816101208101976125ae565b019061438f565b9192909283614db760408501614370565b15614e6e5760209084614dd56115fd6115fd6080614df29901612862565b9060405180978194829363090befc360e31b845260048401614d87565b03915afa928315611d6857600093614e4e575b508211612b3b57614e40611b92925b6040614e2786516001600160801b031690565b950194614e38865163ffffffff1690565b904292614e80565b9391949063ffffffff169052565b614e6791935060203d8111613c4f57613c4081836102f9565b9138614e05565b5050614e406020611b92930135614e14565b93909291926000926000829663ffffffff8093169681614ea2575b5050505050565b8703928316918215614e9b57949750929450909282918215614fb1575060019184831615614f9857637fffffff90945b831c1692835b614f1d5750505050614f01611cef614ef2614f1293612391565b6001600160801b038516613d8f565b916001600160601b038316906143fa565b923880808080614e9b565b8060801c614f94578002926b019d971e4fe8401e7400000093848101908110614f86576b033b2e3c9fd0803ce800000080910494848316614f64575b5050821c9283614ed8565b8587929397029186830403614f8a575b8101908110614f865704933880614f59565b8280fd5b8515614f74578380fd5b5080fd5b50637fffffff6b033b2e3c9fd0803ce800000094614ed2565b9250925050600014614fcf57614f01611cef614ef2614f1293612391565b50614f12614f01611cef614ef26b033b2e3c9fd0803ce8000000612391565b9094929360009560009582615039575b5050508381101561503257925b838161501657505050565b61502e929395506001600160601b0380941690613db4565b1691565b508261500b565b615044939650613db4565b92388080614ffe565b90808414615062578061037394039203613db4565b50505050600090565b6003111561507557565b634e487b7160e01b600052602160045260246000fd5b634e487b7160e01b600052600160045260246000fd5b3d156150cc573d906150b282611bc0565b916150c060405193846102f9565b82523d6000602084013e565b606090565b90939291936150df856151b6565b6150e88161506b565b8061513d575091600092918392602083519301915af1906151076150a1565b91925b60021c1580615135575b61511a57565b60405163a5fa8d2b60e01b8152806136ce8460048301610362565b508215615114565b6151468161506b565b60018103615184575061517257816000929160208493519201905af49061516b6150a1565b919261510a565b60405163416aebb560e11b8152600490fd5b8061519060029261506b565b036151b15761517257816000929160208493519201905afa9061516b6150a1565b61508b565b600316906003821461023b5756feddf252ad1be2c89b69c2b068fc378daa952ba7f163c4a11628f55a4df523b3ef9e2e0e4f84a9a8d6b1adbb9a0cbb3d7afb99d0f9686517e03ba45e309b4393a29fb8c3be7f8f68cf2f5c24f5db3697cacd5cb1241a46a26e0cce3cc03069dbc7bb7b4a454dc3493923482f07822329ed19e8244eff582cc204f8554c3620c3fdd7b6990105719101dabeb77144f2a3385c8033acd3af97e9423a695e81ad1eb5",
    "linkReferences": {}
  },
  "methodIdentifiers": {
    "DOMAIN_SEPARATOR()": "3644e515",
    "accrueFee(address)": "2f3eec49",
    "allowance(address,address)": "dd62ed3e",
    "approve(address,uint256)": "095ea7b3",
    "balanceOf(address)": "70a08231",
    "consume(address,uint96,(uint256,bytes[],uint256,uint256[]),address,uint256,bytes)": "8bfa357b",
    "decimals()": "313ce567",
    "deposit((((uint256,uint256,bool,address,address),uint16,bool),uint96,address,bytes))": "5530f07a",
    "depositWithCommand((((uint256,uint256,bool,address,address),uint16,bool),uint96,address,bytes),(address,(uint256,bytes[],uint256,uint256[])))": "70a68904",
    "donate(address,bytes)": "a68a2997",
    "finishRebalancingPhase((uint256[],(uint256[],uint256[]),(uint256[],uint96[]),uint256,address[]))": "133c2406",
    "info()": "370158ea",
    "kSelf()": "7f925f8d",
    "name()": "06fdde03",
    "nonces(address)": "7ecebe00",
    "owner()": "8da5cb5b",
    "permit(address,address,uint256,uint256,uint8,bytes32,bytes32)": "d505accf",
    "prepareRebalancing()": "d90507f1",
    "redeem((((uint256,uint256,bool,address,address),uint16,bool,address,uint256[]),uint256,address,uint128,bytes,address,address,(uint256,bytes[],uint256,uint256[])[],(uint256,bytes[],uint256,uint256[])[],(uint256,bytes[],uint256,uint256[])[],(uint256,bytes[],uint256,uint256[])[]),address)": "831b076a",
    "registerCurrencies(address[])": "e2cbf4d4",
    "reserve()": "cd3293de",
    "reserveBalance()": "a10954fe",
    "setConfig(((uint256,uint256,bool,address,address),uint16,bool),((uint256,uint256,bool,address,address),uint16,bool,address,uint256[]))": "81f6c2e4",
    "setMessenger(address)": "66285967",
    "setOrderBook(address)": "9a1598c8",
    "startRebalancingPhase((uint256[],uint96[]))": "7479dfa8",
    "symbol()": "95d89b41",
    "totalSupply()": "18160ddd",
    "transfer(address,uint256)": "a9059cbb",
    "transferFrom(address,address,uint256)": "23b872dd",
    "transferLatestSnapshot(address,uint256)": "5bf14422",
    "transferOwnership(address)": "f2fde38b",
    "withdraw(uint256,uint256,address)": "0ad58d2f"
  },
  "id": 56
}