{
  "abi": [
    {
      "inputs": [
        {
          "internalType": "string",
          "name": "_name",
          "type": "string"
        },
        {
          "internalType": "string",
          "name": "_symbol",
          "type": "string"
        },
        {
          "internalType": "Currency",
          "name": "_reserve",
          "type": "address"
        },
        {
          "internalType": "address",
          "name": "_governance",
          "type": "address"
        },
        {
          "internalType": "address",
          "name": "_messenger",
          "type": "address"
        },
        {
          "internalType": "uint16",
          "name": "_maxDepositFeeInBPs",
          "type": "uint16"
        },
        {
          "internalType": "uint16",
          "name": "_maxRedemptionFeeInBPs",
          "type": "uint16"
        },
        {
          "internalType": "uint256",
          "name": "_maxAUMDilutionPerSecond",
          "type": "uint256"
        }
      ],
      "stateMutability": "nonpayable",
      "type": "constructor"
    },
    {
      "inputs": [],
      "name": "AmountExceedsBalance",
      "type": "error"
    },
    {
      "inputs": [],
      "name": "AmountMismatch",
      "type": "error"
    },
    {
      "inputs": [
        {
          "internalType": "bytes",
          "name": "",
          "type": "bytes"
        }
      ],
      "name": "CallFailed",
      "type": "error"
    },
    {
      "inputs": [],
      "name": "CurrenciesHashMismatch",
      "type": "error"
    },
    {
      "inputs": [
        {
          "internalType": "Currency",
          "name": "currency",
          "type": "address"
        },
        {
          "internalType": "uint256",
          "name": "minBalance",
          "type": "uint256"
        }
      ],
      "name": "CurrencyBalanceOverdraft",
      "type": "error"
    },
    {
      "inputs": [],
      "name": "ERC20ApproveFailed",
      "type": "error"
    },
    {
      "inputs": [],
      "name": "ERC20TransferFailed",
      "type": "error"
    },
    {
      "inputs": [
        {
          "internalType": "uint256",
          "name": "currencyIndex",
          "type": "uint256"
        }
      ],
      "name": "ExcessNewAnatomyCurrencyIndex",
      "type": "error"
    },
    {
      "inputs": [],
      "name": "FeeExceedsMaxFee",
      "type": "error"
    },
    {
      "inputs": [],
      "name": "Forbidden",
      "type": "error"
    },
    {
      "inputs": [],
      "name": "HashMismatch",
      "type": "error"
    },
    {
      "inputs": [],
      "name": "IndexConfigHash",
      "type": "error"
    },
    {
      "inputs": [],
      "name": "IndexConfigMismatch",
      "type": "error"
    },
    {
      "inputs": [],
      "name": "IndexInitialConfig",
      "type": "error"
    },
    {
      "inputs": [],
      "name": "IndexMaxFee",
      "type": "error"
    },
    {
      "inputs": [],
      "name": "IndexReserveBalance",
      "type": "error"
    },
    {
      "inputs": [],
      "name": "InvalidDepositData",
      "type": "error"
    },
    {
      "inputs": [],
      "name": "InvalidSigner",
      "type": "error"
    },
    {
      "inputs": [],
      "name": "InvalidTarget",
      "type": "error"
    },
    {
      "inputs": [],
      "name": "InvalidWithdrawal",
      "type": "error"
    },
    {
      "inputs": [],
      "name": "NativeTransferFailed",
      "type": "error"
    },
    {
      "inputs": [
        {
          "internalType": "uint256",
          "name": "expectedCount",
          "type": "uint256"
        }
      ],
      "name": "NewAnatomyCurrencyCountMismatch",
      "type": "error"
    },
    {
      "inputs": [
        {
          "internalType": "uint256",
          "name": "currencyIndex",
          "type": "uint256"
        }
      ],
      "name": "NewAnatomyCurrencyIndexNotFound",
      "type": "error"
    },
    {
      "inputs": [
        {
          "internalType": "a160u96",
          "name": "expectedCurrency",
          "type": "uint256"
        }
      ],
      "name": "NewAnatomyCurrencyMismatch",
      "type": "error"
    },
    {
      "inputs": [],
      "name": "PermitDeadlineExpired",
      "type": "error"
    },
    {
      "inputs": [],
      "name": "Rebalancing",
      "type": "error"
    },
    {
      "inputs": [
        {
          "internalType": "Currency",
          "name": "",
          "type": "address"
        }
      ],
      "name": "Registered",
      "type": "error"
    },
    {
      "inputs": [],
      "name": "ZeroShares",
      "type": "error"
    },
    {
      "anonymous": false,
      "inputs": [
        {
          "indexed": true,
          "internalType": "address",
          "name": "owner",
          "type": "address"
        },
        {
          "indexed": true,
          "internalType": "address",
          "name": "spender",
          "type": "address"
        },
        {
          "indexed": false,
          "internalType": "uint256",
          "name": "value",
          "type": "uint256"
        }
      ],
      "name": "Approval",
      "type": "event"
    },
    {
      "anonymous": false,
      "inputs": [
        {
          "indexed": false,
          "internalType": "Currency",
          "name": "currency",
          "type": "address"
        },
        {
          "indexed": false,
          "internalType": "uint256",
          "name": "amount",
          "type": "uint256"
        }
      ],
      "name": "Consume",
      "type": "event"
    },
    {
      "anonymous": false,
      "inputs": [
        {
          "indexed": false,
          "internalType": "Currency",
          "name": "",
          "type": "address"
        },
        {
          "indexed": false,
          "internalType": "uint256",
          "name": "",
          "type": "uint256"
        }
      ],
      "name": "CurrencyRegistered",
      "type": "event"
    },
    {
      "anonymous": false,
      "inputs": [
        {
          "indexed": true,
          "internalType": "address",
          "name": "sender",
          "type": "address"
        },
        {
          "indexed": true,
          "internalType": "address",
          "name": "owner",
          "type": "address"
        },
        {
          "indexed": false,
          "internalType": "uint256",
          "name": "reserve",
          "type": "uint256"
        },
        {
          "indexed": false,
          "internalType": "uint256",
          "name": "shares",
          "type": "uint256"
        }
      ],
      "name": "Deposit",
      "type": "event"
    },
    {
      "anonymous": false,
      "inputs": [
        {
          "indexed": false,
          "internalType": "Currency",
          "name": "currency",
          "type": "address"
        },
        {
          "indexed": false,
          "internalType": "uint256",
          "name": "amount",
          "type": "uint256"
        }
      ],
      "name": "Donate",
      "type": "event"
    },
    {
      "anonymous": false,
      "inputs": [
        {
          "indexed": false,
          "internalType": "uint96",
          "name": "baseFee",
          "type": "uint96"
        },
        {
          "indexed": false,
          "internalType": "uint96",
          "name": "AUMFee",
          "type": "uint96"
        }
      ],
      "name": "FeeAccrued",
      "type": "event"
    },
    {
      "anonymous": false,
      "inputs": [
        {
          "indexed": false,
          "internalType": "uint96",
          "name": "fee",
          "type": "uint96"
        }
      ],
      "name": "FeeSettled",
      "type": "event"
    },
    {
      "anonymous": false,
      "inputs": [
        {
          "indexed": false,
          "internalType": "uint256",
          "name": "snapshot",
          "type": "uint256"
        },
        {
          "indexed": false,
          "internalType": "a160u96[]",
          "name": "currencies",
          "type": "uint256[]"
        }
      ],
      "name": "FinishRebalancing",
      "type": "event"
    },
    {
      "anonymous": false,
      "inputs": [
        {
          "indexed": true,
          "internalType": "address",
          "name": "user",
          "type": "address"
        },
        {
          "indexed": true,
          "internalType": "address",
          "name": "newOwner",
          "type": "address"
        }
      ],
      "name": "OwnershipTransferred",
      "type": "event"
    },
    {
      "anonymous": false,
      "inputs": [
        {
          "indexed": false,
          "internalType": "Currency",
          "name": "sellCurrency",
          "type": "address"
        },
        {
          "indexed": false,
          "internalType": "uint256",
          "name": "soldAmount",
          "type": "uint256"
        },
        {
          "indexed": false,
          "internalType": "Currency",
          "name": "buyCurrency",
          "type": "address"
        },
        {
          "indexed": false,
          "internalType": "uint256",
          "name": "boughtAmount",
          "type": "uint256"
        }
      ],
      "name": "Rebalance",
      "type": "event"
    },
    {
      "anonymous": false,
      "inputs": [
        {
          "indexed": false,
          "internalType": "uint256",
          "name": "amount",
          "type": "uint256"
        },
        {
          "indexed": false,
          "internalType": "bool",
          "name": "isPositive",
          "type": "bool"
        }
      ],
      "name": "ReserveChange",
      "type": "event"
    },
    {
      "anonymous": false,
      "inputs": [
        {
          "indexed": false,
          "internalType": "uint256",
          "name": "snapshot",
          "type": "uint256"
        },
        {
          "indexed": false,
          "internalType": "uint256",
          "name": "amount",
          "type": "uint256"
        },
        {
          "indexed": true,
          "internalType": "address",
          "name": "from",
          "type": "address"
        },
        {
          "indexed": true,
          "internalType": "address",
          "name": "to",
          "type": "address"
        }
      ],
      "name": "SnapshotTransfer",
      "type": "event"
    },
    {
      "anonymous": false,
      "inputs": [
        {
          "indexed": false,
          "internalType": "uint256",
          "name": "snapshot",
          "type": "uint256"
        },
        {
          "components": [
            {
              "internalType": "uint256[]",
              "name": "currencyIndexSet",
              "type": "uint256[]"
            },
            {
              "internalType": "uint96[]",
              "name": "amounts",
              "type": "uint96[]"
            }
          ],
          "indexed": false,
          "internalType": "struct IVault.CurrencyWithdrawal",
          "name": "withdrawals",
          "type": "tuple"
        }
      ],
      "name": "StartRebalancing",
      "type": "event"
    },
    {
      "anonymous": false,
      "inputs": [
        {
          "indexed": true,
          "internalType": "address",
          "name": "from",
          "type": "address"
        },
        {
          "indexed": true,
          "internalType": "address",
          "name": "to",
          "type": "address"
        },
        {
          "indexed": false,
          "internalType": "uint256",
          "name": "value",
          "type": "uint256"
        }
      ],
      "name": "Transfer",
      "type": "event"
    },
    {
      "anonymous": false,
      "inputs": [
        {
          "indexed": true,
          "internalType": "address",
          "name": "sender",
          "type": "address"
        },
        {
          "indexed": true,
          "internalType": "address",
          "name": "receiver",
          "type": "address"
        },
        {
          "indexed": true,
          "internalType": "address",
          "name": "owner",
          "type": "address"
        },
        {
          "indexed": false,
          "internalType": "uint256",
          "name": "snapshot",
          "type": "uint256"
        },
        {
          "indexed": false,
          "internalType": "uint256",
          "name": "k",
          "type": "uint256"
        },
        {
          "indexed": false,
          "internalType": "uint256",
          "name": "reserve",
          "type": "uint256"
        }
      ],
      "name": "Withdraw",
      "type": "event"
    },
    {
      "inputs": [],
      "name": "DOMAIN_SEPARATOR",
      "outputs": [
        {
          "internalType": "bytes32",
          "name": "",
          "type": "bytes32"
        }
      ],
      "stateMutability": "view",
      "type": "function"
    },
    {
      "inputs": [
        {
          "internalType": "address",
          "name": "recipient",
          "type": "address"
        }
      ],
      "name": "accrueFee",
      "outputs": [],
      "stateMutability": "nonpayable",
      "type": "function"
    },
    {
      "inputs": [
        {
          "internalType": "address",
          "name": "",
          "type": "address"
        },
        {
          "internalType": "address",
          "name": "",
          "type": "address"
        }
      ],
      "name": "allowance",
      "outputs": [
        {
          "internalType": "uint256",
          "name": "",
          "type": "uint256"
        }
      ],
      "stateMutability": "view",
      "type": "function"
    },
    {
      "inputs": [
        {
          "internalType": "address",
          "name": "spender",
          "type": "address"
        },
        {
          "internalType": "uint256",
          "name": "amount",
          "type": "uint256"
        }
      ],
      "name": "approve",
      "outputs": [
        {
          "internalType": "bool",
          "name": "",
          "type": "bool"
        }
      ],
      "stateMutability": "nonpayable",
      "type": "function"
    },
    {
      "inputs": [
        {
          "internalType": "address",
          "name": "",
          "type": "address"
        }
      ],
      "name": "balanceOf",
      "outputs": [
        {
          "internalType": "uint256",
          "name": "",
          "type": "uint256"
        }
      ],
      "stateMutability": "view",
      "type": "function"
    },
    {
      "inputs": [
        {
          "internalType": "Currency",
          "name": "currency",
          "type": "address"
        },
        {
          "internalType": "uint96",
          "name": "amount",
          "type": "uint96"
        },
        {
          "components": [
            {
              "internalType": "a160u96",
              "name": "target",
              "type": "uint256"
            },
            {
              "internalType": "bytes[]",
              "name": "datas",
              "type": "bytes[]"
            },
            {
              "internalType": "uint256",
              "name": "flags",
              "type": "uint256"
            },
            {
              "internalType": "uint256[]",
              "name": "packedConfigs",
              "type": "uint256[]"
            }
          ],
          "internalType": "struct ICommand.CommandTarget",
          "name": "command",
          "type": "tuple"
        },
        {
          "internalType": "address",
          "name": "validator",
          "type": "address"
        },
        {
          "internalType": "uint256",
          "name": "packedConfig",
          "type": "uint256"
        },
        {
          "internalType": "bytes",
          "name": "data",
          "type": "bytes"
        }
      ],
      "name": "consume",
      "outputs": [],
      "stateMutability": "nonpayable",
      "type": "function"
    },
    {
      "inputs": [],
      "name": "decimals",
      "outputs": [
        {
          "internalType": "uint8",
          "name": "",
          "type": "uint8"
        }
      ],
      "stateMutability": "view",
      "type": "function"
    },
    {
      "inputs": [
        {
          "components": [
            {
              "components": [
                {
                  "components": [
                    {
                      "internalType": "uint256",
                      "name": "latestSnapshot",
                      "type": "uint256"
                    },
                    {
                      "internalType": "uint256",
                      "name": "AUMDilutionPerSecond",
                      "type": "uint256"
                    },
                    {
                      "internalType": "bool",
                      "name": "useCustomAUMFee",
                      "type": "bool"
                    },
                    {
                      "internalType": "address",
                      "name": "staticPriceOracle",
                      "type": "address"
                    },
                    {
                      "internalType": "address",
                      "name": "metadata",
                      "type": "address"
                    }
                  ],
                  "internalType": "struct IIndex.Config",
                  "name": "shared",
                  "type": "tuple"
                },
                {
                  "internalType": "uint16",
                  "name": "feeBPs",
                  "type": "uint16"
                },
                {
                  "internalType": "bool",
                  "name": "useCustomFeeCallback",
                  "type": "bool"
                }
              ],
              "internalType": "struct IIndex.DepositConfig",
              "name": "config",
              "type": "tuple"
            },
            {
              "internalType": "uint96",
              "name": "amount",
              "type": "uint96"
            },
            {
              "internalType": "address",
              "name": "recipient",
              "type": "address"
            },
            {
              "internalType": "bytes",
              "name": "payload",
              "type": "bytes"
            }
          ],
          "internalType": "struct IIndex.DepositParams",
          "name": "params",
          "type": "tuple"
        }
      ],
      "name": "deposit",
      "outputs": [],
      "stateMutability": "payable",
      "type": "function"
    },
    {
      "inputs": [
        {
          "components": [
            {
              "components": [
                {
                  "components": [
                    {
                      "internalType": "uint256",
                      "name": "latestSnapshot",
                      "type": "uint256"
                    },
                    {
                      "internalType": "uint256",
                      "name": "AUMDilutionPerSecond",
                      "type": "uint256"
                    },
                    {
                      "internalType": "bool",
                      "name": "useCustomAUMFee",
                      "type": "bool"
                    },
                    {
                      "internalType": "address",
                      "name": "staticPriceOracle",
                      "type": "address"
                    },
                    {
                      "internalType": "address",
                      "name": "metadata",
                      "type": "address"
                    }
                  ],
                  "internalType": "struct IIndex.Config",
                  "name": "shared",
                  "type": "tuple"
                },
                {
                  "internalType": "uint16",
                  "name": "feeBPs",
                  "type": "uint16"
                },
                {
                  "internalType": "bool",
                  "name": "useCustomFeeCallback",
                  "type": "bool"
                }
              ],
              "internalType": "struct IIndex.DepositConfig",
              "name": "config",
              "type": "tuple"
            },
            {
              "internalType": "uint96",
              "name": "amount",
              "type": "uint96"
            },
            {
              "internalType": "address",
              "name": "recipient",
              "type": "address"
            },
            {
              "internalType": "bytes",
              "name": "payload",
              "type": "bytes"
            }
          ],
          "internalType": "struct IIndex.DepositParams",
          "name": "params",
          "type": "tuple"
        },
        {
          "components": [
            {
              "internalType": "Currency",
              "name": "currency",
              "type": "address"
            },
            {
              "components": [
                {
                  "internalType": "a160u96",
                  "name": "target",
                  "type": "uint256"
                },
                {
                  "internalType": "bytes[]",
                  "name": "datas",
                  "type": "bytes[]"
                },
                {
                  "internalType": "uint256",
                  "name": "flags",
                  "type": "uint256"
                },
                {
                  "internalType": "uint256[]",
                  "name": "packedConfigs",
                  "type": "uint256[]"
                }
              ],
              "internalType": "struct ICommand.CommandTarget",
              "name": "command",
              "type": "tuple"
            }
          ],
          "internalType": "struct IIndex.DepositCallbackParams",
          "name": "callbackParams",
          "type": "tuple"
        }
      ],
      "name": "depositWithCommand",
      "outputs": [],
      "stateMutability": "payable",
      "type": "function"
    },
    {
      "inputs": [
        {
          "internalType": "Currency",
          "name": "currency",
          "type": "address"
        },
        {
          "internalType": "bytes",
          "name": "data",
          "type": "bytes"
        }
      ],
      "name": "donate",
      "outputs": [],
      "stateMutability": "nonpayable",
      "type": "function"
    },
    {
      "inputs": [
        {
          "components": [
            {
              "internalType": "a160u96[]",
              "name": "anatomyCurrencies",
              "type": "uint256[]"
            },
            {
              "components": [
                {
                  "internalType": "a160u96[]",
                  "name": "currencies",
                  "type": "uint256[]"
                },
                {
                  "internalType": "uint256[]",
                  "name": "currencyIndexSet",
                  "type": "uint256[]"
                }
              ],
              "internalType": "struct IVault.SnapshotAnatomy",
              "name": "newAnatomy",
              "type": "tuple"
            },
            {
              "components": [
                {
                  "internalType": "uint256[]",
                  "name": "currencyIndexSet",
                  "type": "uint256[]"
                },
                {
                  "internalType": "uint96[]",
                  "name": "amounts",
                  "type": "uint96[]"
                }
              ],
              "internalType": "struct IVault.CurrencyWithdrawal",
              "name": "withdrawals",
              "type": "tuple"
            },
            {
              "internalType": "uint256",
              "name": "lastKBalance",
              "type": "uint256"
            },
            {
              "internalType": "Currency[]",
              "name": "currencies",
              "type": "address[]"
            }
          ],
          "internalType": "struct IVault.EndRebalancingParams",
          "name": "params",
          "type": "tuple"
        }
      ],
      "name": "finishRebalancingPhase",
      "outputs": [
        {
          "internalType": "bytes32",
          "name": "resultHash",
          "type": "bytes32"
        }
      ],
      "stateMutability": "nonpayable",
      "type": "function"
    },
    {
      "inputs": [],
      "name": "info",
      "outputs": [
        {
          "internalType": "uint256",
          "name": "k",
          "type": "uint256"
        },
        {
          "internalType": "a160u96[]",
          "name": "currencies",
          "type": "uint256[]"
        }
      ],
      "stateMutability": "view",
      "type": "function"
    },
    {
      "inputs": [],
      "name": "kSelf",
      "outputs": [
        {
          "internalType": "uint256",
          "name": "",
          "type": "uint256"
        }
      ],
      "stateMutability": "view",
      "type": "function"
    },
    {
      "inputs": [],
      "name": "name",
      "outputs": [
        {
          "internalType": "string",
          "name": "",
          "type": "string"
        }
      ],
      "stateMutability": "view",
      "type": "function"
    },
    {
      "inputs": [
        {
          "internalType": "address",
          "name": "",
          "type": "address"
        }
      ],
      "name": "nonces",
      "outputs": [
        {
          "internalType": "uint256",
          "name": "",
          "type": "uint256"
        }
      ],
      "stateMutability": "view",
      "type": "function"
    },
    {
      "inputs": [],
      "name": "owner",
      "outputs": [
        {
          "internalType": "address",
          "name": "",
          "type": "address"
        }
      ],
      "stateMutability": "view",
      "type": "function"
    },
    {
      "inputs": [
        {
          "internalType": "address",
          "name": "owner",
          "type": "address"
        },
        {
          "internalType": "address",
          "name": "spender",
          "type": "address"
        },
        {
          "internalType": "uint256",
          "name": "value",
          "type": "uint256"
        },
        {
          "internalType": "uint256",
          "name": "deadline",
          "type": "uint256"
        },
        {
          "internalType": "uint8",
          "name": "v",
          "type": "uint8"
        },
        {
          "internalType": "bytes32",
          "name": "r",
          "type": "bytes32"
        },
        {
          "internalType": "bytes32",
          "name": "s",
          "type": "bytes32"
        }
      ],
      "name": "permit",
      "outputs": [],
      "stateMutability": "nonpayable",
      "type": "function"
    },
    {
      "inputs": [],
      "name": "prepareRebalancing",
      "outputs": [],
      "stateMutability": "nonpayable",
      "type": "function"
    },
    {
      "inputs": [
        {
          "components": [
            {
              "components": [
                {
                  "components": [
                    {
                      "internalType": "uint256",
                      "name": "latestSnapshot",
                      "type": "uint256"
                    },
                    {
                      "internalType": "uint256",
                      "name": "AUMDilutionPerSecond",
                      "type": "uint256"
                    },
                    {
                      "internalType": "bool",
                      "name": "useCustomAUMFee",
                      "type": "bool"
                    },
                    {
                      "internalType": "address",
                      "name": "staticPriceOracle",
                      "type": "address"
                    },
                    {
                      "internalType": "address",
                      "name": "metadata",
                      "type": "address"
                    }
                  ],
                  "internalType": "struct IIndex.Config",
                  "name": "shared",
                  "type": "tuple"
                },
                {
                  "internalType": "uint16",
                  "name": "feeBPs",
                  "type": "uint16"
                },
                {
                  "internalType": "bool",
                  "name": "useCustomFeeCallback",
                  "type": "bool"
                },
                {
                  "internalType": "address",
                  "name": "forwarder",
                  "type": "address"
                },
                {
                  "internalType": "a160u96[]",
                  "name": "homeCurrencies",
                  "type": "uint256[]"
                }
              ],
              "internalType": "struct IIndex.RedemptionConfig",
              "name": "config",
              "type": "tuple"
            },
            {
              "internalType": "uint256",
              "name": "expectedInitialReserve",
              "type": "uint256"
            },
            {
              "internalType": "address",
              "name": "owner",
              "type": "address"
            },
            {
              "internalType": "uint128",
              "name": "shares",
              "type": "uint128"
            },
            {
              "internalType": "bytes",
              "name": "payload",
              "type": "bytes"
            },
            {
              "internalType": "address payable",
              "name": "recipient",
              "type": "address"
            },
            {
              "internalType": "address",
              "name": "snapshotRecipient",
              "type": "address"
            },
            {
              "components": [
                {
                  "internalType": "a160u96",
                  "name": "target",
                  "type": "uint256"
                },
                {
                  "internalType": "bytes[]",
                  "name": "datas",
                  "type": "bytes[]"
                },
                {
                  "internalType": "uint256",
                  "name": "flags",
                  "type": "uint256"
                },
                {
                  "internalType": "uint256[]",
                  "name": "packedConfigs",
                  "type": "uint256[]"
                }
              ],
              "internalType": "struct ICommand.CommandTarget[]",
              "name": "reserveUnchangedAssetCommands",
              "type": "tuple[]"
            },
            {
              "components": [
                {
                  "internalType": "a160u96",
                  "name": "target",
                  "type": "uint256"
                },
                {
                  "internalType": "bytes[]",
                  "name": "datas",
                  "type": "bytes[]"
                },
                {
                  "internalType": "uint256",
                  "name": "flags",
                  "type": "uint256"
                },
                {
                  "internalType": "uint256[]",
                  "name": "packedConfigs",
                  "type": "uint256[]"
                }
              ],
              "internalType": "struct ICommand.CommandTarget[]",
              "name": "reserveUnchangedReserveCommands",
              "type": "tuple[]"
            },
            {
              "components": [
                {
                  "internalType": "a160u96",
                  "name": "target",
                  "type": "uint256"
                },
                {
                  "internalType": "bytes[]",
                  "name": "datas",
                  "type": "bytes[]"
                },
                {
                  "internalType": "uint256",
                  "name": "flags",
                  "type": "uint256"
                },
                {
                  "internalType": "uint256[]",
                  "name": "packedConfigs",
                  "type": "uint256[]"
                }
              ],
              "internalType": "struct ICommand.CommandTarget[]",
              "name": "reserveChangedAssetCommands",
              "type": "tuple[]"
            },
            {
              "components": [
                {
                  "internalType": "a160u96",
                  "name": "target",
                  "type": "uint256"
                },
                {
                  "internalType": "bytes[]",
                  "name": "datas",
                  "type": "bytes[]"
                },
                {
                  "internalType": "uint256",
                  "name": "flags",
                  "type": "uint256"
                },
                {
                  "internalType": "uint256[]",
                  "name": "packedConfigs",
                  "type": "uint256[]"
                }
              ],
              "internalType": "struct ICommand.CommandTarget[]",
              "name": "reserveChangedReserveCommands",
              "type": "tuple[]"
            }
          ],
          "internalType": "struct IIndex.RedemptionParams",
          "name": "params",
          "type": "tuple"
        },
        {
          "internalType": "address",
          "name": "forwardedSender",
          "type": "address"
        }
      ],
      "name": "redeem",
      "outputs": [
        {
          "internalType": "uint256",
          "name": "",
          "type": "uint256"
        },
        {
          "internalType": "uint256",
          "name": "",
          "type": "uint256"
        }
      ],
      "stateMutability": "nonpayable",
      "type": "function"
    },
    {
      "inputs": [
        {
          "internalType": "Currency[]",
          "name": "currencies",
          "type": "address[]"
        }
      ],
      "name": "registerCurrencies",
      "outputs": [
        {
          "components": [
            {
              "internalType": "uint256",
              "name": "chainId",
              "type": "uint256"
            },
            {
              "components": [
                {
                  "internalType": "string",
                  "name": "name",
                  "type": "string"
                },
                {
                  "internalType": "string",
                  "name": "symbol",
                  "type": "string"
                },
                {
                  "internalType": "Currency",
                  "name": "currency",
                  "type": "address"
                },
                {
                  "internalType": "uint256",
                  "name": "id",
                  "type": "uint256"
                }
              ],
              "internalType": "struct IVault.CurrencyMetadata[]",
              "name": "metadata",
              "type": "tuple[]"
            },
            {
              "internalType": "bytes32",
              "name": "currenciesHash",
              "type": "bytes32"
            }
          ],
          "internalType": "struct IVault.RegisterCurrenciesResult",
          "name": "result",
          "type": "tuple"
        }
      ],
      "stateMutability": "payable",
      "type": "function"
    },
    {
      "inputs": [],
      "name": "reserve",
      "outputs": [
        {
          "internalType": "Currency",
          "name": "",
          "type": "address"
        }
      ],
      "stateMutability": "view",
      "type": "function"
    },
    {
      "inputs": [],
      "name": "reserveBalance",
      "outputs": [
        {
          "internalType": "uint96",
          "name": "",
          "type": "uint96"
        }
      ],
      "stateMutability": "view",
      "type": "function"
    },
    {
      "inputs": [
        {
          "components": [
            {
              "components": [
                {
                  "internalType": "uint256",
                  "name": "latestSnapshot",
                  "type": "uint256"
                },
                {
                  "internalType": "uint256",
                  "name": "AUMDilutionPerSecond",
                  "type": "uint256"
                },
                {
                  "internalType": "bool",
                  "name": "useCustomAUMFee",
                  "type": "bool"
                },
                {
                  "internalType": "address",
                  "name": "staticPriceOracle",
                  "type": "address"
                },
                {
                  "internalType": "address",
                  "name": "metadata",
                  "type": "address"
                }
              ],
              "internalType": "struct IIndex.Config",
              "name": "shared",
              "type": "tuple"
            },
            {
              "internalType": "uint16",
              "name": "feeBPs",
              "type": "uint16"
            },
            {
              "internalType": "bool",
              "name": "useCustomFeeCallback",
              "type": "bool"
            }
          ],
          "internalType": "struct IIndex.DepositConfig",
          "name": "_depositConfig",
          "type": "tuple"
        },
        {
          "components": [
            {
              "components": [
                {
                  "internalType": "uint256",
                  "name": "latestSnapshot",
                  "type": "uint256"
                },
                {
                  "internalType": "uint256",
                  "name": "AUMDilutionPerSecond",
                  "type": "uint256"
                },
                {
                  "internalType": "bool",
                  "name": "useCustomAUMFee",
                  "type": "bool"
                },
                {
                  "internalType": "address",
                  "name": "staticPriceOracle",
                  "type": "address"
                },
                {
                  "internalType": "address",
                  "name": "metadata",
                  "type": "address"
                }
              ],
              "internalType": "struct IIndex.Config",
              "name": "shared",
              "type": "tuple"
            },
            {
              "internalType": "uint16",
              "name": "feeBPs",
              "type": "uint16"
            },
            {
              "internalType": "bool",
              "name": "useCustomFeeCallback",
              "type": "bool"
            },
            {
              "internalType": "address",
              "name": "forwarder",
              "type": "address"
            },
            {
              "internalType": "a160u96[]",
              "name": "homeCurrencies",
              "type": "uint256[]"
            }
          ],
          "internalType": "struct IIndex.RedemptionConfig",
          "name": "_redemptionConfig",
          "type": "tuple"
        }
      ],
      "name": "setConfig",
      "outputs": [],
      "stateMutability": "nonpayable",
      "type": "function"
    },
    {
      "inputs": [
        {
          "internalType": "address",
          "name": "_messenger",
          "type": "address"
        }
      ],
      "name": "setMessenger",
      "outputs": [],
      "stateMutability": "nonpayable",
      "type": "function"
    },
    {
      "inputs": [
        {
          "internalType": "address",
          "name": "_orderBook",
          "type": "address"
        }
      ],
      "name": "setOrderBook",
      "outputs": [],
      "stateMutability": "nonpayable",
      "type": "function"
    },
    {
      "inputs": [
        {
          "components": [
            {
              "internalType": "uint256[]",
              "name": "currencyIndexSet",
              "type": "uint256[]"
            },
            {
              "internalType": "uint96[]",
              "name": "amounts",
              "type": "uint96[]"
            }
          ],
          "internalType": "struct IVault.CurrencyWithdrawal",
          "name": "withdrawals",
          "type": "tuple"
        }
      ],
      "name": "startRebalancingPhase",
      "outputs": [],
      "stateMutability": "nonpayable",
      "type": "function"
    },
    {
      "inputs": [],
      "name": "symbol",
      "outputs": [
        {
          "internalType": "string",
          "name": "",
          "type": "string"
        }
      ],
      "stateMutability": "view",
      "type": "function"
    },
    {
      "inputs": [],
      "name": "totalSupply",
      "outputs": [
        {
          "internalType": "uint256",
          "name": "",
          "type": "uint256"
        }
      ],
      "stateMutability": "view",
      "type": "function"
    },
    {
      "inputs": [
        {
          "internalType": "address",
          "name": "to",
          "type": "address"
        },
        {
          "internalType": "uint256",
          "name": "amount",
          "type": "uint256"
        }
      ],
      "name": "transfer",
      "outputs": [
        {
          "internalType": "bool",
          "name": "",
          "type": "bool"
        }
      ],
      "stateMutability": "nonpayable",
      "type": "function"
    },
    {
      "inputs": [
        {
          "internalType": "address",
          "name": "from",
          "type": "address"
        },
        {
          "internalType": "address",
          "name": "to",
          "type": "address"
        },
        {
          "internalType": "uint256",
          "name": "amount",
          "type": "uint256"
        }
      ],
      "name": "transferFrom",
      "outputs": [
        {
          "internalType": "bool",
          "name": "",
          "type": "bool"
        }
      ],
      "stateMutability": "nonpayable",
      "type": "function"
    },
    {
      "inputs": [
        {
          "internalType": "address",
          "name": "recipient",
          "type": "address"
        },
        {
          "internalType": "uint256",
          "name": "kAmountWads",
          "type": "uint256"
        }
      ],
      "name": "transferLatestSnapshot",
      "outputs": [
        {
          "internalType": "uint256",
          "name": "snapshot",
          "type": "uint256"
        }
      ],
      "stateMutability": "nonpayable",
      "type": "function"
    },
    {
      "inputs": [
        {
          "internalType": "address",
          "name": "newOwner",
          "type": "address"
        }
      ],
      "name": "transferOwnership",
      "outputs": [],
      "stateMutability": "nonpayable",
      "type": "function"
    },
    {
      "inputs": [
        {
          "internalType": "uint256",
          "name": "snapshot",
          "type": "uint256"
        },
        {
          "internalType": "uint256",
          "name": "kAmount",
          "type": "uint256"
        },
        {
          "internalType": "address",
          "name": "recipient",
          "type": "address"
        }
      ],
      "name": "withdraw",
      "outputs": [],
      "stateMutability": "nonpayable",
      "type": "function"
    },
    {
      "stateMutability": "payable",
      "type": "receive"
    }
  ],
  "bytecode": {
    "object": "0x6101608060405234620007e45762005aa68038038091620000218285620007e9565b833981019061010081830312620007e45780516001600160401b038111620007e45782620000519183016200080d565b602082015190926001600160401b038211620007e457620000749183016200080d565b620000826040830162000883565b91620000916060820162000883565b91620000a06080830162000883565b94620000af60a0840162000898565b9560e0620000c060c0860162000898565b9401516001600355600480546001600160a01b0319166001600160a01b0390971696871790559460007f8be0079c531659141344cd1fd0a4f28419497f9722a3daafe3b4186f6b6457e08180a3600780546001600160a01b0319166001600160a01b03929092169190911790556040516001600160401b0360208201908111908211176200053157602081016040526000815260405190816040810191602080830152805180935260206060830191019260005b818110620007ca575050620001959250601f198282030182520382620007e9565b80516020918201206000805260099091527fec8156718a8372b1db44bb411437d0870f3e3790d4a08526d024ce1b0b668f6b556012610140526101208590528051906001600160401b03821162000531578190620001f5600d54620008a8565b601f811162000769575b50602090601f8311600114620006eb57600092620006df575b50508160011b916000199060031b1c191617600d555b8051906001600160401b038211620005315781906200024f600e54620008a8565b601f81116200067e575b50602090601f83116001146200060057600092620005f4575b50508160011b916000199060031b1c191617600e555b46608052604051600d54816000620002a083620008a8565b8083529260018116908115620005d3575060011462000580575b620002c892500382620007e9565b6020815191012093604051947f8b73c3c69bb8fe3d512ecc4cf759cc79239f7b179b0ffacaa9a75d522b39400f602087015260408601527fc89efdaa54c0f20c7adf612882df0950f5a951637e0307cdcb4c672f298b8bc660608601524660808601523060a086015260a085528460c081011060018060401b0360c087011117620005315760c085016040528451602086012060a05260125463ffffffff60e01b4260e01b169060018060e01b03161760125560c05260e0526101005260018060a01b03169081600052600260205260406000205460009062000577575b6200055d575060005490680100000000000000008210156200053157600182019182600055828110156200054757600080527f290decd9548b62a8d60345a988386fc84ba6bc95484008f6362f93160ef3e563810180546001600160a01b03191683179055600154604080516020810192835290810184905260608082018490528152936080850192916001600160401b03841186851017620005315783604052855190206001558082116200051b577f0e19cc8726123810831f36531bcdb15eebbfc77b9f96c3d041ace161847083a1948460a0926040966000526002602052866000205584520152a16040516151809081620008e68239608051816123f6015260a0518161241d015260c05181611425015260e0518181816114f4015281816116b301526129ac0152610100518181816114bc0152818161169201526128c4015261012051818181610d8501528181610f86015281816117b901528181611e1801526120a801526101405181610bc10152f35b634e487b7160e01b600052601160045260246000fd5b634e487b7160e01b600052604160045260246000fd5b634e487b7160e01b600052603260045260246000fd5b60c0906024926305a6e69560e31b8383015260c482015201fd5b506001620003a6565b50600d6000908152909160008051602062005a868339815191525b818310620005b6575050906020620002c892820101620002ba565b60209193508060019154838588010152019101909183926200059b565b60209250620002c894915060ff191682840152151560051b820101620002ba565b01519050388062000272565b600e6000908152935060008051602062005a6683398151915291905b601f198416851062000662576001945083601f1981161062000648575b505050811b01600e5562000288565b015160001960f88460031b161c1916905538808062000639565b818101518355602094850194600190930192909101906200061c565b600e60005290915060008051602062005a66833981519152601f840160051c810160208510620006d7575b90849392915b601f830160051c82018110620006c757505062000259565b60008155859450600101620006af565b5080620006a9565b01519050388062000218565b600d6000908152935060008051602062005a8683398151915291905b601f19841685106200074d576001945083601f1981161062000733575b505050811b01600d556200022e565b015160001960f88460031b161c1916905538808062000724565b8181015183556020948501946001909301929091019062000707565b600d60005290915060008051602062005a86833981519152601f840160051c810160208510620007c2575b90849392915b601f830160051c82018110620007b2575050620001ff565b600081558594506001016200079a565b508062000794565b845183526020948501948694509092019160010162000174565b600080fd5b601f909101601f19168101906001600160401b038211908210176200053157604052565b919080601f84011215620007e45782516001600160401b0381116200053157602090604051926200084883601f19601f8501160185620007e9565b818452828287010111620007e45760005b8181106200086f57508260009394955001015290565b858101830151848201840152820162000859565b51906001600160a01b0382168203620007e457565b519061ffff82168203620007e457565b90600182811c92168015620008da575b6020831014620008c457565b634e487b7160e01b600052602260045260246000fd5b91607f1691620008b856fe6080604052600436101561001b575b361561001957600080fd5b005b60003560e01c806306fdde031461022b578063095ea7b3146102265780630ad58d2f14610221578063133c24061461021c57806318160ddd1461021757806323b872dd146102125780632f3eec491461020d578063313ce567146102085780633644e51514610203578063370158ea146101fe5780635530f07a146101f95780635bf14422146101f457806366285967146101ef57806370a08231146101ea57806370a68904146101e55780637479dfa8146101e05780637ecebe00146101db5780637f925f8d146101d657806381f6c2e4146101d1578063831b076a146101cc5780638bfa357b146101c75780638da5cb5b146101c257806395d89b41146101bd5780639a1598c8146101b8578063a10954fe146101b3578063a68a2997146101ae578063a9059cbb146101a9578063cd3293de146101a4578063d505accf1461019f578063d90507f11461019a578063dd62ed3e14610195578063e2cbf4d4146101905763f2fde38b0361000e57612290565b612210565b6120fe565b61204b565b611e47565b611e02565b611d85565b611c2a565b611b95565b611b45565b611a9c565b611a73565b6119f3565b61155c565b611360565b611320565b6112e3565b610faa565b610ef8565b610ead565b610e5d565b610ddd565b610cf9565b610c4c565b610be5565b610ba7565b610abf565b61099f565b610978565b6105e8565b6104f5565b610466565b610376565b600091031261023b57565b600080fd5b90600182811c92168015610270575b602083101461025a57565b634e487b7160e01b600052602260045260246000fd5b91607f169161024f565b634e487b7160e01b600052604160045260246000fd5b6001600160401b0381116102a357604052565b61027a565b608081019081106001600160401b038211176102a357604052565b604081019081106001600160401b038211176102a357604052565b606081019081106001600160401b038211176102a357604052565b90601f801991011681019081106001600160401b038211176102a357604052565b60005b83811061032d5750506000910152565b818101518382015260200161031d565b906020916103568151809281855285808601910161031a565b601f01601f1916010190565b90602061037392818152019061033d565b90565b3461023b576000806003193601126104525760405181600d5461039881610240565b90818452602092600191828116908160001461043057506001146103d7575b6103d3856103c7818903826102f9565b60405191829182610362565b0390f35b929450600d83527fd7b6990105719101dabeb77144f2a3385c8033acd3af97e9423a695e81ad1eb55b82841061041d57505050816103d3936103c79282010193386103b7565b8054858501870152928501928101610400565b60ff191686860152505050151560051b82010191506103c7816103d3386103b7565b80fd5b6001600160a01b0381160361023b57565b3461023b57604036600319011261023b5760043561048381610455565b60243590336000526010602052816104b18260406000209060018060a01b0316600052602052604060002090565b556040519182526001600160a01b03169033907f8c5be1e5ebec7d5bd14f71427d1e84f3dd0314c0f7b2291e5b200ac8c7c3b92590602090a3602060405160018152f35b3461023b57606036600319011261023b5760443560043560243561051883610455565b6105ba6105b5600093808552600b6020526105518461054b604088203360018060a01b0316600052602052604060002090565b546123d8565b6105803361056984600052600b602052604060002090565b9060018060a01b0316600052602052604060002090565b556040805182815260208101869052869133916000805160206151608339815191529190a36000526008602052604060002090565b612ccd565b825b81518110156105e457806105dd86856105d760019587612dc2565b51613c64565b50016105bc565b8380f35b3461023b576003196020368201811361023b576004918235916001600160401b03831161023b5760a083850192843603011261023b576007546001600160a01b031633036109675761063e6001600354146127b7565b600260035561064b612c30565b61065e61065a83830151151590565b1590565b61095657516001600160f81b031691610681836000526009602052604060002090565b54936106906044820183612eca565b95604095865197886106ab8782019260648701359084612e74565b03986106bf601f199a8b81018352826102f9565b51902003610948576000198501906106e1826000526009602052604060002090565b546107106107046106f2878061236e565b8b939193519283918b83019586612f10565b038c81018352826102f9565b5190200361093a5750926108ff8360246103d3999461075461091e976107436109129a600052600a602052604060002090565b61074f60015491612ccd565b613e2c565b019061078661076c6107668484612eca565b8061236e565b906107818b6000526008602052604060002090565b612f21565b6107b76107ab6107996107668585612eca565b8c939193519283918983019586612f10565b038881018352826102f9565b5190206107ce896000526009602052604060002090565b556107fd6107e86107df8484612eca565b8681019061236e565b906107818b600052600a602052604060002090565b61083761082a6108178a600052600b602052604060002090565b3060009081526020919091526040902090565b670de0b6b3a76400009055565b8851888152670de0b6b3a76400006020820152309060009060008051602061516083398151915290604090a3600580546001600160f81b031690557ff4253f07dc7fa143515722038e1d56ecbbdc6f717b9556772ebc8cb012b4545f6108a06107668484612eca565b906108b08c519283928d84612fa6565b0390a16108f46108da6107666108d26108c98686612eca565b8881019061236e565b959094612eca565b9290936108e5611bbc565b9a468c52878c01523691612d33565b898901523691612d33565b6060860152855193849182019586612ff1565b039081018352826102f9565b5190209061092c6001600355565b519081529081906020820190565b8651633f4d605360e01b8152fd5b8551633f4d605360e01b8152fd5b6040516370e0699160e11b81528590fd5b604051631dd2188d60e31b81528490fd5b3461023b57600036600319011261023b5760206001600160801b0360125416604051908152f35b3461023b57606036600319011261023b576004356109bc81610455565b6024356109c881610455565b6001600160a01b0380831660008181526010602090815260408083203384529091529020604435949193919291905460018101610a74575b50610a2c6000805160206151208339815191529360018060a01b0316600052600f602052604060002090565b610a378682546123d8565b90556001600160a01b0381166000908152600f60205260409020805486019055604051948552169280602081015b0390a360405160018152602090f35b858103908111610aba5760008051602061512083398151915293610a2c91610ab2336105698460018060a01b03166000526010602052604060002090565b559350610a00565b61233d565b3461023b57602036600319011261023b57600435610adc81610455565b6004546001600160a01b0390610af59082163314612302565b6001600160601b0360125460801c1691169081600052600f6020526040600020805490828201809211610aba5755601280546bffffffffffffffffffffffff60801b191690556040516001600160601b038216815260009160008051602061512083398151915291610ba291907f984c2d523dd62865bad71db6b8b93c368cf7b3a3331818cb3b6c6cbeeefd8f9290602090a16040516001600160601b0390911681529081906020820190565b0390a3005b3461023b57600036600319011261023b57602060405160ff7f0000000000000000000000000000000000000000000000000000000000000000168152f35b3461023b57600036600319011261023b576020610c006123f1565b604051908152f35b9060609160408101918152602092816040858094015285518094520193019160005b828110610c38575050505090565b835185529381019392810192600101610c2a565b3461023b57600080600319360112610452576005546001600160f81b0316808252600b60209081526040808420306000908152908352209092905491815260088352604081209260405193848286938354928381520192855280852094905b828210610cd057505050610cc1925003836102f9565b6103d360405192839283610c08565b855484526001958601958895509381019390910190610cab565b908161014091031261023b5790565b602036600319011261023b576004356001600160401b03811161023b57610d24903690600401610cea565b610d326001600354146127b7565b600260035560055460f81c610dcb576014546040516020810190610d6881610d5a86856126a5565b03601f1981018352826102f9565b51902003610db95780610da9610d8360e0610daf94016127f0565b7f0000000000000000000000000000000000000000000000000000000000000000613ad2565b90612899565b6100196001600355565b60405163fab3fbfd60e01b8152600490fd5b6040516370e0699160e11b8152600490fd5b3461023b57604036600319011261023b57600435610dfa81610455565b6007546001600160a01b03163303610e4b57610e14612c30565b906020820151610dcb57610e3b6103d39260018060f81b03905116916024359030846136f6565b6040519081529081906020820190565b604051631dd2188d60e31b8152600490fd5b3461023b57602036600319011261023b57600435610e7a81610455565b6004546001600160a01b039190610e949083163314612302565b166001600160601b0360a01b6007541617600755600080f35b3461023b57602036600319011261023b57600435610eca81610455565b60018060a01b0316600052600f6020526020604060002054604051908152f35b9081604091031261023b5790565b604036600319011261023b576001600160401b0360043581811161023b57610f24903690600401610cea565b9060243590811161023b57610f3d903690600401610eea565b90610f4c6001600354146127b7565b600260035560055460f81c610dcb576014546040516020810190610f7481610d5a86856126a5565b51902003610db957610da9610daf92827f00000000000000000000000000000000000000000000000000000000000000006141a7565b3461023b5760208060031936011261023b57600480356001600160401b03811161023b57610fdb9036908301610eea565b6007549091906001600160a01b031633036112d45760019261100084600354146127b7565b600260035561100d612c30565b938185019261101c8451151590565b6112c5579492919061102c612c58565b84516001600160f81b03166000908152600a6020526040902090969061105190612ccd565b9660009182845b6111bd575b50505050507fc16b8f393843b23916f064d27f9dec81efa312d8e9b1ab047270f1623697ae099450829161111b91610d5a6110dc6110c46108176110aa61114e995160018060f81b031690565b6001600160f81b03166000908152600b6020526040902090565b54928361116a575b6040519283918201948a86612e74565b5190208351611114906110f7906001600160f81b0316612e90565b6001600160f81b0316808652600090815260096020526040902090565b5560019052565b80516020820151151560f81b6001600160f81b0319166001600160f81b039190911617600555516001600160f81b031690565b61115d60405192839283612ea8565b0390a16100196001600355565b8651600090611187903090610569906001600160f81b03166110aa565b558651604080516001600160f81b03909216825260208201869052600091309160008051602061516083398151915291a36110cc565b82989798518110156112bd576111e6816111e16111da8b8061236e565b3691612d33565b613796565b6111f6575b969796840184611058565b929861120561065a8583613796565b6112ad5784808b61129e61123361122e8d9e9f6112288d9e9f879e81019061236e565b90612da5565b6127f0565b61128461126d6112536112468c8c612dc2565b516001600160a01b031690565b6001600160a01b03166000908152600c6020526040902090565b9161127f83546001600160601b031690565b612353565b6001600160601b03166001600160601b0319825416179055565b0194919a9998979650506111eb565b5060405163c945242d60e01b8152fd5b97969761105d565b6040516370e0699160e11b8152fd5b604051631dd2188d60e31b8152fd5b3461023b57602036600319011261023b5760043561130081610455565b60018060a01b031660005260116020526020604060002054604051908152f35b3461023b57600036600319011261023b576005546001600160f81b03166000908152600b6020908152604080832030845282529091205b54604051908152f35b3461023b57600319368101610100811261023b5760e01361023b5760e435906001600160401b03821161023b576101208260040191833603011261023b576113b360018060a01b03600454163314612302565b6014541580611542575b6115305760409182519060208201826113d58261262c565b03926113e9601f19948581018352826102f9565b5190208451602081019061140d81611401888561263a565b038681018352826102f9565b5190200361151f5761141d612656565b61ffff9081807f0000000000000000000000000000000000000000000000000000000000000000169116119182156114e4575b505080156114b9575b6114a8576114a08361148f610019955160208101906114878161147b8461266c565b038781018352826102f9565b519020601455565b519182610912602082019586612710565b519020601555565b8251630a851dc560e41b8152600490fd5b507f000000000000000000000000000000000000000000000000000000000000000060243511611459565b6114f291925060a401612662565b7f000000000000000000000000000000000000000000000000000000000000000082169116113880611450565b83516314aa439b60e11b8152600490fd5b604051637a7d4d4960e11b8152600490fd5b50600161155361010484018361236e565b905014156113bd565b3461023b576003196040368201811361023b57600435906001600160401b03821161023b576101608260040193833603011261023b5760243561159e81610455565b6115ac6001600354146127b7565b600260035560055460f81c6119a4576015546115c88580612c06565b83516115dc81610d5a602082019485612710565b51902003611993576116086115fc60e06115f68780612c06565b0161288f565b6001600160a01b031690565b330361198b57905b60448301916116216115fc8461288f565b6001600160a01b0382811694909290918503611914575b506116416127fa565b9582601354611656906001600160601b031690565b6001600160601b03169761166a8380612c06565b3561167f90600052600b602052604060002090565b30600090815260209190915260409020547f00000000000000000000000000000000000000000000000000000000000000007f000000000000000000000000000000000000000000000000000000000000000061ffff166116e1928487614414565b9890916116ed9061283e565b60648101946116fb86612c1c565b6001600160801b031661170d8261288f565b6001600160a01b03166000908152600f6020526040902090815490611731916123d8565b9055898860248401358d146000149a7fbbbdee62287b5bf3bee13cab60a29ad729cf38109bccbd2a986a11c99b8ca70460009a600080516020615120833981519152996118606103d39f9961181f60a46118689b61186e9d6118bf578a6118a5575b6117de848c6117a661010485018a61236e565b906117b460e487018c61236e565b9490937f00000000000000000000000000000000000000000000000000000000000000008d614679565b89516001600160601b0385168152600060208201527fde54543058c3924ea970580584293c9eae7ad796d022638bdb68940708b023a290604090a10161288f565b978461183461182d8c61288f565b9580612c06565b35985195869516991697849160409194936001600160601b039160608501968552602085015216910152565b0390a461288f565b93612c1c565b85516001600160801b03919091168152921691602090a361188f6001600355565b5191825260208201929092529081906040820190565b6118ba8b306118b48980612c06565b35613684565b611793565b8a6118ec575b6118e7848c6118d861014485018a61236e565b906117b461012487018c61236e565b6117de565b61190f8b6118fa8880612c06565b3561190760c4850161288f565b9030906136f6565b6118c5565b61193e816105696119248561288f565b6001600160a01b0316600090815260106020526040902090565b546001810161194e575b50611638565b6119766119839161197061196460648b01612c1c565b6001600160801b031690565b906123d8565b916105696119248561288f565b553880611948565b503390611610565b815163fab3fbfd60e01b8152600490fd5b81516370e0699160e11b8152600490fd5b6001600160601b0381160361023b57565b9181601f8401121561023b578235916001600160401b03831161023b576020838186019501011161023b57565b3461023b5760031960c03682011261023b57600435611a1181610455565b602435611a1d816119b5565b6044356001600160401b039384821161023b57608090823603011261023b57606435611a4881610455565b60a43594851161023b57611a636100199536906004016119c6565b949093608435936004019161307d565b3461023b57600036600319011261023b576004546040516001600160a01b039091168152602090f35b3461023b576000806003193601126104525760405181600e54611abe81610240565b9081845260209260019182811690816000146104305750600114611aec576103d3856103c7818903826102f9565b929450600e83527fbb7b4a454dc3493923482f07822329ed19e8244eff582cc204f8554c3620c3fd5b828410611b3257505050816103d3936103c79282010193386103b7565b8054858501870152928501928101611b15565b3461023b57602036600319011261023b57600435611b6281610455565b6004546001600160a01b039190611b7c9083163314612302565b166001600160601b0360a01b6006541617600655600080f35b3461023b57600036600319011261023b5760206001600160601b0360135416604051908152f35b60405190611bc9826102a8565b565b60405190611bc9826102c3565b6001600160401b0381116102a357601f01601f191660200190565b929192611bff82611bd8565b91611c0d60405193846102f9565b82948184528183011161023b578281602093846000960137010152565b3461023b57604036600319011261023b57600435611c4781610455565b6024356001600160401b03811161023b573660238201121561023b57611c77903690602481600401359101611bf3565b6006549091906001600160a01b03163303610e4b57611c9581613db0565b91333b1561023b576000611cbd9160405180938192635456a73d60e11b835260048301610362565b038183335af18015611d80577f0553260a2e46b0577270d8992db02d30856ca880144c72d6e9503760946aef1393611d0c92611d0792611d67575b50611d0284613db0565b6123d8565b613065565b90611d41611d2c8260018060a01b0316600052600c602052604060002090565b6112848461127f83546001600160601b031690565b604080516001600160a01b039290921682526001600160601b03929092166020820152a1005b80611d74611d7a92610290565b80610230565b38611cf8565b6123e5565b3461023b57604036600319011261023b57600435611da281610455565b6024359033600052600f6020526040600020805490838203918211610aba575560018060a01b03169081600052600f602052604060002081815401905560008051602061512083398151915260405180610a653394829190602083019252565b3461023b57600036600319011261023b576040517f00000000000000000000000000000000000000000000000000000000000000006001600160a01b03168152602090f35b3461023b5760e036600319011261023b57600435611e6481610455565b60243590611e7182610455565b604435606435926084359360ff8516850361023b5742811061203957611f93602091610912611f66611ea16123f1565b9288611ebf8160018060a01b03166000526011602052604060002090565b805460018101909155604080517f6e71edae12b1b97f4d1f60370fef10105fa2faae0126114a169c64845d6126c98a82019081526001600160a01b039485166020820152938b1691840191909152606083018b9052608083019190915260a08201929092528160c082010391611f3d601f19938481018352826102f9565b5190206040519384918883019687909160429261190160f01b8352600283015260228201520190565b5190206040805191825260ff909716602082015260a4359681019690965260c43560608701526080860190565b856000968792838052039060015afa15611d80578351906001600160a01b0390818316801590811561202c575b5061201a5783612007826105697f8c5be1e5ebec7d5bd14f71427d1e84f3dd0314c0f7b2291e5b200ac8c7c3b9259660018060a01b03166000526010602052604060002090565b556040519384528116931691602090a380f35b604051632057875960e21b8152600490fd5b9050828616141538611fc0565b6040516305787bdf60e01b8152600490fd5b3461023b57600080600319360112610452576007546001600160a01b039081163303610e4b5760407fde54543058c3924ea970580584293c9eae7ad796d022638bdb68940708b023a2916120df6001600160601b038060135416927f0000000000000000000000000000000000000000000000000000000000000000168652600c6020526112848385882092835416612353565b6001600160601b0319601354166013558151908152836020820152a180f35b3461023b57604036600319011261023b57602061135760043561212081610455565b6024359061212d82610455565b60018060a01b03166000526010835260406000209060018060a01b0316600052602052604060002090565b6020918282526080928383019180518285015281810151946060936040938585880152875180925260a08701928160a08460051b8a01019901936000915b8483106121ab57505050505050015191015290565b9091929394998480896001938c8f8f908291609f19908503018a52516121eb6121db82518b87528b87019061033d565b878301518682038988015261033d565b94888060a01b0381830151169085015201519101529c01930193019194939290612196565b602036600319011261023b576001600160401b0360043581811161023b573660238201121561023b57806004013591821161023b573660248360051b8301011161023b576103d3916122849160246040519161226b836102de565b6000835260606020840152600060408401520190613177565b60405191829182612158565b3461023b57602036600319011261023b576004356122ad81610455565b600454906001600160a01b03906122c73383851614612302565b1680916001600160601b0360a01b1617600455337f8be0079c531659141344cd1fd0a4f28419497f9722a3daafe3b4186f6b6457e0600080a3005b1561230957565b60405162461bcd60e51b815260206004820152600c60248201526b15539055551213d49256915160a21b6044820152606490fd5b634e487b7160e01b600052601160045260246000fd5b9190916001600160601b0380809416911601918211610aba57565b903590601e198136030182121561023b57018035906001600160401b03821161023b57602001918160051b3603831361023b57565b9060018201809211610aba57565b91908201809211610aba57565b6b033b2e3c9fd0803ce7ffffff19810191908211610aba57565b91908203918211610aba57565b6040513d6000823e3d90fd5b6000467f00000000000000000000000000000000000000000000000000000000000000000361243f57507f000000000000000000000000000000000000000000000000000000000000000090565b604051600d5491908161245184610240565b8083526020948584019460019187838216918260001461255c575050600114612503575b505050918161248c6124fd93610d5a9503826102f9565b519020604080517f8b73c3c69bb8fe3d512ecc4cf759cc79239f7b179b0ffacaa9a75d522b39400f95810195865260208601929092527fc89efdaa54c0f20c7adf612882df0950f5a951637e0307cdcb4c672f298b8bc69085015246606085015230608085015291829060a0850190565b51902090565b9190869350600d83527fd7b6990105719101dabeb77144f2a3385c8033acd3af97e9423a695e81ad1eb55b828410612547575050508201018161248c6124fd612475565b8054868501860152879490930192810161252e565b60ff1916885293151560051b8601909301935084925061248c91506124fd9050612475565b8015150361023b57565b600435815260243560208201526044356125a481612581565b1515604082015260806064356125b981610455565b6001600160a01b0390811660608401526084356125d581610455565b16910152565b608090803583526020810135602084015260408101356125fa81612581565b151560408401528160608201359161261183610455565b6001600160a01b03928316606086015201356125d581610455565b90611bc960a083019261258b565b60a081019291611bc991906125db565b61ffff81160361023b57565b60a4356103738161264a565b356103738161264a565b9060e082019161267b8161258b565b61ffff60a43561268a8161264a565b1660a082015260c060c43561269e81612581565b1515910152565b91909160c08060e08301946126ba84826125db565b61ffff60a08201356126cb8161264a565b1660a0850152013561269e81612581565b9035601e198236030181121561023b5701602081359101916001600160401b03821161023b578160051b3603831361023b57565b60209081815261016061278361014083019461272e858501826125db565b61ffff60a082013561273f8161264a565b1660c085015260c081013561275381612581565b151560e085015260e081013561276881610455565b6001600160a01b0316610100858101919091528101906126dc565b80939195610120808401525201929160005b8281106127a3575050505090565b833585529381019392810192600101612795565b156127be57565b60405162461bcd60e51b815260206004820152600a6024820152695245454e5452414e435960b01b6044820152606490fd5b35610373816119b5565b60405190612807826102a8565b8160606012546001600160801b03811683526001600160601b0390818160801c16602085015260e01c604084015260135416910152565b60606001600160601b03916001600160801b038151168360801b602083015160801b169063ffffffff60e01b604084015160e01b169117176012550151166001600160601b03196013541617601355565b3561037381610455565b6128a16127fa565b6128b96108178335600052600b602052604060002090565b549061ffff936128ea7f00000000000000000000000000000000000000000000000000000000000000008386614d01565b9361294a612945836129316129036101208b018b61414a565b959060608a019661292a61291e89516001600160601b031690565b6001600160601b031690565b918d614aa3565b90506001600160601b038894929416613cce565b6143b1565b9461295760c088016142cb565b15612be3576129936020876129746115fc6115fc60808d0161288f565b6040516328ddee0d60e21b8152938492839182918c8f60048501614329565b03915afa908115611d8057600091612bb5575b508098807f000000000000000000000000000000000000000000000000000000000000000016911611612ba357600080516020615140833981519152905b6129f86001600160801b03998a8916614370565b991698612a2e612a088383612353565b612a2160208a019161127f83516001600160601b031690565b6001600160601b03169052565b604080516001600160601b03928316815292909116602083015290a18615612b9157600095612aa7612b8c95612aa2612a9560008051602061512083398151915299612b7a97612a9088612a218c61127f6101009c516001600160601b031690565b614355565b6001600160801b03168252565b61283e565b01612ace612ab48261288f565b6001600160a01b03166000908152600f6020526040902090565b612ad98882546123b1565b9055604080516001600160601b0385168152600160208201527fde54543058c3924ea970580584293c9eae7ad796d022638bdb68940708b023a29190a16001600160a01b039283612b298361288f565b16907fdcbc1c05240f31ff3ad067ef1ee35ce4997762752e3a095284754544f4c709d760405180612b728c339583602090939291936001600160601b0360408201951681520152565b0390a361288f565b60405195865216939081906020820190565b0390a3565b604051639811e0c760e01b8152600490fd5b604051634efbf5f560e01b8152600490fd5b612bd6915060203d8111612bdc575b612bce81836102f9565b8101906142d5565b386129a6565b503d612bc4565b9650600080516020615140833981519152612c0060a08801612662565b976129e4565b90359061011e198136030182121561023b570190565b356001600160801b038116810361023b5790565b60405190612c3d826102c3565b6005546001600160f81b038116835260f81c15156020830152565b604051906000548083528260209182820190600080527f290decd9548b62a8d60345a988386fc84ba6bc95484008f6362f93160ef3e563936000905b828210612caa57505050611bc9925003836102f9565b85546001600160a01b031684526001958601958895509381019390910190612c94565b9060405191828154918282526020928383019160005283600020936000905b828210612d0257505050611bc9925003836102f9565b855484526001958601958895509381019390910190612cec565b6001600160401b0381116102a35760051b60200190565b9291612d3e82612d1c565b91612d4c60405193846102f9565b829481845260208094019160051b810192831161023b57905b828210612d725750505050565b81358152908301908301612d65565b634e487b7160e01b600052603260045260246000fd5b9015612da05790565b612d81565b9190811015612da05760051b0190565b805115612da05760200190565b8051821015612da05760209160051b010190565b81835290916001600160fb1b03831161023b5760209260051b809284830137010190565b612e2890612e19612e0b82806126dc565b604086526040860191612dd6565b906020928184809301906126dc565b9290948281830391015282815201929160005b828110612e49575050505090565b9091929382806001926001600160601b038835612e65816119b5565b16815201950193929101612e3b565b929190612e8b602091604086526040860190612dfa565b930152565b6001600160f81b03908116908114610aba5760010190565b6001600160f81b03909116815260406020820181905261037392910190612dfa565b903590603e198136030182121561023b570190565b91908082526020809201929160005b828110612efc575050505090565b833585529381019392810192600101612eee565b916020610373938181520191612edf565b906001600160401b0383116102a357600160401b83116102a3578154838355808410612f7d575b50612f599091600052602060002090565b60005b838110612f695750505050565b600190602084359401938184015501612f5c565b6000838152846020822092830192015b828110612f9b575050612f48565b818155600101612f8d565b604090610373949281528160208201520191612edf565b90815180825260208080930193019160005b828110612fdd575050505090565b835185529381019392810192600101612fcf565b91909160209081815260a08101918451818301528085015160408301526040850151926080606084015283518091528160c0840194019160005b8281106130515750505050606061037393940151906080601f1982850301910152612fbd565b83518652948101949281019260010161302b565b600160601b81101561023b576001600160601b031690565b6006549096919593946001600160a01b03949185163303610e4b57876130d8946130a682613db0565b96808316600052600c6020526040600020986130d16001600160601b039a6112848d8d83541661315e565b169061384f565b6130e184613db0565b8103908111610aba576130f48291613065565b92169082160361314c57604080516001600160a01b0390931683526001600160601b0390911660208301527fb3762e93ec66871dd27c421b64edc79636345ff0a949cd04f7f8efce5bd4240e9190819081015b0390a1565b6040516355e97b0d60e01b8152600490fd5b6001600160601b039182169082160391908211610aba57565b9160049161318f60018060a01b038454163314612302565b46845261319b826133fe565b9160209081860193845260005b8181106132165750506007546131cc93506115fc92506001600160a01b0316905081565b803b1561023b57826000916131f59360405180958194829363185c18fb60e11b84528301612158565b039134905af18015611d8057613209575090565b80611d7461037392610290565b61323161322c613227838588612da5565b61288f565b61357c565b9190604090818a01528761325961324c61322785888b612da5565b6001600160a01b03161590565b85886000926000146132d2578593506132cb94925061328261322785600199946132b294612da5565b61328a611bbc565b936132936134d6565b855261329d6134fa565b858c01526001600160a01b0390911690840152565b60608201525b8851906132c58383612dc2565b52612dc2565b50016131a8565b6115fc6115fc6115fc6132278987989b97966132ed96612da5565b84516306fdde0360e01b815296879182905afa908115611d80578285888b8e9984966133ca575b506115fc61322761332c946115fc946115fc94612da5565b85516395d89b4160e01b815297889182905afa958615611d80576001966132cb95878a8d61338e9589849a96613398575b5050916132279161336d93612da5565b91613376611bbc565b9586528b8601526001600160a01b0390911690840152565b60608201526132b8565b61336d9492965061322793916133bf913d8091833e6133b781836102f9565b8101906134a0565b95919381935061335d565b6115fc91965061322761332c946115fc946133f16115fc943d808b833e6133b781836102f9565b9994509450945050613314565b9061340882612d1c565b604090613417825191826102f9565b8381528093613428601f1991612d1c565b0191600091825b84811061343d575050505050565b602090835161344b816102a8565b60608082528684918083850152818885015283015282850101520161342f565b9092919261347881611bd8565b9161348660405193846102f9565b82948284528282011161023b576020611bc993019061031a565b60208183031261023b578051906001600160401b03821161023b57019080601f8301121561023b5781516103739260200161346b565b604051906134e3826102c3565b6008825267457468657265756d60c01b6020830152565b60405190613507826102c3565b600382526208aa8960eb1b6020830152565b600054600160401b8110156102a3576001810180600055811015612da057600080527f290decd9548b62a8d60345a988386fc84ba6bc95484008f6362f93160ef3e5630180546001600160a01b0319166001600160a01b03909216919091179055565b6001600160a01b03811660009081526002602052604081205491929161367c575b61365757600054906135ae83613519565b60015460408051602081019283526001600160a01b03861691810191909152606081018490527f0e19cc8726123810831f36531bcdb15eebbfc77b9f96c3d041ace161847083a19184916136058160808101610d5a565b5190209461361286600155565b61361b826123a3565b6001600160a01b038216600090815260026020526040902055604080516001600160a01b03909216825260208201929092529081908101613147565b6040516305a6e69560e31b81526001600160a01b0383166004820152602490fd5b0390fd5b50600161359d565b909181600052600b6020526136af8360406000209060018060a01b0316600052602052604060002090565b90815493818503948511610aba57939091556040805192835260208301919091526000926001600160a01b0316916000805160206151608339815191529181908101612b8c565b91909282600052600b6020526137228460406000209060018060a01b0316600052602052604060002090565b918254828103908111610aba57600080516020615160833981519152935583600052600b6020526137698160406000209060018060a01b0316600052602052604060002090565b8054830190556040805194855260208501929092526001600160a01b039081169416929081908101612b8c565b91906000928160081c90805182106137ad57505050565b60019293945060ff916137bf91612dc2565b5192161b16151590565b9060208282031261023b5781516001600160401b039283821161023b57019160808383031261023b57604051926137ff846102a8565b805161380a81610455565b84526020810151602085015260408101516040850152606081015191821161023b57019080601f8301121561023b5781516138479260200161346b565b606082015290565b600061389f819796959493613869604085013589896139b1565b604051998a809481936323e7fd5960e01b835288356004840152620fffff8b16602484015260606044840152606483019061033d565b03926001600160a01b03165af1908115611d8057611bc9966000926138c5575b506138e8565b6138e191923d8091833e6138d981836102f9565b8101906137c9565b90386138bf565b9194604083013560108116151595869590949093909160081615806139a05781516001600160a01b0316975b613991575b1561395d57506139326139499460079235933691611bf3565b92169060a081901c906001600160a01b031661502c565b50505b613954575050565b611bc991613a76565b80516020820151604083015160609093015161398a975095509193509091506001600160a01b031661502c565b505061394c565b61399b888a613a11565b613919565b82356001600160a01b031697613914565b9092919260609360048116613a03576002166139cb575050565b9091925060041161023b57604051906139e3826102c3565b6004825236600482011161023b5760049060208301376000602482015290565b506103739293503691611bf3565b6001600160a01b039080821615613a7157602092600060449281946040519363095ea7b360e01b8552166004840152811960248401525af13d15601f3d1160016000511416171615613a5f57565b60405163378dc23b60e01b8152600490fd5b505050565b6001600160a01b039080821615613a7157602092600060449281946040519363095ea7b360e01b85521660048401528160248401525af13d15601f3d1160016000511416171615613a5f57565b9081602091031261023b575190565b6001600160a01b031680613b0657506001600160601b0381163410613af45790565b6040516312d5633960e31b8152600490fd5b6040516370a0823160e01b80825230600483015291926020929091908382602481885afa928315611d80578492600094613bb1575b506001600160601b03613b519116303388613bdd565b60405190815230600482015293849060249082905afa8015611d80576103739361291e93600092613b84575b50506123d8565b613ba39250803d10613baa575b613b9b81836102f9565b810190613ac3565b3880613b7d565b503d613b91565b613b51919450613bd56001600160601b0391853d8711613baa57613b9b81836102f9565b949150613b3b565b9160008093602095606494604051946323b872dd60e01b865260018060a01b03809216600487015216602485015260448401525af13d15601f3d1160016000511416171615613c2857565b60405162461bcd60e51b81526020600482015260146024820152731514905394d1915497d19493d357d1905253115160621b6044820152606490fd5b90613c7e6001600160601b03919493948360a01c90613cad565b169283906001600160a01b033081831603613c9a575b50505050565b613ca49316613d25565b38828180613c94565b90670de0b6b3a7640000918160001904811182021583021561023b57020490565b6001600160801b03811160801b1582021561023b5760801b0490565b906b033b2e3c9fd0803ce8000000918160001904811182021583021561023b57020490565b8160001904811182021583021561023b57020490565b9091906001600160a01b038116613d5f5750600080808093613d47955af11590565b613d4d57565b604051633d2cec6f60e21b8152600490fd5b90602090604460405194600080958194829363a9059cbb60e01b84526004526024525af13d15601f3d116001845114161716906060528160405215613da15750565b633c9fd93960e21b8152600490fd5b6000906001600160a01b031680613dc75750504790565b6020602491604051928380926370a0823160e01b82523060048301525afa918215611d805791613df5575090565b610373915060203d8111613baa57613b9b81836102f9565b60405190613e1a826102de565b60006040838281528260208201520152565b9291613e36613e0d565b600092835b60808401613e49818661236e565b90508210156140dc5761322782611228613e63938861236e565b6040805160208082019889526001600160a01b03841682840152606082018590529297849188918c91613e998160808101610d5a565b51902099613f0284613ecd613ec08460018060a01b0316600052600c602052604060002090565b546001600160601b031690565b936111e1613eed8560018060a01b0316600052600c602052604060002090565b80546bffffffffffffffffffffffff19169055565b61401f575b6001600160601b038216613f5f5750506111da84613f2e613f3795966111e194018b612eca565b9081019061236e565b613f4657506001905b01613e3b565b516315e70c1f60e31b8152600481019190915260249150fd5b90919261065a613f85916111e16111da613f7c8a89018099612eca565b8a81019061236e565b614007576001600160a01b03166001600160a01b031960a09290921b91909116179190613fd2908390613fcc90613fc090610766908c612eca565b968a0196875191612da5565b35141590565b613fee5750509081613fe76001935160010190565b9052613f40565b516317aa4f3d60e31b8152600481019190915260249150fd5b83516322c63c1360e01b815260048101879052602490fd5b906140659061404c61405e8b614053614038888061236e565b94906001600160601b039586945191612da5565b3560a01c90565b166060870135613cad565b1690612353565b90848981850161407f876111e16111da610766858b612eca565b614091575b50516001018a5250613f07565b61122e6140c69395926140b36140aa6140c0948a612eca565b8c81019061236e565b9790910196875191612da5565b9061315e565b916140d2815160010190565b9052848938614084565b50509193945091036141235761076660206140fe920151926020810190612eca565b905081036141095750565b60405163b705ebd160e01b81526004810191909152602490fd5b604051630b7758f760e41b8152600490fd5b903590607e198136030182121561023b570190565b903590601e198136030182121561023b57018035906001600160401b03821161023b5760200191813603831361023b57565b9015612da0578061418c9161414a565b9091565b90821015612da05761418c9160051b81019061414a565b9291926141b381613db0565b906141c56141c08661288f565b613db0565b926141d261324c8761288f565b61429c575b61291e61428393611d026141c0946141c061427d9561420a6141f88d61288f565b61420460e084016127f0565b90613ad2565b5060208c01908c61422a6115fc60806142238685614135565b940161288f565b9261427561426f61426561423d8561288f565b9361425e61425861424e8389614135565b606081019061236e565b90612d97565b3595614135565b602081019061236e565b9061417c565b94909361384f565b9461288f565b1061428a57565b6040516390dd03db60e01b8152600490fd5b9261291e61428393611d026141c0946141c06142bc61427d9634906123d8565b989550509450509350506141d7565b3561037381612581565b9081602091031261023b57516103738161264a565b6060906001600160801b038151168352816020820151916001600160601b03809316602086015263ffffffff6040820151166040860152015116910152565b916101209194936125d56001600160801b039261434b866101408101996125db565b60a08601906142ea565b9190916001600160801b0380809416911601918211610aba57565b9061ffff166127108160001904831182021581021561023b5761439591830204613065565b906001600160801b0390816001600160601b0384169116031691565b6001600160801b039290918316806143ed5750506402540be40090818102918183041490151715610aba575b600160801b81101561023b571690565b6143f692613d0f565b6143dd565b6001600160801b039182169082160391908211610aba57565b9492919461442d6144258280612c06565b958387614d01565b919095868861444760c06144418680612c06565b016142cb565b156145da575050614491939460206144676115fc6115fc6080860161288f565b61447360608601612c1c565b90604051808099819463587278a560e11b83528c8960048501614329565b03915afa948515611d80576000956145ba575b5061ffff851611612ba357611bc99461459d612a219461459761458e6145648d6145aa976145478f9a6000805160206151408339815191526144f861291e9f5b6144f361196460608601612c1c565b614370565b6145218d612a21602061450d8f969f86612353565b92019161127f83516001600160601b031690565b604080516001600160601b03928316815292909116602083015290a1608081019061414a565b9061455e60608b019e8f516001600160601b031690565b92614aa3565b5091906145788b516001600160601b031690565b926001600160801b038087169a1693848b614f49565b8198919e614fa8565b996143fb565b6001600160801b03169052565b82516001600160601b031661315e565b6145d391955060203d8111612bdc57612bce81836102f9565b93386144a4565b611bc99650612a219461459761458e61456461459d946145aa976145478a6000805160206151408339815191526144f861291e9f9b9d60a061461f8261462593612c06565b01612662565b6144e4565b604090815191614639836102c3565b600183528291600091825b6020808210156146705782516020929161465d826102c3565b8682528681830152828901015201614644565b50505091925050565b9095949192611bc997949361468e8380612c06565b9260a08101986146b56001600160601b036146ab6115fc8d61288f565b9516809583613d25565b82156147685750926115fc9261472c614743999a6132276147146147036080976146f06146e58c6147269d612c06565b61010081019061236e565b92906146fb8761288f565b933691612d33565b6001600160a01b0390921691614b69565b809d819c6147266115fc8a8a0161288f565b916147f8565b6001600160a01b03163014614748575b500161288f565b614c6e565b61476060206147568a612db5565b51019182516123d8565b90523861473c565b9650505061474395506080614726926115fc9261472c61478661462a565b9a896147928d9b613db0565b6147ac61479d611bcb565b6001600160a01b039093168352565b60208201526147ba8b612db5565b526147c48a612db5565b5061288f565b90821015612da0576103739160051b810190614135565b604090610373949281528160208201520191612dd6565b91929060005b81811061480c575050505050565b6148178183866147ca565b6001919060408082013560081916840361493e5760608201906001600160a01b03898116918435919061484a858761236e565b9094803b1561023b5761487695600080945180988195829463038ccb0560e21b84528a600485016147e1565b03925af1928315611d8057879361492b575b5060009384602087019284169360a01c945b6148ad575b505050505050505b016147fe565b6148b7828861236e565b90508110156149265780876148d18b93611228868461236e565b3590815b6148e357505081019061489a565b61490a6149038a6148fd89614915959d969d98979861236e565b90614190565b3691611bf3565b60078a16898961502c565b5050019560141c9081888b936148d5565b61489f565b80611d7461493892610290565b38614888565b50600090602081016060820183865b61495c575b50505050506148a7565b614966828561236e565b90508110156149d1578061497f8892611228858861236e565b35805b61498f575081019061494d565b956149c38d6149a98d61ffff8b60059897981c1690612dc2565b5190896149ba856148fd8b8d61236e565b9390928b6149d6565b019460141c90818892614982565b614952565b6001600160a01b03959493929091600090614a31906149fa604086013589896139b1565b836040519a8b8095819463223c43b960e11b83528a356004840152620fffff8c16602484015260a0604484015260a483019061033d565b828951166064830152602089015160848301520393165af1908115611d8057611bc996600092614a6e575b50516001600160a01b03165b916138e8565b614a8690614a6892933d8091833e6138d981836102f9565b9190614a5c565b919082604091031261023b576020825192015190565b60409160608492013590614ab682610455565b60006044855180978196829563f143408960e01b845260206004850152816024850152848401378181018301849052601f01601f191681010301926001600160a01b03165af18015611d8057614b2c916000908192614b2f575b50614b1f81614b279295613cce565b948592613cad565b6123b1565b92565b614b1f9250614b279150614b599060403d8111614b62575b614b5181836102f9565b810190614a8d565b92909150614b10565b503d614b47565b909291815190614b7882612d1c565b91604090614b88825194856102f9565b808452614b97601f1991612d1c565b019060005b828110614c4a575050506001600160a01b0381163014948260005b8551811015614c41578080614c0b614c0561291e88886105d7868e614c008f614bf0614be861124660019f86612dc2565b9b8c92612dc2565b516001600160a01b039091169052565b612dc2565b91613db0565b8a60209182614c1a868c612dc2565b510152614c2a575b505001614bb7565b614c3890614756848a612dc2565b90523880614c22565b50955050505050565b6020908251614c58816102c3565b6000815282600081830152828801015201614b9c565b60005b8151811015614cde57614c848183612dc2565b5180516001600160a01b0390614c9b908216613db0565b916020810151809310614cb357505050600101614c71565b5160405163fddada7960e01b815291166001600160a01b031660048201526024810191909152604490fd5b5050565b9160a0611bc9929493614cfa816101208101976125db565b01906142ea565b9192909283614d12604085016142cb565b15614dc95760209084614d306115fc6115fc6080614d4d990161288f565b9060405180978194829363090befc360e31b845260048401614ce2565b03915afa928315611d8057600093614da9575b508211612ba357614d9b611bc9925b6040614d8286516001600160801b031690565b950194614d93865163ffffffff1690565b904292614ddb565b9391949063ffffffff169052565b614dc291935060203d8111613baa57613b9b81836102f9565b9138614d60565b5050614d9b6020611bc9930135614d6f565b93909291926000926000829663ffffffff8093169681614dfd575b5050505050565b8703928316918215614df657949750929450909282918215614f0c575060019184831615614ef357637fffffff90945b831c1692835b614e785750505050614e5c611d07614e4d614e6d936123be565b6001600160801b038516613cea565b916001600160601b03831690614355565b923880808080614df6565b8060801c614eef578002926b019d971e4fe8401e7400000093848101908110614ee1576b033b2e3c9fd0803ce800000080910494848316614ebf575b5050821c9283614e33565b8587929397029186830403614ee5575b8101908110614ee15704933880614eb4565b8280fd5b8515614ecf578380fd5b5080fd5b50637fffffff6b033b2e3c9fd0803ce800000094614e2d565b9250925050600014614f2a57614e5c611d07614e4d614e6d936123be565b50614e6d614e5c611d07614e4d6b033b2e3c9fd0803ce80000006123be565b9094929360009560009582614f94575b50505083811015614f8d57925b8381614f7157505050565b614f89929395506001600160601b0380941690613d0f565b1691565b5082614f66565b614f9f939650613d0f565b92388080614f59565b90808414614fbd578061037394039203613d0f565b50505050600090565b60031115614fd057565b634e487b7160e01b600052602160045260246000fd5b634e487b7160e01b600052600160045260246000fd5b3d15615027573d9061500d82611bd8565b9161501b60405193846102f9565b82523d6000602084013e565b606090565b909392919361503a85615111565b61504381614fc6565b80615098575091600092918392602083519301915af190615062614ffc565b91925b60021c1580615090575b61507557565b60405163a5fa8d2b60e01b8152806136788460048301610362565b50821561506f565b6150a181614fc6565b600181036150df57506150cd57816000929160208493519201905af4906150c6614ffc565b9192615065565b60405163416aebb560e11b8152600490fd5b806150eb600292614fc6565b0361510c576150cd57816000929160208493519201905afa906150c6614ffc565b614fe6565b600316906003821461023b5756feddf252ad1be2c89b69c2b068fc378daa952ba7f163c4a11628f55a4df523b3ef9e2e0e4f84a9a8d6b1adbb9a0cbb3d7afb99d0f9686517e03ba45e309b4393a29fb8c3be7f8f68cf2f5c24f5db3697cacd5cb1241a46a26e0cce3cc03069dbc7bb7b4a454dc3493923482f07822329ed19e8244eff582cc204f8554c3620c3fdd7b6990105719101dabeb77144f2a3385c8033acd3af97e9423a695e81ad1eb5",
    "linkReferences": {}
  },
  "methodIdentifiers": {
    "DOMAIN_SEPARATOR()": "3644e515",
    "accrueFee(address)": "2f3eec49",
    "allowance(address,address)": "dd62ed3e",
    "approve(address,uint256)": "095ea7b3",
    "balanceOf(address)": "70a08231",
    "consume(address,uint96,(uint256,bytes[],uint256,uint256[]),address,uint256,bytes)": "8bfa357b",
    "decimals()": "313ce567",
    "deposit((((uint256,uint256,bool,address,address),uint16,bool),uint96,address,bytes))": "5530f07a",
    "depositWithCommand((((uint256,uint256,bool,address,address),uint16,bool),uint96,address,bytes),(address,(uint256,bytes[],uint256,uint256[])))": "70a68904",
    "donate(address,bytes)": "a68a2997",
    "finishRebalancingPhase((uint256[],(uint256[],uint256[]),(uint256[],uint96[]),uint256,address[]))": "133c2406",
    "info()": "370158ea",
    "kSelf()": "7f925f8d",
    "name()": "06fdde03",
    "nonces(address)": "7ecebe00",
    "owner()": "8da5cb5b",
    "permit(address,address,uint256,uint256,uint8,bytes32,bytes32)": "d505accf",
    "prepareRebalancing()": "d90507f1",
    "redeem((((uint256,uint256,bool,address,address),uint16,bool,address,uint256[]),uint256,address,uint128,bytes,address,address,(uint256,bytes[],uint256,uint256[])[],(uint256,bytes[],uint256,uint256[])[],(uint256,bytes[],uint256,uint256[])[],(uint256,bytes[],uint256,uint256[])[]),address)": "831b076a",
    "registerCurrencies(address[])": "e2cbf4d4",
    "reserve()": "cd3293de",
    "reserveBalance()": "a10954fe",
    "setConfig(((uint256,uint256,bool,address,address),uint16,bool),((uint256,uint256,bool,address,address),uint16,bool,address,uint256[]))": "81f6c2e4",
    "setMessenger(address)": "66285967",
    "setOrderBook(address)": "9a1598c8",
    "startRebalancingPhase((uint256[],uint96[]))": "7479dfa8",
    "symbol()": "95d89b41",
    "totalSupply()": "18160ddd",
    "transfer(address,uint256)": "a9059cbb",
    "transferFrom(address,address,uint256)": "23b872dd",
    "transferLatestSnapshot(address,uint256)": "5bf14422",
    "transferOwnership(address)": "f2fde38b",
    "withdraw(uint256,uint256,address)": "0ad58d2f"
  },
  "id": 56
}