{"abi":[{"type":"constructor","inputs":[{"name":"owner","type":"address","internalType":"address"},{"name":"_stargateComposer","type":"address","internalType":"address"},{"name":"_endpoint","type":"address","internalType":"address payable"},{"name":"_eid","type":"uint16","internalType":"uint16"},{"name":"_sgETH","type":"address","internalType":"address"},{"name":"_nativeInfo","type":"tuple","internalType":"struct OmnichainMessenger.NativeInfo","components":[{"name":"name","type":"string","internalType":"string"},{"name":"symbol","type":"string","internalType":"string"},{"name":"decimals","type":"uint8","internalType":"uint8"}]}],"stateMutability":"nonpayable"},{"type":"receive","stateMutability":"payable"},{"type":"function","name":"broadcastOrders","inputs":[{"name":"chainIds","type":"uint256[]","internalType":"uint256[]"},{"name":"chainIdSet","type":"uint256[]","internalType":"uint256[]"},{"name":"homechainOrders","type":"tuple","internalType":"struct RebalancingLib.ChainOrders","components":[{"name":"orders","type":"tuple[]","internalType":"struct OrderLib.Order[]","components":[{"name":"sellAmount","type":"uint96","internalType":"uint96"},{"name":"idParams","type":"tuple","internalType":"struct OrderLib.OrderId","components":[{"name":"sellCurrency","type":"address","internalType":"Currency"},{"name":"localBuyCurrency","type":"address","internalType":"Currency"},{"name":"finalDestinationBuyCurrency","type":"address","internalType":"Currency"},{"name":"finalDestinationChainId","type":"uint256","internalType":"uint256"}]}]},{"name":"incomingOrders","type":"uint128","internalType":"uint128"}]},{"name":"ordersHashes","type":"bytes32[]","internalType":"bytes32[]"},{"name":"withdrawals","type":"tuple[]","internalType":"struct IVault.CurrencyWithdrawal[]","components":[{"name":"currencyIndexSet","type":"uint256[]","internalType":"uint256[]"},{"name":"amounts","type":"uint96[]","internalType":"uint96[]"}]},{"name":"lzData","type":"bytes","internalType":"bytes"}],"outputs":[],"stateMutability":"payable"},{"type":"function","name":"broadcastReserveOrders","inputs":[{"name":"chainIds","type":"uint256[]","internalType":"uint256[]"},{"name":"chainIdSet","type":"uint256[]","internalType":"uint256[]"},{"name":"chainOrders","type":"tuple[]","internalType":"struct RebalancingLib.ChainOrders[]","components":[{"name":"orders","type":"tuple[]","internalType":"struct OrderLib.Order[]","components":[{"name":"sellAmount","type":"uint96","internalType":"uint96"},{"name":"idParams","type":"tuple","internalType":"struct OrderLib.OrderId","components":[{"name":"sellCurrency","type":"address","internalType":"Currency"},{"name":"localBuyCurrency","type":"address","internalType":"Currency"},{"name":"finalDestinationBuyCurrency","type":"address","internalType":"Currency"},{"name":"finalDestinationChainId","type":"uint256","internalType":"uint256"}]}]},{"name":"incomingOrders","type":"uint128","internalType":"uint128"}]},{"name":"lzParams","type":"bytes","internalType":"bytes"}],"outputs":[],"stateMutability":"payable"},{"type":"function","name":"configure","inputs":[{"name":"_index","type":"address","internalType":"address"},{"name":"_orderBook","type":"address","internalType":"address"},{"name":"_builder","type":"address","internalType":"address"}],"outputs":[],"stateMutability":"nonpayable"},{"type":"function","name":"currenciesUpdated","inputs":[{"name":"result","type":"tuple","internalType":"struct IVault.RegisterCurrenciesResult","components":[{"name":"currencies","type":"address[]","internalType":"Currency[]"},{"name":"currenciesHash","type":"bytes32","internalType":"bytes32"}]}],"outputs":[],"stateMutability":"nonpayable"},{"type":"function","name":"eIds","inputs":[{"name":"","type":"uint256","internalType":"uint256"}],"outputs":[{"name":"","type":"uint16","internalType":"uint16"}],"stateMutability":"view"},{"type":"function","name":"finishRebalancing","inputs":[{"name":"orderBookParams","type":"tuple","internalType":"struct IOrderBook.FinishOrderExecutionParams","components":[{"name":"orderIds","type":"tuple[]","internalType":"struct OrderLib.OrderId[]","components":[{"name":"sellCurrency","type":"address","internalType":"Currency"},{"name":"localBuyCurrency","type":"address","internalType":"Currency"},{"name":"finalDestinationBuyCurrency","type":"address","internalType":"Currency"},{"name":"finalDestinationChainId","type":"uint256","internalType":"uint256"}]},{"name":"idIndices","type":"uint256[]","internalType":"uint256[]"},{"name":"pendingOrderCounts","type":"uint256[]","internalType":"uint256[]"}]},{"name":"params","type":"tuple","internalType":"struct IVault.EndRebalancingParams","components":[{"name":"anatomyCurrencies","type":"uint256[]","internalType":"a160u96[]"},{"name":"newAnatomy","type":"tuple","internalType":"struct IVault.SnapshotAnatomy","components":[{"name":"currencies","type":"uint256[]","internalType":"a160u96[]"},{"name":"currencyIndexSet","type":"uint256[]","internalType":"uint256[]"}]},{"name":"withdrawals","type":"tuple","internalType":"struct IVault.CurrencyWithdrawal","components":[{"name":"currencyIndexSet","type":"uint256[]","internalType":"uint256[]"},{"name":"amounts","type":"uint96[]","internalType":"uint96[]"}]},{"name":"lastKBalance","type":"uint256","internalType":"uint256"},{"name":"currencies","type":"address[]","internalType":"Currency[]"}]},{"name":"sgParams","type":"tuple[]","internalType":"struct IOmnichainMessenger.SgParams[]","components":[{"name":"lzTxObj","type":"tuple","internalType":"struct IStargateRouter.lzTxObj","components":[{"name":"dstGasForCall","type":"uint256","internalType":"uint256"},{"name":"dstNativeAmount","type":"uint256","internalType":"uint256"},{"name":"dstNativeAddr","type":"bytes","internalType":"bytes"}]},{"name":"minAmountLD","type":"uint256","internalType":"uint256"}]},{"name":"lzParams","type":"tuple","internalType":"struct IOmnichainMessenger.LzParams","components":[{"name":"options","type":"bytes[]","internalType":"bytes[]"},{"name":"zroPaymentAddress","type":"address","internalType":"address"}]}],"outputs":[],"stateMutability":"payable"},{"type":"function","name":"forceResumeReceive","inputs":[{"name":"srcEid","type":"uint16","internalType":"uint16"},{"name":"srcAddress","type":"bytes","internalType":"bytes"}],"outputs":[],"stateMutability":"nonpayable"},{"type":"function","name":"getConfig","inputs":[{"name":"version","type":"uint16","internalType":"uint16"},{"name":"eid","type":"uint16","internalType":"uint16"},{"name":"","type":"address","internalType":"address"},{"name":"configType","type":"uint256","internalType":"uint256"}],"outputs":[{"name":"","type":"bytes","internalType":"bytes"}],"stateMutability":"view"},{"type":"function","name":"lzEndpoint","inputs":[],"outputs":[{"name":"","type":"address","internalType":"contract ILayerZeroEndpoint"}],"stateMutability":"view"},{"type":"function","name":"lzReceive","inputs":[{"name":"srcEid","type":"uint16","internalType":"uint16"},{"name":"srcAddress","type":"bytes","internalType":"bytes"},{"name":"","type":"uint64","internalType":"uint64"},{"name":"message","type":"bytes","internalType":"bytes"}],"outputs":[],"stateMutability":"nonpayable"},{"type":"function","name":"minGasAmountForChain","inputs":[{"name":"","type":"uint16","internalType":"uint16"}],"outputs":[{"name":"","type":"uint256","internalType":"uint256"}],"stateMutability":"view"},{"type":"function","name":"owner","inputs":[],"outputs":[{"name":"","type":"address","internalType":"address"}],"stateMutability":"view"},{"type":"function","name":"phutureOnConsumeCallbackV1","inputs":[{"name":"data","type":"bytes","internalType":"bytes"}],"outputs":[],"stateMutability":"nonpayable"},{"type":"function","name":"poolIds","inputs":[{"name":"","type":"uint256","internalType":"uint256"}],"outputs":[{"name":"src","type":"uint128","internalType":"uint128"},{"name":"dst","type":"uint128","internalType":"uint128"}],"stateMutability":"view"},{"type":"function","name":"pushIncomingOrders","inputs":[{"name":"srcChainId","type":"uint256","internalType":"uint256"},{"name":"boughtOrders","type":"tuple[]","internalType":"struct IOrderBook.BoughtOrder[]","components":[{"name":"amount","type":"uint256","internalType":"uint256"},{"name":"buyCurrency","type":"address","internalType":"Currency"}]},{"name":"boughtOrdersTotalAmount","type":"uint256","internalType":"uint256"},{"name":"currency","type":"address","internalType":"Currency"},{"name":"receivedAmount","type":"uint256","internalType":"uint256"}],"outputs":[],"stateMutability":"nonpayable"},{"type":"function","name":"redeem","inputs":[{"name":"params","type":"tuple","internalType":"struct IBaseIndex.RedemptionParams","components":[{"name":"config","type":"tuple","internalType":"struct IBaseIndex.RedemptionConfig","components":[{"name":"shared","type":"tuple","internalType":"struct IBaseIndex.Config","components":[{"name":"latestSnapshot","type":"uint256","internalType":"uint256"},{"name":"AUMDilutionPerSecond","type":"uint256","internalType":"uint256"},{"name":"useCustomAUMFee","type":"bool","internalType":"bool"},{"name":"staticPriceOracle","type":"address","internalType":"address"},{"name":"metadata","type":"address","internalType":"address"}]},{"name":"fee","type":"tuple","internalType":"struct IBaseIndex.FeeConfig","components":[{"name":"BPs","type":"uint16","internalType":"uint16"},{"name":"useCustomCallback","type":"bool","internalType":"bool"}]},{"name":"forwarder","type":"address","internalType":"address"},{"name":"homeCurrencies","type":"uint256[]","internalType":"a160u96[]"}]},{"name":"expectedReserveValuation","type":"uint256","internalType":"uint256"},{"name":"AUMScaledK","type":"uint256","internalType":"uint256"},{"name":"owner","type":"address","internalType":"address"},{"name":"shares","type":"uint128","internalType":"uint128"},{"name":"payload","type":"bytes","internalType":"bytes"},{"name":"recipient","type":"address","internalType":"address payable"}]},{"name":"commandParams","type":"tuple","internalType":"struct IIndex.RedemptionCommandParams","components":[{"name":"currencyCommands","type":"tuple[]","internalType":"struct CommandLib.CommandTarget[]","components":[{"name":"target","type":"uint256","internalType":"a160u96"},{"name":"spender","type":"address","internalType":"address"},{"name":"mapTarget","type":"bool","internalType":"bool"},{"name":"datas","type":"bytes[]","internalType":"bytes[]"},{"name":"packedConfigs","type":"uint256[]","internalType":"uint256[]"}]},{"name":"additionalCurrencies","type":"address[]","internalType":"Currency[]"}]},{"name":"sendParams","type":"tuple","internalType":"struct IHomechainOmnichainMessenger.SendParams","components":[{"name":"config","type":"tuple","internalType":"struct IHomechainOmnichainMessenger.LzConfig","components":[{"name":"eIds","type":"uint256","internalType":"u16x15"},{"name":"multipliers","type":"uint256","internalType":"u16x15"},{"name":"minGas","type":"uint256[]","internalType":"uint256[]"}]},{"name":"batches","type":"tuple[]","internalType":"struct IHomechainOmnichainMessenger.Batches[]","components":[{"name":"escrow","type":"address","internalType":"address"},{"name":"callbacks","type":"bytes[]","internalType":"bytes[]"},{"name":"additionalGas","type":"uint256[]","internalType":"uint256[]"}]},{"name":"zroPaymentAddress","type":"address","internalType":"address"},{"name":"packedRecipient","type":"bytes","internalType":"bytes"}]}],"outputs":[],"stateMutability":"payable"},{"type":"function","name":"retryRedeem","inputs":[{"name":"params","type":"tuple[]","internalType":"struct IIndex.RedeemKParams[]","components":[{"name":"snapshot","type":"uint256","internalType":"uint256"},{"name":"k","type":"uint256","internalType":"uint256"},{"name":"currencies","type":"uint256[]","internalType":"a160u96[]"},{"name":"config","type":"tuple","internalType":"struct IBaseIndex.RedemptionConfig","components":[{"name":"shared","type":"tuple","internalType":"struct IBaseIndex.Config","components":[{"name":"latestSnapshot","type":"uint256","internalType":"uint256"},{"name":"AUMDilutionPerSecond","type":"uint256","internalType":"uint256"},{"name":"useCustomAUMFee","type":"bool","internalType":"bool"},{"name":"staticPriceOracle","type":"address","internalType":"address"},{"name":"metadata","type":"address","internalType":"address"}]},{"name":"fee","type":"tuple","internalType":"struct IBaseIndex.FeeConfig","components":[{"name":"BPs","type":"uint16","internalType":"uint16"},{"name":"useCustomCallback","type":"bool","internalType":"bool"}]},{"name":"forwarder","type":"address","internalType":"address"},{"name":"homeCurrencies","type":"uint256[]","internalType":"a160u96[]"}]},{"name":"commandParams","type":"tuple","internalType":"struct IIndex.RedemptionCommandParams","components":[{"name":"currencyCommands","type":"tuple[]","internalType":"struct CommandLib.CommandTarget[]","components":[{"name":"target","type":"uint256","internalType":"a160u96"},{"name":"spender","type":"address","internalType":"address"},{"name":"mapTarget","type":"bool","internalType":"bool"},{"name":"datas","type":"bytes[]","internalType":"bytes[]"},{"name":"packedConfigs","type":"uint256[]","internalType":"uint256[]"}]},{"name":"additionalCurrencies","type":"address[]","internalType":"Currency[]"}]}]},{"name":"retries","type":"tuple[]","internalType":"struct IHomechainOmnichainMessenger.Retry[]","components":[{"name":"eid","type":"uint16","internalType":"uint16"},{"name":"options","type":"bytes[]","internalType":"bytes[]"},{"name":"callbacks","type":"bytes[]","internalType":"bytes[]"}]},{"name":"refundAddress","type":"address","internalType":"address payable"},{"name":"zroPaymentAddress","type":"address","internalType":"address"}],"outputs":[],"stateMutability":"payable"},{"type":"function","name":"setBridgingInfo","inputs":[{"name":"_infos","type":"tuple[]","internalType":"struct IOmnichainMessenger.BridgingInfo[]","components":[{"name":"finalDstChainId","type":"uint256","internalType":"uint256"},{"name":"localCurrency","type":"address","internalType":"Currency"}]}],"outputs":[],"stateMutability":"nonpayable"},{"type":"function","name":"setConfig","inputs":[{"name":"version","type":"uint16","internalType":"uint16"},{"name":"eid","type":"uint16","internalType":"uint16"},{"name":"configType","type":"uint256","internalType":"uint256"},{"name":"config","type":"bytes","internalType":"bytes"}],"outputs":[],"stateMutability":"nonpayable"},{"type":"function","name":"setHomeEid","inputs":[{"name":"_homeEid","type":"uint16","internalType":"uint16"}],"outputs":[],"stateMutability":"nonpayable"},{"type":"function","name":"setLayerZeroConfig","inputs":[{"name":"config","type":"tuple","internalType":"struct IHomechainOmnichainMessenger.LzConfig","components":[{"name":"eIds","type":"uint256","internalType":"u16x15"},{"name":"multipliers","type":"uint256","internalType":"u16x15"},{"name":"minGas","type":"uint256[]","internalType":"uint256[]"}]}],"outputs":[],"stateMutability":"nonpayable"},{"type":"function","name":"setOrderBook","inputs":[{"name":"_orderBook","type":"address","internalType":"address"}],"outputs":[],"stateMutability":"nonpayable"},{"type":"function","name":"setReceiveVersion","inputs":[{"name":"version","type":"uint16","internalType":"uint16"}],"outputs":[],"stateMutability":"nonpayable"},{"type":"function","name":"setSendVersion","inputs":[{"name":"version","type":"uint16","internalType":"uint16"}],"outputs":[],"stateMutability":"nonpayable"},{"type":"function","name":"setTrustedRemote","inputs":[{"name":"remoteChainId","type":"uint256","internalType":"uint256"},{"name":"remoteEid","type":"uint16","internalType":"uint16"},{"name":"minGasAmount","type":"uint256","internalType":"uint256"},{"name":"path","type":"bytes","internalType":"bytes"},{"name":"_poolIds","type":"tuple","internalType":"struct IBlockingApp.PoolIds","components":[{"name":"src","type":"uint128","internalType":"uint128"},{"name":"dst","type":"uint128","internalType":"uint128"}]}],"outputs":[],"stateMutability":"nonpayable"},{"type":"function","name":"sgReceive","inputs":[{"name":"srcEid","type":"uint16","internalType":"uint16"},{"name":"srcAddress","type":"bytes","internalType":"bytes"},{"name":"","type":"uint256","internalType":"uint256"},{"name":"token","type":"address","internalType":"address"},{"name":"amountLD","type":"uint256","internalType":"uint256"},{"name":"payload","type":"bytes","internalType":"bytes"}],"outputs":[],"stateMutability":"nonpayable"},{"type":"function","name":"transferOwnership","inputs":[{"name":"newOwner","type":"address","internalType":"address"}],"outputs":[],"stateMutability":"nonpayable"},{"type":"function","name":"trustedRemotes","inputs":[{"name":"","type":"uint16","internalType":"uint16"}],"outputs":[{"name":"","type":"bytes","internalType":"bytes"}],"stateMutability":"view"},{"type":"function","name":"withdrawCurrency","inputs":[{"name":"currency","type":"address","internalType":"Currency"},{"name":"to","type":"address","internalType":"address"},{"name":"amount","type":"uint256","internalType":"uint256"}],"outputs":[],"stateMutability":"nonpayable"},{"type":"event","name":"OrdersHashClear","inputs":[{"name":"chainId","type":"uint256","indexed":false,"internalType":"uint256"}],"anonymous":false},{"type":"event","name":"OutgoingOrders","inputs":[{"name":"orders","type":"tuple[]","indexed":false,"internalType":"struct IOrderBook.BoughtOrder[]","components":[{"name":"amount","type":"uint256","internalType":"uint256"},{"name":"buyCurrency","type":"address","internalType":"Currency"}]},{"name":"totalBought","type":"uint256","indexed":false,"internalType":"uint256"}],"anonymous":false},{"type":"event","name":"OwnershipTransferred","inputs":[{"name":"user","type":"address","indexed":true,"internalType":"address"},{"name":"newOwner","type":"address","indexed":true,"internalType":"address"}],"anonymous":false},{"type":"event","name":"SetLZConfig","inputs":[{"name":"","type":"tuple","indexed":false,"internalType":"struct IHomechainOmnichainMessenger.LzConfig","components":[{"name":"eIds","type":"uint256","internalType":"u16x15"},{"name":"multipliers","type":"uint256","internalType":"u16x15"},{"name":"minGas","type":"uint256[]","internalType":"uint256[]"}]}],"anonymous":false},{"type":"event","name":"TrustedRemoteSet","inputs":[{"name":"remoteEid","type":"uint16","indexed":false,"internalType":"uint16"},{"name":"path","type":"bytes","indexed":false,"internalType":"bytes"},{"name":"poolIds","type":"tuple","indexed":false,"internalType":"struct IBlockingApp.PoolIds","components":[{"name":"src","type":"uint128","internalType":"uint128"},{"name":"dst","type":"uint128","internalType":"uint128"}]}],"anonymous":false},{"type":"error","name":"BridgingCurrencyNotFound","inputs":[{"name":"dstChainId","type":"uint256","internalType":"uint256"}]},{"type":"error","name":"ConfigHash","inputs":[]},{"type":"error","name":"ERC20TransferFailed","inputs":[]},{"type":"error","name":"Forbidden","inputs":[]},{"type":"error","name":"Invalid","inputs":[]},{"type":"error","name":"InvalidBatches","inputs":[]},{"type":"error","name":"InvalidCodeAtRange","inputs":[{"name":"_size","type":"uint256","internalType":"uint256"},{"name":"_start","type":"uint256","internalType":"uint256"},{"name":"_end","type":"uint256","internalType":"uint256"}]},{"type":"error","name":"InvalidOptions","inputs":[]},{"type":"error","name":"NativeTransferFailed","inputs":[]},{"type":"error","name":"OnlyEndpoint","inputs":[]},{"type":"error","name":"OrderHashMismatch","inputs":[]},{"type":"error","name":"PathNotFound","inputs":[{"name":"eid","type":"uint16","internalType":"uint16"}]},{"type":"error","name":"QueryFailed","inputs":[]},{"type":"error","name":"RefundFailed","inputs":[]},{"type":"error","name":"WriteError","inputs":[]},{"type":"error","name":"ZRONotSupported","inputs":[]}],"bytecode":{"object":"0x60e0604090808252346200053f5762005e5e803803809162000022828562000576565b8339810160c0828203126200053f576200003c826200059a565b906020916200004d8385016200059a565b858501516001600160a01b039586821694909290918590036200053f57606083015161ffff811681036200053f5762000089608085016200059a565b60a08501516001600160401b03959193918682116200053f57019860608a8603126200053f578a5194620000bd8662000544565b8a518781116200053f5781620000d5918d01620005af565b8652898b01518781116200053f578c91620000f2918d01620005af565b9a8a87019b8c5201519660ff881688036200053f57858c01978852600080546001600160a01b0319169290911691821781559790887f8be0079c531659141344cd1fd0a4f28419497f9722a3daafe3b4186f6b6457e08180a360805260a0526009549061ffff60a01b9060a01b169061ffff60a01b19161760095560c05251948551908282116200044657600654916001978884811c9416801562000534575b8885101462000520578190601f94858111620004cc575b508890858311600114620004665788926200045a575b5050600019600383901b1c191690881b176006555b51805192831162000446576007548781811c911680156200043b575b878210146200042757828111620003de575b5085918311600114620003705760ff93929185918362000364575b5050600019600383901b1c191690861b176007559193915b511660ff196008541617600855835191620002508362000544565b83835280830193808552858401926060845286519485948486019785895260a0870192518a88015251606087015251936060608087015284518092528060c087019501935b8281106200034d57898988620002b5818a03601f19810183528262000576565b519020600c555161583890816200062682396080518181816104890152818161052c01528181610fc90152818161141d015281816115a20152818161191901528181611d1901528181613c460152614afb015260a05181818161334a01528181613f80015281816141cb0152818161422e01528181614294015281816142f2015281816143330152615323015260c051816133df0152f35b845186528796509481019493810193830162000295565b0151905038806200021d565b92918691601f198216906007875287872091875b89828210620003c7575050958360ff9710620003ad575b505050811b0160075593919362000235565b015160001960f88460031b161c191690553880806200039b565b8389015185558b9690940193928301920162000384565b600786528686208380860160051c8201928987106200041d575b0160051c019088905b8281106200041157505062000202565b87815501889062000401565b92508192620003f8565b634e487b7160e01b86526022600452602486fd5b90607f1690620001f0565b634e487b7160e01b85526041600452602485fd5b015190503880620001bf565b600689528989208b94509190601f1984168a5b8c828210620004b557505084116200049b575b505050811b01600655620001d4565b015160001960f88460031b161c191690553880806200048c565b8385015186558e9790950194938401930162000479565b909150600688528888208580850160051c8201928b861062000516575b918c91869594930160051c01915b82811062000507575050620001a9565b8a81558594508c9101620004f7565b92508192620004e9565b634e487b7160e01b87526022600452602487fd5b93607f169362000192565b600080fd5b606081019081106001600160401b038211176200056057604052565b634e487b7160e01b600052604160045260246000fd5b601f909101601f19168101906001600160401b038211908210176200056057604052565b51906001600160a01b03821682036200053f57565b919080601f840112156200053f5782516001600160401b038111620005605760209060405192620005ea83601f19601f850116018562000576565b8184528282870101116200053f5760005b8181106200061157508260009394955001015290565b8581018301518482018401528201620005fb56fe6080604052600436101561001b575b361561001957600080fd5b005b60003560e01c80621d3567146101ea578063055f192c146101e557806307e0db17146101e057806310ddb137146101db57806318b8dac9146101d65780632583c29c146101d15780632b5d23d2146101cc578063314012d1146101c757806336aedbb6146101c257806342d65a8d146101bd57806355d28f20146101b857806369883b4e146101b3578063729c2040146101ae5780637a7c7348146101a95780638da5cb5b146101a45780639a1598c81461019f578063a6b8269a1461019a578063ab8236f314610195578063ac3d3ea014610190578063b353aaa71461018b578063c155582614610186578063c4f4b52114610181578063c4f7941d1461017c578063cbed8b9c14610177578063d699e0af14610172578063d6bfcd271461016d578063f2fde38b14610168578063f5ecbdbc146101635763fe7b19d20361000e57611985565b6118af565b61183c565b611657565b61160d565b61153a565b61150a565b6114b7565b61144c565b611407565b611363565b6112f1565b61123c565b6111ec565b6111c3565b611188565b611105565b6110bb565b61103a565b610f71565b610d27565b610bd3565b610b63565b610872565b6105a1565b6104f5565b610452565b6102dd565b61023e565b61ffff8116036101fb57565b600080fd5b9181601f840112156101fb578235916001600160401b0383116101fb57602083818601950101116101fb57565b6001600160401b038116036101fb57565b346101fb5760803660031901126101fb5760043561025b816101ef565b6001600160401b03906024358281116101fb5761027c903690600401610200565b61028a60449392933561022d565b6064359384116101fb576102a5610019943690600401610200565b939092611d0d565b9181601f840112156101fb578235916001600160401b0383116101fb576020808501948460061b0101116101fb57565b346101fb5760203660031901126101fb576004356001600160401b0381116101fb5761030d9036906004016102ad565b60018060a01b0390600092610326838554163314611f06565b604091825180926020820192808684016020865252606083019190885b8782821061043157505050506103df9261036b6103ef93602e9303601f19810187528661097f565b61039b60218751809361038b60208301998d8b5251809285850190610b07565b810103600181018452018261097f565b80519486519485926020840197606360f81b895263ffffffff60e01b9060e01b1660218501526880600e6000396000f360b81b602585015251809285850190610b07565b810103600e81018452018261097f565b519084f0918216156104215750600980546001600160a01b0319166001600160a01b0390921691909117905580f35b80f35b5163046a55db60e11b8152600490fd5b8395508461044460019496839496611f41565b019401910191859392610343565b346101fb57600060203660031901126104f257600435610471816101ef565b8160018060a01b03610487818354163314611f06565b7f00000000000000000000000000000000000000000000000000000000000000001691823b156104ee57602461ffff918360405195869485936307e0db1760e01b85521660048401525af180156104e9576104e0575080f35b61041e906108fb565b611f62565b5080fd5b80fd5b346101fb57600060203660031901126104f257600435610514816101ef565b8160018060a01b0361052a818354163314611f06565b7f00000000000000000000000000000000000000000000000000000000000000001691823b156104ee57602461ffff918360405195869485936310ddb13760e01b85521660048401525af180156104e9576104e0575080f35b6001600160a01b038116036101fb57565b359061059f82610583565b565b346101fb5760a03660031901126101fb576004356024356001600160401b0381116101fb576105d49036906004016102ad565b9091906064356044356105e682610583565b608435916040918251946020958681018161060385858d85611f6e565b0391610617601f199384810183528261097f565b51902085518881019182526001600160a01b03861660208301526040820188905290916106509082606085015b0390810183528261097f565b51902061066788600052600b602052604060002090565b5403610861577fc945d9e1f8095c0dea44c1e121710035a0e1825064e18e6e9d304e2cbf233c206106b9600098896106a982600052600b602052604060002090565b5586519081529081906020820190565b0390a16106c581611fd0565b956106cf82612067565b988893845b8b861115610754578a8a818b8b8b6107026106f6600a5460018060a01b031690565b6001600160a01b031690565b91823b156107505761072b958591519687958694859363ad175a8b60e01b855260048501612158565b03925af180156104e95761073d575080f35b8061074a61041e926108fb565b806111b8565b8480fd5b806001600160601b03866108328f8f8f908f8f8f92908f958d8f93848f61083b9f8b90610803998f93836107ba956107f29a6107c699508214600014610841575050506107a9916107a49161207b565b613b72565b9d5b6107c0846107ba84848a6120ad565b016120c2565b956120ad565b936107e16107d2611c94565b6001600160a01b039098168852565b6001600160a01b0390911690860152565b6001600160a01b0390911690830152565b466060820152610811611ca1565b6001600160601b0386168152908b82015261082c83836120cc565b526120cc565b50160195612088565b946106d4565b61085b94506107a49391610855918b6120ad565b35613b5c565b9d6107ab565b835163be364e3b60e01b8152600490fd5b346101fb5760203660031901126101fb5761ffff600435610892816101ef565b1660005260056020526020604060002054604051908152f35b90600182811c921680156108db575b60208310146108c557565b634e487b7160e01b600052602260045260246000fd5b91607f16916108ba565b634e487b7160e01b600052604160045260246000fd5b6001600160401b03811161090e57604052565b6108e5565b604081019081106001600160401b0382111761090e57604052565b608081019081106001600160401b0382111761090e57604052565b606081019081106001600160401b0382111761090e57604052565b602081019081106001600160401b0382111761090e57604052565b90601f801991011681019081106001600160401b0382111761090e57604052565b60405190600082600754916109b4836108ab565b80835292602090600190818116908115610a4057506001146109df575b505061059f9250038361097f565b91509260076000527fa66cc928b5edb82af9bd49922954155ab7b0942694bea4ce44661d9a8736c688936000925b828410610a28575061059f94505050810160200138806109d1565b85548885018301529485019487945092810192610a0d565b9150506020925061059f94915060ff191682840152151560051b82010138806109d1565b90604051918260008254610a77816108ab565b90818452602094600191600181169081600014610ae55750600114610aa6575b50505061059f9250038361097f565b600090815285812095935091905b818310610acd57505061059f9350820101388080610a97565b85548884018501529485019487945091830191610ab4565b9250505061059f94925060ff191682840152151560051b820101388080610a97565b60005b838110610b1a5750506000910152565b8181015183820152602001610b0a565b90602091610b4381518092818552858086019101610b07565b601f01601f1916010190565b906020610b60928181520190610b2a565b90565b346101fb5760203660031901126101fb5761ffff600435610b83816101ef565b166000526003602052610bb0610b9c6040600020610a64565b604051918291602083526020830190610b2a565b0390f35b60409060831901126101fb57608490565b908160409103126101fb5790565b346101fb5760c03660031901126101fb57602435610bf0816101ef565b6064356001600160401b0381116101fb57610c307fa6c31f11fb022ad87f4d24c4d7341d7ff9914f0263c04421f24b33dc014efccd913690600401610200565b92610cf1610c3d36610bb4565b600095610c5460018060a01b038854163314611f06565b600435875260026020526040872061ffff851661ffff198254161790556004602052604087208235610c8581612184565b6001600160801b036020850135610c9b81612184565b81199060801b169116179055610cc98186610cc48761ffff166000526003602052604060002090565b6121f5565b604435610ce48561ffff166000526005602052604060002090565b55604051948594856122e4565b0390a180f35b9181601f840112156101fb578235916001600160401b0383116101fb576020808501948460051b0101116101fb57565b60803660031901126101fb576001600160401b03600480358281116101fb57610d54903690600401610cf7565b926024359081116101fb57610d6d903690600401610cf7565b909160443594610d7c86610583565b60643594610d8986610583565b60005b828110610eec5750505050610da247349061207b565b926000905b828210610dd25785610db9864761207b565b80610dc057005b610019916001600160a01b0316613d1c565b909293610de3848487989598612766565b92610df5610df08561277d565b613b8a565b93600096604092838301946020928385019a5b610e128887612787565b9050811015610ed45780610ece8b8b8f8b610ec6610ebf8f9398610e4d8f9a8f9b610eba60019d610e83610e7e610e5388610e4d8888612787565b90612802565b9190610e75610e618861277d565b61ffff166000526005602052604060002090565b54923691611cd6565b613bc8565b610eac610e9d87610e4d610e968761277d565b9d87612787565b909a519a8b9333908501612819565b03601f19810189528861097f565b612787565b3691611cd6565b933092613c2d565b01610e08565b50989450985098949550505060019150019091610da7565b600e54949694610f06906106f6906001600160a01b031681565b90610f12818587612337565b91803b156101fb57604051630e22a07160e21b8152926000918491829084908290610f419033908b84016126c1565b03925af19182156104e957600192610f5e575b5001959395610d8c565b8061074a610f6b926108fb565b38610f54565b346101fb57600060403660031901126104f257600435610f90816101ef565b816024356001600160401b0381116104ee57610fb0903690600401610200565b909260018060a01b03610fc7818554163314611f06565b7f00000000000000000000000000000000000000000000000000000000000000001690813b15611036578361ffff91611024604051978896879586946342d65a8d60e01b86521660048501526040602485015260448401916122c3565b03925af180156104e9576104e0575080f35b8380fd5b346101fb5760603660031901126101fb5760043561105781610583565b60243561106381610583565b6044359061107082610583565b6000546001600160a01b0392839161108b9083163314611f06565b816001600160601b0360a01b951685600e541617600e551683600d541617600d551690600a541617600a55600080f35b346101fb5760203660031901126101fb576004356000526004602052604080600020548151906001600160801b038116825260801c6020820152f35b908160609103126101fb5790565b6003196080368201126101fb576001600160401b03906004358281116101fb576111339036906004016110f7565b602435918383116101fb5760a09083360301126101fb576044358381116101fb57611162903690600401610cf7565b916064359485116101fb5761117e610019953690600401610bc5565b9360040190612842565b346101fb5760203660031901126101fb576004356001600160401b0381116101fb57610019903690600401610200565b60009103126101fb57565b346101fb5760003660031901126101fb576000546040516001600160a01b039091168152602090f35b346101fb5760203660031901126101fb5760043561120981610583565b6000546001600160a01b0391906112239083163314611f06565b166001600160601b0360a01b600a541617600a55600080f35b60c03660031901126101fb5760046001600160401b0381358181116101fb576112689036908401610cf7565b916024358181116101fb576112809036908601610cf7565b6044929192358281116101fb5761129a9036908801610bc5565b906064358381116101fb576112b29036908901610cf7565b9290916084358581116101fb576112cc9036908b01610cf7565b96909560a4359081116101fb576100199a6112e991369101610200565b9990986130bf565b346101fb5760c03660031901126101fb5760043561130e816101ef565b6001600160401b03906024358281116101fb5761132f903690600401610200565b9160643561133c81610583565b60a4359485116101fb57611357610019953690600401610200565b94909360843593613335565b346101fb5760203660031901126101fb576004356001600160401b0381116101fb576114026113b77f19194f442460348db43d02b88ab01d3ec54a3cc1c0dc7dd273ae06eef8f65fa69236906004016110f7565b6113cc60018060a01b03600054163314611f06565b60405160208101906113f0816113e285856134a0565b03601f19810183528261097f565b519020600c55604051918291826134a0565b0390a1005b346101fb5760003660031901126101fb576040517f00000000000000000000000000000000000000000000000000000000000000006001600160a01b03168152602090f35b6003196060368201126101fb576004356001600160401b03918282116101fb5760e08183360301126101fb576024358381116101fb57611490903690600401610bc5565b906044359384116101fb5760809084360301126101fb5761001992600401916004016135f9565b346101fb5760203660031901126101fb576004356114d4816101ef565b6114e960018060a01b03600054163314611f06565b6009805461ffff60a01b191660a09290921b61ffff60a01b16919091179055005b346101fb5760203660031901126101fb576004356000526002602052602061ffff60406000205416604051908152f35b346101fb5760803660031901126101fb57600435611557816101ef565b602435611563816101ef565b6064356001600160401b0381116101fb57611582903690600401610200565b60018060a09493941b0391600094836115a087958654163314611f06565b7f00000000000000000000000000000000000000000000000000000000000000001691823b1561075057849061072b604051978896879586946332fb62e760e21b865261ffff809216600487015216602485015260443560448501526080606485015260848401916122c3565b346101fb5760603660031901126101fb5761001960043561162d81610583565b60243561163981610583565b61164e60018060a01b03600054163314611f06565b60443591614971565b346101fb576020806003193601126101fb57600480356001600160401b0381116101fb57611689903690600401610bc5565b9160018060a01b036000916116a2828454163314611f06565b81600d5416936116b0614df1565b9360409683810135888701524686526116d36116cc8280612787565b9050614e11565b95848101968752825b6116e68380612787565b905081101561180b5761170b611706826117008680612787565b90613076565b6120c2565b908a86898416806117825750508161177a9161176d60019561175d8c61172f614e95565b94855195611744828483015192015160ff1690565b9261174d611c94565b97885287015285019060ff169052565b6001600160a01b03166060830152565b8b519061082c83836120cc565b505b016116dc565b8961178f829493946154b5565b9161179981615573565b935163313ce56760e01b815294859182905afa9182156104e9576001958f869461175d9161176d948f6117d6998f946117dc575b5061174d611c94565b5061177c565b816117fd9295503d8611611804575b6117f5818361097f565b810190614e80565b92386117cd565b503d6117eb565b8380838c8c803b1561183757839261072b925194858094819363f83e6c8760e01b83526004830161377e565b505050fd5b346101fb5760203660031901126101fb5760043561185981610583565b6000805490916001600160a01b03906118753383851614611f06565b1680916001600160601b0360a01b16178255337f8be0079c531659141344cd1fd0a4f28419497f9722a3daafe3b4186f6b6457e08380a380f35b346101fb5760803660031901126101fb576004356118cc816101ef565b602435906118d9826101ef565b6118e4604435610583565b604051633d7b2f6f60e21b815261ffff91821660048201529116602482015230604482015260648035908201526000816084817f00000000000000000000000000000000000000000000000000000000000000006001600160a01b03165afa80156104e957610bb091600091611962575b5060405191829182610b4f565b61197f91503d806000833e611977818361097f565b810190613841565b38611955565b60803660031901126101fb576001600160401b036004358181116101fb576119b1903690600401610cf7565b90916024358181116101fb576119cb903690600401610cf7565b6044358381116101fb576119e3903690600401610cf7565b936064359081116101fb576119fc903690600401610200565b600d5490949190611a17906106f6906001600160a01b031681565b3303611c8257611a2561389f565b600e54611a3c906106f6906001600160a01b031681565b803b156101fb57604051630e8f3bf560e31b8152916000918391829084908290611a6990600483016138b8565b03925af180156104e957611c6f575b50611a96611a8f611a898886612dab565b80612de3565b3691612e18565b936001611aac611aa7368487612eea565b6144ab565b03611c61575b600a54611ac7906001600160a01b03166106f6565b91602095611ae06020611ada8b89612dab565b01612195565b90843b156101fb57611b0c946000928360405180988195829463ad102f9b60e01b845260048401612f38565b03925af19081156104e957611b3c93611b3692611c4e575b50611b2d612f58565b97810190612f77565b9261306d565b3594611b4786614633565b97602086019889525b8851600188821c161561001957868982611b7d575b505050611b7660018a5101886147cf565b8952611b50565b611bc4611bb0611ba8611b97611c3f96611c0d9589613076565b356000526002602052604060002090565b5461ffff1690565b61ffff16604084019081525b5161ffff1690565b611c1b611be88a611ada611be1611bda86613b8a565b9751613086565b8a8d612dbb565b6040519384918c830191909160206001600160801b0360408301946005845216910152565b03601f19810184528361097f565b868901516001600160a01b031691611c3688518c51906120cc565b51933092613c2d565b85516001018652388689611b65565b8061074a611c5b926108fb565b38611b24565b611c6a85614532565b611ab2565b8061074a611c7c926108fb565b38611a78565b604051631dd2188d60e31b8152600490fd5b6040519061059f8261092e565b6040519061059f82610913565b6040519061059f82610949565b6001600160401b03811161090e57601f01601f191660200190565b929192611ce282611cbb565b91611cf0604051938461097f565b8294818452818301116101fb578281602093846000960137010152565b919060018060a01b03807f0000000000000000000000000000000000000000000000000000000000000000163314908115611ef8575b5015611ee657611d5b611d7791611d7c933691611cd6565b602081519101209261ffff166000526003602052604060002090565b610a64565b6020815191012003611e875760ff611da6611da0611d9a8585613945565b90613953565b60ff1690565b1660068103611e285750611dbc91810190613b19565b600d54909150611dd4906001600160a01b03166106f6565b9060208151910151823b156101fb576040516271840760e11b815260048101929092526024820152906000908290818381604481015b03925af180156104e957611e1b5750565b8061074a61059f926108fb565b80611e7f5750611e3a918101906139b5565b600d54909150611e52906001600160a01b03166106f6565b803b156101fb5760405163f83e6c8760e01b8152916000918391829084908290611e0a906004830161377e565b600714611e8b575b5050565b611e979181019061397b565b600a54909150611eaf906001600160a01b03166106f6565b803b156101fb57604051630ca3008d60e01b815260048101929092526000908290602490829084905af180156104e957611e1b5750565b604051630fd72cd960e31b8152600490fd5b905060015416331438611d43565b15611f0d57565b60405162461bcd60e51b815260206004820152600c60248201526b15539055551213d49256915160a21b6044820152606490fd5b60208091803584520135611f5481610583565b6001600160a01b0316910152565b6040513d6000823e3d90fd5b604080825280820184905290949392606086019160005b828110611f985750505060209150930152565b909192828082611faa60019489611f41565b01950191019392919093611f85565b6001600160401b03811161090e5760051b60200190565b90611fda82611fb9565b604090611fea604051918261097f565b8381528093611ffb601f1991611fb9565b019160005b83811061200d5750505050565b602090825161201b81610913565b6000815282845161202b8161092e565b600081526000828201526000868201526000606082015281830152828601015201612000565b634e487b7160e01b600052601160045260246000fd5b60001981019190821161207657565b612051565b9190820391821161207657565b60001981146120765760010190565b634e487b7160e01b600052603260045260246000fd5b91908110156120bd5760061b0190565b612097565b35610b6081610583565b80518210156120bd5760209160051b010190565b90815180825260208080930193019160005b828110612100575050505090565b835180516001600160601b0316865282015180516001600160a01b0390811687850152818401518116604080890191909152820151166060808801919091520151608086015260a090940193928101926001016120f2565b612170604092959493956060835260608301906120e0565b6001600160a01b0390951660208201520152565b6001600160801b038116036101fb57565b35610b6081612184565b90601f81116121ad57505050565b6000916000526020600020906020601f850160051c830194106121eb575b601f0160051c01915b8281106121e057505050565b8181556001016121d4565b90925082906121cb565b9092916001600160401b03811161090e5761221a8161221484546108ab565b8461219f565b6000601f821160011461225b57819061224c939495600092612250575b50508160011b916000199060031b1c19161790565b9055565b013590503880612237565b601f1982169461227084600052602060002090565b91805b8781106122ab575083600195969710612291575b505050811b019055565b0135600019600384901b60f8161c19169055388080612287565b90926020600181928686013581550194019101612273565b908060209392818452848401376000828201840152601f01601f1916010190565b929160609261ffff612307939796971685526080602086015260808501916122c3565b93602081359161231683612184565b6001600160801b038093166040860152013561233181612184565b16910152565b91908110156120bd5760051b81013590609e19813603018212156101fb570190565b9035601e19823603018112156101fb5701602081359101916001600160401b0382116101fb578160051b360383136101fb57565b91908082526020809201929160005b8281106123aa575050505090565b83358552938101939281019260010161239c565b903561011e19823603018112156101fb570190565b801515036101fb57565b6020809161ffff81356123ef816101ef565b16845201356123fd816123d3565b1515910152565b610b6091610120809183358152602084013560208201526040840135612429816123d3565b15156040820152606084013561243e81610583565b6001600160a01b039081166060830152608085013561245c81610583565b16608082015261247260a0820160a086016123dd565b61249161248160e08601610594565b6001600160a01b031660e0830152565b6124a16101009485810190612359565b939094820152019161238d565b9035603e19823603018112156101fb570190565b9035601e19823603018112156101fb5701602081359101916001600160401b0382116101fb5781360383136101fb57565b81835290916001600160fb1b0383116101fb5760209260051b809284830137010190565b91908082526020809201929160005b828110612534575050505090565b909192938280600192873561254881610583565b848060a01b03168152019501910192919092612526565b919060409060408101936125738180612359565b80966040855252606090606084019660059560608260051b8701019683946000915b8483106125c55750505050505050610b609394508060206125b7920190612359565b916020818503910152612517565b90919293949598605f19898203018c528935609e19883603018112156101fb57870160a09182810191803582526020938482013561260281610583565b6001600160a01b0316838601528189013561261c816123d3565b15158984015261262e87830183612359565b94859192898601525260c08084019085881b850101948260005b82811061268e57505050505083926001949261267b9261266d60809182810190612359565b9290918185039101526124f3565b9b019c01930191909a959493929a612595565b909192939688806126b460019360bf198b82030189526126ae8c886124c2565b906122c3565b9901950193929101612648565b9061274160209194939460408452803560408501528281013560608501526127006126ef6040830183612359565b60a0608088015260e087019161238d565b61273261272761271360608501856123be565b92603f1993848983030160a08a0152612404565b9260808101906124ae565b908583030160c086015261255f565b6001600160a01b03909416910152565b903590605e19813603018212156101fb570190565b908210156120bd57610b609160051b810190612751565b35610b60816101ef565b903590601e19813603018212156101fb57018035906001600160401b0382116101fb57602001918160051b360383136101fb57565b903590601e19813603018212156101fb57018035906001600160401b0382116101fb576020019181360383136101fb57565b90156120bd57806127fe916127bc565b9091565b908210156120bd576127fe9160051b8101906127bc565b600281526001600160a01b039091166020820152606060408201819052610b60939101916122c3565b919261289694919360008096819561286460018060a01b038454163314611f06565b600a54612879906001600160a01b03166106f6565b9060405197888094819363474aba6b60e01b835260048301612ba6565b03925af180156104e9576128b1948791612987575b50613f5d565b600d548290602090612906906128cf906001600160a01b03166106f6565b600e549094906128e9906106f6906001600160a01b031681565b9060405194858094819363099e120360e11b835260048301612cd2565b03925af19081156104e9578391612958575b50813b15612954576040516271840760e11b8152466004820152602481019190915291908290604490829084905af180156104e957611e1b5750565b8280fd5b61297a915060203d602011612980575b612972818361097f565b810190612c3b565b38612918565b503d612968565b6129a391503d8089833e61299b818361097f565b810190612a30565b386128ab565b519061059f82610583565b9291926129c082611fb9565b6040926129d0604051928361097f565b819581835260208093019160061b8401938185116101fb57915b8483106129f957505050505050565b85838303126101fb578386918251612a1081610913565b8551815282860151612a2181610583565b838201528152019201916129ea565b9060209081838203126101fb5782516001600160401b03938482116101fb57019080601f830112156101fb578151612a6781611fb9565b94604090612a78604051978861097f565b828752858088019360051b860101948486116101fb57868101935b868510612aa557505050505050505090565b84518381116101fb57820160809182601f19838a0301126101fb57855191612acc8361092e565b8a810151835286810151612adf81610583565b8b8401526060938482015188850152810151908682116101fb57019188603f840112156101fb578a93612b1a8a858a888098015191016129b4565b90820152815201940193612a93565b9190808252602080920192916000905b828210612b47575050505090565b909192936001908535612b5981610583565b828060a01b0380911682528084880135612b7281610583565b168483015260409081880135612b8781610583565b1690820152606086810135908201526080908101950193920190612b39565b90602082528035601e19823603018112156101fb57810191602083359301906001600160401b0384116101fb578360071b360382136101fb57612bf9606092610b60958460208501526080840191612b29565b90612c2c612c21612c0d6020870187612359565b601f198587038101604087015295916124f3565b946040810190612359565b939092828603019101526124f3565b908160209103126101fb575190565b6001600160601b038116036101fb57565b612c76612c688280612359565b6040855260408501916124f3565b6020612c86819382810190612359565b9290948281830391015282815201929160005b828110612ca7575050505090565b9091929382806001926001600160601b038835612cc381612c4a565b16815201950193929101612c99565b9060a0610b609260208152612cfa612cea8480612359565b84602085015260c084019161238d565b90612d87612d72612d56612d1160208801886124ae565b601f199586868203016040870152612d48612d3d612d2f8480612359565b60408552604085019161238d565b926020810190612359565b9160208185039101526124f3565b612d6360408801886124ae565b85858303016060860152612c5b565b94606081013560808401526080810190612359565b93909282860301910152612517565b903590603e19813603018212156101fb570190565b90156120bd5780610b6091612d96565b908210156120bd57610b609160051b810190612d96565b906020610b60928181520190612c5b565b903590601e19813603018212156101fb57018035906001600160401b0382116101fb576020019160a08202360383136101fb57565b929192612e2482611fb9565b604094612e34604051928361097f565b819584835260208093019160a08096028501948186116101fb57925b858410612e605750505050505050565b8382038781126101fb57835191612e7683610913565b8535612e8181612c4a565b835260808092601f1901126101fb5788928792865190612ea08261092e565b84890135612ead81610583565b825287890135612ebc81610583565b85830152606090818a0135612ed081610583565b898401528901359082015283820152815201930192612e50565b9291612ef582611fb9565b91612f03604051938461097f565b829481845260208094019160051b81019283116101fb57905b828210612f295750505050565b81358152908301908301612f1c565b6040906001600160801b03610b60949316815281602082015201906120e0565b60405190612f6582610949565b60006040838281528260208201520152565b60209081818403126101fb5780356001600160401b03918282116101fb570190604080838603126101fb5760405194612faf86610913565b83358381116101fb5784019181601f840112156101fb57823590612fd282611fb9565b94612fe0604051968761097f565b828652878087019360051b860101948486116101fb5790918896949287839997959901925b8584106130265750505050505061301f9350855201610594565b9082015290565b91939597509193959784358381116101fb57820186603f820112156101fb578a9161305988838886809601359101611cd6565b815201940191899795939198969498613005565b90156120bd5790565b91908110156120bd5760051b0190565b906001820180921161207657565b9190820180921161207657565b606090610b6093926004825260208201528160408201520190612c5b565b96959399979298909194986130e16106f66106f6600d5460018060a01b031690565b3303611c8257600e546130fe906106f6906001600160a01b031681565b6131088589612dab565b90803b156101fb57604051630e8f3bf560e31b81529160009183918290849082906131369060048301612dd2565b03925af180156104e9576132ee575b50613153611a8f8c80612de3565b916001613164611aa736858b612eea565b036132e0575b600a5461317f906001600160a01b03166106f6565b9261318d6020809e01612195565b90843b156101fb576131b9946000928360405180988195829463ad102f9b60e01b845260048401612f38565b03925af19081156104e9576131e9936131e3926132cd575b506131da612f58565b9a810190612f77565b9561306d565b35976131f489614633565b99602089019a8b525b8a5160018b821c16156132bf578881859261322b575b50505061322460018c51018b6147cf565b8b526131fd565b611ba8611b97613242926132b09561325295613076565b61ffff1660408c01908152611bbc565b8a61325c82613b8a565b9161326982518a88613076565b356132946132828d8b61327c8751613086565b91612dbb565b916113e26040519384928a84016130a1565b8a860151611c36906001600160a01b0316938c519051906120cc565b88516001018952828838613213565b505050505050505050505050565b8061074a6132da926108fb565b386131d1565b6132e983614532565b61316a565b8061074a6132fb926108fb565b38613145565b826014949392823701906001600160601b03199060601b1681520190565b91908260409103126101fb576020823592013590565b9495939490926001600160a01b0392909190337f00000000000000000000000000000000000000000000000000000000000000008516148015613483575b15611c8257611d776133c291613396966040519788916020830193309185613301565b03966133aa601f199889810183528261097f565b5190209261ffff166000526003602052604060002090565b602081519101200361347b5761059f9561345992613412928116907f000000000000000000000000000000000000000000000000000000000000000016810361347557506000945b81019061331f565b60408051602081019384526001600160a01b03871691810191909152606081018790529093613445908260808101610644565b51902091600052600b602052604060002090565b55600a5461346f906001600160a01b03166106f6565b90614971565b9461340a565b505050505050565b50600154613499906001600160a01b03166106f6565b3314613373565b60806134c8610b60936020845280356020850152602081013560408501526040810190612359565b91909260608082015201916124f3565b908160609103126101fb5760408051916134f183610949565b80516134fc81612c4a565b8352602081015160208401520151604082015290565b9392906135e660409161059f94606088526135d96135c860c06135c161354e8c61014061353f89806123be565b9160e060608201520190612404565b602087013560808e01528887013560a08e01528c83606089013561357181610583565b6001600160a01b03169101526135a0608088013560e08f61359183612184565b01906001600160801b03169052565b8c6135ae60a08901896124c2565b91610100605f19828603019101526122c3565b9401610594565b6001600160a01b03166101208a0152565b878203602089015261255f565b6001600160a01b03909216940193909352565b92916136058180612751565b90604091825161361d816113e26020820194856134a0565b519020600c540361376d576136356020820182612787565b905061364b6136448380612751565b3560f01c90565b0361375c5760009394606061369d61366447349061207b565b600e5490969061367e906106f6906001600160a01b031681565b90865198898094819363180ab9d960e21b835233908960048501613512565b03925af19081156104e9576136ce9560009261372b575b5083820193845192836136e0575b5050505050504761207b565b806136d65750565b61059f9033613d1c565b60200151602083013514918261371d575b50501561370e57506137039151614ad2565b3880808080806136c2565b6137189250614a09565b613703565b0135821015905038806136f1565b61374e91925060603d606011613755575b613746818361097f565b8101906134d8565b90386136b4565b503d61373c565b815163fa9345cd60e01b8152600490fd5b815163979df6d560e01b8152600490fd5b60209182825260808083018251858501528483015194606092604060606040880152875180945260a08701908360a08660051b8a01019901956000935b8685106137d75750505050505050506040606091015191015290565b90919293949596998680600192609f198d82030188528d519086613815613805845189855289850190610b2a565b8585015184820387860152610b2a565b9260ff8a820151168a84015281878060a01b03910151169101529c0195019501939695949291906137bb565b6020818303126101fb578051906001600160401b0382116101fb570181601f820112156101fb57805161387381611cbb565b92613881604051948561097f565b818452602082840101116101fb57610b609160208085019101610b07565b604051906138ac82610913565b60606020838281520152565b9060209081835260608301908051916040848601528251809152836080860193019060005b81811061393157505050820151926040601f198284030191015281808451928381520193019160005b828110613914575050505090565b83516001600160601b031685529381019392810192600101613906565b8251855293850193918501916001016138dd565b906020116101fb5790602090565b359060208110613961575090565b6000199060200360031b1b1690565b60ff8116036101fb57565b91908260409103126101fb576020823561399481613970565b92013590565b9080601f830112156101fb57816020610b6093359101611cd6565b9190604080848303126101fb5783356139cd81613970565b93602090818101356001600160401b03918282116101fb5701916060916060848703126101fb57845195613a0087610949565b84358752828501358281116101fb5785019181601f840112156101fb57823590613a2982611fb9565b95613a368951978861097f565b828752858088019360051b860101948486116101fb579081878b9a9998979695949301935b868510613a75575050505050505085015201359082015290565b909192938095969798999a50358481116101fb5782019060809081601f19848a0301126101fb578c51613aa78161092e565b8a8401358781116101fb57898c613ac09287010161399a565b81528d840135928784116101fb57848f613ae18c8f8099988199010161399a565b868501528882013590613af382613970565b8401520135613b0181610583565b8682015281520194019291908a999897969594613a5b565b8092910391606083126101fb5760408135613b3381613970565b93601f1901126101fb576040805191613b4b83610913565b602081013583520135602082015290565b816000190481118202158302156101fb57020490565b600160601b8110156101fb576001600160601b031690565b61ffff1690816000526003602052613ba56040600020610a64565b91825115613bb05750565b60249060405190639cd86f1760e01b82526004820152fd5b90815160228114908115613c22575b5015613c055761ffff60226002840151930151921660018114908115613c17575b5015613c055711613c0557565b604051630280f17760e01b8152600490fd5b600291501438613bf8565b604291501138613bd7565b929493909291906001600160a01b03908116613cda57807f000000000000000000000000000000000000000000000000000000000000000016924791843b156101fb57613cac9760009761ffff95611e0a93613cbf6040519c8d9b8c9a8b9962c5803160e81b8b521660048a015260c060248a015260c4890190610b2a565b60031993848983030160448a0152610b2a565b931660648601528960848601528483030160a4850152610b2a565b60405163653626cf60e01b8152600490fd5b3d15613d17573d90613cfd82611cbb565b91613d0b604051938461097f565b82523d6000602084013e565b606090565b600080809381935af1613d2d613cec565b5015613d3557565b604051633c31275160e21b8152600490fd5b60405190613d548261092e565b606080836000815260006020820152600060408201520152565b908160209103126101fb5751610b6081610583565b90604051613d9081610913565b91546001600160801b038116835260801c6020830152565b9291906040906040850160408652815180915260608601916020809101936000905b838210613dde575050505060209150930152565b8551805186528301516001600160a01b0316858401529482019493840193600190910190613dca565b90602082519201516001600160601b0319908181169360148110613e2a57505050565b60140360031b82901b16169150565b90604051916001600160601b03191660208301526014825261059f82610913565b91908260409103126101fb576020825192015190565b906060613e92610b6093803584526020810135602085015260408101906124c2565b91909281604082015201916122c3565b92613ecd610b60959361ffff613edb941686526001602087015260a0604087015260a0860190610b2a565b908482036060860152610b2a565b916080818403910152613e70565b9794613f4094613f4e979293610b609b999561ffff61012096168c526001600160801b0380921660208d01521660408b015260018060a01b031660608a0152608089015260a08801528060c0880152860190613e70565b9084820360e0860152610b2a565b91610100818403910152610b2a565b919392613f68613d47565b60405163c45a015560e01b81529093906020816004817f00000000000000000000000000000000000000000000000000000000000000006001600160a01b03165afa80156104e957613fca9160009161448c575b506001600160a01b03168552565b8051946040850195865260005b865181101561448257613fea81846120cc565b519061407d614007611ba884516000526002602052604060002090565b9261401184613b8a565b60608a015261403361402e82516000526004602052604060002090565b613d83565b60408201518a5160209061404f906001600160a01b03166106f6565b835160405163068bcd8d60e01b81526001600160801b03909116600482015295869190829081906024820190565b03915afa9384156104e957600494602091600091614455575b5060405163feb56b1560e01b815295869182906001600160a01b03165afa9081156104e957898b928f928e97600092614434575b50106143c457509161419b61419660606140f561414e9589989761327c60206141839c01518d61207b565b9661418f8288017f37a28c62bfa8e4579bdc54985bb8380deeb34721706ffd1aac79b28b6a00d683815160408b01519061413460405192839283613da8565b0390a1516040890151604051988991602083019384613da8565b0397614162601f19998a810183528261097f565b5190206040805160208101929092524690820152998a979088906060820190565b0390810188528761097f565b0151613e07565b613e39565b93604085896141c76141ad8580612751565b8451630a51236960e01b81529a8b94859460048601613ea2565b03817f00000000000000000000000000000000000000000000000000000000000000006001600160a01b03165afa9586156104e957600096614392575b506020840180519096939084906001600160a01b03161561437a575b508651604086015161425c917f0000000000000000000000000000000000000000000000000000000000000000906001600160a01b031661506a565b6040614283602061427486516001600160801b031690565b9501516001600160801b031690565b950151906142918380612751565b967f00000000000000000000000000000000000000000000000000000000000000006001600160a01b03163b156101fb576000976020956142ee946040519d8e9a8b998a996327efc43f60e21b8b52013593309260048b01613ee9565b03917f00000000000000000000000000000000000000000000000000000000000000006001600160a01b03165af19081156104e95760019361436192614367575b50517f0000000000000000000000000000000000000000000000000000000000000000906001600160a01b0316614f7d565b01613fd7565b8061074a614374926108fb565b3861432f565b61438b919450604086015190613094565b9238614220565b6143b591965060403d6040116143bd575b6143ad818361097f565b810190613e5a565b509438614204565b503d6143a3565b925050506001946113e26143f960608061442f9701519501515160405192839160208301919060206040840193600781520152565b610ec6610ebf8d60206144176144108289016120c2565b9780612787565b919092019182519261442884612088565b9052612802565b614361565b61444e91925060203d60201161298057612972818361097f565b90386140ca565b6144759150823d841161447b575b61446d818361097f565b810190613d6e565b38614096565b503d614463565b5095505050505050565b6144a5915060203d60201161447b5761446d818361097f565b38613fbc565b600091908290815b81518510156144f6576144c685836120cc565b518084915b6144e457508101809111612076576001909401936144b3565b600190910190600019810116806144cb565b93505050565b6020818303126101fb578051906001600160401b0382116101fb57019080601f830112156101fb578151610b60926020016129b4565b600954614547906001600160a01b03166155e7565b9061455d825192602080809583010191016144fc565b60005b825181101561462d5760608461457683866120cc565b510151015146810361458c575b50600101614560565b92909493600094855b8451811015614622576145a881866120cc565b515186146145b857600101614595565b909692949195506146006145e1876145d2600194886120cc565b5101516001600160a01b031690565b87806145ed878a6120cc565b5101516001600160a01b03909216910152565b6145835760405163132b474b60e31b81526004810191909152602490fd5b0390fd5b509591939094614600565b50505050565b80156147c8576007811690811561467257508060021461466c57806004146146665760061461466157600090565b600190565b50600290565b50600190565b809150600082156104f2575060ff916001600160801b0381161515806001146147bb57156147b0575b506001600160401b0381161515806001146147a4571561479c575b63ffffffff81161515806001146147905715614788575b61ffff811615158060011461477c5715614774575b60ff81161515806001146147685715614760575b600f8116151580600114614754571561474c575b6003811615158060011461473e576001919015614736575b16151560011461472f5790565b6000190190565b60021c614722565b509060019081190191614722565b60041c61470a565b5090600319019061470a565b60081c6146f6565b509060071901906146f6565b60101c6146e2565b5090600f1901906146e2565b60201c6146cd565b5090601f1901906146cd565b60401c6146b6565b5090603f1901906146b6565b905060801c3861469b565b50509050607f903861469b565b5061010090565b811c8015614969576007811690811561481157508060021461480a5780600414614803576006146147fd5790565b60010190565b5060020190565b5060010190565b809150600082156104f2575060ff916001600160801b03811615158060011461495c5715614951575b506001600160401b038116151580600114614945571561493d575b63ffffffff81161515806001146149315715614929575b61ffff811615158060011461491d5715614915575b60ff81161515806001146149095715614901575b600f81161515806001146148f557156148ed575b600381161515806001146148df5760019190156148d7575b1615156001146148cf570190565b600019010190565b60021c6148c1565b5090600190811901916148c1565b60041c6148a9565b509060031901906148a9565b60081c614895565b50906007190190614895565b60101c614881565b5090600f190190614881565b60201c61486c565b5090601f19019061486c565b60401c614855565b5090603f190190614855565b905060801c3861483a565b50509050607f903861483a565b505061010090565b8215614a04576001600160a01b038181166149b0575050600080806149989481945af11590565b61499e57565b604051633d2cec6f60e21b8152600490fd5b602092600080936149ec966044946040519463a9059cbb60e01b865216600485015260248401525af1600051600114601f3d11163d1517161590565b6149f257565b604051633c9fd93960e21b8152600490fd5b505050565b919060005b614a188280612751565b3560f01c811015614aa157600190614a9b614a338480612751565b358260041b1c60408051918560208401523382840152606089818501528352614a5b8361092e565b614a7e614a7886611700614a6f8b80612751565b86810190612787565b356150b0565b92614a93614a8b83613b8a565b9389016120c2565b923092613c2d565b01614a0e565b50509050565b610b6094926080926003835260018060a01b03166020830152604082015281606082015201916122c3565b60408051639c729da160e01b815230600482015291926020926001600160a01b039084816024817f000000000000000000000000000000000000000000000000000000000000000086165afa9081156104e957600091614dd4575b5095919495169360005b84820191614b458382612787565b9050821015614dca5781614b598280612751565b3560049190911b1c614b6a90613b8a565b9382614b768380612751565b3560049190911b1c9783614b8a8685612787565b614b949291612766565b888101614ba091612787565b614ba9916127ee565b88519b918c91614bbd9184338e8601614aa7565b0399601f199a8b81018d52614bd2908d61097f565b8885019b614bdf8d6120c2565b8988614beb8980612751565b8d8101614bf791612787565b614c019291613076565b3589614c0d8c8b612787565b614c179291612766565b8d8101614c2391612787565b614c2c9161306d565b35614c3691613094565b60095489908b9060a01c61ffff1691614c4f928a6151ec565b8a614c5a8d8c612787565b614c649291612766565b614c6d906120c2565b90614c779261545d565b923091614c8395613c2d565b60015b614ca6614c9d87614c978a89612787565b90612766565b8b810190612787565b9050811015614db957868a8a8a8f8f85918791828e8e81614cc78280612751565b3560049190911b1c9a614cd991612787565b614ce39291612766565b888101614cef91612787565b614cf99291612802565b8751988992614d0c929133908501612819565b039081018752614d1c908761097f565b614d25906120c2565b938c8c81614d338280612751565b848101614d3f91612787565b614d499291613076565b3594614d5491612787565b614d5e9291612766565b908101614d6a91612787565b614d749291613076565b35614d7e91613094565b8a614d898d8c612787565b614d939291612766565b614d9c906120c2565b614da591615422565b923091614db195613c2d565b600101614c86565b509950975093509150600101614b37565b5050509350505050565b614deb9150853d871161447b5761446d818361097f565b38614b2d565b60405190614dfe82610949565b6000604083828152606060208201520152565b90614e1b82611fb9565b604090614e2b604051918261097f565b8381528093614e3c601f1991611fb9565b019160009160005b848110614e52575050505050565b6020908351614e608161092e565b606080825286849180838501528188850152830152828501015201614e44565b908160209103126101fb5751610b6081613970565b60405190614ea282610949565b6040516006548391600081614eb6846108ab565b9182825260209460019086600182169182600014614f5d575050600114614f00575b50614ee59250038261097f565b8252614eef6109a0565b90820152604060ff60085416910152565b85915060066000527ff652222313e28459528d920b65115c16c04f3efc82aaedc97be59f3f377c0d3f906000915b858310614f45575050614ee5935082010138614ed8565b80548388018501528694508793909201918101614f2e565b60ff191685820152614ee595151560051b8501019250389150614ed89050565b6001600160a01b039081168015614a0457604051916000806020850163095ea7b360e01b938482528716602487015281604487015260448652614fbf8661092e565b85519082865af1614fce613cec565b8161503b575b5080615031575b15614fe65750505050565b60405160208101919091526001600160a01b03909316602484015260006044840152615028926150239061501d81606481016113e2565b826156b9565b6156b9565b3880808061462d565b50813b1515614fdb565b8051801592508215615050575b505038614fd4565b61506392506020809183010191016156a4565b3880615048565b9091906001600160a01b0390811690811561462d5760008060405194602086019063095ea7b360e01b9485835288166024880152604487015260448652614fbf8661092e565b60405190600160f01b6020830152602282015260228152610b6081610949565b908160c09103126101fb576040519060c082018281106001600160401b0382111761090e5761515e9160a091604052805161510a816101ef565b8452602081015161511a8161022d565b6020850152604081015161512d81610583565b60408501526060810151615140816101ef565b606085015260808101516151538161022d565b6080850152016129a9565b60a082015290565b91908260409103126101fb576020825161517f81612184565b920151610b6081612184565b92936151b7608093610b609661ffff6040951687526001602088015260a08588015260a08701916122c3565b938360208287038060608501526000885201910152805160208501526020810151828501520151916060808201520190610b2a565b90926001600160a01b03908160c06152446152148461520b8980612751565b359060041b1c90565b60408051635233111160e11b815261ffff9092166004830152306024830152969093849283919082906044820190565b0392165afa9081156104e9576152776106f66106f6876152ab9581956000916153f3575b5001516001600160a01b031690565b6152858461520b8980612751565b8251631d96a29560e21b815261ffff909116600482015292839190829081906024820190565b03915afa9283156104e95760209685926000956153bd575b50906152e49160608801906152fc6152db838b6127bc565b9590938b6127bc565b60006152ee611cae565b9d8e82815201523691611cd6565b858b015261531f85519a8b9586948594630a51236960e01b86526004860161518b565b03917f0000000000000000000000000000000000000000000000000000000000000000165afa9182156104e95761538161537a61538b94602093610b609961ffff98600093615392575b50506001600160801b031690615644565b9580612751565b01359060041b1c90565b1690615681565b6001600160801b0392935090816153b492903d106143bd576143ad818361097f565b50919038615369565b6152e4929195506153e390843d86116153ec575b6153db818361097f565b810190615166565b509490916152c3565b503d6153d1565b615415915060c03d60c01161541b575b61540d818361097f565b8101906150d0565b38615268565b503d615403565b9060405191600160f11b60208401526022830152600060428301526001600160601b03199060601b16606282015260568152610b608161092e565b919060405192600160f11b6020850152602284015260428301526001600160601b03199060601b16606282015260568152610b608161092e565b8015612076576000190190565b9081518110156120bd570160200190565b6000809160405160208101906306fdde0360e01b8252600481526154d881610913565b51915afa906154e5613cec565b91156155615781516020810361554e5750602082815b6155025752565b9061553661552961551b61551584612067565b856154a4565b516001600160f81b03191690565b6001600160f81b03191690565b61554a5761554390615497565b90816154fb565b9052565b91602080610b6093948301019101613841565b6040516360d806dd60e11b8152600490fd5b6000809160405160208101906395d89b4160e01b82526004815261559681610913565b51915afa906155a3613cec565b91156155615781516020810361554e5750602082815b6155c05752565b906155d361552961551b61551584612067565b61554a576155e090615497565b90816155b9565b90813b801561562e578060011161562e57600019016001198082101561562757505b600160405193601f19603f840116850160405282855260208501903c565b9050615609565b50905060405161563d81610964565b6000815290565b68056bc75e2d6310000090772f394219248446baa23d2ec729af3d610607aa0167dd94ca81118202158302156101fb570290808204910615150190565b9061271091816000190481118202158302156101fb570290808204910615150190565b908160209103126101fb5751610b60816123d3565b604051615717916001600160a01b03166156d282610913565b6000806020958685527f5361666545524332303a206c6f772d6c6576656c2063616c6c206661696c656487860152868151910182855af1615711613cec565b9161579f565b805190828215928315615787575b505050156157305750565b6084906040519062461bcd60e51b82526004820152602a60248201527f5361666545524332303a204552433230206f7065726174696f6e20646964206e6044820152691bdd081cdd58d8d9595960b21b6064820152fd5b61579793508201810191016156a4565b388281615725565b9192901561580157508151156157b3575090565b3b156157bc5790565b60405162461bcd60e51b815260206004820152601d60248201527f416464726573733a2063616c6c20746f206e6f6e2d636f6e74726163740000006044820152606490fd5b8251909150156158145750805190602001fd5b60405162461bcd60e51b81526020600482015290819061461e906024830190610b2a56","linkReferences":{}},"methodIdentifiers":{"broadcastOrders(uint256[],uint256[],((uint96,(address,address,address,uint256))[],uint128),bytes32[],(uint256[],uint96[])[],bytes)":"a6b8269a","broadcastReserveOrders(uint256[],uint256[],((uint96,(address,address,address,uint256))[],uint128)[],bytes)":"fe7b19d2","configure(address,address,address)":"55d28f20","currenciesUpdated((address[],bytes32))":"d6bfcd27","eIds(uint256)":"c4f7941d","finishRebalancing(((address,address,address,uint256)[],uint256[],uint256[]),(uint256[],(uint256[],uint256[]),(uint256[],uint96[]),uint256,address[]),((uint256,uint256,bytes),uint256)[],(bytes[],address))":"729c2040","forceResumeReceive(uint16,bytes)":"42d65a8d","getConfig(uint16,uint16,address,uint256)":"f5ecbdbc","lzEndpoint()":"b353aaa7","lzReceive(uint16,bytes,uint64,bytes)":"001d3567","minGasAmountForChain(uint16)":"2583c29c","owner()":"8da5cb5b","phutureOnConsumeCallbackV1(bytes)":"7a7c7348","poolIds(uint256)":"69883b4e","pushIncomingOrders(uint256,(uint256,address)[],uint256,address,uint256)":"18b8dac9","redeem((((uint256,uint256,bool,address,address),(uint16,bool),address,uint256[]),uint256,uint256,address,uint128,bytes,address),((uint256,address,bool,bytes[],uint256[])[],address[]),((uint256,uint256,uint256[]),(address,bytes[],uint256[])[],address,bytes))":"c1555826","retryRedeem((uint256,uint256,uint256[],((uint256,uint256,bool,address,address),(uint16,bool),address,uint256[]),((uint256,address,bool,bytes[],uint256[])[],address[]))[],(uint16,bytes[],bytes[])[],address,address)":"36aedbb6","setBridgingInfo((uint256,address)[])":"055f192c","setConfig(uint16,uint16,uint256,bytes)":"cbed8b9c","setHomeEid(uint16)":"c4f4b521","setLayerZeroConfig((uint256,uint256,uint256[]))":"ac3d3ea0","setOrderBook(address)":"9a1598c8","setReceiveVersion(uint16)":"10ddb137","setSendVersion(uint16)":"07e0db17","setTrustedRemote(uint256,uint16,uint256,bytes,(uint128,uint128))":"314012d1","sgReceive(uint16,bytes,uint256,address,uint256,bytes)":"ab8236f3","transferOwnership(address)":"f2fde38b","trustedRemotes(uint16)":"2b5d23d2","withdrawCurrency(address,address,uint256)":"d699e0af"},"id":66}