{"abi":[{"type":"constructor","inputs":[{"name":"owner","type":"address","internalType":"address"},{"name":"_stargateComposer","type":"address","internalType":"address"},{"name":"_endpoint","type":"address","internalType":"address payable"},{"name":"_eid","type":"uint16","internalType":"uint16"},{"name":"_sgETH","type":"address","internalType":"address"},{"name":"_nativeInfo","type":"tuple","internalType":"struct OmnichainMessenger.NativeInfo","components":[{"name":"name","type":"string","internalType":"string"},{"name":"symbol","type":"string","internalType":"string"},{"name":"decimals","type":"uint8","internalType":"uint8"}]}],"stateMutability":"nonpayable"},{"type":"receive","stateMutability":"payable"},{"type":"function","name":"broadcastOrders","inputs":[{"name":"chainIds","type":"uint256[]","internalType":"uint256[]"},{"name":"chainIdSet","type":"uint256[]","internalType":"uint256[]"},{"name":"homechainOrders","type":"tuple","internalType":"struct RebalancingLib.ChainOrders","components":[{"name":"orders","type":"tuple[]","internalType":"struct OrderLib.Order[]","components":[{"name":"sellAmount","type":"uint96","internalType":"uint96"},{"name":"idParams","type":"tuple","internalType":"struct OrderLib.OrderId","components":[{"name":"sellCurrency","type":"address","internalType":"Currency"},{"name":"localBuyCurrency","type":"address","internalType":"Currency"},{"name":"finalDestinationBuyCurrency","type":"address","internalType":"Currency"},{"name":"finalDestinationChainId","type":"uint256","internalType":"uint256"}]}]},{"name":"incomingOrders","type":"uint128","internalType":"uint128"}]},{"name":"ordersHashes","type":"bytes32[]","internalType":"bytes32[]"},{"name":"withdrawals","type":"tuple[]","internalType":"struct IVault.CurrencyWithdrawal[]","components":[{"name":"currencyIndexSet","type":"uint256[]","internalType":"uint256[]"},{"name":"amounts","type":"uint96[]","internalType":"uint96[]"}]},{"name":"lzData","type":"bytes","internalType":"bytes"}],"outputs":[],"stateMutability":"payable"},{"type":"function","name":"broadcastReserveOrders","inputs":[{"name":"chainIds","type":"uint256[]","internalType":"uint256[]"},{"name":"chainIdSet","type":"uint256[]","internalType":"uint256[]"},{"name":"chainOrders","type":"tuple[]","internalType":"struct RebalancingLib.ChainOrders[]","components":[{"name":"orders","type":"tuple[]","internalType":"struct OrderLib.Order[]","components":[{"name":"sellAmount","type":"uint96","internalType":"uint96"},{"name":"idParams","type":"tuple","internalType":"struct OrderLib.OrderId","components":[{"name":"sellCurrency","type":"address","internalType":"Currency"},{"name":"localBuyCurrency","type":"address","internalType":"Currency"},{"name":"finalDestinationBuyCurrency","type":"address","internalType":"Currency"},{"name":"finalDestinationChainId","type":"uint256","internalType":"uint256"}]}]},{"name":"incomingOrders","type":"uint128","internalType":"uint128"}]},{"name":"lzParams","type":"bytes","internalType":"bytes"}],"outputs":[],"stateMutability":"payable"},{"type":"function","name":"configure","inputs":[{"name":"_index","type":"address","internalType":"address"},{"name":"_orderBook","type":"address","internalType":"address"},{"name":"_builder","type":"address","internalType":"address"}],"outputs":[],"stateMutability":"nonpayable"},{"type":"function","name":"currenciesUpdated","inputs":[{"name":"result","type":"tuple","internalType":"struct IVault.RegisterCurrenciesResult","components":[{"name":"currencies","type":"address[]","internalType":"Currency[]"},{"name":"currenciesHash","type":"bytes32","internalType":"bytes32"}]}],"outputs":[],"stateMutability":"nonpayable"},{"type":"function","name":"eIds","inputs":[{"name":"","type":"uint256","internalType":"uint256"}],"outputs":[{"name":"","type":"uint16","internalType":"uint16"}],"stateMutability":"view"},{"type":"function","name":"finishRebalancing","inputs":[{"name":"orderBookParams","type":"tuple","internalType":"struct IOrderBook.FinishOrderExecutionParams","components":[{"name":"orderIds","type":"tuple[]","internalType":"struct OrderLib.OrderId[]","components":[{"name":"sellCurrency","type":"address","internalType":"Currency"},{"name":"localBuyCurrency","type":"address","internalType":"Currency"},{"name":"finalDestinationBuyCurrency","type":"address","internalType":"Currency"},{"name":"finalDestinationChainId","type":"uint256","internalType":"uint256"}]},{"name":"idIndices","type":"uint256[]","internalType":"uint256[]"},{"name":"pendingOrderCounts","type":"uint256[]","internalType":"uint256[]"}]},{"name":"params","type":"tuple","internalType":"struct IVault.EndRebalancingParams","components":[{"name":"anatomyCurrencies","type":"uint256[]","internalType":"a160u96[]"},{"name":"newAnatomy","type":"tuple","internalType":"struct IVault.SnapshotAnatomy","components":[{"name":"currencies","type":"uint256[]","internalType":"a160u96[]"},{"name":"currencyIndexSet","type":"uint256[]","internalType":"uint256[]"}]},{"name":"withdrawals","type":"tuple","internalType":"struct IVault.CurrencyWithdrawal","components":[{"name":"currencyIndexSet","type":"uint256[]","internalType":"uint256[]"},{"name":"amounts","type":"uint96[]","internalType":"uint96[]"}]},{"name":"lastKBalance","type":"uint256","internalType":"uint256"},{"name":"currencies","type":"address[]","internalType":"Currency[]"}]},{"name":"sgParams","type":"tuple[]","internalType":"struct IOmnichainMessenger.SgParams[]","components":[{"name":"lzTxObj","type":"tuple","internalType":"struct IStargateRouter.lzTxObj","components":[{"name":"dstGasForCall","type":"uint256","internalType":"uint256"},{"name":"dstNativeAmount","type":"uint256","internalType":"uint256"},{"name":"dstNativeAddr","type":"bytes","internalType":"bytes"}]},{"name":"minAmountLD","type":"uint256","internalType":"uint256"}]},{"name":"lzParams","type":"tuple","internalType":"struct IOmnichainMessenger.LzParams","components":[{"name":"options","type":"bytes[]","internalType":"bytes[]"},{"name":"zroPaymentAddress","type":"address","internalType":"address"}]}],"outputs":[],"stateMutability":"payable"},{"type":"function","name":"forceResumeReceive","inputs":[{"name":"srcEid","type":"uint16","internalType":"uint16"},{"name":"srcAddress","type":"bytes","internalType":"bytes"}],"outputs":[],"stateMutability":"nonpayable"},{"type":"function","name":"getConfig","inputs":[{"name":"version","type":"uint16","internalType":"uint16"},{"name":"eid","type":"uint16","internalType":"uint16"},{"name":"","type":"address","internalType":"address"},{"name":"configType","type":"uint256","internalType":"uint256"}],"outputs":[{"name":"","type":"bytes","internalType":"bytes"}],"stateMutability":"view"},{"type":"function","name":"lzEndpoint","inputs":[],"outputs":[{"name":"","type":"address","internalType":"contract ILayerZeroEndpoint"}],"stateMutability":"view"},{"type":"function","name":"lzReceive","inputs":[{"name":"srcEid","type":"uint16","internalType":"uint16"},{"name":"srcAddress","type":"bytes","internalType":"bytes"},{"name":"","type":"uint64","internalType":"uint64"},{"name":"message","type":"bytes","internalType":"bytes"}],"outputs":[],"stateMutability":"nonpayable"},{"type":"function","name":"minGasAmountForChain","inputs":[{"name":"","type":"uint16","internalType":"uint16"}],"outputs":[{"name":"","type":"uint256","internalType":"uint256"}],"stateMutability":"view"},{"type":"function","name":"owner","inputs":[],"outputs":[{"name":"","type":"address","internalType":"address"}],"stateMutability":"view"},{"type":"function","name":"phutureOnConsumeCallbackV1","inputs":[{"name":"data","type":"bytes","internalType":"bytes"}],"outputs":[],"stateMutability":"nonpayable"},{"type":"function","name":"poolIds","inputs":[{"name":"","type":"uint256","internalType":"uint256"}],"outputs":[{"name":"src","type":"uint128","internalType":"uint128"},{"name":"dst","type":"uint128","internalType":"uint128"}],"stateMutability":"view"},{"type":"function","name":"pushIncomingOrders","inputs":[{"name":"srcChainId","type":"uint256","internalType":"uint256"},{"name":"boughtOrders","type":"tuple[]","internalType":"struct IOrderBook.BoughtOrder[]","components":[{"name":"amount","type":"uint256","internalType":"uint256"},{"name":"buyCurrency","type":"address","internalType":"Currency"}]},{"name":"boughtOrdersTotalAmount","type":"uint256","internalType":"uint256"},{"name":"currency","type":"address","internalType":"Currency"},{"name":"receivedAmount","type":"uint256","internalType":"uint256"}],"outputs":[],"stateMutability":"nonpayable"},{"type":"function","name":"redeem","inputs":[{"name":"params","type":"tuple","internalType":"struct IBaseIndex.RedemptionParams","components":[{"name":"config","type":"tuple","internalType":"struct IBaseIndex.RedemptionConfig","components":[{"name":"shared","type":"tuple","internalType":"struct IBaseIndex.Config","components":[{"name":"latestSnapshot","type":"uint256","internalType":"uint256"},{"name":"AUMDilutionPerSecond","type":"uint256","internalType":"uint256"},{"name":"useCustomAUMFee","type":"bool","internalType":"bool"},{"name":"staticPriceOracle","type":"address","internalType":"address"},{"name":"metadata","type":"address","internalType":"address"}]},{"name":"fee","type":"tuple","internalType":"struct IBaseIndex.FeeConfig","components":[{"name":"BPs","type":"uint16","internalType":"uint16"},{"name":"useCustomCallback","type":"bool","internalType":"bool"}]},{"name":"forwarder","type":"address","internalType":"address"},{"name":"homeCurrencies","type":"uint256[]","internalType":"a160u96[]"}]},{"name":"expectedReserveValuation","type":"uint256","internalType":"uint256"},{"name":"AUMScaledK","type":"uint256","internalType":"uint256"},{"name":"owner","type":"address","internalType":"address"},{"name":"shares","type":"uint128","internalType":"uint128"},{"name":"payload","type":"bytes","internalType":"bytes"},{"name":"recipient","type":"address","internalType":"address payable"}]},{"name":"commandParams","type":"tuple","internalType":"struct IIndex.RedemptionCommandParams","components":[{"name":"currencyCommands","type":"tuple[]","internalType":"struct CommandLib.CommandTarget[]","components":[{"name":"target","type":"uint256","internalType":"a160u96"},{"name":"spender","type":"address","internalType":"address"},{"name":"mapTarget","type":"bool","internalType":"bool"},{"name":"datas","type":"bytes[]","internalType":"bytes[]"},{"name":"packedConfigs","type":"uint256[]","internalType":"uint256[]"}]},{"name":"additionalCurrencies","type":"address[]","internalType":"Currency[]"}]},{"name":"sendParams","type":"tuple","internalType":"struct IHomechainOmnichainMessenger.SendParams","components":[{"name":"config","type":"tuple","internalType":"struct IHomechainOmnichainMessenger.LzConfig","components":[{"name":"eIds","type":"uint256","internalType":"u16x15"},{"name":"minGas","type":"uint256[]","internalType":"uint256[]"}]},{"name":"batches","type":"tuple[]","internalType":"struct IHomechainOmnichainMessenger.Batches[]","components":[{"name":"escrow","type":"address","internalType":"address"},{"name":"callbacks","type":"bytes[]","internalType":"bytes[]"},{"name":"additionalGas","type":"uint256[]","internalType":"uint256[]"},{"name":"airdropAmount","type":"uint256","internalType":"uint256"}]},{"name":"zroPaymentAddress","type":"address","internalType":"address"},{"name":"packedRecipient","type":"bytes","internalType":"bytes"}]}],"outputs":[],"stateMutability":"payable"},{"type":"function","name":"retryRedeem","inputs":[{"name":"params","type":"tuple[]","internalType":"struct IIndex.RedeemKParams[]","components":[{"name":"snapshot","type":"uint256","internalType":"uint256"},{"name":"k","type":"uint256","internalType":"uint256"},{"name":"currencies","type":"uint256[]","internalType":"a160u96[]"},{"name":"config","type":"tuple","internalType":"struct IBaseIndex.RedemptionConfig","components":[{"name":"shared","type":"tuple","internalType":"struct IBaseIndex.Config","components":[{"name":"latestSnapshot","type":"uint256","internalType":"uint256"},{"name":"AUMDilutionPerSecond","type":"uint256","internalType":"uint256"},{"name":"useCustomAUMFee","type":"bool","internalType":"bool"},{"name":"staticPriceOracle","type":"address","internalType":"address"},{"name":"metadata","type":"address","internalType":"address"}]},{"name":"fee","type":"tuple","internalType":"struct IBaseIndex.FeeConfig","components":[{"name":"BPs","type":"uint16","internalType":"uint16"},{"name":"useCustomCallback","type":"bool","internalType":"bool"}]},{"name":"forwarder","type":"address","internalType":"address"},{"name":"homeCurrencies","type":"uint256[]","internalType":"a160u96[]"}]},{"name":"commandParams","type":"tuple","internalType":"struct IIndex.RedemptionCommandParams","components":[{"name":"currencyCommands","type":"tuple[]","internalType":"struct CommandLib.CommandTarget[]","components":[{"name":"target","type":"uint256","internalType":"a160u96"},{"name":"spender","type":"address","internalType":"address"},{"name":"mapTarget","type":"bool","internalType":"bool"},{"name":"datas","type":"bytes[]","internalType":"bytes[]"},{"name":"packedConfigs","type":"uint256[]","internalType":"uint256[]"}]},{"name":"additionalCurrencies","type":"address[]","internalType":"Currency[]"}]}]},{"name":"retries","type":"tuple[]","internalType":"struct IHomechainOmnichainMessenger.Retry[]","components":[{"name":"eid","type":"uint16","internalType":"uint16"},{"name":"options","type":"bytes[]","internalType":"bytes[]"},{"name":"callbacks","type":"bytes[]","internalType":"bytes[]"}]},{"name":"refundAddress","type":"address","internalType":"address payable"},{"name":"zroPaymentAddress","type":"address","internalType":"address"}],"outputs":[],"stateMutability":"payable"},{"type":"function","name":"setBridgingInfo","inputs":[{"name":"_infos","type":"tuple[]","internalType":"struct IOmnichainMessenger.BridgingInfo[]","components":[{"name":"finalDstChainId","type":"uint256","internalType":"uint256"},{"name":"localCurrency","type":"address","internalType":"Currency"}]}],"outputs":[],"stateMutability":"nonpayable"},{"type":"function","name":"setConfig","inputs":[{"name":"version","type":"uint16","internalType":"uint16"},{"name":"eid","type":"uint16","internalType":"uint16"},{"name":"configType","type":"uint256","internalType":"uint256"},{"name":"config","type":"bytes","internalType":"bytes"}],"outputs":[],"stateMutability":"nonpayable"},{"type":"function","name":"setHomeEid","inputs":[{"name":"_homeEid","type":"uint16","internalType":"uint16"}],"outputs":[],"stateMutability":"nonpayable"},{"type":"function","name":"setLayerZeroConfig","inputs":[{"name":"config","type":"tuple","internalType":"struct IHomechainOmnichainMessenger.LzConfig","components":[{"name":"eIds","type":"uint256","internalType":"u16x15"},{"name":"minGas","type":"uint256[]","internalType":"uint256[]"}]}],"outputs":[],"stateMutability":"nonpayable"},{"type":"function","name":"setOrderBook","inputs":[{"name":"_orderBook","type":"address","internalType":"address"}],"outputs":[],"stateMutability":"nonpayable"},{"type":"function","name":"setReceiveVersion","inputs":[{"name":"version","type":"uint16","internalType":"uint16"}],"outputs":[],"stateMutability":"nonpayable"},{"type":"function","name":"setSendVersion","inputs":[{"name":"version","type":"uint16","internalType":"uint16"}],"outputs":[],"stateMutability":"nonpayable"},{"type":"function","name":"setTrustedRemote","inputs":[{"name":"remoteChainId","type":"uint256","internalType":"uint256"},{"name":"remoteEid","type":"uint16","internalType":"uint16"},{"name":"minGasAmount","type":"uint256","internalType":"uint256"},{"name":"path","type":"bytes","internalType":"bytes"},{"name":"_poolIds","type":"tuple","internalType":"struct IBlockingApp.PoolIds","components":[{"name":"src","type":"uint128","internalType":"uint128"},{"name":"dst","type":"uint128","internalType":"uint128"}]}],"outputs":[],"stateMutability":"nonpayable"},{"type":"function","name":"sgReceive","inputs":[{"name":"srcEid","type":"uint16","internalType":"uint16"},{"name":"srcAddress","type":"bytes","internalType":"bytes"},{"name":"","type":"uint256","internalType":"uint256"},{"name":"token","type":"address","internalType":"address"},{"name":"amountLD","type":"uint256","internalType":"uint256"},{"name":"payload","type":"bytes","internalType":"bytes"}],"outputs":[],"stateMutability":"nonpayable"},{"type":"function","name":"transferOwnership","inputs":[{"name":"newOwner","type":"address","internalType":"address"}],"outputs":[],"stateMutability":"nonpayable"},{"type":"function","name":"trustedRemotes","inputs":[{"name":"","type":"uint16","internalType":"uint16"}],"outputs":[{"name":"","type":"bytes","internalType":"bytes"}],"stateMutability":"view"},{"type":"function","name":"withdrawCurrency","inputs":[{"name":"currency","type":"address","internalType":"Currency"},{"name":"to","type":"address","internalType":"address"},{"name":"amount","type":"uint256","internalType":"uint256"}],"outputs":[],"stateMutability":"nonpayable"},{"type":"event","name":"OrdersHashClear","inputs":[{"name":"chainId","type":"uint256","indexed":false,"internalType":"uint256"}],"anonymous":false},{"type":"event","name":"OutgoingOrders","inputs":[{"name":"orders","type":"tuple[]","indexed":false,"internalType":"struct IOrderBook.BoughtOrder[]","components":[{"name":"amount","type":"uint256","internalType":"uint256"},{"name":"buyCurrency","type":"address","internalType":"Currency"}]},{"name":"totalBought","type":"uint256","indexed":false,"internalType":"uint256"}],"anonymous":false},{"type":"event","name":"OwnershipTransferred","inputs":[{"name":"user","type":"address","indexed":true,"internalType":"address"},{"name":"newOwner","type":"address","indexed":true,"internalType":"address"}],"anonymous":false},{"type":"event","name":"SetLZConfig","inputs":[{"name":"","type":"tuple","indexed":false,"internalType":"struct IHomechainOmnichainMessenger.LzConfig","components":[{"name":"eIds","type":"uint256","internalType":"u16x15"},{"name":"minGas","type":"uint256[]","internalType":"uint256[]"}]}],"anonymous":false},{"type":"event","name":"TrustedRemoteSet","inputs":[{"name":"remoteEid","type":"uint16","indexed":false,"internalType":"uint16"},{"name":"path","type":"bytes","indexed":false,"internalType":"bytes"},{"name":"poolIds","type":"tuple","indexed":false,"internalType":"struct IBlockingApp.PoolIds","components":[{"name":"src","type":"uint128","internalType":"uint128"},{"name":"dst","type":"uint128","internalType":"uint128"}]}],"anonymous":false},{"type":"error","name":"BridgingCurrencyNotFound","inputs":[{"name":"dstChainId","type":"uint256","internalType":"uint256"}]},{"type":"error","name":"ConfigHash","inputs":[]},{"type":"error","name":"ERC20TransferFailed","inputs":[]},{"type":"error","name":"Forbidden","inputs":[]},{"type":"error","name":"Invalid","inputs":[]},{"type":"error","name":"InvalidBatches","inputs":[]},{"type":"error","name":"InvalidCodeAtRange","inputs":[{"name":"_size","type":"uint256","internalType":"uint256"},{"name":"_start","type":"uint256","internalType":"uint256"},{"name":"_end","type":"uint256","internalType":"uint256"}]},{"type":"error","name":"InvalidOptions","inputs":[]},{"type":"error","name":"NativeTransferFailed","inputs":[]},{"type":"error","name":"OnlyEndpoint","inputs":[]},{"type":"error","name":"OrderHashMismatch","inputs":[]},{"type":"error","name":"PathNotFound","inputs":[{"name":"eid","type":"uint16","internalType":"uint16"}]},{"type":"error","name":"QueryFailed","inputs":[]},{"type":"error","name":"RefundFailed","inputs":[]},{"type":"error","name":"WriteError","inputs":[]},{"type":"error","name":"ZRONotSupported","inputs":[]}],"bytecode":{"object":"0x60e0604090808252346200054557620058cf803803809162000022828562000560565b8339810160c08282031262000545576200003c8262000584565b906020916200004d83850162000584565b848601516001600160a01b038082169490939290918590036200054557606087015161ffff811681036200054557620000896080890162000584565b60a08901516001600160401b03999193918a82116200054557019560608786031262000545578a5194606086018681108c8211176200054a578c5287518b8111620005455781620000dc918a0162000599565b8652898801518b811162000545578c91620000f9918a0162000599565b978a870198895201519560ff871687036200054557858c01968752600080546001600160a01b0319169290911691821781559790887f8be0079c531659141344cd1fd0a4f28419497f9722a3daafe3b4186f6b6457e08180a360805260a0526009549061ffff60a01b9060a01b169061ffff60a01b19161760095560c05251918251908682116200053157600654916001948584811c9416801562000526575b888510146200042d578190601f94858111620004d2575b5088908583116001146200046c57889262000460575b5050600019600383901b1c191690851b176006555b51908151918783116200044c576007548581811c9116801562000441575b888210146200042d57828111620003e4575b5086918311600114620003795760ff9392918691836200036d575b5050600019600383901b1c191690841b176007555b511660ff19600854161760085584519385850190858210908211176200035957859385918552838252808201936060855285519384938385019684885260808601915189870152519388606087015284518092528060a087019501935b8281106200034257898988620002b8818a03601f19810183528262000560565b519020600c55516152bf90816200061082396080518181816104780152818161051b01528181610f5f015281816113b9015281816114d30152818161182601528181611c190152613b15015260a0518181816134f70152818161411801528181614363015281816143c60152818161442c0152818161448a01526144cb015260c0518161358c0152f35b845186528796509481019493810193830162000298565b634e487b7160e01b83526041600452602483fd5b01519050388062000226565b92918491601f198216906007885288882091885b8a828210620003cd575050958360ff9710620003b3575b505050811b016007556200023b565b015160001960f88460031b161c19169055388080620003a4565b83890151855589969094019392830192016200038d565b600787528787208380860160051c8201928a871062000423575b0160051c019086905b828110620004175750506200020b565b88815501869062000407565b92508192620003fe565b634e487b7160e01b87526022600452602487fd5b90607f1690620001f9565b634e487b7160e01b86526041600452602486fd5b015190503880620001c6565b600689528989208894509190601f1984168a5b8c828210620004bb5750508411620004a1575b505050811b01600655620001db565b015160001960f88460031b161c1916905538808062000492565b8385015186558b979095019493840193016200047f565b909150600688528888208580850160051c8201928b86106200051c575b918991869594930160051c01915b8281106200050d575050620001b0565b8a8155859450899101620004fd565b92508192620004ef565b93607f169362000199565b634e487b7160e01b85526041600452602485fd5b600080fd5b634e487b7160e01b600052604160045260246000fd5b601f909101601f19168101906001600160401b038211908210176200054a57604052565b51906001600160a01b03821682036200054557565b919080601f84011215620005455782516001600160401b0381116200054a5760209060405192620005d483601f19601f850116018562000560565b818452828287010111620005455760005b818110620005fb57508260009394955001015290565b8581018301518482018401528201620005e556fe6080604052600436101561001b575b361561001957600080fd5b005b60003560e01c80621d3567146101ea578063055f192c146101e557806307e0db17146101e057806310ddb137146101db57806318b8dac9146101d65780632583c29c146101d15780632b5d23d2146101cc578063314012d1146101c757806336aedbb6146101c257806340abb264146101bd57806342d65a8d146101b857806355d28f20146101b357806369883b4e146101ae578063729c2040146101a95780637a7c7348146101a4578063898c1a7b1461019f5780638da5cb5b1461019a5780639a1598c814610195578063a6b8269a14610190578063ab8236f31461018b578063b353aaa714610186578063c4f4b52114610181578063c4f7941d1461017c578063cbed8b9c14610177578063d699e0af14610172578063d6bfcd271461016d578063f2fde38b14610168578063f5ecbdbc146101635763fe7b19d20361000e57611892565b6117bc565b611749565b611588565b61153e565b61146b565b61143b565b6113e8565b6113a3565b611331565b61127c565b61122c565b611203565b611176565b61111c565b61109b565b611051565b610fd0565b610f07565b610e9c565b610c52565b610afe565b610a8e565b610861565b610590565b6104e4565b610441565b6102cc565b61022d565b61ffff8116036101fb57565b600080fd5b9181601f840112156101fb578235916001600160401b0383116101fb57602083818601950101116101fb57565b346101fb5760803660031901126101fb5760043561024a816101ef565b6001600160401b03906024358281116101fb5761026b903690600401610200565b604492919235848116036101fb576064359384116101fb57610294610019943690600401610200565b939092611c0d565b9181601f840112156101fb578235916001600160401b0383116101fb576020808501948460061b0101116101fb57565b346101fb5760203660031901126101fb576004356001600160401b0381116101fb576102fc90369060040161029c565b60018060a01b0390600092610315838554163314611e06565b604091825180926020820192808684016020865252606083019190885b8782821061042057505050506103ce9261035a6103de93602e9303601f19810187528661096e565b61038a60218751809361037a60208301998d8b5251809285850190610a32565b810103600181018452018261096e565b80519486519485926020840197606360f81b895263ffffffff60e01b9060e01b1660218501526880600e6000396000f360b81b602585015251809285850190610a32565b810103600e81018452018261096e565b519084f0918216156104105750600980546001600160a01b0319166001600160a01b0390921691909117905580f35b80f35b5163046a55db60e11b8152600490fd5b8395508461043360019496839496611e41565b019401910191859392610332565b346101fb57600060203660031901126104e157600435610460816101ef565b8160018060a01b03610476818354163314611e06565b7f00000000000000000000000000000000000000000000000000000000000000001691823b156104dd57602461ffff918360405195869485936307e0db1760e01b85521660048401525af180156104d8576104cf575080f35b61040d906108ea565b611e62565b5080fd5b80fd5b346101fb57600060203660031901126104e157600435610503816101ef565b8160018060a01b03610519818354163314611e06565b7f00000000000000000000000000000000000000000000000000000000000000001691823b156104dd57602461ffff918360405195869485936310ddb13760e01b85521660048401525af180156104d8576104cf575080f35b6001600160a01b038116036101fb57565b359061058e82610572565b565b346101fb5760a03660031901126101fb576004356024356001600160401b0381116101fb576105c390369060040161029c565b9091906064356044356105d582610572565b60843591604091825194602095868101816105f285858d85611e6e565b0391610606601f199384810183528261096e565b51902085518881019182526001600160a01b038616602083015260408201889052909161063f9082606085015b0390810183528261096e565b51902061065688600052600b602052604060002090565b5403610850577fc945d9e1f8095c0dea44c1e121710035a0e1825064e18e6e9d304e2cbf233c206106a86000988961069882600052600b602052604060002090565b5586519081529081906020820190565b0390a16106b481611ed0565b956106be82611f67565b988893845b8b861115610743578a8a818b8b8b6106f16106e5600a5460018060a01b031690565b6001600160a01b031690565b91823b1561073f5761071a958591519687958694859363ad175a8b60e01b855260048501612058565b03925af180156104d85761072c575080f35b8061073961040d926108ea565b806111f8565b8480fd5b806001600160601b03866108218f8f8f908f8f8f92908f958d8f93848f61082a9f8b906107f2998f93836107a9956107e19a6107b599508214600014610830575050506107989161079391611f7b565b613a41565b9d5b6107af846107a984848a611fad565b01611fc2565b95611fad565b936107d06107c1611ba1565b6001600160a01b039098168852565b6001600160a01b0390911690860152565b6001600160a01b0390911690830152565b466060820152610800611bae565b6001600160601b0386168152908b82015261081b8383611fcc565b52611fcc565b50160195611f88565b946106c3565b61084a94506107939391610844918b611fad565b35613a2b565b9d61079a565b835163be364e3b60e01b8152600490fd5b346101fb5760203660031901126101fb5761ffff600435610881816101ef565b1660005260056020526020604060002054604051908152f35b90600182811c921680156108ca575b60208310146108b457565b634e487b7160e01b600052602260045260246000fd5b91607f16916108a9565b634e487b7160e01b600052604160045260246000fd5b6001600160401b0381116108fd57604052565b6108d4565b604081019081106001600160401b038211176108fd57604052565b608081019081106001600160401b038211176108fd57604052565b606081019081106001600160401b038211176108fd57604052565b602081019081106001600160401b038211176108fd57604052565b90601f801991011681019081106001600160401b038211176108fd57604052565b906040519182600082546109a28161089a565b90818452602094600191600181169081600014610a1057506001146109d1575b50505061058e9250038361096e565b600090815285812095935091905b8183106109f857505061058e93508201013880806109c2565b855488840185015294850194879450918301916109df565b9250505061058e94925060ff191682840152151560051b8201013880806109c2565b60005b838110610a455750506000910152565b8181015183820152602001610a35565b90602091610a6e81518092818552858086019101610a32565b601f01601f1916010190565b906020610a8b928181520190610a55565b90565b346101fb5760203660031901126101fb5761ffff600435610aae816101ef565b166000526003602052610adb610ac7604060002061098f565b604051918291602083526020830190610a55565b0390f35b60409060831901126101fb57608490565b908160409103126101fb5790565b346101fb5760c03660031901126101fb57602435610b1b816101ef565b6064356001600160401b0381116101fb57610b5b7fa6c31f11fb022ad87f4d24c4d7341d7ff9914f0263c04421f24b33dc014efccd913690600401610200565b92610c1c610b6836610adf565b600095610b7f60018060a01b038854163314611e06565b600435875260026020526040872061ffff851661ffff198254161790556004602052604087208235610bb081612084565b6001600160801b036020850135610bc681612084565b81199060801b169116179055610bf48186610bef8761ffff166000526003602052604060002090565b6120f5565b604435610c0f8561ffff166000526005602052604060002090565b55604051948594856121e4565b0390a180f35b9181601f840112156101fb578235916001600160401b0383116101fb576020808501948460051b0101116101fb57565b60803660031901126101fb576001600160401b03600480358281116101fb57610c7f903690600401610c22565b926024359081116101fb57610c98903690600401610c22565b909160443594610ca786610572565b60643594610cb486610572565b60005b828110610e175750505050610ccd473490611f7b565b926000905b828210610cfd5785610ce48647611f7b565b80610ceb57005b610019916001600160a01b0316613beb565b909293610d0e848487989598612666565b92610d20610d1b8561267d565b613a59565b93600096604092838301946020928385019a5b610d3d8887612687565b9050811015610dff5780610df98b8b8f8b610df1610dea8f9398610d788f9a8f9b610de560019d610dae610da9610d7e88610d788888612687565b906126bc565b9190610da0610d8c8861267d565b61ffff166000526005602052604060002090565b54923691611bd6565b613a97565b610dd7610dc887610d78610dc18761267d565b9d87612687565b909a519a8b93339085016126fd565b03601f19810189528861096e565b612687565b3691611bd6565b933092613afc565b01610d33565b50989450985098949550505060019150019091610cd2565b600e54949694610e31906106e5906001600160a01b031681565b90610e3d818587612237565b91803b156101fb57604051630e22a07160e21b8152926000918491829084908290610e6c9033908b84016125c1565b03925af19182156104d857600192610e89575b5001959395610cb7565b80610739610e96926108ea565b38610e7f565b6003196060368201126101fb576004356001600160401b03918282116101fb5760e08183360301126101fb576024358381116101fb57610ee0903690600401610af0565b906044359384116101fb5760809084360301126101fb57610019926004019160040161289b565b346101fb57600060403660031901126104e157600435610f26816101ef565b816024356001600160401b0381116104dd57610f46903690600401610200565b909260018060a01b03610f5d818554163314611e06565b7f00000000000000000000000000000000000000000000000000000000000000001690813b15610fcc578361ffff91610fba604051978896879586946342d65a8d60e01b86521660048501526040602485015260448401916121c3565b03925af180156104d8576104cf575080f35b8380fd5b346101fb5760603660031901126101fb57600435610fed81610572565b602435610ff981610572565b6044359061100682610572565b6000546001600160a01b039283916110219083163314611e06565b816001600160601b0360a01b951685600e541617600e551683600d541617600d551690600a541617600a55600080f35b346101fb5760203660031901126101fb576004356000526004602052604080600020548151906001600160801b038116825260801c6020820152f35b908160a09103126101fb5790565b6003196080368201126101fb576004356001600160401b03918282116101fb5760609082360301126101fb576024358281116101fb576110df90369060040161108d565b6044358381116101fb576110f7903690600401610c22565b916064359485116101fb57611113610019953690600401610af0565b93600401612a20565b346101fb5760203660031901126101fb576004356001600160401b0381116101fb57610019903690600401610200565b60206003198201126101fb57600435906001600160401b0382116101fb57610a8b91600401610af0565b346101fb577f2ff20478142fa6226501472a8427951ee16a50717a092dbc664bb7808528d7176111f36111a83661114c565b6111bd60018060a01b03600054163314611e06565b60405160208101906111e1816111d3858561273b565b03601f19810183528261096e565b519020600c556040519182918261273b565b0390a1005b60009103126101fb57565b346101fb5760003660031901126101fb576000546040516001600160a01b039091168152602090f35b346101fb5760203660031901126101fb5760043561124981610572565b6000546001600160a01b0391906112639083163314611e06565b166001600160601b0360a01b600a541617600a55600080f35b60c03660031901126101fb5760046001600160401b0381358181116101fb576112a89036908401610c22565b916024358181116101fb576112c09036908601610c22565b6044929192358281116101fb576112da9036908801610af0565b906064358381116101fb576112f29036908901610c22565b9290916084358581116101fb5761130c9036908b01610c22565b96909560a4359081116101fb576100199a61132991369101610200565b99909861326c565b346101fb5760c03660031901126101fb5760043561134e816101ef565b6001600160401b03906024358281116101fb5761136f903690600401610200565b9160643561137c81610572565b60a4359485116101fb57611397610019953690600401610200565b949093608435936134e2565b346101fb5760003660031901126101fb576040517f00000000000000000000000000000000000000000000000000000000000000006001600160a01b03168152602090f35b346101fb5760203660031901126101fb57600435611405816101ef565b61141a60018060a01b03600054163314611e06565b6009805461ffff60a01b191660a09290921b61ffff60a01b16919091179055005b346101fb5760203660031901126101fb576004356000526002602052602061ffff60406000205416604051908152f35b346101fb5760803660031901126101fb57600435611488816101ef565b602435611494816101ef565b6064356001600160401b0381116101fb576114b3903690600401610200565b60018060a09493941b0391600094836114d187958654163314611e06565b7f00000000000000000000000000000000000000000000000000000000000000001691823b1561073f57849061071a604051978896879586946332fb62e760e21b865261ffff809216600487015216602485015260443560448501526080606485015260848401916121c3565b346101fb5760603660031901126101fb5761001960043561155e81610572565b60243561156a81610572565b61157f60018060a01b03600054163314611e06565b60443591614b09565b346101fb576115963661114c565b60018060a01b0360006115ad828254163314611e06565b81600d5416916115bb614ba1565b9160209060409582810135878601524685526115e16115da8280612687565b9050614bc1565b94838101958652825b6115f48380612687565b9050811015611718576116196116148261160e8680612687565b90613223565b611fc2565b90898783168061168e575081611686916116796001956116698b61163b614d09565b94855195611650828483015192015160ff1690565b92611659611ba1565b97885287015285019060ff169052565b6001600160a01b03166060830152565b8a519061081b8383611fcc565b505b016115ea565b90818861169c600494614f9c565b916116a68161505a565b935163313ce56760e01b815294859182905afa9182156104d8576001956116698f948795611679948e6116e3998f946116e9575b50611659611ba1565b50611688565b8161170a9295503d8611611711575b611702818361096e565b810190614c30565b92386116da565b503d6116f8565b8380838b8b803b1561174457839261071a925194858094819363f83e6c8760e01b83526004830161364d565b505050fd5b346101fb5760203660031901126101fb5760043561176681610572565b6000805490916001600160a01b03906117823383851614611e06565b1680916001600160601b0360a01b16178255337f8be0079c531659141344cd1fd0a4f28419497f9722a3daafe3b4186f6b6457e08380a380f35b346101fb5760803660031901126101fb576004356117d9816101ef565b602435906117e6826101ef565b6117f1604435610572565b604051633d7b2f6f60e21b815261ffff91821660048201529116602482015230604482015260648035908201526000816084817f00000000000000000000000000000000000000000000000000000000000000006001600160a01b03165afa80156104d857610adb9160009161186f575b5060405191829182610a7a565b61188c91503d806000833e611884818361096e565b810190613710565b38611862565b60803660031901126101fb576001600160401b036004358181116101fb576118be903690600401610c22565b90916024358181116101fb576118d8903690600401610c22565b6044358381116101fb576118f0903690600401610c22565b936064359081116101fb57611909903690600401610200565b600d5490949190611924906106e5906001600160a01b031681565b3303611b8f5761193261376e565b600e54611949906106e5906001600160a01b031681565b803b156101fb57604051630e8f3bf560e31b81529160009183918290849082906119769060048301613787565b03925af180156104d857611b7c575b506119a361199c6119968886612f58565b80612f90565b3691612fc5565b9360016119b96119b4368487613097565b614643565b03611b6e575b600a546119d4906001600160a01b03166106e5565b916020956119ed60206119e78b89612f58565b01612095565b90843b156101fb57611a19946000928360405180988195829463ad102f9b60e01b8452600484016130e5565b03925af19081156104d857611a4993611a4392611b5b575b50611a3a613105565b97810190613124565b9261321a565b3594611a54866147cb565b97602086019889525b8851600188821c161561001957868982611a8a575b505050611a8360018a510188614967565b8952611a5d565b611ad1611abd611ab5611aa4611b4c96611b1a9589613223565b356000526002602052604060002090565b5461ffff1690565b61ffff16604084019081525b5161ffff1690565b611b28611af58a6119e7611aee611ae786613a59565b9751613233565b8a8d612f68565b6040519384918c830191909160206001600160801b0360408301946005845216910152565b03601f19810184528361096e565b868901516001600160a01b031691611b4388518c5190611fcc565b51933092613afc565b85516001018652388689611a72565b80610739611b68926108ea565b38611a31565b611b77856146ca565b6119bf565b80610739611b89926108ea565b38611985565b604051631dd2188d60e31b8152600490fd5b6040519061058e8261091d565b6040519061058e82610902565b6001600160401b0381116108fd57601f01601f191660200190565b929192611be282611bbb565b91611bf0604051938461096e565b8294818452818301116101fb578281602093846000960137010152565b919060018060a01b03807f0000000000000000000000000000000000000000000000000000000000000000163314908115611df8575b5015611de657611c5b611c7791611c7c933691611bd6565b602081519101209261ffff166000526003602052604060002090565b61098f565b6020815191012003611d875760ff611ca6611ca0611c9a8585613814565b90613822565b60ff1690565b1660068103611d285750611cbc918101906139e8565b600d54909150611cd4906001600160a01b03166106e5565b9060208151910151823b156101fb576040516271840760e11b815260048101929092526024820152906000908290818381604481015b03925af180156104d857611d1b5750565b8061073961058e926108ea565b80611d7f5750611d3a91810190613884565b600d54909150611d52906001600160a01b03166106e5565b803b156101fb5760405163f83e6c8760e01b8152916000918391829084908290611d0a906004830161364d565b600714611d8b575b5050565b611d979181019061384a565b600a54909150611daf906001600160a01b03166106e5565b803b156101fb57604051630ca3008d60e01b815260048101929092526000908290602490829084905af180156104d857611d1b5750565b604051630fd72cd960e31b8152600490fd5b905060015416331438611c43565b15611e0d57565b60405162461bcd60e51b815260206004820152600c60248201526b15539055551213d49256915160a21b6044820152606490fd5b60208091803584520135611e5481610572565b6001600160a01b0316910152565b6040513d6000823e3d90fd5b604080825280820184905290949392606086019160005b828110611e985750505060209150930152565b909192828082611eaa60019489611e41565b01950191019392919093611e85565b6001600160401b0381116108fd5760051b60200190565b90611eda82611eb9565b604090611eea604051918261096e565b8381528093611efb601f1991611eb9565b019160005b838110611f0d5750505050565b6020908251611f1b81610902565b60008152828451611f2b8161091d565b600081526000828201526000868201526000606082015281830152828601015201611f00565b634e487b7160e01b600052601160045260246000fd5b600019810191908211611f7657565b611f51565b91908203918211611f7657565b6000198114611f765760010190565b634e487b7160e01b600052603260045260246000fd5b9190811015611fbd5760061b0190565b611f97565b35610a8b81610572565b8051821015611fbd5760209160051b010190565b90815180825260208080930193019160005b828110612000575050505090565b835180516001600160601b0316865282015180516001600160a01b0390811687850152818401518116604080890191909152820151166060808801919091520151608086015260a09094019392810192600101611ff2565b61207060409295949395606083526060830190611fe0565b6001600160a01b0390951660208201520152565b6001600160801b038116036101fb57565b35610a8b81612084565b90601f81116120ad57505050565b6000916000526020600020906020601f850160051c830194106120eb575b601f0160051c01915b8281106120e057505050565b8181556001016120d4565b90925082906120cb565b9092916001600160401b0381116108fd5761211a81612114845461089a565b8461209f565b6000601f821160011461215b57819061214c939495600092612150575b50508160011b916000199060031b1c19161790565b9055565b013590503880612137565b601f1982169461217084600052602060002090565b91805b8781106121ab575083600195969710612191575b505050811b019055565b0135600019600384901b60f8161c19169055388080612187565b90926020600181928686013581550194019101612173565b908060209392818452848401376000828201840152601f01601f1916010190565b929160609261ffff612207939796971685526080602086015260808501916121c3565b93602081359161221683612084565b6001600160801b038093166040860152013561223181612084565b16910152565b9190811015611fbd5760051b81013590609e19813603018212156101fb570190565b9035601e19823603018112156101fb5701602081359101916001600160401b0382116101fb578160051b360383136101fb57565b91908082526020809201929160005b8281106122aa575050505090565b83358552938101939281019260010161229c565b903561011e19823603018112156101fb570190565b801515036101fb57565b6020809161ffff81356122ef816101ef565b16845201356122fd816122d3565b1515910152565b610a8b91610120809183358152602084013560208201526040840135612329816122d3565b15156040820152606084013561233e81610572565b6001600160a01b039081166060830152608085013561235c81610572565b16608082015261237260a0820160a086016122dd565b61239161238160e08601610583565b6001600160a01b031660e0830152565b6123a16101009485810190612259565b939094820152019161228d565b9035603e19823603018112156101fb570190565b9035601e19823603018112156101fb5701602081359101916001600160401b0382116101fb5781360383136101fb57565b81835290916001600160fb1b0383116101fb5760209260051b809284830137010190565b91908082526020809201929160005b828110612434575050505090565b909192938280600192873561244881610572565b848060a01b03168152019501910192919092612426565b919060409060408101936124738180612259565b80966040855252606090606084019660059560608260051b8701019683946000915b8483106124c55750505050505050610a8b9394508060206124b7920190612259565b916020818503910152612417565b90919293949598605f19898203018c528935609e19883603018112156101fb57870160a09182810191803582526020938482013561250281610572565b6001600160a01b0316838601528189013561251c816122d3565b15158984015261252e87830183612259565b94859192898601525260c08084019085881b850101948260005b82811061258e57505050505083926001949261257b9261256d60809182810190612259565b9290918185039101526123f3565b9b019c01930191909a959493929a612495565b909192939688806125b460019360bf198b82030189526125ae8c886123c2565b906121c3565b9901950193929101612548565b9061264160209194939460408452803560408501528281013560608501526126006125ef6040830183612259565b60a0608088015260e087019161228d565b61263261262761261360608501856122be565b92603f1993848983030160a08a0152612304565b9260808101906123ae565b908583030160c086015261245f565b6001600160a01b03909416910152565b903590605e19813603018212156101fb570190565b90821015611fbd57610a8b9160051b810190612651565b35610a8b816101ef565b903590601e19813603018212156101fb57018035906001600160401b0382116101fb57602001918160051b360383136101fb57565b9190811015611fbd5760051b81013590601e19813603018212156101fb5701908135916001600160401b0383116101fb5760200182360381136101fb579190565b600281526001600160a01b039091166020820152606060408201819052610a8b939101916121c3565b903590603e19813603018212156101fb570190565b6060612759610a8b9360208452803560208501526020810190612259565b91909260408082015201916123f3565b6001600160601b038116036101fb57565b908160609103126101fb57604080519161279383610938565b805161279e81612769565b8352602081015160208401520151604082015290565b93929061288860409161058e946060885261287b61286a60c06128636127f08c6101406127e189806122be565b9160e060608201520190612304565b602087013560808e01528887013560a08e01528c83606089013561281381610572565b6001600160a01b0316910152612842608088013560e08f61283383612084565b01906001600160801b03169052565b8c61285060a08901896123c2565b91610100605f19828603019101526121c3565b9401610583565b6001600160a01b03166101208a0152565b878203602089015261245f565b6001600160a01b03909216940193909352565b92916128a78180612726565b9060409182516128bf816111d360208201948561273b565b519020600c5403612a0f576128d76020820182612687565b90506128ed6128e68380612726565b3560f01c90565b036129fe5760009394606061293f612906473490611f7b565b600e54909690612920906106e5906001600160a01b031681565b90865198898094819363180ab9d960e21b8352339089600485016127b4565b03925af19081156104d857612970956000926129cd575b508382019384519283612982575b50505050505047611f7b565b806129785750565b61058e9033613beb565b6020015160208301351491826129bf575b5050156129b057506129a59151613d03565b388080808080612964565b6129ba9250613c16565b6129a5565b013582101590503880612993565b6129f091925060603d6060116129f7575b6129e8818361096e565b81019061277a565b9038612956565b503d6129de565b815163fa9345cd60e01b8152600490fd5b815163979df6d560e01b8152600490fd5b9192612a74949193600080968195612a4260018060a01b038454163314611e06565b600a54612a57906001600160a01b03166106e5565b9060405197888094819363474aba6b60e01b835260048301612d79565b03925af180156104d857612a8f948791612b65575b506140f5565b600d548290602090612ae490612aad906001600160a01b03166106e5565b600e54909490612ac7906106e5906001600160a01b031681565b9060405194858094819363099e120360e11b835260048301612e94565b03925af19081156104d8578391612b36575b50813b15612b32576040516271840760e11b8152466004820152602481019190915291908290604490829084905af180156104d857611d1b5750565b8280fd5b612b58915060203d602011612b5e575b612b50818361096e565b810190612e0e565b38612af6565b503d612b46565b612b8191503d8089833e612b79818361096e565b810190612c03565b38612a89565b929192612b9382611eb9565b604092612ba3604051928361096e565b819581835260208093019160061b8401938185116101fb57915b848310612bcc57505050505050565b85838303126101fb578386918251612be381610902565b8551815282860151612bf481610572565b83820152815201920191612bbd565b9060209081838203126101fb5782516001600160401b03938482116101fb57019080601f830112156101fb578151612c3a81611eb9565b94604090612c4b604051978861096e565b828752858088019360051b860101948486116101fb57868101935b868510612c7857505050505050505090565b84518381116101fb57820160809182601f19838a0301126101fb57855191612c9f8361091d565b8a810151835286810151612cb281610572565b8b8401526060938482015188850152810151908682116101fb57019188603f840112156101fb578a93612ced8a858a88809801519101612b87565b90820152815201940193612c66565b9190808252602080920192916000905b828210612d1a575050505090565b909192936001908535612d2c81610572565b828060a01b0380911682528084880135612d4581610572565b168483015260409081880135612d5a81610572565b1690820152606086810135908201526080908101950193920190612d0c565b90602082528035601e19823603018112156101fb57810191602083359301906001600160401b0384116101fb578360071b360382136101fb57612dcc606092610a8b958460208501526080840191612cfc565b90612dff612df4612de06020870187612259565b601f198587038101604087015295916123f3565b946040810190612259565b939092828603019101526123f3565b908160209103126101fb575190565b612e38612e2a8280612259565b6040855260408501916123f3565b6020612e48819382810190612259565b9290948281830391015282815201929160005b828110612e69575050505090565b9091929382806001926001600160601b038835612e8581612769565b16815201950193929101612e5b565b9060a0610a8b9260208152612ebc612eac8480612259565b84602085015260c084019161228d565b90612f49612f34612f18612ed360208801886123ae565b601f199586868203016040870152612f0a612eff612ef18480612259565b60408552604085019161228d565b926020810190612259565b9160208185039101526123f3565b612f2560408801886123ae565b85858303016060860152612e1d565b94606081013560808401526080810190612259565b93909282860301910152612417565b9015611fbd5780610a8b91612726565b90821015611fbd57610a8b9160051b810190612726565b906020610a8b928181520190612e1d565b903590601e19813603018212156101fb57018035906001600160401b0382116101fb576020019160a08202360383136101fb57565b929192612fd182611eb9565b604094612fe1604051928361096e565b819584835260208093019160a08096028501948186116101fb57925b85841061300d5750505050505050565b8382038781126101fb5783519161302383610902565b853561302e81612769565b835260808092601f1901126101fb578892879286519061304d8261091d565b8489013561305a81610572565b82528789013561306981610572565b85830152606090818a013561307d81610572565b898401528901359082015283820152815201930192612ffd565b92916130a282611eb9565b916130b0604051938461096e565b829481845260208094019160051b81019283116101fb57905b8282106130d65750505050565b813581529083019083016130c9565b6040906001600160801b03610a8b94931681528160208201520190611fe0565b6040519061311282610938565b60006040838281528260208201520152565b60209081818403126101fb5780356001600160401b03918282116101fb570190604080838603126101fb576040519461315c86610902565b83358381116101fb5784019181601f840112156101fb5782359061317f82611eb9565b9461318d604051968761096e565b828652878087019360051b860101948486116101fb5790918896949287839997959901925b8584106131d3575050505050506131cc9350855201610583565b9082015290565b91939597509193959784358381116101fb57820186603f820112156101fb578a9161320688838886809601359101611bd6565b8152019401918997959391989694986131b2565b9015611fbd5790565b9190811015611fbd5760051b0190565b9060018201809211611f7657565b91908201809211611f7657565b606090610a8b93926004825260208201528160408201520190612e1d565b969593999792989091949861328e6106e56106e5600d5460018060a01b031690565b3303611b8f57600e546132ab906106e5906001600160a01b031681565b6132b58589612f58565b90803b156101fb57604051630e8f3bf560e31b81529160009183918290849082906132e39060048301612f7f565b03925af180156104d85761349b575b5061330061199c8c80612f90565b9160016133116119b436858b613097565b0361348d575b600a5461332c906001600160a01b03166106e5565b9261333a6020809e01612095565b90843b156101fb57613366946000928360405180988195829463ad102f9b60e01b8452600484016130e5565b03925af19081156104d857613396936133909261347a575b50613387613105565b9a810190613124565b9561321a565b35976133a1896147cb565b99602089019a8b525b8a5160018b821c161561346c57888185926133d8575b5050506133d160018c51018b614967565b8b526133aa565b611ab5611aa46133ef9261345d956133ff95613223565b61ffff1660408c01908152611ac9565b8a61340982613a59565b9161341682518a88613223565b3561344161342f8d8b6134298751613233565b91612f68565b916111d36040519384928a840161324e565b8a860151611b43906001600160a01b0316938c51905190611fcc565b885160010189528288386133c0565b505050505050505050505050565b80610739613487926108ea565b3861337e565b613496836146ca565b613317565b806107396134a8926108ea565b386132f2565b826014949392823701906001600160601b03199060601b1681520190565b91908260409103126101fb576020823592013590565b9495939490926001600160a01b0392909190337f00000000000000000000000000000000000000000000000000000000000000008516148015613630575b15611b8f57611c7761356f916135439660405197889160208301933091856134ae565b0396613557601f199889810183528261096e565b5190209261ffff166000526003602052604060002090565b60208151910120036136285761058e95613606926135bf928116907f000000000000000000000000000000000000000000000000000000000000000016810361362257506000945b8101906134cc565b60408051602081019384526001600160a01b038716918101919091526060810187905290936135f2908260808101610633565b51902091600052600b602052604060002090565b55600a5461361c906001600160a01b03166106e5565b90614b09565b946135b7565b505050505050565b50600154613646906001600160a01b03166106e5565b3314613520565b60209182825260808083018251858501528483015194606092604060606040880152875180945260a08701908360a08660051b8a01019901956000935b8685106136a65750505050505050506040606091015191015290565b90919293949596998680600192609f198d82030188528d5190866136e46136d4845189855289850190610a55565b8585015184820387860152610a55565b9260ff8a820151168a84015281878060a01b03910151169101529c01950195019396959492919061368a565b6020818303126101fb578051906001600160401b0382116101fb570181601f820112156101fb57805161374281611bbb565b92613750604051948561096e565b818452602082840101116101fb57610a8b9160208085019101610a32565b6040519061377b82610902565b60606020838281520152565b9060209081835260608301908051916040848601528251809152836080860193019060005b81811061380057505050820151926040601f198284030191015281808451928381520193019160005b8281106137e3575050505090565b83516001600160601b0316855293810193928101926001016137d5565b8251855293850193918501916001016137ac565b906020116101fb5790602090565b359060208110613830575090565b6000199060200360031b1b1690565b60ff8116036101fb57565b91908260409103126101fb57602082356138638161383f565b92013590565b9080601f830112156101fb57816020610a8b93359101611bd6565b9190604080848303126101fb57833561389c8161383f565b93602090818101356001600160401b03918282116101fb5701916060916060848703126101fb578451956138cf87610938565b84358752828501358281116101fb5785019181601f840112156101fb578235906138f882611eb9565b956139058951978861096e565b828752858088019360051b860101948486116101fb579081878b9a9998979695949301935b868510613944575050505050505085015201359082015290565b909192938095969798999a50358481116101fb5782019060809081601f19848a0301126101fb578c516139768161091d565b8a8401358781116101fb57898c61398f92870101613869565b81528d840135928784116101fb57848f6139b08c8f80999881990101613869565b8685015288820135906139c28261383f565b84015201356139d081610572565b8682015281520194019291908a99989796959461392a565b8092910391606083126101fb5760408135613a028161383f565b93601f1901126101fb576040805191613a1a83610902565b602081013583520135602082015290565b816000190481118202158302156101fb57020490565b600160601b8110156101fb576001600160601b031690565b61ffff1690816000526003602052613a74604060002061098f565b91825115613a7f5750565b60249060405190639cd86f1760e01b82526004820152fd5b90815160228114908115613af1575b5015613ad45761ffff60226002840151930151921660018114908115613ae6575b5015613ad45711613ad457565b604051630280f17760e01b8152600490fd5b600291501438613ac7565b604291501138613aa6565b929493909291906001600160a01b03908116613ba957807f000000000000000000000000000000000000000000000000000000000000000016924791843b156101fb57613b7b9760009761ffff95611d0a93613b8e6040519c8d9b8c9a8b9962c5803160e81b8b521660048a015260c060248a015260c4890190610a55565b60031993848983030160448a0152610a55565b931660648601528960848601528483030160a4850152610a55565b60405163653626cf60e01b8152600490fd5b3d15613be6573d90613bcc82611bbb565b91613bda604051938461096e565b82523d6000602084013e565b606090565b600080809381935af1613bfc613bbb565b5015613c0457565b604051633c31275160e21b8152600490fd5b919060005b613c258280612726565b3560f01c811015613cb057600190613caa613c408480612726565b358260041b1c6040805191613c8d613c878661160e60208a8189015233878901528d606090818a01528852613c748861091d565b613c7e8c80612726565b90810190612687565b35614df1565b92613ca2613c9a83613a59565b938901611fc2565b923092613afc565b01613c1b565b50509050565b9190811015611fbd5760051b81013590607e19813603018212156101fb570190565b610a8b94926080926003835260018060a01b03166020830152604082015281606082015201916121c3565b909160005b602080850190613d188287612687565b9050831015613ed757613d3b610d1b84613d328980612726565b359060041b1c90565b90613d5c613d5385613d4d868b612687565b90613cb6565b82810190612687565b905060005b8789838310613d795750505050505050600101613d08565b87839281948980948215600014613e9c5791610d78613da66111d396613d4d613daf95613dc19897612687565b8b810190612687565b604094919451948593338c8601613cd8565b83613dcc8d80612726565b3560049190911b1c6040908d613de3818401611fc2565b928688613df08480612726565b8c8101613dfc91612687565b613e069291613223565b359189613e138986612687565b613e1d9291613cb6565b908101613e2991612687565b613e339291613223565b35613e3d91613241565b613e4689611f67565b87149160009260001461161460019a613d4d613e909a613e8797613e8195613e9657506060613e7984613d4d848a612687565b013595612687565b91614e11565b92893092613afc565b01613d61565b95612687565b613ebe9350613ed294613d4d610d7893613eb593612687565b89810190612687565b91906111d3604051938492338b85016126fd565b613dc1565b505050915050565b60405190613eec8261091d565b606080836000815260006020820152600060408201520152565b908160209103126101fb5751610a8b81610572565b90604051613f2881610902565b91546001600160801b038116835260801c6020830152565b9291906040906040850160408652815180915260608601916020809101936000905b838210613f76575050505060209150930152565b8551805186528301516001600160a01b0316858401529482019493840193600190910190613f62565b90602082519201516001600160601b0319908181169360148110613fc257505050565b60140360031b82901b16169150565b90604051916001600160601b03191660208301526014825261058e82610902565b91908260409103126101fb576020825192015190565b90606061402a610a8b93803584526020810135602085015260408101906123c2565b91909281604082015201916121c3565b92614065610a8b959361ffff614073941686526001602087015260a0604087015260a0860190610a55565b908482036060860152610a55565b916080818403910152614008565b97946140d8946140e6979293610a8b9b999561ffff61012096168c526001600160801b0380921660208d01521660408b015260018060a01b031660608a0152608089015260a08801528060c0880152860190614008565b9084820360e0860152610a55565b91610100818403910152610a55565b919392614100613edf565b60405163c45a015560e01b81529093906020816004817f00000000000000000000000000000000000000000000000000000000000000006001600160a01b03165afa80156104d85761416291600091614624575b506001600160a01b03168552565b8051946040850195865260005b865181101561461a576141828184611fcc565b519061421561419f611ab584516000526002602052604060002090565b926141a984613a59565b60608a01526141cb6141c682516000526004602052604060002090565b613f1b565b60408201518a516020906141e7906001600160a01b03166106e5565b835160405163068bcd8d60e01b81526001600160801b03909116600482015295869190829081906024820190565b03915afa9384156104d8576004946020916000916145ed575b5060405163feb56b1560e01b815295869182906001600160a01b03165afa9081156104d857898b928f928e976000926145cc575b501061455c57509161433361432e606061428d6142e695899897613429602061431b9c01518d611f7b565b966143278288017f37a28c62bfa8e4579bdc54985bb8380deeb34721706ffd1aac79b28b6a00d683815160408b0151906142cc60405192839283613f40565b0390a1516040890151604051988991602083019384613f40565b03976142fa601f19998a810183528261096e565b5190206040805160208101929092524690820152998a979088906060820190565b0390810188528761096e565b0151613f9f565b613fd1565b936040858961435f6143458580612651565b8451630a51236960e01b81529a8b9485946004860161403a565b03817f00000000000000000000000000000000000000000000000000000000000000006001600160a01b03165afa9586156104d85760009661452a575b506020840180519096939084906001600160a01b031615614512575b50865160408601516143f4917f0000000000000000000000000000000000000000000000000000000000000000906001600160a01b0316614f38565b604061441b602061440c86516001600160801b031690565b9501516001600160801b031690565b950151906144298380612651565b967f00000000000000000000000000000000000000000000000000000000000000006001600160a01b03163b156101fb57600097602095614486946040519d8e9a8b998a996327efc43f60e21b8b52013593309260048b01614081565b03917f00000000000000000000000000000000000000000000000000000000000000006001600160a01b03165af19081156104d8576001936144f9926144ff575b50517f0000000000000000000000000000000000000000000000000000000000000000906001600160a01b0316614e4b565b0161416f565b8061073961450c926108ea565b386144c7565b614523919450604086015190613241565b92386143b8565b61454d91965060403d604011614555575b614545818361096e565b810190613ff2565b50943861439c565b503d61453b565b925050506001946111d36145916060806145c79701519501515160405192839160208301919060206040840193600781520152565b610df1610dea8d60206145af6145a8828901611fc2565b9780612687565b91909201918251926145c084611f88565b90526126bc565b6144f9565b6145e691925060203d602011612b5e57612b50818361096e565b9038614262565b61460d9150823d8411614613575b614605818361096e565b810190613f06565b3861422e565b503d6145fb565b5095505050505050565b61463d915060203d60201161461357614605818361096e565b38614154565b600091908290815b815185101561468e5761465e8583611fcc565b518084915b61467c57508101809111611f765760019094019361464b565b60019091019060001981011680614663565b93505050565b6020818303126101fb578051906001600160401b0382116101fb57019080601f830112156101fb578151610a8b92602001612b87565b6009546146df906001600160a01b03166150ce565b906146f582519260208080958301019101614694565b60005b82518110156147c55760608461470e8386611fcc565b5101510151468103614724575b506001016146f8565b92909493600094855b84518110156147ba576147408186611fcc565b515186146147505760010161472d565b909692949195506147986147798761476a60019488611fcc565b5101516001600160a01b031690565b8780614785878a611fcc565b5101516001600160a01b03909216910152565b61471b5760405163132b474b60e31b81526004810191909152602490fd5b0390fd5b509591939094614798565b50505050565b8015614960576007811690811561480a57508060021461480457806004146147fe576006146147f957600090565b600190565b50600290565b50600190565b809150600082156104e1575060ff916001600160801b0381161515806001146149535715614948575b506001600160401b03811615158060011461493c5715614934575b63ffffffff81161515806001146149285715614920575b61ffff8116151580600114614914571561490c575b60ff811615158060011461490057156148f8575b600f81161515806001146148ec57156148e4575b600381161515806001146148d65760019190156148ce575b1615156001146148c75790565b6000190190565b60021c6148ba565b5090600190811901916148ba565b60041c6148a2565b509060031901906148a2565b60081c61488e565b5090600719019061488e565b60101c61487a565b5090600f19019061487a565b60201c614865565b5090601f190190614865565b60401c61484e565b5090603f19019061484e565b905060801c38614833565b50509050607f9038614833565b5061010090565b811c8015614b0157600781169081156149a95750806002146149a2578060041461499b576006146149955790565b60010190565b5060020190565b5060010190565b809150600082156104e1575060ff916001600160801b038116151580600114614af45715614ae9575b506001600160401b038116151580600114614add5715614ad5575b63ffffffff8116151580600114614ac95715614ac1575b61ffff8116151580600114614ab55715614aad575b60ff8116151580600114614aa15715614a99575b600f8116151580600114614a8d5715614a85575b60038116151580600114614a77576001919015614a6f575b161515600114614a67570190565b600019010190565b60021c614a59565b509060019081190191614a59565b60041c614a41565b50906003190190614a41565b60081c614a2d565b50906007190190614a2d565b60101c614a19565b5090600f190190614a19565b60201c614a04565b5090601f190190614a04565b60401c6149ed565b5090603f1901906149ed565b905060801c386149d2565b50509050607f90386149d2565b505061010090565b8215614b9c576001600160a01b03818116614b4857505060008080614b309481945af11590565b614b3657565b604051633d2cec6f60e21b8152600490fd5b60209260008093614b84966044946040519463a9059cbb60e01b865216600485015260248401525af1600051600114601f3d11163d1517161590565b614b8a57565b604051633c9fd93960e21b8152600490fd5b505050565b60405190614bae82610938565b6000604083828152606060208201520152565b90614bcb82611eb9565b604090614bdb604051918261096e565b8381528093614bec601f1991611eb9565b019160009160005b848110614c02575050505050565b6020908351614c108161091d565b606080825286849180838501528188850152830152828501015201614bf4565b908160209103126101fb5751610a8b8161383f565b6040519060008260075491614c598361089a565b80835292602090600190818116908115614ce55750600114614c84575b505061058e9250038361096e565b91509260076000527fa66cc928b5edb82af9bd49922954155ab7b0942694bea4ce44661d9a8736c688936000925b828410614ccd575061058e9450505081016020013880614c76565b85548885018301529485019487945092810192614cb2565b9150506020925061058e94915060ff191682840152151560051b8201013880614c76565b60405190614d1682610938565b6040516006548391600081614d2a8461089a565b9182825260209460019086600182169182600014614dd1575050600114614d74575b50614d599250038261096e565b8252614d63614c45565b90820152604060ff60085416910152565b85915060066000527ff652222313e28459528d920b65115c16c04f3efc82aaedc97be59f3f377c0d3f906000915b858310614db9575050614d59935082010138614d4c565b80548388018501528694508793909201918101614da2565b60ff191685820152614d5995151560051b8501019250389150614d4c9050565b60405190600160f01b6020830152602282015260228152610a8b81610938565b919060405192600160f11b6020850152602284015260428301526001600160601b03199060601b16606282015260568152610a8b8161091d565b6001600160a01b039081168015614b9c57604051916000806020850163095ea7b360e01b938482528716602487015281604487015260448652614e8d8661091d565b85519082865af1614e9c613bbb565b81614f09575b5080614eff575b15614eb45750505050565b60405160208101919091526001600160a01b03909316602484015260006044840152614ef692614ef190614eeb81606481016111d3565b82615140565b615140565b388080806147c5565b50813b1515614ea9565b8051801592508215614f1e575b505038614ea2565b614f31925060208091830101910161512b565b3880614f16565b9091906001600160a01b039081169081156147c55760008060405194602086019063095ea7b360e01b9485835288166024880152604487015260448652614e8d8661091d565b8015611f76576000190190565b908151811015611fbd570160200190565b6000809160405160208101906306fdde0360e01b825260048152614fbf81610902565b51915afa90614fcc613bbb565b9115615048578151602081036150355750602082815b614fe95752565b9061501d615010615002614ffc84611f67565b85614f8b565b516001600160f81b03191690565b6001600160f81b03191690565b6150315761502a90614f7e565b9081614fe2565b9052565b91602080610a8b93948301019101613710565b6040516360d806dd60e11b8152600490fd5b6000809160405160208101906395d89b4160e01b82526004815261507d81610902565b51915afa9061508a613bbb565b9115615048578151602081036150355750602082815b6150a75752565b906150ba615010615002614ffc84611f67565b615031576150c790614f7e565b90816150a0565b90813b8015615115578060011161511557600019016001198082101561510e57505b600160405193601f19603f840116850160405282855260208501903c565b90506150f0565b50905060405161512481610953565b6000815290565b908160209103126101fb5751610a8b816122d3565b60405161519e916001600160a01b031661515982610902565b6000806020958685527f5361666545524332303a206c6f772d6c6576656c2063616c6c206661696c656487860152868151910182855af1615198613bbb565b91615226565b80519082821592831561520e575b505050156151b75750565b6084906040519062461bcd60e51b82526004820152602a60248201527f5361666545524332303a204552433230206f7065726174696f6e20646964206e6044820152691bdd081cdd58d8d9595960b21b6064820152fd5b61521e935082018101910161512b565b3882816151ac565b91929015615288575081511561523a575090565b3b156152435790565b60405162461bcd60e51b815260206004820152601d60248201527f416464726573733a2063616c6c20746f206e6f6e2d636f6e74726163740000006044820152606490fd5b82519091501561529b5750805190602001fd5b60405162461bcd60e51b8152602060048201529081906147b6906024830190610a5556","linkReferences":{}},"methodIdentifiers":{"broadcastOrders(uint256[],uint256[],((uint96,(address,address,address,uint256))[],uint128),bytes32[],(uint256[],uint96[])[],bytes)":"a6b8269a","broadcastReserveOrders(uint256[],uint256[],((uint96,(address,address,address,uint256))[],uint128)[],bytes)":"fe7b19d2","configure(address,address,address)":"55d28f20","currenciesUpdated((address[],bytes32))":"d6bfcd27","eIds(uint256)":"c4f7941d","finishRebalancing(((address,address,address,uint256)[],uint256[],uint256[]),(uint256[],(uint256[],uint256[]),(uint256[],uint96[]),uint256,address[]),((uint256,uint256,bytes),uint256)[],(bytes[],address))":"729c2040","forceResumeReceive(uint16,bytes)":"42d65a8d","getConfig(uint16,uint16,address,uint256)":"f5ecbdbc","lzEndpoint()":"b353aaa7","lzReceive(uint16,bytes,uint64,bytes)":"001d3567","minGasAmountForChain(uint16)":"2583c29c","owner()":"8da5cb5b","phutureOnConsumeCallbackV1(bytes)":"7a7c7348","poolIds(uint256)":"69883b4e","pushIncomingOrders(uint256,(uint256,address)[],uint256,address,uint256)":"18b8dac9","redeem((((uint256,uint256,bool,address,address),(uint16,bool),address,uint256[]),uint256,uint256,address,uint128,bytes,address),((uint256,address,bool,bytes[],uint256[])[],address[]),((uint256,uint256[]),(address,bytes[],uint256[],uint256)[],address,bytes))":"40abb264","retryRedeem((uint256,uint256,uint256[],((uint256,uint256,bool,address,address),(uint16,bool),address,uint256[]),((uint256,address,bool,bytes[],uint256[])[],address[]))[],(uint16,bytes[],bytes[])[],address,address)":"36aedbb6","setBridgingInfo((uint256,address)[])":"055f192c","setConfig(uint16,uint16,uint256,bytes)":"cbed8b9c","setHomeEid(uint16)":"c4f4b521","setLayerZeroConfig((uint256,uint256[]))":"898c1a7b","setOrderBook(address)":"9a1598c8","setReceiveVersion(uint16)":"10ddb137","setSendVersion(uint16)":"07e0db17","setTrustedRemote(uint256,uint16,uint256,bytes,(uint128,uint128))":"314012d1","sgReceive(uint16,bytes,uint256,address,uint256,bytes)":"ab8236f3","transferOwnership(address)":"f2fde38b","trustedRemotes(uint16)":"2b5d23d2","withdrawCurrency(address,address,uint256)":"d699e0af"},"id":51}